{
	".deps/contracts/ShippingManagement.sol": {
		"ShippingManagement": {
			"abi": [
				{
					"anonymous": false,
					"inputs": [
						{
							"indexed": true,
							"internalType": "uint256",
							"name": "shipmentId",
							"type": "uint256"
						},
						{
							"indexed": true,
							"internalType": "uint256",
							"name": "productId",
							"type": "uint256"
						},
						{
							"indexed": false,
							"internalType": "string",
							"name": "origin",
							"type": "string"
						},
						{
							"indexed": false,
							"internalType": "string",
							"name": "destination",
							"type": "string"
						},
						{
							"indexed": false,
							"internalType": "uint256",
							"name": "departureDate",
							"type": "uint256"
						},
						{
							"indexed": false,
							"internalType": "uint256",
							"name": "expectedArrivalDate",
							"type": "uint256"
						},
						{
							"indexed": false,
							"internalType": "enum ShippingManagement.Position",
							"name": "status",
							"type": "uint8"
						}
					],
					"name": "ShipmentAdded",
					"type": "event"
				},
				{
					"anonymous": false,
					"inputs": [
						{
							"indexed": true,
							"internalType": "uint256",
							"name": "shipmentId",
							"type": "uint256"
						}
					],
					"name": "ShipmentRemoved",
					"type": "event"
				},
				{
					"anonymous": false,
					"inputs": [
						{
							"indexed": true,
							"internalType": "uint256",
							"name": "shipmentId",
							"type": "uint256"
						},
						{
							"indexed": false,
							"internalType": "string",
							"name": "newDestination",
							"type": "string"
						},
						{
							"indexed": false,
							"internalType": "uint256",
							"name": "newDepartureDate",
							"type": "uint256"
						},
						{
							"indexed": false,
							"internalType": "uint256",
							"name": "newExpectedArrivalDate",
							"type": "uint256"
						},
						{
							"indexed": false,
							"internalType": "enum ShippingManagement.Position",
							"name": "newStatus",
							"type": "uint8"
						}
					],
					"name": "ShipmentUpdated",
					"type": "event"
				},
				{
					"inputs": [
						{
							"internalType": "uint256",
							"name": "_shipmentId",
							"type": "uint256"
						},
						{
							"internalType": "uint256",
							"name": "_productId",
							"type": "uint256"
						},
						{
							"internalType": "string",
							"name": "_origin",
							"type": "string"
						},
						{
							"internalType": "string",
							"name": "_destination",
							"type": "string"
						},
						{
							"internalType": "uint256",
							"name": "_departureDate",
							"type": "uint256"
						},
						{
							"internalType": "uint256",
							"name": "_expectedArrivalDate",
							"type": "uint256"
						},
						{
							"internalType": "enum ShippingManagement.Position",
							"name": "_status",
							"type": "uint8"
						}
					],
					"name": "addShipment",
					"outputs": [],
					"stateMutability": "nonpayable",
					"type": "function"
				},
				{
					"inputs": [
						{
							"internalType": "uint256",
							"name": "_shipmentId",
							"type": "uint256"
						}
					],
					"name": "getShipment",
					"outputs": [
						{
							"internalType": "uint256",
							"name": "",
							"type": "uint256"
						},
						{
							"internalType": "string",
							"name": "",
							"type": "string"
						},
						{
							"internalType": "string",
							"name": "",
							"type": "string"
						},
						{
							"internalType": "uint256",
							"name": "",
							"type": "uint256"
						},
						{
							"internalType": "uint256",
							"name": "",
							"type": "uint256"
						},
						{
							"internalType": "enum ShippingManagement.Position",
							"name": "",
							"type": "uint8"
						}
					],
					"stateMutability": "view",
					"type": "function"
				},
				{
					"inputs": [
						{
							"internalType": "uint256",
							"name": "_shipmentId",
							"type": "uint256"
						}
					],
					"name": "removeShipment",
					"outputs": [],
					"stateMutability": "nonpayable",
					"type": "function"
				},
				{
					"inputs": [],
					"name": "shipmentCount",
					"outputs": [
						{
							"internalType": "uint256",
							"name": "",
							"type": "uint256"
						}
					],
					"stateMutability": "view",
					"type": "function"
				},
				{
					"inputs": [
						{
							"internalType": "uint256",
							"name": "",
							"type": "uint256"
						}
					],
					"name": "shipments",
					"outputs": [
						{
							"internalType": "uint256",
							"name": "productId",
							"type": "uint256"
						},
						{
							"internalType": "string",
							"name": "origin",
							"type": "string"
						},
						{
							"internalType": "string",
							"name": "destination",
							"type": "string"
						},
						{
							"internalType": "uint256",
							"name": "departureDate",
							"type": "uint256"
						},
						{
							"internalType": "uint256",
							"name": "expectedArrivalDate",
							"type": "uint256"
						},
						{
							"internalType": "enum ShippingManagement.Position",
							"name": "status",
							"type": "uint8"
						}
					],
					"stateMutability": "view",
					"type": "function"
				},
				{
					"inputs": [
						{
							"internalType": "uint256",
							"name": "_shipmentId",
							"type": "uint256"
						},
						{
							"internalType": "string",
							"name": "_newDestination",
							"type": "string"
						},
						{
							"internalType": "uint256",
							"name": "_newDepartureDate",
							"type": "uint256"
						},
						{
							"internalType": "uint256",
							"name": "_newExpectedArrivalDate",
							"type": "uint256"
						},
						{
							"internalType": "enum ShippingManagement.Position",
							"name": "_newStatus",
							"type": "uint8"
						}
					],
					"name": "updateShipment",
					"outputs": [],
					"stateMutability": "nonpayable",
					"type": "function"
				}
			],
			"devdoc": {
				"kind": "dev",
				"methods": {},
				"version": 1
			},
			"evm": {
				"assembly": "    /* \".deps/contracts/ShippingManagement.sol\":57:3705  contract ShippingManagement{... */\n  mstore(0x40, 0x80)\n    /* \".deps/contracts/ShippingManagement.sol\":470:471  0 */\n  0x00\n    /* \".deps/contracts/ShippingManagement.sol\":439:471  uint256 public shipmentCount = 0 */\n  0x01\n  sstore\n    /* \".deps/contracts/ShippingManagement.sol\":57:3705  contract ShippingManagement{... */\n  callvalue\n  dup1\n  iszero\n  tag_1\n  jumpi\n  0x00\n  dup1\n  revert\ntag_1:\n  pop\n  dataSize(sub_0)\n  dup1\n  dataOffset(sub_0)\n  0x00\n  codecopy\n  0x00\n  return\nstop\n\nsub_0: assembly {\n        /* \".deps/contracts/ShippingManagement.sol\":57:3705  contract ShippingManagement{... */\n      mstore(0x40, 0x80)\n      callvalue\n      dup1\n      iszero\n      tag_1\n      jumpi\n      0x00\n      dup1\n      revert\n    tag_1:\n      pop\n      jumpi(tag_2, lt(calldatasize, 0x04))\n      shr(0xe0, calldataload(0x00))\n      dup1\n      0x092b3740\n      eq\n      tag_3\n      jumpi\n      dup1\n      0x1c6ea48e\n      eq\n      tag_4\n      jumpi\n      dup1\n      0x2ac08a93\n      eq\n      tag_5\n      jumpi\n      dup1\n      0x959f9272\n      eq\n      tag_6\n      jumpi\n      dup1\n      0xa5bd537f\n      eq\n      tag_7\n      jumpi\n      dup1\n      0xaace20b7\n      eq\n      tag_8\n      jumpi\n    tag_2:\n      0x00\n      dup1\n      revert\n        /* \".deps/contracts/ShippingManagement.sol\":3125:3703  function getShipment(uint256 _shipmentId) public view... */\n    tag_3:\n      tag_9\n      0x04\n      dup1\n      calldatasize\n      sub\n      dup2\n      add\n      swap1\n      tag_10\n      swap2\n      swap1\n      tag_11\n      jump\t// in\n    tag_10:\n      tag_12\n      jump\t// in\n    tag_9:\n      mload(0x40)\n      tag_13\n      swap7\n      swap6\n      swap5\n      swap4\n      swap3\n      swap2\n      swap1\n      tag_14\n      jump\t// in\n    tag_13:\n      mload(0x40)\n      dup1\n      swap2\n      sub\n      swap1\n      return\n        /* \".deps/contracts/ShippingManagement.sol\":1973:2764  function updateShipment(... */\n    tag_4:\n      tag_15\n      0x04\n      dup1\n      calldatasize\n      sub\n      dup2\n      add\n      swap1\n      tag_16\n      swap2\n      swap1\n      tag_17\n      jump\t// in\n    tag_16:\n      tag_18\n      jump\t// in\n    tag_15:\n      stop\n        /* \".deps/contracts/ShippingManagement.sol\":388:433  mapping(uint256 => Shipping) public shipments */\n    tag_5:\n      tag_19\n      0x04\n      dup1\n      calldatasize\n      sub\n      dup2\n      add\n      swap1\n      tag_20\n      swap2\n      swap1\n      tag_11\n      jump\t// in\n    tag_20:\n      tag_21\n      jump\t// in\n    tag_19:\n      mload(0x40)\n      tag_22\n      swap7\n      swap6\n      swap5\n      swap4\n      swap3\n      swap2\n      swap1\n      tag_14\n      jump\t// in\n    tag_22:\n      mload(0x40)\n      dup1\n      swap2\n      sub\n      swap1\n      return\n        /* \".deps/contracts/ShippingManagement.sol\":2795:3091  function removeShipment(uint256 _shipmentId) public {... */\n    tag_6:\n      tag_23\n      0x04\n      dup1\n      calldatasize\n      sub\n      dup2\n      add\n      swap1\n      tag_24\n      swap2\n      swap1\n      tag_11\n      jump\t// in\n    tag_24:\n      tag_25\n      jump\t// in\n    tag_23:\n      stop\n        /* \".deps/contracts/ShippingManagement.sol\":1048:1904  function addShipment(uint256 _shipmentId, uint256 _productId, string memory _origin, string memory _destination, uint256 _departureDate, uint256 _expectedArrivalDate, Position _status) public {... */\n    tag_7:\n      tag_26\n      0x04\n      dup1\n      calldatasize\n      sub\n      dup2\n      add\n      swap1\n      tag_27\n      swap2\n      swap1\n      tag_28\n      jump\t// in\n    tag_27:\n      tag_29\n      jump\t// in\n    tag_26:\n      stop\n        /* \".deps/contracts/ShippingManagement.sol\":439:471  uint256 public shipmentCount = 0 */\n    tag_8:\n      tag_30\n      tag_31\n      jump\t// in\n    tag_30:\n      mload(0x40)\n      tag_32\n      swap2\n      swap1\n      tag_33\n      jump\t// in\n    tag_32:\n      mload(0x40)\n      dup1\n      swap2\n      sub\n      swap1\n      return\n        /* \".deps/contracts/ShippingManagement.sol\":3125:3703  function getShipment(uint256 _shipmentId) public view... */\n    tag_12:\n        /* \".deps/contracts/ShippingManagement.sol\":3196:3203  uint256 */\n      0x00\n        /* \".deps/contracts/ShippingManagement.sol\":3205:3218  string memory */\n      0x60\n        /* \".deps/contracts/ShippingManagement.sol\":3220:3233  string memory */\n      dup1\n        /* \".deps/contracts/ShippingManagement.sol\":3235:3242  uint256 */\n      0x00\n        /* \".deps/contracts/ShippingManagement.sol\":3244:3251  uint256 */\n      dup1\n        /* \".deps/contracts/ShippingManagement.sol\":3253:3261  Position */\n      0x00\n        /* \".deps/contracts/ShippingManagement.sol\":3349:3350  0 */\n      dup1\n        /* \".deps/contracts/ShippingManagement.sol\":3308:3317  shipments */\n      0x00\n        /* \".deps/contracts/ShippingManagement.sol\":3308:3330  shipments[_shipmentId] */\n      dup1\n        /* \".deps/contracts/ShippingManagement.sol\":3318:3329  _shipmentId */\n      dup10\n        /* \".deps/contracts/ShippingManagement.sol\":3308:3330  shipments[_shipmentId] */\n      dup2\n      mstore\n      0x20\n      add\n      swap1\n      dup2\n      mstore\n      0x20\n      add\n      0x00\n      keccak256\n        /* \".deps/contracts/ShippingManagement.sol\":3308:3337  shipments[_shipmentId].origin */\n      0x01\n      add\n        /* \".deps/contracts/ShippingManagement.sol\":3302:3345  bytes(shipments[_shipmentId].origin).length */\n      dup1\n      sload\n      tag_35\n      swap1\n      tag_36\n      jump\t// in\n    tag_35:\n      swap1\n      pop\n        /* \".deps/contracts/ShippingManagement.sol\":3302:3350  bytes(shipments[_shipmentId].origin).length != 0 */\n      sub\n        /* \".deps/contracts/ShippingManagement.sol\":3277:3407  require(... */\n      tag_37\n      jumpi\n      mload(0x40)\n      0x08c379a000000000000000000000000000000000000000000000000000000000\n      dup2\n      mstore\n      0x04\n      add\n      tag_38\n      swap1\n      tag_39\n      jump\t// in\n    tag_38:\n      mload(0x40)\n      dup1\n      swap2\n      sub\n      swap1\n      revert\n    tag_37:\n        /* \".deps/contracts/ShippingManagement.sol\":3418:3442  Shipping memory shipment */\n      0x00\n        /* \".deps/contracts/ShippingManagement.sol\":3445:3454  shipments */\n      dup1\n        /* \".deps/contracts/ShippingManagement.sol\":3445:3467  shipments[_shipmentId] */\n      0x00\n        /* \".deps/contracts/ShippingManagement.sol\":3455:3466  _shipmentId */\n      dup10\n        /* \".deps/contracts/ShippingManagement.sol\":3445:3467  shipments[_shipmentId] */\n      dup2\n      mstore\n      0x20\n      add\n      swap1\n      dup2\n      mstore\n      0x20\n      add\n      0x00\n      keccak256\n        /* \".deps/contracts/ShippingManagement.sol\":3418:3467  Shipping memory shipment = shipments[_shipmentId] */\n      mload(0x40)\n      dup1\n      0xc0\n      add\n      0x40\n      mstore\n      swap1\n      dup2\n      0x00\n      dup3\n      add\n      sload\n      dup2\n      mstore\n      0x20\n      add\n      0x01\n      dup3\n      add\n      dup1\n      sload\n      tag_40\n      swap1\n      tag_36\n      jump\t// in\n    tag_40:\n      dup1\n      0x1f\n      add\n      0x20\n      dup1\n      swap2\n      div\n      mul\n      0x20\n      add\n      mload(0x40)\n      swap1\n      dup2\n      add\n      0x40\n      mstore\n      dup1\n      swap3\n      swap2\n      swap1\n      dup2\n      dup2\n      mstore\n      0x20\n      add\n      dup3\n      dup1\n      sload\n      tag_41\n      swap1\n      tag_36\n      jump\t// in\n    tag_41:\n      dup1\n      iszero\n      tag_42\n      jumpi\n      dup1\n      0x1f\n      lt\n      tag_43\n      jumpi\n      0x0100\n      dup1\n      dup4\n      sload\n      div\n      mul\n      dup4\n      mstore\n      swap2\n      0x20\n      add\n      swap2\n      jump(tag_42)\n    tag_43:\n      dup3\n      add\n      swap2\n      swap1\n      0x00\n      mstore\n      keccak256(0x00, 0x20)\n      swap1\n    tag_44:\n      dup2\n      sload\n      dup2\n      mstore\n      swap1\n      0x01\n      add\n      swap1\n      0x20\n      add\n      dup1\n      dup4\n      gt\n      tag_44\n      jumpi\n      dup3\n      swap1\n      sub\n      0x1f\n      and\n      dup3\n      add\n      swap2\n    tag_42:\n      pop\n      pop\n      pop\n      pop\n      pop\n      dup2\n      mstore\n      0x20\n      add\n      0x02\n      dup3\n      add\n      dup1\n      sload\n      tag_45\n      swap1\n      tag_36\n      jump\t// in\n    tag_45:\n      dup1\n      0x1f\n      add\n      0x20\n      dup1\n      swap2\n      div\n      mul\n      0x20\n      add\n      mload(0x40)\n      swap1\n      dup2\n      add\n      0x40\n      mstore\n      dup1\n      swap3\n      swap2\n      swap1\n      dup2\n      dup2\n      mstore\n      0x20\n      add\n      dup3\n      dup1\n      sload\n      tag_46\n      swap1\n      tag_36\n      jump\t// in\n    tag_46:\n      dup1\n      iszero\n      tag_47\n      jumpi\n      dup1\n      0x1f\n      lt\n      tag_48\n      jumpi\n      0x0100\n      dup1\n      dup4\n      sload\n      div\n      mul\n      dup4\n      mstore\n      swap2\n      0x20\n      add\n      swap2\n      jump(tag_47)\n    tag_48:\n      dup3\n      add\n      swap2\n      swap1\n      0x00\n      mstore\n      keccak256(0x00, 0x20)\n      swap1\n    tag_49:\n      dup2\n      sload\n      dup2\n      mstore\n      swap1\n      0x01\n      add\n      swap1\n      0x20\n      add\n      dup1\n      dup4\n      gt\n      tag_49\n      jumpi\n      dup3\n      swap1\n      sub\n      0x1f\n      and\n      dup3\n      add\n      swap2\n    tag_47:\n      pop\n      pop\n      pop\n      pop\n      pop\n      dup2\n      mstore\n      0x20\n      add\n      0x03\n      dup3\n      add\n      sload\n      dup2\n      mstore\n      0x20\n      add\n      0x04\n      dup3\n      add\n      sload\n      dup2\n      mstore\n      0x20\n      add\n      0x05\n      dup3\n      add\n      0x00\n      swap1\n      sload\n      swap1\n      0x0100\n      exp\n      swap1\n      div\n      0xff\n      and\n      0x05\n      dup2\n      gt\n      iszero\n      tag_50\n      jumpi\n      tag_51\n      tag_52\n      jump\t// in\n    tag_51:\n    tag_50:\n      0x05\n      dup2\n      gt\n      iszero\n      tag_53\n      jumpi\n      tag_54\n      tag_52\n      jump\t// in\n    tag_54:\n    tag_53:\n      dup2\n      mstore\n      pop\n      pop\n      swap1\n      pop\n        /* \".deps/contracts/ShippingManagement.sol\":3498:3506  shipment */\n      dup1\n        /* \".deps/contracts/ShippingManagement.sol\":3498:3516  shipment.productId */\n      0x00\n      add\n      mload\n        /* \".deps/contracts/ShippingManagement.sol\":3530:3538  shipment */\n      dup2\n        /* \".deps/contracts/ShippingManagement.sol\":3530:3545  shipment.origin */\n      0x20\n      add\n      mload\n        /* \".deps/contracts/ShippingManagement.sol\":3559:3567  shipment */\n      dup3\n        /* \".deps/contracts/ShippingManagement.sol\":3559:3579  shipment.destination */\n      0x40\n      add\n      mload\n        /* \".deps/contracts/ShippingManagement.sol\":3593:3601  shipment */\n      dup4\n        /* \".deps/contracts/ShippingManagement.sol\":3593:3615  shipment.departureDate */\n      0x60\n      add\n      mload\n        /* \".deps/contracts/ShippingManagement.sol\":3629:3637  shipment */\n      dup5\n        /* \".deps/contracts/ShippingManagement.sol\":3629:3657  shipment.expectedArrivalDate */\n      0x80\n      add\n      mload\n        /* \".deps/contracts/ShippingManagement.sol\":3671:3679  shipment */\n      dup6\n        /* \".deps/contracts/ShippingManagement.sol\":3671:3686  shipment.status */\n      0xa0\n      add\n      mload\n        /* \".deps/contracts/ShippingManagement.sol\":3477:3696  return (... */\n      swap7\n      pop\n      swap7\n      pop\n      swap7\n      pop\n      swap7\n      pop\n      swap7\n      pop\n      swap7\n      pop\n      pop\n        /* \".deps/contracts/ShippingManagement.sol\":3125:3703  function getShipment(uint256 _shipmentId) public view... */\n      swap2\n      swap4\n      swap6\n      pop\n      swap2\n      swap4\n      swap6\n      jump\t// out\n        /* \".deps/contracts/ShippingManagement.sol\":1973:2764  function updateShipment(... */\n    tag_18:\n        /* \".deps/contracts/ShippingManagement.sol\":2261:2262  0 */\n      0x00\n        /* \".deps/contracts/ShippingManagement.sol\":2220:2229  shipments */\n      dup1\n        /* \".deps/contracts/ShippingManagement.sol\":2220:2242  shipments[_shipmentId] */\n      0x00\n        /* \".deps/contracts/ShippingManagement.sol\":2230:2241  _shipmentId */\n      dup8\n        /* \".deps/contracts/ShippingManagement.sol\":2220:2242  shipments[_shipmentId] */\n      dup2\n      mstore\n      0x20\n      add\n      swap1\n      dup2\n      mstore\n      0x20\n      add\n      0x00\n      keccak256\n        /* \".deps/contracts/ShippingManagement.sol\":2220:2249  shipments[_shipmentId].origin */\n      0x01\n      add\n        /* \".deps/contracts/ShippingManagement.sol\":2214:2257  bytes(shipments[_shipmentId].origin).length */\n      dup1\n      sload\n      tag_56\n      swap1\n      tag_36\n      jump\t// in\n    tag_56:\n      swap1\n      pop\n        /* \".deps/contracts/ShippingManagement.sol\":2214:2262  bytes(shipments[_shipmentId].origin).length != 0 */\n      sub\n        /* \".deps/contracts/ShippingManagement.sol\":2193:2311  require(... */\n      tag_57\n      jumpi\n      mload(0x40)\n      0x08c379a000000000000000000000000000000000000000000000000000000000\n      dup2\n      mstore\n      0x04\n      add\n      tag_58\n      swap1\n      tag_39\n      jump\t// in\n    tag_58:\n      mload(0x40)\n      dup1\n      swap2\n      sub\n      swap1\n      revert\n    tag_57:\n        /* \".deps/contracts/ShippingManagement.sol\":2359:2374  _newDestination */\n      dup4\n        /* \".deps/contracts/ShippingManagement.sol\":2322:2331  shipments */\n      0x00\n        /* \".deps/contracts/ShippingManagement.sol\":2322:2344  shipments[_shipmentId] */\n      dup1\n        /* \".deps/contracts/ShippingManagement.sol\":2332:2343  _shipmentId */\n      dup8\n        /* \".deps/contracts/ShippingManagement.sol\":2322:2344  shipments[_shipmentId] */\n      dup2\n      mstore\n      0x20\n      add\n      swap1\n      dup2\n      mstore\n      0x20\n      add\n      0x00\n      keccak256\n        /* \".deps/contracts/ShippingManagement.sol\":2322:2356  shipments[_shipmentId].destination */\n      0x02\n      add\n        /* \".deps/contracts/ShippingManagement.sol\":2322:2374  shipments[_shipmentId].destination = _newDestination */\n      swap1\n      dup2\n      tag_59\n      swap2\n      swap1\n      tag_60\n      jump\t// in\n    tag_59:\n      pop\n        /* \".deps/contracts/ShippingManagement.sol\":2423:2440  _newDepartureDate */\n      dup3\n        /* \".deps/contracts/ShippingManagement.sol\":2384:2393  shipments */\n      0x00\n        /* \".deps/contracts/ShippingManagement.sol\":2384:2406  shipments[_shipmentId] */\n      dup1\n        /* \".deps/contracts/ShippingManagement.sol\":2394:2405  _shipmentId */\n      dup8\n        /* \".deps/contracts/ShippingManagement.sol\":2384:2406  shipments[_shipmentId] */\n      dup2\n      mstore\n      0x20\n      add\n      swap1\n      dup2\n      mstore\n      0x20\n      add\n      0x00\n      keccak256\n        /* \".deps/contracts/ShippingManagement.sol\":2384:2420  shipments[_shipmentId].departureDate */\n      0x03\n      add\n        /* \".deps/contracts/ShippingManagement.sol\":2384:2440  shipments[_shipmentId].departureDate = _newDepartureDate */\n      dup2\n      swap1\n      sstore\n      pop\n        /* \".deps/contracts/ShippingManagement.sol\":2495:2518  _newExpectedArrivalDate */\n      dup2\n        /* \".deps/contracts/ShippingManagement.sol\":2450:2459  shipments */\n      0x00\n        /* \".deps/contracts/ShippingManagement.sol\":2450:2472  shipments[_shipmentId] */\n      dup1\n        /* \".deps/contracts/ShippingManagement.sol\":2460:2471  _shipmentId */\n      dup8\n        /* \".deps/contracts/ShippingManagement.sol\":2450:2472  shipments[_shipmentId] */\n      dup2\n      mstore\n      0x20\n      add\n      swap1\n      dup2\n      mstore\n      0x20\n      add\n      0x00\n      keccak256\n        /* \".deps/contracts/ShippingManagement.sol\":2450:2492  shipments[_shipmentId].expectedArrivalDate */\n      0x04\n      add\n        /* \".deps/contracts/ShippingManagement.sol\":2450:2518  shipments[_shipmentId].expectedArrivalDate = _newExpectedArrivalDate */\n      dup2\n      swap1\n      sstore\n      pop\n        /* \".deps/contracts/ShippingManagement.sol\":2560:2570  _newStatus */\n      dup1\n        /* \".deps/contracts/ShippingManagement.sol\":2528:2537  shipments */\n      0x00\n        /* \".deps/contracts/ShippingManagement.sol\":2528:2550  shipments[_shipmentId] */\n      dup1\n        /* \".deps/contracts/ShippingManagement.sol\":2538:2549  _shipmentId */\n      dup8\n        /* \".deps/contracts/ShippingManagement.sol\":2528:2550  shipments[_shipmentId] */\n      dup2\n      mstore\n      0x20\n      add\n      swap1\n      dup2\n      mstore\n      0x20\n      add\n      0x00\n      keccak256\n        /* \".deps/contracts/ShippingManagement.sol\":2528:2557  shipments[_shipmentId].status */\n      0x05\n      add\n      0x00\n        /* \".deps/contracts/ShippingManagement.sol\":2528:2570  shipments[_shipmentId].status = _newStatus */\n      0x0100\n      exp\n      dup2\n      sload\n      dup2\n      0xff\n      mul\n      not\n      and\n      swap1\n      dup4\n      0x05\n      dup2\n      gt\n      iszero\n      tag_61\n      jumpi\n      tag_62\n      tag_52\n      jump\t// in\n    tag_62:\n    tag_61:\n      mul\n      or\n      swap1\n      sstore\n      pop\n        /* \".deps/contracts/ShippingManagement.sol\":2615:2626  _shipmentId */\n      dup5\n        /* \".deps/contracts/ShippingManagement.sol\":2586:2757  ShipmentUpdated(... */\n      0x2302c855863721c54bac4c0f553dd77e28ef97cbf1d7d4594753e8fcdbcdb9a2\n        /* \".deps/contracts/ShippingManagement.sol\":2640:2655  _newDestination */\n      dup6\n        /* \".deps/contracts/ShippingManagement.sol\":2669:2686  _newDepartureDate */\n      dup6\n        /* \".deps/contracts/ShippingManagement.sol\":2700:2723  _newExpectedArrivalDate */\n      dup6\n        /* \".deps/contracts/ShippingManagement.sol\":2737:2747  _newStatus */\n      dup6\n        /* \".deps/contracts/ShippingManagement.sol\":2586:2757  ShipmentUpdated(... */\n      mload(0x40)\n      tag_63\n      swap5\n      swap4\n      swap3\n      swap2\n      swap1\n      tag_64\n      jump\t// in\n    tag_63:\n      mload(0x40)\n      dup1\n      swap2\n      sub\n      swap1\n      log2\n        /* \".deps/contracts/ShippingManagement.sol\":1973:2764  function updateShipment(... */\n      pop\n      pop\n      pop\n      pop\n      pop\n      jump\t// out\n        /* \".deps/contracts/ShippingManagement.sol\":388:433  mapping(uint256 => Shipping) public shipments */\n    tag_21:\n      mstore(0x20, 0x00)\n      dup1\n      0x00\n      mstore\n      keccak256(0x00, 0x40)\n      0x00\n      swap2\n      pop\n      swap1\n      pop\n      dup1\n      0x00\n      add\n      sload\n      swap1\n      dup1\n      0x01\n      add\n      dup1\n      sload\n      tag_65\n      swap1\n      tag_36\n      jump\t// in\n    tag_65:\n      dup1\n      0x1f\n      add\n      0x20\n      dup1\n      swap2\n      div\n      mul\n      0x20\n      add\n      mload(0x40)\n      swap1\n      dup2\n      add\n      0x40\n      mstore\n      dup1\n      swap3\n      swap2\n      swap1\n      dup2\n      dup2\n      mstore\n      0x20\n      add\n      dup3\n      dup1\n      sload\n      tag_66\n      swap1\n      tag_36\n      jump\t// in\n    tag_66:\n      dup1\n      iszero\n      tag_67\n      jumpi\n      dup1\n      0x1f\n      lt\n      tag_68\n      jumpi\n      0x0100\n      dup1\n      dup4\n      sload\n      div\n      mul\n      dup4\n      mstore\n      swap2\n      0x20\n      add\n      swap2\n      jump(tag_67)\n    tag_68:\n      dup3\n      add\n      swap2\n      swap1\n      0x00\n      mstore\n      keccak256(0x00, 0x20)\n      swap1\n    tag_69:\n      dup2\n      sload\n      dup2\n      mstore\n      swap1\n      0x01\n      add\n      swap1\n      0x20\n      add\n      dup1\n      dup4\n      gt\n      tag_69\n      jumpi\n      dup3\n      swap1\n      sub\n      0x1f\n      and\n      dup3\n      add\n      swap2\n    tag_67:\n      pop\n      pop\n      pop\n      pop\n      pop\n      swap1\n      dup1\n      0x02\n      add\n      dup1\n      sload\n      tag_70\n      swap1\n      tag_36\n      jump\t// in\n    tag_70:\n      dup1\n      0x1f\n      add\n      0x20\n      dup1\n      swap2\n      div\n      mul\n      0x20\n      add\n      mload(0x40)\n      swap1\n      dup2\n      add\n      0x40\n      mstore\n      dup1\n      swap3\n      swap2\n      swap1\n      dup2\n      dup2\n      mstore\n      0x20\n      add\n      dup3\n      dup1\n      sload\n      tag_71\n      swap1\n      tag_36\n      jump\t// in\n    tag_71:\n      dup1\n      iszero\n      tag_72\n      jumpi\n      dup1\n      0x1f\n      lt\n      tag_73\n      jumpi\n      0x0100\n      dup1\n      dup4\n      sload\n      div\n      mul\n      dup4\n      mstore\n      swap2\n      0x20\n      add\n      swap2\n      jump(tag_72)\n    tag_73:\n      dup3\n      add\n      swap2\n      swap1\n      0x00\n      mstore\n      keccak256(0x00, 0x20)\n      swap1\n    tag_74:\n      dup2\n      sload\n      dup2\n      mstore\n      swap1\n      0x01\n      add\n      swap1\n      0x20\n      add\n      dup1\n      dup4\n      gt\n      tag_74\n      jumpi\n      dup3\n      swap1\n      sub\n      0x1f\n      and\n      dup3\n      add\n      swap2\n    tag_72:\n      pop\n      pop\n      pop\n      pop\n      pop\n      swap1\n      dup1\n      0x03\n      add\n      sload\n      swap1\n      dup1\n      0x04\n      add\n      sload\n      swap1\n      dup1\n      0x05\n      add\n      0x00\n      swap1\n      sload\n      swap1\n      0x0100\n      exp\n      swap1\n      div\n      0xff\n      and\n      swap1\n      pop\n      dup7\n      jump\t// out\n        /* \".deps/contracts/ShippingManagement.sol\":2795:3091  function removeShipment(uint256 _shipmentId) public {... */\n    tag_25:\n        /* \".deps/contracts/ShippingManagement.sol\":2925:2926  0 */\n      0x00\n        /* \".deps/contracts/ShippingManagement.sol\":2884:2893  shipments */\n      dup1\n        /* \".deps/contracts/ShippingManagement.sol\":2884:2906  shipments[_shipmentId] */\n      0x00\n        /* \".deps/contracts/ShippingManagement.sol\":2894:2905  _shipmentId */\n      dup4\n        /* \".deps/contracts/ShippingManagement.sol\":2884:2906  shipments[_shipmentId] */\n      dup2\n      mstore\n      0x20\n      add\n      swap1\n      dup2\n      mstore\n      0x20\n      add\n      0x00\n      keccak256\n        /* \".deps/contracts/ShippingManagement.sol\":2884:2913  shipments[_shipmentId].origin */\n      0x01\n      add\n        /* \".deps/contracts/ShippingManagement.sol\":2878:2921  bytes(shipments[_shipmentId].origin).length */\n      dup1\n      sload\n      tag_76\n      swap1\n      tag_36\n      jump\t// in\n    tag_76:\n      swap1\n      pop\n        /* \".deps/contracts/ShippingManagement.sol\":2878:2926  bytes(shipments[_shipmentId].origin).length != 0 */\n      sub\n        /* \".deps/contracts/ShippingManagement.sol\":2857:2975  require(... */\n      tag_77\n      jumpi\n      mload(0x40)\n      0x08c379a000000000000000000000000000000000000000000000000000000000\n      dup2\n      mstore\n      0x04\n      add\n      tag_78\n      swap1\n      tag_39\n      jump\t// in\n    tag_78:\n      mload(0x40)\n      dup1\n      swap2\n      sub\n      swap1\n      revert\n    tag_77:\n        /* \".deps/contracts/ShippingManagement.sol\":2993:3002  shipments */\n      0x00\n        /* \".deps/contracts/ShippingManagement.sol\":2993:3015  shipments[_shipmentId] */\n      dup1\n        /* \".deps/contracts/ShippingManagement.sol\":3003:3014  _shipmentId */\n      dup3\n        /* \".deps/contracts/ShippingManagement.sol\":2993:3015  shipments[_shipmentId] */\n      dup2\n      mstore\n      0x20\n      add\n      swap1\n      dup2\n      mstore\n      0x20\n      add\n      0x00\n      keccak256\n      0x00\n        /* \".deps/contracts/ShippingManagement.sol\":2986:3015  delete shipments[_shipmentId] */\n      dup1\n      dup3\n      add\n      0x00\n      swap1\n      sstore\n      0x01\n      dup3\n      add\n      0x00\n      tag_79\n      swap2\n      swap1\n      tag_80\n      jump\t// in\n    tag_79:\n      0x02\n      dup3\n      add\n      0x00\n      tag_81\n      swap2\n      swap1\n      tag_80\n      jump\t// in\n    tag_81:\n      0x03\n      dup3\n      add\n      0x00\n      swap1\n      sstore\n      0x04\n      dup3\n      add\n      0x00\n      swap1\n      sstore\n      0x05\n      dup3\n      add\n      exp(0x0100, 0x00)\n      dup2\n      sload\n      swap1\n      0xff\n      mul\n      not\n      and\n      swap1\n      sstore\n      pop\n      pop\n        /* \".deps/contracts/ShippingManagement.sol\":3025:3038  shipmentCount */\n      0x01\n      0x00\n        /* \".deps/contracts/ShippingManagement.sol\":3025:3040  shipmentCount-- */\n      dup2\n      sload\n      dup1\n      swap3\n      swap2\n      swap1\n      tag_82\n      swap1\n      tag_83\n      jump\t// in\n    tag_82:\n      swap2\n      swap1\n      pop\n      sstore\n      pop\n        /* \".deps/contracts/ShippingManagement.sol\":3072:3083  _shipmentId */\n      dup1\n        /* \".deps/contracts/ShippingManagement.sol\":3056:3084  ShipmentRemoved(_shipmentId) */\n      0x66c891e51efb5e3de78f960a0177f968c9e0866811cde856de366b3c1c295eb5\n      mload(0x40)\n      mload(0x40)\n      dup1\n      swap2\n      sub\n      swap1\n      log2\n        /* \".deps/contracts/ShippingManagement.sol\":2795:3091  function removeShipment(uint256 _shipmentId) public {... */\n      pop\n      jump\t// out\n        /* \".deps/contracts/ShippingManagement.sol\":1048:1904  function addShipment(uint256 _shipmentId, uint256 _productId, string memory _origin, string memory _destination, uint256 _departureDate, uint256 _expectedArrivalDate, Position _status) public {... */\n    tag_29:\n        /* \".deps/contracts/ShippingManagement.sol\":1318:1319  0 */\n      0x00\n        /* \".deps/contracts/ShippingManagement.sol\":1277:1286  shipments */\n      dup1\n        /* \".deps/contracts/ShippingManagement.sol\":1277:1299  shipments[_shipmentId] */\n      0x00\n        /* \".deps/contracts/ShippingManagement.sol\":1287:1298  _shipmentId */\n      dup10\n        /* \".deps/contracts/ShippingManagement.sol\":1277:1299  shipments[_shipmentId] */\n      dup2\n      mstore\n      0x20\n      add\n      swap1\n      dup2\n      mstore\n      0x20\n      add\n      0x00\n      keccak256\n        /* \".deps/contracts/ShippingManagement.sol\":1277:1306  shipments[_shipmentId].origin */\n      0x01\n      add\n        /* \".deps/contracts/ShippingManagement.sol\":1271:1314  bytes(shipments[_shipmentId].origin).length */\n      dup1\n      sload\n      tag_85\n      swap1\n      tag_36\n      jump\t// in\n    tag_85:\n      swap1\n      pop\n        /* \".deps/contracts/ShippingManagement.sol\":1271:1319  bytes(shipments[_shipmentId].origin).length == 0 */\n      eq\n        /* \".deps/contracts/ShippingManagement.sol\":1250:1368  require(... */\n      tag_86\n      jumpi\n      mload(0x40)\n      0x08c379a000000000000000000000000000000000000000000000000000000000\n      dup2\n      mstore\n      0x04\n      add\n      tag_87\n      swap1\n      tag_88\n      jump\t// in\n    tag_87:\n      mload(0x40)\n      dup1\n      swap2\n      sub\n      swap1\n      revert\n    tag_86:\n        /* \".deps/contracts/ShippingManagement.sol\":1404:1654  Shipping({... */\n      mload(0x40)\n      dup1\n      0xc0\n      add\n      0x40\n      mstore\n      dup1\n        /* \".deps/contracts/ShippingManagement.sol\":1438:1448  _productId */\n      dup8\n        /* \".deps/contracts/ShippingManagement.sol\":1404:1654  Shipping({... */\n      dup2\n      mstore\n      0x20\n      add\n        /* \".deps/contracts/ShippingManagement.sol\":1470:1477  _origin */\n      dup7\n        /* \".deps/contracts/ShippingManagement.sol\":1404:1654  Shipping({... */\n      dup2\n      mstore\n      0x20\n      add\n        /* \".deps/contracts/ShippingManagement.sol\":1504:1516  _destination */\n      dup6\n        /* \".deps/contracts/ShippingManagement.sol\":1404:1654  Shipping({... */\n      dup2\n      mstore\n      0x20\n      add\n        /* \".deps/contracts/ShippingManagement.sol\":1545:1559  _departureDate */\n      dup5\n        /* \".deps/contracts/ShippingManagement.sol\":1404:1654  Shipping({... */\n      dup2\n      mstore\n      0x20\n      add\n        /* \".deps/contracts/ShippingManagement.sol\":1594:1614  _expectedArrivalDate */\n      dup4\n        /* \".deps/contracts/ShippingManagement.sol\":1404:1654  Shipping({... */\n      dup2\n      mstore\n      0x20\n      add\n        /* \".deps/contracts/ShippingManagement.sol\":1636:1643  _status */\n      dup3\n        /* \".deps/contracts/ShippingManagement.sol\":1404:1654  Shipping({... */\n      0x05\n      dup2\n      gt\n      iszero\n      tag_89\n      jumpi\n      tag_90\n      tag_52\n      jump\t// in\n    tag_90:\n    tag_89:\n      dup2\n      mstore\n      pop\n        /* \".deps/contracts/ShippingManagement.sol\":1379:1388  shipments */\n      0x00\n        /* \".deps/contracts/ShippingManagement.sol\":1379:1401  shipments[_shipmentId] */\n      dup1\n        /* \".deps/contracts/ShippingManagement.sol\":1389:1400  _shipmentId */\n      dup10\n        /* \".deps/contracts/ShippingManagement.sol\":1379:1401  shipments[_shipmentId] */\n      dup2\n      mstore\n      0x20\n      add\n      swap1\n      dup2\n      mstore\n      0x20\n      add\n      0x00\n      keccak256\n        /* \".deps/contracts/ShippingManagement.sol\":1379:1654  shipments[_shipmentId] = Shipping({... */\n      0x00\n      dup3\n      add\n      mload\n      dup2\n      0x00\n      add\n      sstore\n      0x20\n      dup3\n      add\n      mload\n      dup2\n      0x01\n      add\n      swap1\n      dup2\n      tag_91\n      swap2\n      swap1\n      tag_60\n      jump\t// in\n    tag_91:\n      pop\n      0x40\n      dup3\n      add\n      mload\n      dup2\n      0x02\n      add\n      swap1\n      dup2\n      tag_92\n      swap2\n      swap1\n      tag_60\n      jump\t// in\n    tag_92:\n      pop\n      0x60\n      dup3\n      add\n      mload\n      dup2\n      0x03\n      add\n      sstore\n      0x80\n      dup3\n      add\n      mload\n      dup2\n      0x04\n      add\n      sstore\n      0xa0\n      dup3\n      add\n      mload\n      dup2\n      0x05\n      add\n      exp(0x0100, 0x00)\n      dup2\n      sload\n      dup2\n      0xff\n      mul\n      not\n      and\n      swap1\n      dup4\n      0x05\n      dup2\n      gt\n      iszero\n      tag_93\n      jumpi\n      tag_94\n      tag_52\n      jump\t// in\n    tag_94:\n    tag_93:\n      mul\n      or\n      swap1\n      sstore\n      pop\n      swap1\n      pop\n      pop\n        /* \".deps/contracts/ShippingManagement.sol\":1665:1678  shipmentCount */\n      0x01\n      0x00\n        /* \".deps/contracts/ShippingManagement.sol\":1665:1680  shipmentCount++ */\n      dup2\n      sload\n      dup1\n      swap3\n      swap2\n      swap1\n      tag_95\n      swap1\n      tag_96\n      jump\t// in\n    tag_95:\n      swap2\n      swap1\n      pop\n      sstore\n      pop\n        /* \".deps/contracts/ShippingManagement.sol\":1747:1757  _productId */\n      dup6\n        /* \".deps/contracts/ShippingManagement.sol\":1722:1733  _shipmentId */\n      dup8\n        /* \".deps/contracts/ShippingManagement.sol\":1695:1897  ShipmentAdded(... */\n      0xb8b48272eab3e0e74b9f07624d5e186ea5b90aa52f2c697f35d3ca5b2df69b64\n        /* \".deps/contracts/ShippingManagement.sol\":1771:1778  _origin */\n      dup8\n        /* \".deps/contracts/ShippingManagement.sol\":1792:1804  _destination */\n      dup8\n        /* \".deps/contracts/ShippingManagement.sol\":1818:1832  _departureDate */\n      dup8\n        /* \".deps/contracts/ShippingManagement.sol\":1846:1866  _expectedArrivalDate */\n      dup8\n        /* \".deps/contracts/ShippingManagement.sol\":1880:1887  _status */\n      dup8\n        /* \".deps/contracts/ShippingManagement.sol\":1695:1897  ShipmentAdded(... */\n      mload(0x40)\n      tag_97\n      swap6\n      swap5\n      swap4\n      swap3\n      swap2\n      swap1\n      tag_98\n      jump\t// in\n    tag_97:\n      mload(0x40)\n      dup1\n      swap2\n      sub\n      swap1\n      log3\n        /* \".deps/contracts/ShippingManagement.sol\":1048:1904  function addShipment(uint256 _shipmentId, uint256 _productId, string memory _origin, string memory _destination, uint256 _departureDate, uint256 _expectedArrivalDate, Position _status) public {... */\n      pop\n      pop\n      pop\n      pop\n      pop\n      pop\n      pop\n      jump\t// out\n        /* \".deps/contracts/ShippingManagement.sol\":439:471  uint256 public shipmentCount = 0 */\n    tag_31:\n      sload(0x01)\n      dup2\n      jump\t// out\n    tag_80:\n      pop\n      dup1\n      sload\n      tag_99\n      swap1\n      tag_36\n      jump\t// in\n    tag_99:\n      0x00\n      dup3\n      sstore\n      dup1\n      0x1f\n      lt\n      tag_101\n      jumpi\n      pop\n      jump(tag_100)\n    tag_101:\n      0x1f\n      add\n      0x20\n      swap1\n      div\n      swap1\n      0x00\n      mstore\n      keccak256(0x00, 0x20)\n      swap1\n      dup2\n      add\n      swap1\n      tag_102\n      swap2\n      swap1\n      tag_103\n      jump\t// in\n    tag_102:\n    tag_100:\n      pop\n      jump\t// out\n    tag_103:\n    tag_104:\n      dup1\n      dup3\n      gt\n      iszero\n      tag_105\n      jumpi\n      0x00\n      dup2\n      0x00\n      swap1\n      sstore\n      pop\n      0x01\n      add\n      jump(tag_104)\n    tag_105:\n      pop\n      swap1\n      jump\t// out\n        /* \"#utility.yul\":7:82   */\n    tag_106:\n        /* \"#utility.yul\":40:46   */\n      0x00\n        /* \"#utility.yul\":73:75   */\n      0x40\n        /* \"#utility.yul\":67:76   */\n      mload\n        /* \"#utility.yul\":57:76   */\n      swap1\n      pop\n        /* \"#utility.yul\":7:82   */\n      swap1\n      jump\t// out\n        /* \"#utility.yul\":88:205   */\n    tag_107:\n        /* \"#utility.yul\":197:198   */\n      0x00\n        /* \"#utility.yul\":194:195   */\n      dup1\n        /* \"#utility.yul\":187:199   */\n      revert\n        /* \"#utility.yul\":211:328   */\n    tag_108:\n        /* \"#utility.yul\":320:321   */\n      0x00\n        /* \"#utility.yul\":317:318   */\n      dup1\n        /* \"#utility.yul\":310:322   */\n      revert\n        /* \"#utility.yul\":334:411   */\n    tag_109:\n        /* \"#utility.yul\":371:378   */\n      0x00\n        /* \"#utility.yul\":400:405   */\n      dup2\n        /* \"#utility.yul\":389:405   */\n      swap1\n      pop\n        /* \"#utility.yul\":334:411   */\n      swap2\n      swap1\n      pop\n      jump\t// out\n        /* \"#utility.yul\":417:539   */\n    tag_110:\n        /* \"#utility.yul\":490:514   */\n      tag_160\n        /* \"#utility.yul\":508:513   */\n      dup2\n        /* \"#utility.yul\":490:514   */\n      tag_109\n      jump\t// in\n    tag_160:\n        /* \"#utility.yul\":483:488   */\n      dup2\n        /* \"#utility.yul\":480:515   */\n      eq\n        /* \"#utility.yul\":470:533   */\n      tag_161\n      jumpi\n        /* \"#utility.yul\":529:530   */\n      0x00\n        /* \"#utility.yul\":526:527   */\n      dup1\n        /* \"#utility.yul\":519:531   */\n      revert\n        /* \"#utility.yul\":470:533   */\n    tag_161:\n        /* \"#utility.yul\":417:539   */\n      pop\n      jump\t// out\n        /* \"#utility.yul\":545:684   */\n    tag_111:\n        /* \"#utility.yul\":591:596   */\n      0x00\n        /* \"#utility.yul\":629:635   */\n      dup2\n        /* \"#utility.yul\":616:636   */\n      calldataload\n        /* \"#utility.yul\":607:636   */\n      swap1\n      pop\n        /* \"#utility.yul\":645:678   */\n      tag_163\n        /* \"#utility.yul\":672:677   */\n      dup2\n        /* \"#utility.yul\":645:678   */\n      tag_110\n      jump\t// in\n    tag_163:\n        /* \"#utility.yul\":545:684   */\n      swap3\n      swap2\n      pop\n      pop\n      jump\t// out\n        /* \"#utility.yul\":690:1019   */\n    tag_11:\n        /* \"#utility.yul\":749:755   */\n      0x00\n        /* \"#utility.yul\":798:800   */\n      0x20\n        /* \"#utility.yul\":786:795   */\n      dup3\n        /* \"#utility.yul\":777:784   */\n      dup5\n        /* \"#utility.yul\":773:796   */\n      sub\n        /* \"#utility.yul\":769:801   */\n      slt\n        /* \"#utility.yul\":766:885   */\n      iszero\n      tag_165\n      jumpi\n        /* \"#utility.yul\":804:883   */\n      tag_166\n      tag_107\n      jump\t// in\n    tag_166:\n        /* \"#utility.yul\":766:885   */\n    tag_165:\n        /* \"#utility.yul\":924:925   */\n      0x00\n        /* \"#utility.yul\":949:1002   */\n      tag_167\n        /* \"#utility.yul\":994:1001   */\n      dup5\n        /* \"#utility.yul\":985:991   */\n      dup3\n        /* \"#utility.yul\":974:983   */\n      dup6\n        /* \"#utility.yul\":970:992   */\n      add\n        /* \"#utility.yul\":949:1002   */\n      tag_111\n      jump\t// in\n    tag_167:\n        /* \"#utility.yul\":939:1002   */\n      swap2\n      pop\n        /* \"#utility.yul\":895:1012   */\n      pop\n        /* \"#utility.yul\":690:1019   */\n      swap3\n      swap2\n      pop\n      pop\n      jump\t// out\n        /* \"#utility.yul\":1025:1143   */\n    tag_112:\n        /* \"#utility.yul\":1112:1136   */\n      tag_169\n        /* \"#utility.yul\":1130:1135   */\n      dup2\n        /* \"#utility.yul\":1112:1136   */\n      tag_109\n      jump\t// in\n    tag_169:\n        /* \"#utility.yul\":1107:1110   */\n      dup3\n        /* \"#utility.yul\":1100:1137   */\n      mstore\n        /* \"#utility.yul\":1025:1143   */\n      pop\n      pop\n      jump\t// out\n        /* \"#utility.yul\":1149:1248   */\n    tag_113:\n        /* \"#utility.yul\":1201:1207   */\n      0x00\n        /* \"#utility.yul\":1235:1240   */\n      dup2\n        /* \"#utility.yul\":1229:1241   */\n      mload\n        /* \"#utility.yul\":1219:1241   */\n      swap1\n      pop\n        /* \"#utility.yul\":1149:1248   */\n      swap2\n      swap1\n      pop\n      jump\t// out\n        /* \"#utility.yul\":1254:1423   */\n    tag_114:\n        /* \"#utility.yul\":1338:1349   */\n      0x00\n        /* \"#utility.yul\":1372:1378   */\n      dup3\n        /* \"#utility.yul\":1367:1370   */\n      dup3\n        /* \"#utility.yul\":1360:1379   */\n      mstore\n        /* \"#utility.yul\":1412:1416   */\n      0x20\n        /* \"#utility.yul\":1407:1410   */\n      dup3\n        /* \"#utility.yul\":1403:1417   */\n      add\n        /* \"#utility.yul\":1388:1417   */\n      swap1\n      pop\n        /* \"#utility.yul\":1254:1423   */\n      swap3\n      swap2\n      pop\n      pop\n      jump\t// out\n        /* \"#utility.yul\":1429:1568   */\n    tag_115:\n        /* \"#utility.yul\":1518:1524   */\n      dup3\n        /* \"#utility.yul\":1513:1516   */\n      dup2\n        /* \"#utility.yul\":1508:1511   */\n      dup4\n        /* \"#utility.yul\":1502:1525   */\n      mcopy\n        /* \"#utility.yul\":1559:1560   */\n      0x00\n        /* \"#utility.yul\":1550:1556   */\n      dup4\n        /* \"#utility.yul\":1545:1548   */\n      dup4\n        /* \"#utility.yul\":1541:1557   */\n      add\n        /* \"#utility.yul\":1534:1561   */\n      mstore\n        /* \"#utility.yul\":1429:1568   */\n      pop\n      pop\n      pop\n      jump\t// out\n        /* \"#utility.yul\":1574:1676   */\n    tag_116:\n        /* \"#utility.yul\":1615:1621   */\n      0x00\n        /* \"#utility.yul\":1666:1668   */\n      0x1f\n        /* \"#utility.yul\":1662:1669   */\n      not\n        /* \"#utility.yul\":1657:1659   */\n      0x1f\n        /* \"#utility.yul\":1650:1655   */\n      dup4\n        /* \"#utility.yul\":1646:1660   */\n      add\n        /* \"#utility.yul\":1642:1670   */\n      and\n        /* \"#utility.yul\":1632:1670   */\n      swap1\n      pop\n        /* \"#utility.yul\":1574:1676   */\n      swap2\n      swap1\n      pop\n      jump\t// out\n        /* \"#utility.yul\":1682:2059   */\n    tag_117:\n        /* \"#utility.yul\":1770:1773   */\n      0x00\n        /* \"#utility.yul\":1798:1837   */\n      tag_175\n        /* \"#utility.yul\":1831:1836   */\n      dup3\n        /* \"#utility.yul\":1798:1837   */\n      tag_113\n      jump\t// in\n    tag_175:\n        /* \"#utility.yul\":1853:1924   */\n      tag_176\n        /* \"#utility.yul\":1917:1923   */\n      dup2\n        /* \"#utility.yul\":1912:1915   */\n      dup6\n        /* \"#utility.yul\":1853:1924   */\n      tag_114\n      jump\t// in\n    tag_176:\n        /* \"#utility.yul\":1846:1924   */\n      swap4\n      pop\n        /* \"#utility.yul\":1933:1998   */\n      tag_177\n        /* \"#utility.yul\":1991:1997   */\n      dup2\n        /* \"#utility.yul\":1986:1989   */\n      dup6\n        /* \"#utility.yul\":1979:1983   */\n      0x20\n        /* \"#utility.yul\":1972:1977   */\n      dup7\n        /* \"#utility.yul\":1968:1984   */\n      add\n        /* \"#utility.yul\":1933:1998   */\n      tag_115\n      jump\t// in\n    tag_177:\n        /* \"#utility.yul\":2023:2052   */\n      tag_178\n        /* \"#utility.yul\":2045:2051   */\n      dup2\n        /* \"#utility.yul\":2023:2052   */\n      tag_116\n      jump\t// in\n    tag_178:\n        /* \"#utility.yul\":2018:2021   */\n      dup5\n        /* \"#utility.yul\":2014:2053   */\n      add\n        /* \"#utility.yul\":2007:2053   */\n      swap2\n      pop\n        /* \"#utility.yul\":1774:2059   */\n      pop\n        /* \"#utility.yul\":1682:2059   */\n      swap3\n      swap2\n      pop\n      pop\n      jump\t// out\n        /* \"#utility.yul\":2065:2245   */\n    tag_52:\n        /* \"#utility.yul\":2113:2190   */\n      0x4e487b7100000000000000000000000000000000000000000000000000000000\n        /* \"#utility.yul\":2110:2111   */\n      0x00\n        /* \"#utility.yul\":2103:2191   */\n      mstore\n        /* \"#utility.yul\":2210:2214   */\n      0x21\n        /* \"#utility.yul\":2207:2208   */\n      0x04\n        /* \"#utility.yul\":2200:2215   */\n      mstore\n        /* \"#utility.yul\":2234:2238   */\n      0x24\n        /* \"#utility.yul\":2231:2232   */\n      0x00\n        /* \"#utility.yul\":2224:2239   */\n      revert\n        /* \"#utility.yul\":2251:2366   */\n    tag_118:\n        /* \"#utility.yul\":2334:2335   */\n      0x06\n        /* \"#utility.yul\":2327:2332   */\n      dup2\n        /* \"#utility.yul\":2324:2336   */\n      lt\n        /* \"#utility.yul\":2314:2360   */\n      tag_181\n      jumpi\n        /* \"#utility.yul\":2340:2358   */\n      tag_182\n      tag_52\n      jump\t// in\n    tag_182:\n        /* \"#utility.yul\":2314:2360   */\n    tag_181:\n        /* \"#utility.yul\":2251:2366   */\n      pop\n      jump\t// out\n        /* \"#utility.yul\":2372:2503   */\n    tag_119:\n        /* \"#utility.yul\":2419:2426   */\n      0x00\n        /* \"#utility.yul\":2448:2453   */\n      dup2\n        /* \"#utility.yul\":2437:2453   */\n      swap1\n      pop\n        /* \"#utility.yul\":2454:2497   */\n      tag_184\n        /* \"#utility.yul\":2491:2496   */\n      dup3\n        /* \"#utility.yul\":2454:2497   */\n      tag_118\n      jump\t// in\n    tag_184:\n        /* \"#utility.yul\":2372:2503   */\n      swap2\n      swap1\n      pop\n      jump\t// out\n        /* \"#utility.yul\":2509:2640   */\n    tag_120:\n        /* \"#utility.yul\":2567:2576   */\n      0x00\n        /* \"#utility.yul\":2600:2634   */\n      tag_186\n        /* \"#utility.yul\":2628:2633   */\n      dup3\n        /* \"#utility.yul\":2600:2634   */\n      tag_119\n      jump\t// in\n    tag_186:\n        /* \"#utility.yul\":2587:2634   */\n      swap1\n      pop\n        /* \"#utility.yul\":2509:2640   */\n      swap2\n      swap1\n      pop\n      jump\t// out\n        /* \"#utility.yul\":2646:2793   */\n    tag_121:\n        /* \"#utility.yul\":2741:2786   */\n      tag_188\n        /* \"#utility.yul\":2780:2785   */\n      dup2\n        /* \"#utility.yul\":2741:2786   */\n      tag_120\n      jump\t// in\n    tag_188:\n        /* \"#utility.yul\":2736:2739   */\n      dup3\n        /* \"#utility.yul\":2729:2787   */\n      mstore\n        /* \"#utility.yul\":2646:2793   */\n      pop\n      pop\n      jump\t// out\n        /* \"#utility.yul\":2799:3772   */\n    tag_14:\n        /* \"#utility.yul\":3080:3084   */\n      0x00\n        /* \"#utility.yul\":3118:3121   */\n      0xc0\n        /* \"#utility.yul\":3107:3116   */\n      dup3\n        /* \"#utility.yul\":3103:3122   */\n      add\n        /* \"#utility.yul\":3095:3122   */\n      swap1\n      pop\n        /* \"#utility.yul\":3132:3203   */\n      tag_190\n        /* \"#utility.yul\":3200:3201   */\n      0x00\n        /* \"#utility.yul\":3189:3198   */\n      dup4\n        /* \"#utility.yul\":3185:3202   */\n      add\n        /* \"#utility.yul\":3176:3182   */\n      dup10\n        /* \"#utility.yul\":3132:3203   */\n      tag_112\n      jump\t// in\n    tag_190:\n        /* \"#utility.yul\":3250:3259   */\n      dup2\n        /* \"#utility.yul\":3244:3248   */\n      dup2\n        /* \"#utility.yul\":3240:3260   */\n      sub\n        /* \"#utility.yul\":3235:3237   */\n      0x20\n        /* \"#utility.yul\":3224:3233   */\n      dup4\n        /* \"#utility.yul\":3220:3238   */\n      add\n        /* \"#utility.yul\":3213:3261   */\n      mstore\n        /* \"#utility.yul\":3278:3356   */\n      tag_191\n        /* \"#utility.yul\":3351:3355   */\n      dup2\n        /* \"#utility.yul\":3342:3348   */\n      dup9\n        /* \"#utility.yul\":3278:3356   */\n      tag_117\n      jump\t// in\n    tag_191:\n        /* \"#utility.yul\":3270:3356   */\n      swap1\n      pop\n        /* \"#utility.yul\":3403:3412   */\n      dup2\n        /* \"#utility.yul\":3397:3401   */\n      dup2\n        /* \"#utility.yul\":3393:3413   */\n      sub\n        /* \"#utility.yul\":3388:3390   */\n      0x40\n        /* \"#utility.yul\":3377:3386   */\n      dup4\n        /* \"#utility.yul\":3373:3391   */\n      add\n        /* \"#utility.yul\":3366:3414   */\n      mstore\n        /* \"#utility.yul\":3431:3509   */\n      tag_192\n        /* \"#utility.yul\":3504:3508   */\n      dup2\n        /* \"#utility.yul\":3495:3501   */\n      dup8\n        /* \"#utility.yul\":3431:3509   */\n      tag_117\n      jump\t// in\n    tag_192:\n        /* \"#utility.yul\":3423:3509   */\n      swap1\n      pop\n        /* \"#utility.yul\":3519:3591   */\n      tag_193\n        /* \"#utility.yul\":3587:3589   */\n      0x60\n        /* \"#utility.yul\":3576:3585   */\n      dup4\n        /* \"#utility.yul\":3572:3590   */\n      add\n        /* \"#utility.yul\":3563:3569   */\n      dup7\n        /* \"#utility.yul\":3519:3591   */\n      tag_112\n      jump\t// in\n    tag_193:\n        /* \"#utility.yul\":3601:3674   */\n      tag_194\n        /* \"#utility.yul\":3669:3672   */\n      0x80\n        /* \"#utility.yul\":3658:3667   */\n      dup4\n        /* \"#utility.yul\":3654:3673   */\n      add\n        /* \"#utility.yul\":3645:3651   */\n      dup6\n        /* \"#utility.yul\":3601:3674   */\n      tag_112\n      jump\t// in\n    tag_194:\n        /* \"#utility.yul\":3684:3765   */\n      tag_195\n        /* \"#utility.yul\":3760:3763   */\n      0xa0\n        /* \"#utility.yul\":3749:3758   */\n      dup4\n        /* \"#utility.yul\":3745:3764   */\n      add\n        /* \"#utility.yul\":3736:3742   */\n      dup5\n        /* \"#utility.yul\":3684:3765   */\n      tag_121\n      jump\t// in\n    tag_195:\n        /* \"#utility.yul\":2799:3772   */\n      swap8\n      swap7\n      pop\n      pop\n      pop\n      pop\n      pop\n      pop\n      pop\n      jump\t// out\n        /* \"#utility.yul\":3778:3895   */\n    tag_122:\n        /* \"#utility.yul\":3887:3888   */\n      0x00\n        /* \"#utility.yul\":3884:3885   */\n      dup1\n        /* \"#utility.yul\":3877:3889   */\n      revert\n        /* \"#utility.yul\":3901:4018   */\n    tag_123:\n        /* \"#utility.yul\":4010:4011   */\n      0x00\n        /* \"#utility.yul\":4007:4008   */\n      dup1\n        /* \"#utility.yul\":4000:4012   */\n      revert\n        /* \"#utility.yul\":4024:4204   */\n    tag_124:\n        /* \"#utility.yul\":4072:4149   */\n      0x4e487b7100000000000000000000000000000000000000000000000000000000\n        /* \"#utility.yul\":4069:4070   */\n      0x00\n        /* \"#utility.yul\":4062:4150   */\n      mstore\n        /* \"#utility.yul\":4169:4173   */\n      0x41\n        /* \"#utility.yul\":4166:4167   */\n      0x04\n        /* \"#utility.yul\":4159:4174   */\n      mstore\n        /* \"#utility.yul\":4193:4197   */\n      0x24\n        /* \"#utility.yul\":4190:4191   */\n      0x00\n        /* \"#utility.yul\":4183:4198   */\n      revert\n        /* \"#utility.yul\":4210:4491   */\n    tag_125:\n        /* \"#utility.yul\":4293:4320   */\n      tag_200\n        /* \"#utility.yul\":4315:4319   */\n      dup3\n        /* \"#utility.yul\":4293:4320   */\n      tag_116\n      jump\t// in\n    tag_200:\n        /* \"#utility.yul\":4285:4291   */\n      dup2\n        /* \"#utility.yul\":4281:4321   */\n      add\n        /* \"#utility.yul\":4423:4429   */\n      dup2\n        /* \"#utility.yul\":4411:4421   */\n      dup2\n        /* \"#utility.yul\":4408:4430   */\n      lt\n        /* \"#utility.yul\":4387:4405   */\n      0xffffffffffffffff\n        /* \"#utility.yul\":4375:4385   */\n      dup3\n        /* \"#utility.yul\":4372:4406   */\n      gt\n        /* \"#utility.yul\":4369:4431   */\n      or\n        /* \"#utility.yul\":4366:4454   */\n      iszero\n      tag_201\n      jumpi\n        /* \"#utility.yul\":4434:4452   */\n      tag_202\n      tag_124\n      jump\t// in\n    tag_202:\n        /* \"#utility.yul\":4366:4454   */\n    tag_201:\n        /* \"#utility.yul\":4474:4484   */\n      dup1\n        /* \"#utility.yul\":4470:4472   */\n      0x40\n        /* \"#utility.yul\":4463:4485   */\n      mstore\n        /* \"#utility.yul\":4253:4491   */\n      pop\n        /* \"#utility.yul\":4210:4491   */\n      pop\n      pop\n      jump\t// out\n        /* \"#utility.yul\":4497:4626   */\n    tag_126:\n        /* \"#utility.yul\":4531:4537   */\n      0x00\n        /* \"#utility.yul\":4558:4578   */\n      tag_204\n      tag_106\n      jump\t// in\n    tag_204:\n        /* \"#utility.yul\":4548:4578   */\n      swap1\n      pop\n        /* \"#utility.yul\":4587:4620   */\n      tag_205\n        /* \"#utility.yul\":4615:4619   */\n      dup3\n        /* \"#utility.yul\":4607:4613   */\n      dup3\n        /* \"#utility.yul\":4587:4620   */\n      tag_125\n      jump\t// in\n    tag_205:\n        /* \"#utility.yul\":4497:4626   */\n      swap2\n      swap1\n      pop\n      jump\t// out\n        /* \"#utility.yul\":4632:4940   */\n    tag_127:\n        /* \"#utility.yul\":4694:4698   */\n      0x00\n        /* \"#utility.yul\":4784:4802   */\n      0xffffffffffffffff\n        /* \"#utility.yul\":4776:4782   */\n      dup3\n        /* \"#utility.yul\":4773:4803   */\n      gt\n        /* \"#utility.yul\":4770:4826   */\n      iszero\n      tag_207\n      jumpi\n        /* \"#utility.yul\":4806:4824   */\n      tag_208\n      tag_124\n      jump\t// in\n    tag_208:\n        /* \"#utility.yul\":4770:4826   */\n    tag_207:\n        /* \"#utility.yul\":4844:4873   */\n      tag_209\n        /* \"#utility.yul\":4866:4872   */\n      dup3\n        /* \"#utility.yul\":4844:4873   */\n      tag_116\n      jump\t// in\n    tag_209:\n        /* \"#utility.yul\":4836:4873   */\n      swap1\n      pop\n        /* \"#utility.yul\":4928:4932   */\n      0x20\n        /* \"#utility.yul\":4922:4926   */\n      dup2\n        /* \"#utility.yul\":4918:4933   */\n      add\n        /* \"#utility.yul\":4910:4933   */\n      swap1\n      pop\n        /* \"#utility.yul\":4632:4940   */\n      swap2\n      swap1\n      pop\n      jump\t// out\n        /* \"#utility.yul\":4946:5094   */\n    tag_128:\n        /* \"#utility.yul\":5044:5050   */\n      dup3\n        /* \"#utility.yul\":5039:5042   */\n      dup2\n        /* \"#utility.yul\":5034:5037   */\n      dup4\n        /* \"#utility.yul\":5021:5051   */\n      calldatacopy\n        /* \"#utility.yul\":5085:5086   */\n      0x00\n        /* \"#utility.yul\":5076:5082   */\n      dup4\n        /* \"#utility.yul\":5071:5074   */\n      dup4\n        /* \"#utility.yul\":5067:5083   */\n      add\n        /* \"#utility.yul\":5060:5087   */\n      mstore\n        /* \"#utility.yul\":4946:5094   */\n      pop\n      pop\n      pop\n      jump\t// out\n        /* \"#utility.yul\":5100:5525   */\n    tag_129:\n        /* \"#utility.yul\":5178:5183   */\n      0x00\n        /* \"#utility.yul\":5203:5269   */\n      tag_212\n        /* \"#utility.yul\":5219:5268   */\n      tag_213\n        /* \"#utility.yul\":5261:5267   */\n      dup5\n        /* \"#utility.yul\":5219:5268   */\n      tag_127\n      jump\t// in\n    tag_213:\n        /* \"#utility.yul\":5203:5269   */\n      tag_126\n      jump\t// in\n    tag_212:\n        /* \"#utility.yul\":5194:5269   */\n      swap1\n      pop\n        /* \"#utility.yul\":5292:5298   */\n      dup3\n        /* \"#utility.yul\":5285:5290   */\n      dup2\n        /* \"#utility.yul\":5278:5299   */\n      mstore\n        /* \"#utility.yul\":5330:5334   */\n      0x20\n        /* \"#utility.yul\":5323:5328   */\n      dup2\n        /* \"#utility.yul\":5319:5335   */\n      add\n        /* \"#utility.yul\":5368:5371   */\n      dup5\n        /* \"#utility.yul\":5359:5365   */\n      dup5\n        /* \"#utility.yul\":5354:5357   */\n      dup5\n        /* \"#utility.yul\":5350:5366   */\n      add\n        /* \"#utility.yul\":5347:5372   */\n      gt\n        /* \"#utility.yul\":5344:5456   */\n      iszero\n      tag_214\n      jumpi\n        /* \"#utility.yul\":5375:5454   */\n      tag_215\n      tag_123\n      jump\t// in\n    tag_215:\n        /* \"#utility.yul\":5344:5456   */\n    tag_214:\n        /* \"#utility.yul\":5465:5519   */\n      tag_216\n        /* \"#utility.yul\":5512:5518   */\n      dup5\n        /* \"#utility.yul\":5507:5510   */\n      dup3\n        /* \"#utility.yul\":5502:5505   */\n      dup6\n        /* \"#utility.yul\":5465:5519   */\n      tag_128\n      jump\t// in\n    tag_216:\n        /* \"#utility.yul\":5184:5525   */\n      pop\n        /* \"#utility.yul\":5100:5525   */\n      swap4\n      swap3\n      pop\n      pop\n      pop\n      jump\t// out\n        /* \"#utility.yul\":5545:5885   */\n    tag_130:\n        /* \"#utility.yul\":5601:5606   */\n      0x00\n        /* \"#utility.yul\":5650:5653   */\n      dup3\n        /* \"#utility.yul\":5643:5647   */\n      0x1f\n        /* \"#utility.yul\":5635:5641   */\n      dup4\n        /* \"#utility.yul\":5631:5648   */\n      add\n        /* \"#utility.yul\":5627:5654   */\n      slt\n        /* \"#utility.yul\":5617:5739   */\n      tag_218\n      jumpi\n        /* \"#utility.yul\":5658:5737   */\n      tag_219\n      tag_122\n      jump\t// in\n    tag_219:\n        /* \"#utility.yul\":5617:5739   */\n    tag_218:\n        /* \"#utility.yul\":5775:5781   */\n      dup2\n        /* \"#utility.yul\":5762:5782   */\n      calldataload\n        /* \"#utility.yul\":5800:5879   */\n      tag_220\n        /* \"#utility.yul\":5875:5878   */\n      dup5\n        /* \"#utility.yul\":5867:5873   */\n      dup3\n        /* \"#utility.yul\":5860:5864   */\n      0x20\n        /* \"#utility.yul\":5852:5858   */\n      dup7\n        /* \"#utility.yul\":5848:5865   */\n      add\n        /* \"#utility.yul\":5800:5879   */\n      tag_129\n      jump\t// in\n    tag_220:\n        /* \"#utility.yul\":5791:5879   */\n      swap2\n      pop\n        /* \"#utility.yul\":5607:5885   */\n      pop\n        /* \"#utility.yul\":5545:5885   */\n      swap3\n      swap2\n      pop\n      pop\n      jump\t// out\n        /* \"#utility.yul\":5891:6000   */\n    tag_131:\n        /* \"#utility.yul\":5974:5975   */\n      0x06\n        /* \"#utility.yul\":5967:5972   */\n      dup2\n        /* \"#utility.yul\":5964:5976   */\n      lt\n        /* \"#utility.yul\":5954:5994   */\n      tag_222\n      jumpi\n        /* \"#utility.yul\":5990:5991   */\n      0x00\n        /* \"#utility.yul\":5987:5988   */\n      dup1\n        /* \"#utility.yul\":5980:5992   */\n      revert\n        /* \"#utility.yul\":5954:5994   */\n    tag_222:\n        /* \"#utility.yul\":5891:6000   */\n      pop\n      jump\t// out\n        /* \"#utility.yul\":6006:6165   */\n    tag_132:\n        /* \"#utility.yul\":6062:6067   */\n      0x00\n        /* \"#utility.yul\":6100:6106   */\n      dup2\n        /* \"#utility.yul\":6087:6107   */\n      calldataload\n        /* \"#utility.yul\":6078:6107   */\n      swap1\n      pop\n        /* \"#utility.yul\":6116:6159   */\n      tag_224\n        /* \"#utility.yul\":6153:6158   */\n      dup2\n        /* \"#utility.yul\":6116:6159   */\n      tag_131\n      jump\t// in\n    tag_224:\n        /* \"#utility.yul\":6006:6165   */\n      swap3\n      swap2\n      pop\n      pop\n      jump\t// out\n        /* \"#utility.yul\":6171:7282   */\n    tag_17:\n        /* \"#utility.yul\":6286:6292   */\n      0x00\n        /* \"#utility.yul\":6294:6300   */\n      dup1\n        /* \"#utility.yul\":6302:6308   */\n      0x00\n        /* \"#utility.yul\":6310:6316   */\n      dup1\n        /* \"#utility.yul\":6318:6324   */\n      0x00\n        /* \"#utility.yul\":6367:6370   */\n      0xa0\n        /* \"#utility.yul\":6355:6364   */\n      dup7\n        /* \"#utility.yul\":6346:6353   */\n      dup9\n        /* \"#utility.yul\":6342:6365   */\n      sub\n        /* \"#utility.yul\":6338:6371   */\n      slt\n        /* \"#utility.yul\":6335:6455   */\n      iszero\n      tag_226\n      jumpi\n        /* \"#utility.yul\":6374:6453   */\n      tag_227\n      tag_107\n      jump\t// in\n    tag_227:\n        /* \"#utility.yul\":6335:6455   */\n    tag_226:\n        /* \"#utility.yul\":6494:6495   */\n      0x00\n        /* \"#utility.yul\":6519:6572   */\n      tag_228\n        /* \"#utility.yul\":6564:6571   */\n      dup9\n        /* \"#utility.yul\":6555:6561   */\n      dup3\n        /* \"#utility.yul\":6544:6553   */\n      dup10\n        /* \"#utility.yul\":6540:6562   */\n      add\n        /* \"#utility.yul\":6519:6572   */\n      tag_111\n      jump\t// in\n    tag_228:\n        /* \"#utility.yul\":6509:6572   */\n      swap6\n      pop\n        /* \"#utility.yul\":6465:6582   */\n      pop\n        /* \"#utility.yul\":6649:6651   */\n      0x20\n        /* \"#utility.yul\":6638:6647   */\n      dup7\n        /* \"#utility.yul\":6634:6652   */\n      add\n        /* \"#utility.yul\":6621:6653   */\n      calldataload\n        /* \"#utility.yul\":6680:6698   */\n      0xffffffffffffffff\n        /* \"#utility.yul\":6672:6678   */\n      dup2\n        /* \"#utility.yul\":6669:6699   */\n      gt\n        /* \"#utility.yul\":6666:6783   */\n      iszero\n      tag_229\n      jumpi\n        /* \"#utility.yul\":6702:6781   */\n      tag_230\n      tag_108\n      jump\t// in\n    tag_230:\n        /* \"#utility.yul\":6666:6783   */\n    tag_229:\n        /* \"#utility.yul\":6807:6870   */\n      tag_231\n        /* \"#utility.yul\":6862:6869   */\n      dup9\n        /* \"#utility.yul\":6853:6859   */\n      dup3\n        /* \"#utility.yul\":6842:6851   */\n      dup10\n        /* \"#utility.yul\":6838:6860   */\n      add\n        /* \"#utility.yul\":6807:6870   */\n      tag_130\n      jump\t// in\n    tag_231:\n        /* \"#utility.yul\":6797:6870   */\n      swap5\n      pop\n        /* \"#utility.yul\":6592:6880   */\n      pop\n        /* \"#utility.yul\":6919:6921   */\n      0x40\n        /* \"#utility.yul\":6945:6998   */\n      tag_232\n        /* \"#utility.yul\":6990:6997   */\n      dup9\n        /* \"#utility.yul\":6981:6987   */\n      dup3\n        /* \"#utility.yul\":6970:6979   */\n      dup10\n        /* \"#utility.yul\":6966:6988   */\n      add\n        /* \"#utility.yul\":6945:6998   */\n      tag_111\n      jump\t// in\n    tag_232:\n        /* \"#utility.yul\":6935:6998   */\n      swap4\n      pop\n        /* \"#utility.yul\":6890:7008   */\n      pop\n        /* \"#utility.yul\":7047:7049   */\n      0x60\n        /* \"#utility.yul\":7073:7126   */\n      tag_233\n        /* \"#utility.yul\":7118:7125   */\n      dup9\n        /* \"#utility.yul\":7109:7115   */\n      dup3\n        /* \"#utility.yul\":7098:7107   */\n      dup10\n        /* \"#utility.yul\":7094:7116   */\n      add\n        /* \"#utility.yul\":7073:7126   */\n      tag_111\n      jump\t// in\n    tag_233:\n        /* \"#utility.yul\":7063:7126   */\n      swap3\n      pop\n        /* \"#utility.yul\":7018:7136   */\n      pop\n        /* \"#utility.yul\":7175:7178   */\n      0x80\n        /* \"#utility.yul\":7202:7265   */\n      tag_234\n        /* \"#utility.yul\":7257:7264   */\n      dup9\n        /* \"#utility.yul\":7248:7254   */\n      dup3\n        /* \"#utility.yul\":7237:7246   */\n      dup10\n        /* \"#utility.yul\":7233:7255   */\n      add\n        /* \"#utility.yul\":7202:7265   */\n      tag_132\n      jump\t// in\n    tag_234:\n        /* \"#utility.yul\":7192:7265   */\n      swap2\n      pop\n        /* \"#utility.yul\":7146:7275   */\n      pop\n        /* \"#utility.yul\":6171:7282   */\n      swap3\n      swap6\n      pop\n      swap3\n      swap6\n      swap1\n      swap4\n      pop\n      jump\t// out\n        /* \"#utility.yul\":7288:8871   */\n    tag_28:\n        /* \"#utility.yul\":7431:7437   */\n      0x00\n        /* \"#utility.yul\":7439:7445   */\n      dup1\n        /* \"#utility.yul\":7447:7453   */\n      0x00\n        /* \"#utility.yul\":7455:7461   */\n      dup1\n        /* \"#utility.yul\":7463:7469   */\n      0x00\n        /* \"#utility.yul\":7471:7477   */\n      dup1\n        /* \"#utility.yul\":7479:7485   */\n      0x00\n        /* \"#utility.yul\":7528:7531   */\n      0xe0\n        /* \"#utility.yul\":7516:7525   */\n      dup9\n        /* \"#utility.yul\":7507:7514   */\n      dup11\n        /* \"#utility.yul\":7503:7526   */\n      sub\n        /* \"#utility.yul\":7499:7532   */\n      slt\n        /* \"#utility.yul\":7496:7616   */\n      iszero\n      tag_236\n      jumpi\n        /* \"#utility.yul\":7535:7614   */\n      tag_237\n      tag_107\n      jump\t// in\n    tag_237:\n        /* \"#utility.yul\":7496:7616   */\n    tag_236:\n        /* \"#utility.yul\":7655:7656   */\n      0x00\n        /* \"#utility.yul\":7680:7733   */\n      tag_238\n        /* \"#utility.yul\":7725:7732   */\n      dup11\n        /* \"#utility.yul\":7716:7722   */\n      dup3\n        /* \"#utility.yul\":7705:7714   */\n      dup12\n        /* \"#utility.yul\":7701:7723   */\n      add\n        /* \"#utility.yul\":7680:7733   */\n      tag_111\n      jump\t// in\n    tag_238:\n        /* \"#utility.yul\":7670:7733   */\n      swap8\n      pop\n        /* \"#utility.yul\":7626:7743   */\n      pop\n        /* \"#utility.yul\":7782:7784   */\n      0x20\n        /* \"#utility.yul\":7808:7861   */\n      tag_239\n        /* \"#utility.yul\":7853:7860   */\n      dup11\n        /* \"#utility.yul\":7844:7850   */\n      dup3\n        /* \"#utility.yul\":7833:7842   */\n      dup12\n        /* \"#utility.yul\":7829:7851   */\n      add\n        /* \"#utility.yul\":7808:7861   */\n      tag_111\n      jump\t// in\n    tag_239:\n        /* \"#utility.yul\":7798:7861   */\n      swap7\n      pop\n        /* \"#utility.yul\":7753:7871   */\n      pop\n        /* \"#utility.yul\":7938:7940   */\n      0x40\n        /* \"#utility.yul\":7927:7936   */\n      dup9\n        /* \"#utility.yul\":7923:7941   */\n      add\n        /* \"#utility.yul\":7910:7942   */\n      calldataload\n        /* \"#utility.yul\":7969:7987   */\n      0xffffffffffffffff\n        /* \"#utility.yul\":7961:7967   */\n      dup2\n        /* \"#utility.yul\":7958:7988   */\n      gt\n        /* \"#utility.yul\":7955:8072   */\n      iszero\n      tag_240\n      jumpi\n        /* \"#utility.yul\":7991:8070   */\n      tag_241\n      tag_108\n      jump\t// in\n    tag_241:\n        /* \"#utility.yul\":7955:8072   */\n    tag_240:\n        /* \"#utility.yul\":8096:8159   */\n      tag_242\n        /* \"#utility.yul\":8151:8158   */\n      dup11\n        /* \"#utility.yul\":8142:8148   */\n      dup3\n        /* \"#utility.yul\":8131:8140   */\n      dup12\n        /* \"#utility.yul\":8127:8149   */\n      add\n        /* \"#utility.yul\":8096:8159   */\n      tag_130\n      jump\t// in\n    tag_242:\n        /* \"#utility.yul\":8086:8159   */\n      swap6\n      pop\n        /* \"#utility.yul\":7881:8169   */\n      pop\n        /* \"#utility.yul\":8236:8238   */\n      0x60\n        /* \"#utility.yul\":8225:8234   */\n      dup9\n        /* \"#utility.yul\":8221:8239   */\n      add\n        /* \"#utility.yul\":8208:8240   */\n      calldataload\n        /* \"#utility.yul\":8267:8285   */\n      0xffffffffffffffff\n        /* \"#utility.yul\":8259:8265   */\n      dup2\n        /* \"#utility.yul\":8256:8286   */\n      gt\n        /* \"#utility.yul\":8253:8370   */\n      iszero\n      tag_243\n      jumpi\n        /* \"#utility.yul\":8289:8368   */\n      tag_244\n      tag_108\n      jump\t// in\n    tag_244:\n        /* \"#utility.yul\":8253:8370   */\n    tag_243:\n        /* \"#utility.yul\":8394:8457   */\n      tag_245\n        /* \"#utility.yul\":8449:8456   */\n      dup11\n        /* \"#utility.yul\":8440:8446   */\n      dup3\n        /* \"#utility.yul\":8429:8438   */\n      dup12\n        /* \"#utility.yul\":8425:8447   */\n      add\n        /* \"#utility.yul\":8394:8457   */\n      tag_130\n      jump\t// in\n    tag_245:\n        /* \"#utility.yul\":8384:8457   */\n      swap5\n      pop\n        /* \"#utility.yul\":8179:8467   */\n      pop\n        /* \"#utility.yul\":8506:8509   */\n      0x80\n        /* \"#utility.yul\":8533:8586   */\n      tag_246\n        /* \"#utility.yul\":8578:8585   */\n      dup11\n        /* \"#utility.yul\":8569:8575   */\n      dup3\n        /* \"#utility.yul\":8558:8567   */\n      dup12\n        /* \"#utility.yul\":8554:8576   */\n      add\n        /* \"#utility.yul\":8533:8586   */\n      tag_111\n      jump\t// in\n    tag_246:\n        /* \"#utility.yul\":8523:8586   */\n      swap4\n      pop\n        /* \"#utility.yul\":8477:8596   */\n      pop\n        /* \"#utility.yul\":8635:8638   */\n      0xa0\n        /* \"#utility.yul\":8662:8715   */\n      tag_247\n        /* \"#utility.yul\":8707:8714   */\n      dup11\n        /* \"#utility.yul\":8698:8704   */\n      dup3\n        /* \"#utility.yul\":8687:8696   */\n      dup12\n        /* \"#utility.yul\":8683:8705   */\n      add\n        /* \"#utility.yul\":8662:8715   */\n      tag_111\n      jump\t// in\n    tag_247:\n        /* \"#utility.yul\":8652:8715   */\n      swap3\n      pop\n        /* \"#utility.yul\":8606:8725   */\n      pop\n        /* \"#utility.yul\":8764:8767   */\n      0xc0\n        /* \"#utility.yul\":8791:8854   */\n      tag_248\n        /* \"#utility.yul\":8846:8853   */\n      dup11\n        /* \"#utility.yul\":8837:8843   */\n      dup3\n        /* \"#utility.yul\":8826:8835   */\n      dup12\n        /* \"#utility.yul\":8822:8844   */\n      add\n        /* \"#utility.yul\":8791:8854   */\n      tag_132\n      jump\t// in\n    tag_248:\n        /* \"#utility.yul\":8781:8854   */\n      swap2\n      pop\n        /* \"#utility.yul\":8735:8864   */\n      pop\n        /* \"#utility.yul\":7288:8871   */\n      swap3\n      swap6\n      swap9\n      swap2\n      swap5\n      swap8\n      pop\n      swap3\n      swap6\n      pop\n      jump\t// out\n        /* \"#utility.yul\":8877:9099   */\n    tag_33:\n        /* \"#utility.yul\":8970:8974   */\n      0x00\n        /* \"#utility.yul\":9008:9010   */\n      0x20\n        /* \"#utility.yul\":8997:9006   */\n      dup3\n        /* \"#utility.yul\":8993:9011   */\n      add\n        /* \"#utility.yul\":8985:9011   */\n      swap1\n      pop\n        /* \"#utility.yul\":9021:9092   */\n      tag_250\n        /* \"#utility.yul\":9089:9090   */\n      0x00\n        /* \"#utility.yul\":9078:9087   */\n      dup4\n        /* \"#utility.yul\":9074:9091   */\n      add\n        /* \"#utility.yul\":9065:9071   */\n      dup5\n        /* \"#utility.yul\":9021:9092   */\n      tag_112\n      jump\t// in\n    tag_250:\n        /* \"#utility.yul\":8877:9099   */\n      swap3\n      swap2\n      pop\n      pop\n      jump\t// out\n        /* \"#utility.yul\":9105:9285   */\n    tag_133:\n        /* \"#utility.yul\":9153:9230   */\n      0x4e487b7100000000000000000000000000000000000000000000000000000000\n        /* \"#utility.yul\":9150:9151   */\n      0x00\n        /* \"#utility.yul\":9143:9231   */\n      mstore\n        /* \"#utility.yul\":9250:9254   */\n      0x22\n        /* \"#utility.yul\":9247:9248   */\n      0x04\n        /* \"#utility.yul\":9240:9255   */\n      mstore\n        /* \"#utility.yul\":9274:9278   */\n      0x24\n        /* \"#utility.yul\":9271:9272   */\n      0x00\n        /* \"#utility.yul\":9264:9279   */\n      revert\n        /* \"#utility.yul\":9291:9611   */\n    tag_36:\n        /* \"#utility.yul\":9335:9341   */\n      0x00\n        /* \"#utility.yul\":9372:9373   */\n      0x02\n        /* \"#utility.yul\":9366:9370   */\n      dup3\n        /* \"#utility.yul\":9362:9374   */\n      div\n        /* \"#utility.yul\":9352:9374   */\n      swap1\n      pop\n        /* \"#utility.yul\":9419:9420   */\n      0x01\n        /* \"#utility.yul\":9413:9417   */\n      dup3\n        /* \"#utility.yul\":9409:9421   */\n      and\n        /* \"#utility.yul\":9440:9458   */\n      dup1\n        /* \"#utility.yul\":9430:9511   */\n      tag_253\n      jumpi\n        /* \"#utility.yul\":9496:9500   */\n      0x7f\n        /* \"#utility.yul\":9488:9494   */\n      dup3\n        /* \"#utility.yul\":9484:9501   */\n      and\n        /* \"#utility.yul\":9474:9501   */\n      swap2\n      pop\n        /* \"#utility.yul\":9430:9511   */\n    tag_253:\n        /* \"#utility.yul\":9558:9560   */\n      0x20\n        /* \"#utility.yul\":9550:9556   */\n      dup3\n        /* \"#utility.yul\":9547:9561   */\n      lt\n        /* \"#utility.yul\":9527:9545   */\n      dup2\n        /* \"#utility.yul\":9524:9562   */\n      sub\n        /* \"#utility.yul\":9521:9605   */\n      tag_254\n      jumpi\n        /* \"#utility.yul\":9577:9595   */\n      tag_255\n      tag_133\n      jump\t// in\n    tag_255:\n        /* \"#utility.yul\":9521:9605   */\n    tag_254:\n        /* \"#utility.yul\":9342:9611   */\n      pop\n        /* \"#utility.yul\":9291:9611   */\n      swap2\n      swap1\n      pop\n      jump\t// out\n        /* \"#utility.yul\":9617:9790   */\n    tag_134:\n        /* \"#utility.yul\":9757:9782   */\n      0x536869706d656e7420646f6573206e6f74206578697374000000000000000000\n        /* \"#utility.yul\":9753:9754   */\n      0x00\n        /* \"#utility.yul\":9745:9751   */\n      dup3\n        /* \"#utility.yul\":9741:9755   */\n      add\n        /* \"#utility.yul\":9734:9783   */\n      mstore\n        /* \"#utility.yul\":9617:9790   */\n      pop\n      jump\t// out\n        /* \"#utility.yul\":9796:10162   */\n    tag_135:\n        /* \"#utility.yul\":9938:9941   */\n      0x00\n        /* \"#utility.yul\":9959:10026   */\n      tag_258\n        /* \"#utility.yul\":10023:10025   */\n      0x17\n        /* \"#utility.yul\":10018:10021   */\n      dup4\n        /* \"#utility.yul\":9959:10026   */\n      tag_114\n      jump\t// in\n    tag_258:\n        /* \"#utility.yul\":9952:10026   */\n      swap2\n      pop\n        /* \"#utility.yul\":10035:10128   */\n      tag_259\n        /* \"#utility.yul\":10124:10127   */\n      dup3\n        /* \"#utility.yul\":10035:10128   */\n      tag_134\n      jump\t// in\n    tag_259:\n        /* \"#utility.yul\":10153:10155   */\n      0x20\n        /* \"#utility.yul\":10148:10151   */\n      dup3\n        /* \"#utility.yul\":10144:10156   */\n      add\n        /* \"#utility.yul\":10137:10156   */\n      swap1\n      pop\n        /* \"#utility.yul\":9796:10162   */\n      swap2\n      swap1\n      pop\n      jump\t// out\n        /* \"#utility.yul\":10168:10587   */\n    tag_39:\n        /* \"#utility.yul\":10334:10338   */\n      0x00\n        /* \"#utility.yul\":10372:10374   */\n      0x20\n        /* \"#utility.yul\":10361:10370   */\n      dup3\n        /* \"#utility.yul\":10357:10375   */\n      add\n        /* \"#utility.yul\":10349:10375   */\n      swap1\n      pop\n        /* \"#utility.yul\":10421:10430   */\n      dup2\n        /* \"#utility.yul\":10415:10419   */\n      dup2\n        /* \"#utility.yul\":10411:10431   */\n      sub\n        /* \"#utility.yul\":10407:10408   */\n      0x00\n        /* \"#utility.yul\":10396:10405   */\n      dup4\n        /* \"#utility.yul\":10392:10409   */\n      add\n        /* \"#utility.yul\":10385:10432   */\n      mstore\n        /* \"#utility.yul\":10449:10580   */\n      tag_261\n        /* \"#utility.yul\":10575:10579   */\n      dup2\n        /* \"#utility.yul\":10449:10580   */\n      tag_135\n      jump\t// in\n    tag_261:\n        /* \"#utility.yul\":10441:10580   */\n      swap1\n      pop\n        /* \"#utility.yul\":10168:10587   */\n      swap2\n      swap1\n      pop\n      jump\t// out\n        /* \"#utility.yul\":10593:10734   */\n    tag_136:\n        /* \"#utility.yul\":10642:10646   */\n      0x00\n        /* \"#utility.yul\":10665:10668   */\n      dup2\n        /* \"#utility.yul\":10657:10668   */\n      swap1\n      pop\n        /* \"#utility.yul\":10688:10691   */\n      dup2\n        /* \"#utility.yul\":10685:10686   */\n      0x00\n        /* \"#utility.yul\":10678:10692   */\n      mstore\n        /* \"#utility.yul\":10722:10726   */\n      0x20\n        /* \"#utility.yul\":10719:10720   */\n      0x00\n        /* \"#utility.yul\":10709:10727   */\n      keccak256\n        /* \"#utility.yul\":10701:10727   */\n      swap1\n      pop\n        /* \"#utility.yul\":10593:10734   */\n      swap2\n      swap1\n      pop\n      jump\t// out\n        /* \"#utility.yul\":10740:10833   */\n    tag_137:\n        /* \"#utility.yul\":10777:10783   */\n      0x00\n        /* \"#utility.yul\":10824:10826   */\n      0x20\n        /* \"#utility.yul\":10819:10821   */\n      0x1f\n        /* \"#utility.yul\":10812:10817   */\n      dup4\n        /* \"#utility.yul\":10808:10822   */\n      add\n        /* \"#utility.yul\":10804:10827   */\n      div\n        /* \"#utility.yul\":10794:10827   */\n      swap1\n      pop\n        /* \"#utility.yul\":10740:10833   */\n      swap2\n      swap1\n      pop\n      jump\t// out\n        /* \"#utility.yul\":10839:10946   */\n    tag_138:\n        /* \"#utility.yul\":10883:10891   */\n      0x00\n        /* \"#utility.yul\":10933:10938   */\n      dup3\n        /* \"#utility.yul\":10927:10931   */\n      dup3\n        /* \"#utility.yul\":10923:10939   */\n      shl\n        /* \"#utility.yul\":10902:10939   */\n      swap1\n      pop\n        /* \"#utility.yul\":10839:10946   */\n      swap3\n      swap2\n      pop\n      pop\n      jump\t// out\n        /* \"#utility.yul\":10952:11345   */\n    tag_139:\n        /* \"#utility.yul\":11021:11027   */\n      0x00\n        /* \"#utility.yul\":11071:11072   */\n      0x08\n        /* \"#utility.yul\":11059:11069   */\n      dup4\n        /* \"#utility.yul\":11055:11073   */\n      mul\n        /* \"#utility.yul\":11094:11191   */\n      tag_266\n        /* \"#utility.yul\":11124:11190   */\n      0xffffffffffffffffffffffffffffffffffffffffffffffffffffffffffffffff\n        /* \"#utility.yul\":11113:11122   */\n      dup3\n        /* \"#utility.yul\":11094:11191   */\n      tag_138\n      jump\t// in\n    tag_266:\n        /* \"#utility.yul\":11212:11251   */\n      tag_267\n        /* \"#utility.yul\":11242:11250   */\n      dup7\n        /* \"#utility.yul\":11231:11240   */\n      dup4\n        /* \"#utility.yul\":11212:11251   */\n      tag_138\n      jump\t// in\n    tag_267:\n        /* \"#utility.yul\":11200:11251   */\n      swap6\n      pop\n        /* \"#utility.yul\":11284:11288   */\n      dup1\n        /* \"#utility.yul\":11280:11289   */\n      not\n        /* \"#utility.yul\":11273:11278   */\n      dup5\n        /* \"#utility.yul\":11269:11290   */\n      and\n        /* \"#utility.yul\":11260:11290   */\n      swap4\n      pop\n        /* \"#utility.yul\":11333:11337   */\n      dup1\n        /* \"#utility.yul\":11323:11331   */\n      dup7\n        /* \"#utility.yul\":11319:11338   */\n      and\n        /* \"#utility.yul\":11312:11317   */\n      dup5\n        /* \"#utility.yul\":11309:11339   */\n      or\n        /* \"#utility.yul\":11299:11339   */\n      swap3\n      pop\n        /* \"#utility.yul\":11028:11345   */\n      pop\n      pop\n        /* \"#utility.yul\":10952:11345   */\n      swap4\n      swap3\n      pop\n      pop\n      pop\n      jump\t// out\n        /* \"#utility.yul\":11351:11411   */\n    tag_140:\n        /* \"#utility.yul\":11379:11382   */\n      0x00\n        /* \"#utility.yul\":11400:11405   */\n      dup2\n        /* \"#utility.yul\":11393:11405   */\n      swap1\n      pop\n        /* \"#utility.yul\":11351:11411   */\n      swap2\n      swap1\n      pop\n      jump\t// out\n        /* \"#utility.yul\":11417:11559   */\n    tag_141:\n        /* \"#utility.yul\":11467:11476   */\n      0x00\n        /* \"#utility.yul\":11500:11553   */\n      tag_270\n        /* \"#utility.yul\":11518:11552   */\n      tag_271\n        /* \"#utility.yul\":11527:11551   */\n      tag_272\n        /* \"#utility.yul\":11545:11550   */\n      dup5\n        /* \"#utility.yul\":11527:11551   */\n      tag_109\n      jump\t// in\n    tag_272:\n        /* \"#utility.yul\":11518:11552   */\n      tag_140\n      jump\t// in\n    tag_271:\n        /* \"#utility.yul\":11500:11553   */\n      tag_109\n      jump\t// in\n    tag_270:\n        /* \"#utility.yul\":11487:11553   */\n      swap1\n      pop\n        /* \"#utility.yul\":11417:11559   */\n      swap2\n      swap1\n      pop\n      jump\t// out\n        /* \"#utility.yul\":11565:11640   */\n    tag_142:\n        /* \"#utility.yul\":11608:11611   */\n      0x00\n        /* \"#utility.yul\":11629:11634   */\n      dup2\n        /* \"#utility.yul\":11622:11634   */\n      swap1\n      pop\n        /* \"#utility.yul\":11565:11640   */\n      swap2\n      swap1\n      pop\n      jump\t// out\n        /* \"#utility.yul\":11646:11915   */\n    tag_143:\n        /* \"#utility.yul\":11756:11795   */\n      tag_275\n        /* \"#utility.yul\":11787:11794   */\n      dup4\n        /* \"#utility.yul\":11756:11795   */\n      tag_141\n      jump\t// in\n    tag_275:\n        /* \"#utility.yul\":11817:11908   */\n      tag_276\n        /* \"#utility.yul\":11866:11907   */\n      tag_277\n        /* \"#utility.yul\":11890:11906   */\n      dup3\n        /* \"#utility.yul\":11866:11907   */\n      tag_142\n      jump\t// in\n    tag_277:\n        /* \"#utility.yul\":11858:11864   */\n      dup5\n        /* \"#utility.yul\":11851:11855   */\n      dup5\n        /* \"#utility.yul\":11845:11856   */\n      sload\n        /* \"#utility.yul\":11817:11908   */\n      tag_139\n      jump\t// in\n    tag_276:\n        /* \"#utility.yul\":11811:11815   */\n      dup3\n        /* \"#utility.yul\":11804:11909   */\n      sstore\n        /* \"#utility.yul\":11722:11915   */\n      pop\n        /* \"#utility.yul\":11646:11915   */\n      pop\n      pop\n      pop\n      jump\t// out\n        /* \"#utility.yul\":11921:11994   */\n    tag_144:\n        /* \"#utility.yul\":11966:11969   */\n      0x00\n        /* \"#utility.yul\":11921:11994   */\n      swap1\n      jump\t// out\n        /* \"#utility.yul\":12000:12189   */\n    tag_145:\n        /* \"#utility.yul\":12077:12109   */\n      tag_280\n      tag_144\n      jump\t// in\n    tag_280:\n        /* \"#utility.yul\":12118:12183   */\n      tag_281\n        /* \"#utility.yul\":12176:12182   */\n      dup2\n        /* \"#utility.yul\":12168:12174   */\n      dup5\n        /* \"#utility.yul\":12162:12166   */\n      dup5\n        /* \"#utility.yul\":12118:12183   */\n      tag_143\n      jump\t// in\n    tag_281:\n        /* \"#utility.yul\":12053:12189   */\n      pop\n        /* \"#utility.yul\":12000:12189   */\n      pop\n      pop\n      jump\t// out\n        /* \"#utility.yul\":12195:12381   */\n    tag_146:\n        /* \"#utility.yul\":12255:12375   */\n    tag_283:\n        /* \"#utility.yul\":12272:12275   */\n      dup2\n        /* \"#utility.yul\":12265:12270   */\n      dup2\n        /* \"#utility.yul\":12262:12276   */\n      lt\n        /* \"#utility.yul\":12255:12375   */\n      iszero\n      tag_285\n      jumpi\n        /* \"#utility.yul\":12326:12365   */\n      tag_286\n        /* \"#utility.yul\":12363:12364   */\n      0x00\n        /* \"#utility.yul\":12356:12361   */\n      dup3\n        /* \"#utility.yul\":12326:12365   */\n      tag_145\n      jump\t// in\n    tag_286:\n        /* \"#utility.yul\":12299:12300   */\n      0x01\n        /* \"#utility.yul\":12292:12297   */\n      dup2\n        /* \"#utility.yul\":12288:12301   */\n      add\n        /* \"#utility.yul\":12279:12301   */\n      swap1\n      pop\n        /* \"#utility.yul\":12255:12375   */\n      jump(tag_283)\n    tag_285:\n        /* \"#utility.yul\":12195:12381   */\n      pop\n      pop\n      jump\t// out\n        /* \"#utility.yul\":12387:12930   */\n    tag_147:\n        /* \"#utility.yul\":12488:12490   */\n      0x1f\n        /* \"#utility.yul\":12483:12486   */\n      dup3\n        /* \"#utility.yul\":12480:12491   */\n      gt\n        /* \"#utility.yul\":12477:12923   */\n      iszero\n      tag_288\n      jumpi\n        /* \"#utility.yul\":12522:12560   */\n      tag_289\n        /* \"#utility.yul\":12554:12559   */\n      dup2\n        /* \"#utility.yul\":12522:12560   */\n      tag_136\n      jump\t// in\n    tag_289:\n        /* \"#utility.yul\":12606:12635   */\n      tag_290\n        /* \"#utility.yul\":12624:12634   */\n      dup5\n        /* \"#utility.yul\":12606:12635   */\n      tag_137\n      jump\t// in\n    tag_290:\n        /* \"#utility.yul\":12596:12604   */\n      dup2\n        /* \"#utility.yul\":12592:12636   */\n      add\n        /* \"#utility.yul\":12789:12791   */\n      0x20\n        /* \"#utility.yul\":12777:12787   */\n      dup6\n        /* \"#utility.yul\":12774:12792   */\n      lt\n        /* \"#utility.yul\":12771:12820   */\n      iszero\n      tag_291\n      jumpi\n        /* \"#utility.yul\":12810:12818   */\n      dup2\n        /* \"#utility.yul\":12795:12818   */\n      swap1\n      pop\n        /* \"#utility.yul\":12771:12820   */\n    tag_291:\n        /* \"#utility.yul\":12833:12913   */\n      tag_292\n        /* \"#utility.yul\":12889:12911   */\n      tag_293\n        /* \"#utility.yul\":12907:12910   */\n      dup6\n        /* \"#utility.yul\":12889:12911   */\n      tag_137\n      jump\t// in\n    tag_293:\n        /* \"#utility.yul\":12879:12887   */\n      dup4\n        /* \"#utility.yul\":12875:12912   */\n      add\n        /* \"#utility.yul\":12862:12873   */\n      dup3\n        /* \"#utility.yul\":12833:12913   */\n      tag_146\n      jump\t// in\n    tag_292:\n        /* \"#utility.yul\":12492:12923   */\n      pop\n      pop\n        /* \"#utility.yul\":12477:12923   */\n    tag_288:\n        /* \"#utility.yul\":12387:12930   */\n      pop\n      pop\n      pop\n      jump\t// out\n        /* \"#utility.yul\":12936:13053   */\n    tag_148:\n        /* \"#utility.yul\":12990:12998   */\n      0x00\n        /* \"#utility.yul\":13040:13045   */\n      dup3\n        /* \"#utility.yul\":13034:13038   */\n      dup3\n        /* \"#utility.yul\":13030:13046   */\n      shr\n        /* \"#utility.yul\":13009:13046   */\n      swap1\n      pop\n        /* \"#utility.yul\":12936:13053   */\n      swap3\n      swap2\n      pop\n      pop\n      jump\t// out\n        /* \"#utility.yul\":13059:13228   */\n    tag_149:\n        /* \"#utility.yul\":13103:13109   */\n      0x00\n        /* \"#utility.yul\":13136:13187   */\n      tag_296\n        /* \"#utility.yul\":13184:13185   */\n      0x00\n        /* \"#utility.yul\":13180:13186   */\n      not\n        /* \"#utility.yul\":13172:13177   */\n      dup5\n        /* \"#utility.yul\":13169:13170   */\n      0x08\n        /* \"#utility.yul\":13165:13178   */\n      mul\n        /* \"#utility.yul\":13136:13187   */\n      tag_148\n      jump\t// in\n    tag_296:\n        /* \"#utility.yul\":13132:13188   */\n      not\n        /* \"#utility.yul\":13217:13221   */\n      dup1\n        /* \"#utility.yul\":13211:13215   */\n      dup4\n        /* \"#utility.yul\":13207:13222   */\n      and\n        /* \"#utility.yul\":13197:13222   */\n      swap2\n      pop\n        /* \"#utility.yul\":13110:13228   */\n      pop\n        /* \"#utility.yul\":13059:13228   */\n      swap3\n      swap2\n      pop\n      pop\n      jump\t// out\n        /* \"#utility.yul\":13233:13528   */\n    tag_150:\n        /* \"#utility.yul\":13309:13313   */\n      0x00\n        /* \"#utility.yul\":13455:13484   */\n      tag_298\n        /* \"#utility.yul\":13480:13483   */\n      dup4\n        /* \"#utility.yul\":13474:13478   */\n      dup4\n        /* \"#utility.yul\":13455:13484   */\n      tag_149\n      jump\t// in\n    tag_298:\n        /* \"#utility.yul\":13447:13484   */\n      swap2\n      pop\n        /* \"#utility.yul\":13517:13520   */\n      dup3\n        /* \"#utility.yul\":13514:13515   */\n      0x02\n        /* \"#utility.yul\":13510:13521   */\n      mul\n        /* \"#utility.yul\":13504:13508   */\n      dup3\n        /* \"#utility.yul\":13501:13522   */\n      or\n        /* \"#utility.yul\":13493:13522   */\n      swap1\n      pop\n        /* \"#utility.yul\":13233:13528   */\n      swap3\n      swap2\n      pop\n      pop\n      jump\t// out\n        /* \"#utility.yul\":13533:14928   */\n    tag_60:\n        /* \"#utility.yul\":13650:13687   */\n      tag_300\n        /* \"#utility.yul\":13683:13686   */\n      dup3\n        /* \"#utility.yul\":13650:13687   */\n      tag_113\n      jump\t// in\n    tag_300:\n        /* \"#utility.yul\":13752:13770   */\n      0xffffffffffffffff\n        /* \"#utility.yul\":13744:13750   */\n      dup2\n        /* \"#utility.yul\":13741:13771   */\n      gt\n        /* \"#utility.yul\":13738:13794   */\n      iszero\n      tag_301\n      jumpi\n        /* \"#utility.yul\":13774:13792   */\n      tag_302\n      tag_124\n      jump\t// in\n    tag_302:\n        /* \"#utility.yul\":13738:13794   */\n    tag_301:\n        /* \"#utility.yul\":13818:13856   */\n      tag_303\n        /* \"#utility.yul\":13850:13854   */\n      dup3\n        /* \"#utility.yul\":13844:13855   */\n      sload\n        /* \"#utility.yul\":13818:13856   */\n      tag_36\n      jump\t// in\n    tag_303:\n        /* \"#utility.yul\":13903:13970   */\n      tag_304\n        /* \"#utility.yul\":13963:13969   */\n      dup3\n        /* \"#utility.yul\":13955:13961   */\n      dup3\n        /* \"#utility.yul\":13949:13953   */\n      dup6\n        /* \"#utility.yul\":13903:13970   */\n      tag_147\n      jump\t// in\n    tag_304:\n        /* \"#utility.yul\":13997:13998   */\n      0x00\n        /* \"#utility.yul\":14021:14025   */\n      0x20\n        /* \"#utility.yul\":14008:14025   */\n      swap1\n      pop\n        /* \"#utility.yul\":14053:14055   */\n      0x1f\n        /* \"#utility.yul\":14045:14051   */\n      dup4\n        /* \"#utility.yul\":14042:14056   */\n      gt\n        /* \"#utility.yul\":14070:14071   */\n      0x01\n        /* \"#utility.yul\":14065:14683   */\n      dup2\n      eq\n      tag_306\n      jumpi\n        /* \"#utility.yul\":14727:14728   */\n      0x00\n        /* \"#utility.yul\":14744:14750   */\n      dup5\n        /* \"#utility.yul\":14741:14818   */\n      iszero\n      tag_307\n      jumpi\n        /* \"#utility.yul\":14793:14802   */\n      dup3\n        /* \"#utility.yul\":14788:14791   */\n      dup8\n        /* \"#utility.yul\":14784:14803   */\n      add\n        /* \"#utility.yul\":14778:14804   */\n      mload\n        /* \"#utility.yul\":14769:14804   */\n      swap1\n      pop\n        /* \"#utility.yul\":14741:14818   */\n    tag_307:\n        /* \"#utility.yul\":14844:14911   */\n      tag_308\n        /* \"#utility.yul\":14904:14910   */\n      dup6\n        /* \"#utility.yul\":14897:14902   */\n      dup3\n        /* \"#utility.yul\":14844:14911   */\n      tag_150\n      jump\t// in\n    tag_308:\n        /* \"#utility.yul\":14838:14842   */\n      dup7\n        /* \"#utility.yul\":14831:14912   */\n      sstore\n        /* \"#utility.yul\":14700:14922   */\n      pop\n        /* \"#utility.yul\":14035:14922   */\n      jump(tag_305)\n        /* \"#utility.yul\":14065:14683   */\n    tag_306:\n        /* \"#utility.yul\":14117:14121   */\n      0x1f\n        /* \"#utility.yul\":14113:14122   */\n      not\n        /* \"#utility.yul\":14105:14111   */\n      dup5\n        /* \"#utility.yul\":14101:14123   */\n      and\n        /* \"#utility.yul\":14151:14188   */\n      tag_309\n        /* \"#utility.yul\":14183:14187   */\n      dup7\n        /* \"#utility.yul\":14151:14188   */\n      tag_136\n      jump\t// in\n    tag_309:\n        /* \"#utility.yul\":14210:14211   */\n      0x00\n        /* \"#utility.yul\":14224:14432   */\n    tag_310:\n        /* \"#utility.yul\":14238:14245   */\n      dup3\n        /* \"#utility.yul\":14235:14236   */\n      dup2\n        /* \"#utility.yul\":14232:14246   */\n      lt\n        /* \"#utility.yul\":14224:14432   */\n      iszero\n      tag_312\n      jumpi\n        /* \"#utility.yul\":14317:14326   */\n      dup5\n        /* \"#utility.yul\":14312:14315   */\n      dup10\n        /* \"#utility.yul\":14308:14327   */\n      add\n        /* \"#utility.yul\":14302:14328   */\n      mload\n        /* \"#utility.yul\":14294:14300   */\n      dup3\n        /* \"#utility.yul\":14287:14329   */\n      sstore\n        /* \"#utility.yul\":14368:14369   */\n      0x01\n        /* \"#utility.yul\":14360:14366   */\n      dup3\n        /* \"#utility.yul\":14356:14370   */\n      add\n        /* \"#utility.yul\":14346:14370   */\n      swap2\n      pop\n        /* \"#utility.yul\":14415:14417   */\n      0x20\n        /* \"#utility.yul\":14404:14413   */\n      dup6\n        /* \"#utility.yul\":14400:14418   */\n      add\n        /* \"#utility.yul\":14387:14418   */\n      swap5\n      pop\n        /* \"#utility.yul\":14261:14265   */\n      0x20\n        /* \"#utility.yul\":14258:14259   */\n      dup2\n        /* \"#utility.yul\":14254:14266   */\n      add\n        /* \"#utility.yul\":14249:14266   */\n      swap1\n      pop\n        /* \"#utility.yul\":14224:14432   */\n      jump(tag_310)\n    tag_312:\n        /* \"#utility.yul\":14460:14466   */\n      dup7\n        /* \"#utility.yul\":14451:14458   */\n      dup4\n        /* \"#utility.yul\":14448:14467   */\n      lt\n        /* \"#utility.yul\":14445:14624   */\n      iszero\n      tag_313\n      jumpi\n        /* \"#utility.yul\":14518:14527   */\n      dup5\n        /* \"#utility.yul\":14513:14516   */\n      dup10\n        /* \"#utility.yul\":14509:14528   */\n      add\n        /* \"#utility.yul\":14503:14529   */\n      mload\n        /* \"#utility.yul\":14561:14609   */\n      tag_314\n        /* \"#utility.yul\":14603:14607   */\n      0x1f\n        /* \"#utility.yul\":14595:14601   */\n      dup10\n        /* \"#utility.yul\":14591:14608   */\n      and\n        /* \"#utility.yul\":14580:14589   */\n      dup3\n        /* \"#utility.yul\":14561:14609   */\n      tag_149\n      jump\t// in\n    tag_314:\n        /* \"#utility.yul\":14553:14559   */\n      dup4\n        /* \"#utility.yul\":14546:14610   */\n      sstore\n        /* \"#utility.yul\":14468:14624   */\n      pop\n        /* \"#utility.yul\":14445:14624   */\n    tag_313:\n        /* \"#utility.yul\":14670:14671   */\n      0x01\n        /* \"#utility.yul\":14666:14667   */\n      0x02\n        /* \"#utility.yul\":14658:14664   */\n      dup9\n        /* \"#utility.yul\":14654:14668   */\n      mul\n        /* \"#utility.yul\":14650:14672   */\n      add\n        /* \"#utility.yul\":14644:14648   */\n      dup9\n        /* \"#utility.yul\":14637:14673   */\n      sstore\n        /* \"#utility.yul\":14072:14683   */\n      pop\n      pop\n      pop\n        /* \"#utility.yul\":14035:14922   */\n    tag_305:\n      pop\n        /* \"#utility.yul\":13625:14928   */\n      pop\n      pop\n      pop\n        /* \"#utility.yul\":13533:14928   */\n      pop\n      pop\n      jump\t// out\n        /* \"#utility.yul\":14934:15594   */\n    tag_64:\n        /* \"#utility.yul\":15139:15143   */\n      0x00\n        /* \"#utility.yul\":15177:15180   */\n      0x80\n        /* \"#utility.yul\":15166:15175   */\n      dup3\n        /* \"#utility.yul\":15162:15181   */\n      add\n        /* \"#utility.yul\":15154:15181   */\n      swap1\n      pop\n        /* \"#utility.yul\":15227:15236   */\n      dup2\n        /* \"#utility.yul\":15221:15225   */\n      dup2\n        /* \"#utility.yul\":15217:15237   */\n      sub\n        /* \"#utility.yul\":15213:15214   */\n      0x00\n        /* \"#utility.yul\":15202:15211   */\n      dup4\n        /* \"#utility.yul\":15198:15215   */\n      add\n        /* \"#utility.yul\":15191:15238   */\n      mstore\n        /* \"#utility.yul\":15255:15333   */\n      tag_316\n        /* \"#utility.yul\":15328:15332   */\n      dup2\n        /* \"#utility.yul\":15319:15325   */\n      dup8\n        /* \"#utility.yul\":15255:15333   */\n      tag_117\n      jump\t// in\n    tag_316:\n        /* \"#utility.yul\":15247:15333   */\n      swap1\n      pop\n        /* \"#utility.yul\":15343:15415   */\n      tag_317\n        /* \"#utility.yul\":15411:15413   */\n      0x20\n        /* \"#utility.yul\":15400:15409   */\n      dup4\n        /* \"#utility.yul\":15396:15414   */\n      add\n        /* \"#utility.yul\":15387:15393   */\n      dup7\n        /* \"#utility.yul\":15343:15415   */\n      tag_112\n      jump\t// in\n    tag_317:\n        /* \"#utility.yul\":15425:15497   */\n      tag_318\n        /* \"#utility.yul\":15493:15495   */\n      0x40\n        /* \"#utility.yul\":15482:15491   */\n      dup4\n        /* \"#utility.yul\":15478:15496   */\n      add\n        /* \"#utility.yul\":15469:15475   */\n      dup6\n        /* \"#utility.yul\":15425:15497   */\n      tag_112\n      jump\t// in\n    tag_318:\n        /* \"#utility.yul\":15507:15587   */\n      tag_319\n        /* \"#utility.yul\":15583:15585   */\n      0x60\n        /* \"#utility.yul\":15572:15581   */\n      dup4\n        /* \"#utility.yul\":15568:15586   */\n      add\n        /* \"#utility.yul\":15559:15565   */\n      dup5\n        /* \"#utility.yul\":15507:15587   */\n      tag_121\n      jump\t// in\n    tag_319:\n        /* \"#utility.yul\":14934:15594   */\n      swap6\n      swap5\n      pop\n      pop\n      pop\n      pop\n      pop\n      jump\t// out\n        /* \"#utility.yul\":15600:15780   */\n    tag_151:\n        /* \"#utility.yul\":15648:15725   */\n      0x4e487b7100000000000000000000000000000000000000000000000000000000\n        /* \"#utility.yul\":15645:15646   */\n      0x00\n        /* \"#utility.yul\":15638:15726   */\n      mstore\n        /* \"#utility.yul\":15745:15749   */\n      0x11\n        /* \"#utility.yul\":15742:15743   */\n      0x04\n        /* \"#utility.yul\":15735:15750   */\n      mstore\n        /* \"#utility.yul\":15769:15773   */\n      0x24\n        /* \"#utility.yul\":15766:15767   */\n      0x00\n        /* \"#utility.yul\":15759:15774   */\n      revert\n        /* \"#utility.yul\":15786:15957   */\n    tag_83:\n        /* \"#utility.yul\":15825:15828   */\n      0x00\n        /* \"#utility.yul\":15848:15872   */\n      tag_322\n        /* \"#utility.yul\":15866:15871   */\n      dup3\n        /* \"#utility.yul\":15848:15872   */\n      tag_109\n      jump\t// in\n    tag_322:\n        /* \"#utility.yul\":15839:15872   */\n      swap2\n      pop\n        /* \"#utility.yul\":15894:15898   */\n      0x00\n        /* \"#utility.yul\":15887:15892   */\n      dup3\n        /* \"#utility.yul\":15884:15899   */\n      sub\n        /* \"#utility.yul\":15881:15922   */\n      tag_323\n      jumpi\n        /* \"#utility.yul\":15902:15920   */\n      tag_324\n      tag_151\n      jump\t// in\n    tag_324:\n        /* \"#utility.yul\":15881:15922   */\n    tag_323:\n        /* \"#utility.yul\":15949:15950   */\n      0x01\n        /* \"#utility.yul\":15942:15947   */\n      dup3\n        /* \"#utility.yul\":15938:15951   */\n      sub\n        /* \"#utility.yul\":15931:15951   */\n      swap1\n      pop\n        /* \"#utility.yul\":15786:15957   */\n      swap2\n      swap1\n      pop\n      jump\t// out\n        /* \"#utility.yul\":15963:16136   */\n    tag_152:\n        /* \"#utility.yul\":16103:16128   */\n      0x536869706d656e7420616c726561647920657869737473000000000000000000\n        /* \"#utility.yul\":16099:16100   */\n      0x00\n        /* \"#utility.yul\":16091:16097   */\n      dup3\n        /* \"#utility.yul\":16087:16101   */\n      add\n        /* \"#utility.yul\":16080:16129   */\n      mstore\n        /* \"#utility.yul\":15963:16136   */\n      pop\n      jump\t// out\n        /* \"#utility.yul\":16142:16508   */\n    tag_153:\n        /* \"#utility.yul\":16284:16287   */\n      0x00\n        /* \"#utility.yul\":16305:16372   */\n      tag_327\n        /* \"#utility.yul\":16369:16371   */\n      0x17\n        /* \"#utility.yul\":16364:16367   */\n      dup4\n        /* \"#utility.yul\":16305:16372   */\n      tag_114\n      jump\t// in\n    tag_327:\n        /* \"#utility.yul\":16298:16372   */\n      swap2\n      pop\n        /* \"#utility.yul\":16381:16474   */\n      tag_328\n        /* \"#utility.yul\":16470:16473   */\n      dup3\n        /* \"#utility.yul\":16381:16474   */\n      tag_152\n      jump\t// in\n    tag_328:\n        /* \"#utility.yul\":16499:16501   */\n      0x20\n        /* \"#utility.yul\":16494:16497   */\n      dup3\n        /* \"#utility.yul\":16490:16502   */\n      add\n        /* \"#utility.yul\":16483:16502   */\n      swap1\n      pop\n        /* \"#utility.yul\":16142:16508   */\n      swap2\n      swap1\n      pop\n      jump\t// out\n        /* \"#utility.yul\":16514:16933   */\n    tag_88:\n        /* \"#utility.yul\":16680:16684   */\n      0x00\n        /* \"#utility.yul\":16718:16720   */\n      0x20\n        /* \"#utility.yul\":16707:16716   */\n      dup3\n        /* \"#utility.yul\":16703:16721   */\n      add\n        /* \"#utility.yul\":16695:16721   */\n      swap1\n      pop\n        /* \"#utility.yul\":16767:16776   */\n      dup2\n        /* \"#utility.yul\":16761:16765   */\n      dup2\n        /* \"#utility.yul\":16757:16777   */\n      sub\n        /* \"#utility.yul\":16753:16754   */\n      0x00\n        /* \"#utility.yul\":16742:16751   */\n      dup4\n        /* \"#utility.yul\":16738:16755   */\n      add\n        /* \"#utility.yul\":16731:16778   */\n      mstore\n        /* \"#utility.yul\":16795:16926   */\n      tag_330\n        /* \"#utility.yul\":16921:16925   */\n      dup2\n        /* \"#utility.yul\":16795:16926   */\n      tag_153\n      jump\t// in\n    tag_330:\n        /* \"#utility.yul\":16787:16926   */\n      swap1\n      pop\n        /* \"#utility.yul\":16514:16933   */\n      swap2\n      swap1\n      pop\n      jump\t// out\n        /* \"#utility.yul\":16939:17172   */\n    tag_96:\n        /* \"#utility.yul\":16978:16981   */\n      0x00\n        /* \"#utility.yul\":17001:17025   */\n      tag_332\n        /* \"#utility.yul\":17019:17024   */\n      dup3\n        /* \"#utility.yul\":17001:17025   */\n      tag_109\n      jump\t// in\n    tag_332:\n        /* \"#utility.yul\":16992:17025   */\n      swap2\n      pop\n        /* \"#utility.yul\":17047:17113   */\n      0xffffffffffffffffffffffffffffffffffffffffffffffffffffffffffffffff\n        /* \"#utility.yul\":17040:17045   */\n      dup3\n        /* \"#utility.yul\":17037:17114   */\n      sub\n        /* \"#utility.yul\":17034:17137   */\n      tag_333\n      jumpi\n        /* \"#utility.yul\":17117:17135   */\n      tag_334\n      tag_151\n      jump\t// in\n    tag_334:\n        /* \"#utility.yul\":17034:17137   */\n    tag_333:\n        /* \"#utility.yul\":17164:17165   */\n      0x01\n        /* \"#utility.yul\":17157:17162   */\n      dup3\n        /* \"#utility.yul\":17153:17166   */\n      add\n        /* \"#utility.yul\":17146:17166   */\n      swap1\n      pop\n        /* \"#utility.yul\":16939:17172   */\n      swap2\n      swap1\n      pop\n      jump\t// out\n        /* \"#utility.yul\":17178:18040   */\n    tag_98:\n        /* \"#utility.yul\":17431:17435   */\n      0x00\n        /* \"#utility.yul\":17469:17472   */\n      0xa0\n        /* \"#utility.yul\":17458:17467   */\n      dup3\n        /* \"#utility.yul\":17454:17473   */\n      add\n        /* \"#utility.yul\":17446:17473   */\n      swap1\n      pop\n        /* \"#utility.yul\":17519:17528   */\n      dup2\n        /* \"#utility.yul\":17513:17517   */\n      dup2\n        /* \"#utility.yul\":17509:17529   */\n      sub\n        /* \"#utility.yul\":17505:17506   */\n      0x00\n        /* \"#utility.yul\":17494:17503   */\n      dup4\n        /* \"#utility.yul\":17490:17507   */\n      add\n        /* \"#utility.yul\":17483:17530   */\n      mstore\n        /* \"#utility.yul\":17547:17625   */\n      tag_336\n        /* \"#utility.yul\":17620:17624   */\n      dup2\n        /* \"#utility.yul\":17611:17617   */\n      dup9\n        /* \"#utility.yul\":17547:17625   */\n      tag_117\n      jump\t// in\n    tag_336:\n        /* \"#utility.yul\":17539:17625   */\n      swap1\n      pop\n        /* \"#utility.yul\":17672:17681   */\n      dup2\n        /* \"#utility.yul\":17666:17670   */\n      dup2\n        /* \"#utility.yul\":17662:17682   */\n      sub\n        /* \"#utility.yul\":17657:17659   */\n      0x20\n        /* \"#utility.yul\":17646:17655   */\n      dup4\n        /* \"#utility.yul\":17642:17660   */\n      add\n        /* \"#utility.yul\":17635:17683   */\n      mstore\n        /* \"#utility.yul\":17700:17778   */\n      tag_337\n        /* \"#utility.yul\":17773:17777   */\n      dup2\n        /* \"#utility.yul\":17764:17770   */\n      dup8\n        /* \"#utility.yul\":17700:17778   */\n      tag_117\n      jump\t// in\n    tag_337:\n        /* \"#utility.yul\":17692:17778   */\n      swap1\n      pop\n        /* \"#utility.yul\":17788:17860   */\n      tag_338\n        /* \"#utility.yul\":17856:17858   */\n      0x40\n        /* \"#utility.yul\":17845:17854   */\n      dup4\n        /* \"#utility.yul\":17841:17859   */\n      add\n        /* \"#utility.yul\":17832:17838   */\n      dup7\n        /* \"#utility.yul\":17788:17860   */\n      tag_112\n      jump\t// in\n    tag_338:\n        /* \"#utility.yul\":17870:17942   */\n      tag_339\n        /* \"#utility.yul\":17938:17940   */\n      0x60\n        /* \"#utility.yul\":17927:17936   */\n      dup4\n        /* \"#utility.yul\":17923:17941   */\n      add\n        /* \"#utility.yul\":17914:17920   */\n      dup6\n        /* \"#utility.yul\":17870:17942   */\n      tag_112\n      jump\t// in\n    tag_339:\n        /* \"#utility.yul\":17952:18033   */\n      tag_340\n        /* \"#utility.yul\":18028:18031   */\n      0x80\n        /* \"#utility.yul\":18017:18026   */\n      dup4\n        /* \"#utility.yul\":18013:18032   */\n      add\n        /* \"#utility.yul\":18004:18010   */\n      dup5\n        /* \"#utility.yul\":17952:18033   */\n      tag_121\n      jump\t// in\n    tag_340:\n        /* \"#utility.yul\":17178:18040   */\n      swap7\n      swap6\n      pop\n      pop\n      pop\n      pop\n      pop\n      pop\n      jump\t// out\n\n    auxdata: 0xa2646970667358221220684670f4519757633278eaa07f92367dd89fbe14bd36ca39d6dbb749a247a6c564736f6c634300081a0033\n}\n",
				"bytecode": {
					"linkReferences": {},
					"object": "60806040525f6001553480156012575f80fd5b5061128a806100205f395ff3fe608060405234801561000f575f80fd5b5060043610610060575f3560e01c8063092b3740146100645780631c6ea48e146100995780632ac08a93146100b5578063959f9272146100ea578063a5bd537f14610106578063aace20b714610122575b5f80fd5b61007e6004803603810190610079919061091d565b610140565b60405161009096959493929190610a3a565b60405180910390f35b6100b360048036038101906100ae9190610bf6565b610370565b005b6100cf60048036038101906100ca919061091d565b6104a1565b6040516100e196959493929190610a3a565b60405180910390f35b61010460048036038101906100ff919061091d565b6105f0565b005b610120600480360381019061011b9190610c89565b6106f0565b005b61012a61087b565b6040516101379190610d5e565b60405180910390f35b5f6060805f805f805f808981526020019081526020015f20600101805461016690610da4565b9050036101a8576040517f08c379a000000000000000000000000000000000000000000000000000000000815260040161019f90610e1e565b60405180910390fd5b5f805f8981526020019081526020015f206040518060c00160405290815f82015481526020016001820180546101dd90610da4565b80601f016020809104026020016040519081016040528092919081815260200182805461020990610da4565b80156102545780601f1061022b57610100808354040283529160200191610254565b820191905f5260205f20905b81548152906001019060200180831161023757829003601f168201915b5050505050815260200160028201805461026d90610da4565b80601f016020809104026020016040519081016040528092919081815260200182805461029990610da4565b80156102e45780601f106102bb576101008083540402835291602001916102e4565b820191905f5260205f20905b8154815290600101906020018083116102c757829003601f168201915b505050505081526020016003820154815260200160048201548152602001600582015f9054906101000a900460ff166005811115610325576103246109c7565b5b6005811115610337576103366109c7565b5b815250509050805f015181602001518260400151836060015184608001518560a001519650965096509650965096505091939550919395565b5f805f8781526020019081526020015f20600101805461038f90610da4565b9050036103d1576040517f08c379a00000000000000000000000000000000000000000000000000000000081526004016103c890610e1e565b60405180910390fd5b835f808781526020019081526020015f2060020190816103f19190610fd9565b50825f808781526020019081526020015f2060030181905550815f808781526020019081526020015f2060040181905550805f808781526020019081526020015f206005015f6101000a81548160ff02191690836005811115610457576104566109c7565b5b0217905550847f2302c855863721c54bac4c0f553dd77e28ef97cbf1d7d4594753e8fcdbcdb9a28585858560405161049294939291906110a8565b60405180910390a25050505050565b5f602052805f5260405f205f91509050805f0154908060010180546104c590610da4565b80601f01602080910402602001604051908101604052809291908181526020018280546104f190610da4565b801561053c5780601f106105135761010080835404028352916020019161053c565b820191905f5260205f20905b81548152906001019060200180831161051f57829003601f168201915b50505050509080600201805461055190610da4565b80601f016020809104026020016040519081016040528092919081815260200182805461057d90610da4565b80156105c85780601f1061059f576101008083540402835291602001916105c8565b820191905f5260205f20905b8154815290600101906020018083116105ab57829003601f168201915b505050505090806003015490806004015490806005015f9054906101000a900460ff16905086565b5f805f8381526020019081526020015f20600101805461060f90610da4565b905003610651576040517f08c379a000000000000000000000000000000000000000000000000000000000815260040161064890610e1e565b60405180910390fd5b5f808281526020019081526020015f205f8082015f9055600182015f6106779190610881565b600282015f6106869190610881565b600382015f9055600482015f9055600582015f6101000a81549060ff0219169055505060015f8154809291906106bb9061111f565b9190505550807f66c891e51efb5e3de78f960a0177f968c9e0866811cde856de366b3c1c295eb560405160405180910390a250565b5f805f8981526020019081526020015f20600101805461070f90610da4565b905014610751576040517f08c379a000000000000000000000000000000000000000000000000000000000815260040161074890611190565b60405180910390fd5b6040518060c0016040528087815260200186815260200185815260200184815260200183815260200182600581111561078d5761078c6109c7565b5b8152505f808981526020019081526020015f205f820151815f015560208201518160010190816107bd9190610fd9565b5060408201518160020190816107d39190610fd9565b50606082015181600301556080820151816004015560a0820151816005015f6101000a81548160ff02191690836005811115610812576108116109c7565b5b021790555090505060015f81548092919061082c906111ae565b919050555085877fb8b48272eab3e0e74b9f07624d5e186ea5b90aa52f2c697f35d3ca5b2df69b64878787878760405161086a9594939291906111f5565b60405180910390a350505050505050565b60015481565b50805461088d90610da4565b5f825580601f1061089e57506108bb565b601f0160209004905f5260205f20908101906108ba91906108be565b5b50565b5b808211156108d5575f815f9055506001016108bf565b5090565b5f604051905090565b5f80fd5b5f80fd5b5f819050919050565b6108fc816108ea565b8114610906575f80fd5b50565b5f81359050610917816108f3565b92915050565b5f60208284031215610932576109316108e2565b5b5f61093f84828501610909565b91505092915050565b610951816108ea565b82525050565b5f81519050919050565b5f82825260208201905092915050565b8281835e5f83830152505050565b5f601f19601f8301169050919050565b5f61099982610957565b6109a38185610961565b93506109b3818560208601610971565b6109bc8161097f565b840191505092915050565b7f4e487b71000000000000000000000000000000000000000000000000000000005f52602160045260245ffd5b60068110610a0557610a046109c7565b5b50565b5f819050610a15826109f4565b919050565b5f610a2482610a08565b9050919050565b610a3481610a1a565b82525050565b5f60c082019050610a4d5f830189610948565b8181036020830152610a5f818861098f565b90508181036040830152610a73818761098f565b9050610a826060830186610948565b610a8f6080830185610948565b610a9c60a0830184610a2b565b979650505050505050565b5f80fd5b5f80fd5b7f4e487b71000000000000000000000000000000000000000000000000000000005f52604160045260245ffd5b610ae58261097f565b810181811067ffffffffffffffff82111715610b0457610b03610aaf565b5b80604052505050565b5f610b166108d9565b9050610b228282610adc565b919050565b5f67ffffffffffffffff821115610b4157610b40610aaf565b5b610b4a8261097f565b9050602081019050919050565b828183375f83830152505050565b5f610b77610b7284610b27565b610b0d565b905082815260208101848484011115610b9357610b92610aab565b5b610b9e848285610b57565b509392505050565b5f82601f830112610bba57610bb9610aa7565b5b8135610bca848260208601610b65565b91505092915050565b60068110610bdf575f80fd5b50565b5f81359050610bf081610bd3565b92915050565b5f805f805f60a08688031215610c0f57610c0e6108e2565b5b5f610c1c88828901610909565b955050602086013567ffffffffffffffff811115610c3d57610c3c6108e6565b5b610c4988828901610ba6565b9450506040610c5a88828901610909565b9350506060610c6b88828901610909565b9250506080610c7c88828901610be2565b9150509295509295909350565b5f805f805f805f60e0888a031215610ca457610ca36108e2565b5b5f610cb18a828b01610909565b9750506020610cc28a828b01610909565b965050604088013567ffffffffffffffff811115610ce357610ce26108e6565b5b610cef8a828b01610ba6565b955050606088013567ffffffffffffffff811115610d1057610d0f6108e6565b5b610d1c8a828b01610ba6565b9450506080610d2d8a828b01610909565b93505060a0610d3e8a828b01610909565b92505060c0610d4f8a828b01610be2565b91505092959891949750929550565b5f602082019050610d715f830184610948565b92915050565b7f4e487b71000000000000000000000000000000000000000000000000000000005f52602260045260245ffd5b5f6002820490506001821680610dbb57607f821691505b602082108103610dce57610dcd610d77565b5b50919050565b7f536869706d656e7420646f6573206e6f742065786973740000000000000000005f82015250565b5f610e08601783610961565b9150610e1382610dd4565b602082019050919050565b5f6020820190508181035f830152610e3581610dfc565b9050919050565b5f819050815f5260205f209050919050565b5f6020601f8301049050919050565b5f82821b905092915050565b5f60088302610e987fffffffffffffffffffffffffffffffffffffffffffffffffffffffffffffffff82610e5d565b610ea28683610e5d565b95508019841693508086168417925050509392505050565b5f819050919050565b5f610edd610ed8610ed3846108ea565b610eba565b6108ea565b9050919050565b5f819050919050565b610ef683610ec3565b610f0a610f0282610ee4565b848454610e69565b825550505050565b5f90565b610f1e610f12565b610f29818484610eed565b505050565b5b81811015610f4c57610f415f82610f16565b600181019050610f2f565b5050565b601f821115610f9157610f6281610e3c565b610f6b84610e4e565b81016020851015610f7a578190505b610f8e610f8685610e4e565b830182610f2e565b50505b505050565b5f82821c905092915050565b5f610fb15f1984600802610f96565b1980831691505092915050565b5f610fc98383610fa2565b9150826002028217905092915050565b610fe282610957565b67ffffffffffffffff811115610ffb57610ffa610aaf565b5b6110058254610da4565b611010828285610f50565b5f60209050601f831160018114611041575f841561102f578287015190505b6110398582610fbe565b8655506110a0565b601f19841661104f86610e3c565b5f5b8281101561107657848901518255600182019150602085019450602081019050611051565b86831015611093578489015161108f601f891682610fa2565b8355505b6001600288020188555050505b505050505050565b5f6080820190508181035f8301526110c0818761098f565b90506110cf6020830186610948565b6110dc6040830185610948565b6110e96060830184610a2b565b95945050505050565b7f4e487b71000000000000000000000000000000000000000000000000000000005f52601160045260245ffd5b5f611129826108ea565b91505f820361113b5761113a6110f2565b5b600182039050919050565b7f536869706d656e7420616c7265616479206578697374730000000000000000005f82015250565b5f61117a601783610961565b915061118582611146565b602082019050919050565b5f6020820190508181035f8301526111a78161116e565b9050919050565b5f6111b8826108ea565b91507fffffffffffffffffffffffffffffffffffffffffffffffffffffffffffffffff82036111ea576111e96110f2565b5b600182019050919050565b5f60a0820190508181035f83015261120d818861098f565b90508181036020830152611221818761098f565b90506112306040830186610948565b61123d6060830185610948565b61124a6080830184610a2b565b969550505050505056fea2646970667358221220684670f4519757633278eaa07f92367dd89fbe14bd36ca39d6dbb749a247a6c564736f6c634300081a0033",
					"opcodes": "PUSH1 0x80 PUSH1 0x40 MSTORE PUSH0 PUSH1 0x1 SSTORE CALLVALUE DUP1 ISZERO PUSH1 0x12 JUMPI PUSH0 DUP1 REVERT JUMPDEST POP PUSH2 0x128A DUP1 PUSH2 0x20 PUSH0 CODECOPY PUSH0 RETURN INVALID PUSH1 0x80 PUSH1 0x40 MSTORE CALLVALUE DUP1 ISZERO PUSH2 0xF JUMPI PUSH0 DUP1 REVERT JUMPDEST POP PUSH1 0x4 CALLDATASIZE LT PUSH2 0x60 JUMPI PUSH0 CALLDATALOAD PUSH1 0xE0 SHR DUP1 PUSH4 0x92B3740 EQ PUSH2 0x64 JUMPI DUP1 PUSH4 0x1C6EA48E EQ PUSH2 0x99 JUMPI DUP1 PUSH4 0x2AC08A93 EQ PUSH2 0xB5 JUMPI DUP1 PUSH4 0x959F9272 EQ PUSH2 0xEA JUMPI DUP1 PUSH4 0xA5BD537F EQ PUSH2 0x106 JUMPI DUP1 PUSH4 0xAACE20B7 EQ PUSH2 0x122 JUMPI JUMPDEST PUSH0 DUP1 REVERT JUMPDEST PUSH2 0x7E PUSH1 0x4 DUP1 CALLDATASIZE SUB DUP2 ADD SWAP1 PUSH2 0x79 SWAP2 SWAP1 PUSH2 0x91D JUMP JUMPDEST PUSH2 0x140 JUMP JUMPDEST PUSH1 0x40 MLOAD PUSH2 0x90 SWAP7 SWAP6 SWAP5 SWAP4 SWAP3 SWAP2 SWAP1 PUSH2 0xA3A JUMP JUMPDEST PUSH1 0x40 MLOAD DUP1 SWAP2 SUB SWAP1 RETURN JUMPDEST PUSH2 0xB3 PUSH1 0x4 DUP1 CALLDATASIZE SUB DUP2 ADD SWAP1 PUSH2 0xAE SWAP2 SWAP1 PUSH2 0xBF6 JUMP JUMPDEST PUSH2 0x370 JUMP JUMPDEST STOP JUMPDEST PUSH2 0xCF PUSH1 0x4 DUP1 CALLDATASIZE SUB DUP2 ADD SWAP1 PUSH2 0xCA SWAP2 SWAP1 PUSH2 0x91D JUMP JUMPDEST PUSH2 0x4A1 JUMP JUMPDEST PUSH1 0x40 MLOAD PUSH2 0xE1 SWAP7 SWAP6 SWAP5 SWAP4 SWAP3 SWAP2 SWAP1 PUSH2 0xA3A JUMP JUMPDEST PUSH1 0x40 MLOAD DUP1 SWAP2 SUB SWAP1 RETURN JUMPDEST PUSH2 0x104 PUSH1 0x4 DUP1 CALLDATASIZE SUB DUP2 ADD SWAP1 PUSH2 0xFF SWAP2 SWAP1 PUSH2 0x91D JUMP JUMPDEST PUSH2 0x5F0 JUMP JUMPDEST STOP JUMPDEST PUSH2 0x120 PUSH1 0x4 DUP1 CALLDATASIZE SUB DUP2 ADD SWAP1 PUSH2 0x11B SWAP2 SWAP1 PUSH2 0xC89 JUMP JUMPDEST PUSH2 0x6F0 JUMP JUMPDEST STOP JUMPDEST PUSH2 0x12A PUSH2 0x87B JUMP JUMPDEST PUSH1 0x40 MLOAD PUSH2 0x137 SWAP2 SWAP1 PUSH2 0xD5E JUMP JUMPDEST PUSH1 0x40 MLOAD DUP1 SWAP2 SUB SWAP1 RETURN JUMPDEST PUSH0 PUSH1 0x60 DUP1 PUSH0 DUP1 PUSH0 DUP1 PUSH0 DUP1 DUP10 DUP2 MSTORE PUSH1 0x20 ADD SWAP1 DUP2 MSTORE PUSH1 0x20 ADD PUSH0 KECCAK256 PUSH1 0x1 ADD DUP1 SLOAD PUSH2 0x166 SWAP1 PUSH2 0xDA4 JUMP JUMPDEST SWAP1 POP SUB PUSH2 0x1A8 JUMPI PUSH1 0x40 MLOAD PUSH32 0x8C379A000000000000000000000000000000000000000000000000000000000 DUP2 MSTORE PUSH1 0x4 ADD PUSH2 0x19F SWAP1 PUSH2 0xE1E JUMP JUMPDEST PUSH1 0x40 MLOAD DUP1 SWAP2 SUB SWAP1 REVERT JUMPDEST PUSH0 DUP1 PUSH0 DUP10 DUP2 MSTORE PUSH1 0x20 ADD SWAP1 DUP2 MSTORE PUSH1 0x20 ADD PUSH0 KECCAK256 PUSH1 0x40 MLOAD DUP1 PUSH1 0xC0 ADD PUSH1 0x40 MSTORE SWAP1 DUP2 PUSH0 DUP3 ADD SLOAD DUP2 MSTORE PUSH1 0x20 ADD PUSH1 0x1 DUP3 ADD DUP1 SLOAD PUSH2 0x1DD SWAP1 PUSH2 0xDA4 JUMP JUMPDEST DUP1 PUSH1 0x1F ADD PUSH1 0x20 DUP1 SWAP2 DIV MUL PUSH1 0x20 ADD PUSH1 0x40 MLOAD SWAP1 DUP2 ADD PUSH1 0x40 MSTORE DUP1 SWAP3 SWAP2 SWAP1 DUP2 DUP2 MSTORE PUSH1 0x20 ADD DUP3 DUP1 SLOAD PUSH2 0x209 SWAP1 PUSH2 0xDA4 JUMP JUMPDEST DUP1 ISZERO PUSH2 0x254 JUMPI DUP1 PUSH1 0x1F LT PUSH2 0x22B JUMPI PUSH2 0x100 DUP1 DUP4 SLOAD DIV MUL DUP4 MSTORE SWAP2 PUSH1 0x20 ADD SWAP2 PUSH2 0x254 JUMP JUMPDEST DUP3 ADD SWAP2 SWAP1 PUSH0 MSTORE PUSH1 0x20 PUSH0 KECCAK256 SWAP1 JUMPDEST DUP2 SLOAD DUP2 MSTORE SWAP1 PUSH1 0x1 ADD SWAP1 PUSH1 0x20 ADD DUP1 DUP4 GT PUSH2 0x237 JUMPI DUP3 SWAP1 SUB PUSH1 0x1F AND DUP3 ADD SWAP2 JUMPDEST POP POP POP POP POP DUP2 MSTORE PUSH1 0x20 ADD PUSH1 0x2 DUP3 ADD DUP1 SLOAD PUSH2 0x26D SWAP1 PUSH2 0xDA4 JUMP JUMPDEST DUP1 PUSH1 0x1F ADD PUSH1 0x20 DUP1 SWAP2 DIV MUL PUSH1 0x20 ADD PUSH1 0x40 MLOAD SWAP1 DUP2 ADD PUSH1 0x40 MSTORE DUP1 SWAP3 SWAP2 SWAP1 DUP2 DUP2 MSTORE PUSH1 0x20 ADD DUP3 DUP1 SLOAD PUSH2 0x299 SWAP1 PUSH2 0xDA4 JUMP JUMPDEST DUP1 ISZERO PUSH2 0x2E4 JUMPI DUP1 PUSH1 0x1F LT PUSH2 0x2BB JUMPI PUSH2 0x100 DUP1 DUP4 SLOAD DIV MUL DUP4 MSTORE SWAP2 PUSH1 0x20 ADD SWAP2 PUSH2 0x2E4 JUMP JUMPDEST DUP3 ADD SWAP2 SWAP1 PUSH0 MSTORE PUSH1 0x20 PUSH0 KECCAK256 SWAP1 JUMPDEST DUP2 SLOAD DUP2 MSTORE SWAP1 PUSH1 0x1 ADD SWAP1 PUSH1 0x20 ADD DUP1 DUP4 GT PUSH2 0x2C7 JUMPI DUP3 SWAP1 SUB PUSH1 0x1F AND DUP3 ADD SWAP2 JUMPDEST POP POP POP POP POP DUP2 MSTORE PUSH1 0x20 ADD PUSH1 0x3 DUP3 ADD SLOAD DUP2 MSTORE PUSH1 0x20 ADD PUSH1 0x4 DUP3 ADD SLOAD DUP2 MSTORE PUSH1 0x20 ADD PUSH1 0x5 DUP3 ADD PUSH0 SWAP1 SLOAD SWAP1 PUSH2 0x100 EXP SWAP1 DIV PUSH1 0xFF AND PUSH1 0x5 DUP2 GT ISZERO PUSH2 0x325 JUMPI PUSH2 0x324 PUSH2 0x9C7 JUMP JUMPDEST JUMPDEST PUSH1 0x5 DUP2 GT ISZERO PUSH2 0x337 JUMPI PUSH2 0x336 PUSH2 0x9C7 JUMP JUMPDEST JUMPDEST DUP2 MSTORE POP POP SWAP1 POP DUP1 PUSH0 ADD MLOAD DUP2 PUSH1 0x20 ADD MLOAD DUP3 PUSH1 0x40 ADD MLOAD DUP4 PUSH1 0x60 ADD MLOAD DUP5 PUSH1 0x80 ADD MLOAD DUP6 PUSH1 0xA0 ADD MLOAD SWAP7 POP SWAP7 POP SWAP7 POP SWAP7 POP SWAP7 POP SWAP7 POP POP SWAP2 SWAP4 SWAP6 POP SWAP2 SWAP4 SWAP6 JUMP JUMPDEST PUSH0 DUP1 PUSH0 DUP8 DUP2 MSTORE PUSH1 0x20 ADD SWAP1 DUP2 MSTORE PUSH1 0x20 ADD PUSH0 KECCAK256 PUSH1 0x1 ADD DUP1 SLOAD PUSH2 0x38F SWAP1 PUSH2 0xDA4 JUMP JUMPDEST SWAP1 POP SUB PUSH2 0x3D1 JUMPI PUSH1 0x40 MLOAD PUSH32 0x8C379A000000000000000000000000000000000000000000000000000000000 DUP2 MSTORE PUSH1 0x4 ADD PUSH2 0x3C8 SWAP1 PUSH2 0xE1E JUMP JUMPDEST PUSH1 0x40 MLOAD DUP1 SWAP2 SUB SWAP1 REVERT JUMPDEST DUP4 PUSH0 DUP1 DUP8 DUP2 MSTORE PUSH1 0x20 ADD SWAP1 DUP2 MSTORE PUSH1 0x20 ADD PUSH0 KECCAK256 PUSH1 0x2 ADD SWAP1 DUP2 PUSH2 0x3F1 SWAP2 SWAP1 PUSH2 0xFD9 JUMP JUMPDEST POP DUP3 PUSH0 DUP1 DUP8 DUP2 MSTORE PUSH1 0x20 ADD SWAP1 DUP2 MSTORE PUSH1 0x20 ADD PUSH0 KECCAK256 PUSH1 0x3 ADD DUP2 SWAP1 SSTORE POP DUP2 PUSH0 DUP1 DUP8 DUP2 MSTORE PUSH1 0x20 ADD SWAP1 DUP2 MSTORE PUSH1 0x20 ADD PUSH0 KECCAK256 PUSH1 0x4 ADD DUP2 SWAP1 SSTORE POP DUP1 PUSH0 DUP1 DUP8 DUP2 MSTORE PUSH1 0x20 ADD SWAP1 DUP2 MSTORE PUSH1 0x20 ADD PUSH0 KECCAK256 PUSH1 0x5 ADD PUSH0 PUSH2 0x100 EXP DUP2 SLOAD DUP2 PUSH1 0xFF MUL NOT AND SWAP1 DUP4 PUSH1 0x5 DUP2 GT ISZERO PUSH2 0x457 JUMPI PUSH2 0x456 PUSH2 0x9C7 JUMP JUMPDEST JUMPDEST MUL OR SWAP1 SSTORE POP DUP5 PUSH32 0x2302C855863721C54BAC4C0F553DD77E28EF97CBF1D7D4594753E8FCDBCDB9A2 DUP6 DUP6 DUP6 DUP6 PUSH1 0x40 MLOAD PUSH2 0x492 SWAP5 SWAP4 SWAP3 SWAP2 SWAP1 PUSH2 0x10A8 JUMP JUMPDEST PUSH1 0x40 MLOAD DUP1 SWAP2 SUB SWAP1 LOG2 POP POP POP POP POP JUMP JUMPDEST PUSH0 PUSH1 0x20 MSTORE DUP1 PUSH0 MSTORE PUSH1 0x40 PUSH0 KECCAK256 PUSH0 SWAP2 POP SWAP1 POP DUP1 PUSH0 ADD SLOAD SWAP1 DUP1 PUSH1 0x1 ADD DUP1 SLOAD PUSH2 0x4C5 SWAP1 PUSH2 0xDA4 JUMP JUMPDEST DUP1 PUSH1 0x1F ADD PUSH1 0x20 DUP1 SWAP2 DIV MUL PUSH1 0x20 ADD PUSH1 0x40 MLOAD SWAP1 DUP2 ADD PUSH1 0x40 MSTORE DUP1 SWAP3 SWAP2 SWAP1 DUP2 DUP2 MSTORE PUSH1 0x20 ADD DUP3 DUP1 SLOAD PUSH2 0x4F1 SWAP1 PUSH2 0xDA4 JUMP JUMPDEST DUP1 ISZERO PUSH2 0x53C JUMPI DUP1 PUSH1 0x1F LT PUSH2 0x513 JUMPI PUSH2 0x100 DUP1 DUP4 SLOAD DIV MUL DUP4 MSTORE SWAP2 PUSH1 0x20 ADD SWAP2 PUSH2 0x53C JUMP JUMPDEST DUP3 ADD SWAP2 SWAP1 PUSH0 MSTORE PUSH1 0x20 PUSH0 KECCAK256 SWAP1 JUMPDEST DUP2 SLOAD DUP2 MSTORE SWAP1 PUSH1 0x1 ADD SWAP1 PUSH1 0x20 ADD DUP1 DUP4 GT PUSH2 0x51F JUMPI DUP3 SWAP1 SUB PUSH1 0x1F AND DUP3 ADD SWAP2 JUMPDEST POP POP POP POP POP SWAP1 DUP1 PUSH1 0x2 ADD DUP1 SLOAD PUSH2 0x551 SWAP1 PUSH2 0xDA4 JUMP JUMPDEST DUP1 PUSH1 0x1F ADD PUSH1 0x20 DUP1 SWAP2 DIV MUL PUSH1 0x20 ADD PUSH1 0x40 MLOAD SWAP1 DUP2 ADD PUSH1 0x40 MSTORE DUP1 SWAP3 SWAP2 SWAP1 DUP2 DUP2 MSTORE PUSH1 0x20 ADD DUP3 DUP1 SLOAD PUSH2 0x57D SWAP1 PUSH2 0xDA4 JUMP JUMPDEST DUP1 ISZERO PUSH2 0x5C8 JUMPI DUP1 PUSH1 0x1F LT PUSH2 0x59F JUMPI PUSH2 0x100 DUP1 DUP4 SLOAD DIV MUL DUP4 MSTORE SWAP2 PUSH1 0x20 ADD SWAP2 PUSH2 0x5C8 JUMP JUMPDEST DUP3 ADD SWAP2 SWAP1 PUSH0 MSTORE PUSH1 0x20 PUSH0 KECCAK256 SWAP1 JUMPDEST DUP2 SLOAD DUP2 MSTORE SWAP1 PUSH1 0x1 ADD SWAP1 PUSH1 0x20 ADD DUP1 DUP4 GT PUSH2 0x5AB JUMPI DUP3 SWAP1 SUB PUSH1 0x1F AND DUP3 ADD SWAP2 JUMPDEST POP POP POP POP POP SWAP1 DUP1 PUSH1 0x3 ADD SLOAD SWAP1 DUP1 PUSH1 0x4 ADD SLOAD SWAP1 DUP1 PUSH1 0x5 ADD PUSH0 SWAP1 SLOAD SWAP1 PUSH2 0x100 EXP SWAP1 DIV PUSH1 0xFF AND SWAP1 POP DUP7 JUMP JUMPDEST PUSH0 DUP1 PUSH0 DUP4 DUP2 MSTORE PUSH1 0x20 ADD SWAP1 DUP2 MSTORE PUSH1 0x20 ADD PUSH0 KECCAK256 PUSH1 0x1 ADD DUP1 SLOAD PUSH2 0x60F SWAP1 PUSH2 0xDA4 JUMP JUMPDEST SWAP1 POP SUB PUSH2 0x651 JUMPI PUSH1 0x40 MLOAD PUSH32 0x8C379A000000000000000000000000000000000000000000000000000000000 DUP2 MSTORE PUSH1 0x4 ADD PUSH2 0x648 SWAP1 PUSH2 0xE1E JUMP JUMPDEST PUSH1 0x40 MLOAD DUP1 SWAP2 SUB SWAP1 REVERT JUMPDEST PUSH0 DUP1 DUP3 DUP2 MSTORE PUSH1 0x20 ADD SWAP1 DUP2 MSTORE PUSH1 0x20 ADD PUSH0 KECCAK256 PUSH0 DUP1 DUP3 ADD PUSH0 SWAP1 SSTORE PUSH1 0x1 DUP3 ADD PUSH0 PUSH2 0x677 SWAP2 SWAP1 PUSH2 0x881 JUMP JUMPDEST PUSH1 0x2 DUP3 ADD PUSH0 PUSH2 0x686 SWAP2 SWAP1 PUSH2 0x881 JUMP JUMPDEST PUSH1 0x3 DUP3 ADD PUSH0 SWAP1 SSTORE PUSH1 0x4 DUP3 ADD PUSH0 SWAP1 SSTORE PUSH1 0x5 DUP3 ADD PUSH0 PUSH2 0x100 EXP DUP2 SLOAD SWAP1 PUSH1 0xFF MUL NOT AND SWAP1 SSTORE POP POP PUSH1 0x1 PUSH0 DUP2 SLOAD DUP1 SWAP3 SWAP2 SWAP1 PUSH2 0x6BB SWAP1 PUSH2 0x111F JUMP JUMPDEST SWAP2 SWAP1 POP SSTORE POP DUP1 PUSH32 0x66C891E51EFB5E3DE78F960A0177F968C9E0866811CDE856DE366B3C1C295EB5 PUSH1 0x40 MLOAD PUSH1 0x40 MLOAD DUP1 SWAP2 SUB SWAP1 LOG2 POP JUMP JUMPDEST PUSH0 DUP1 PUSH0 DUP10 DUP2 MSTORE PUSH1 0x20 ADD SWAP1 DUP2 MSTORE PUSH1 0x20 ADD PUSH0 KECCAK256 PUSH1 0x1 ADD DUP1 SLOAD PUSH2 0x70F SWAP1 PUSH2 0xDA4 JUMP JUMPDEST SWAP1 POP EQ PUSH2 0x751 JUMPI PUSH1 0x40 MLOAD PUSH32 0x8C379A000000000000000000000000000000000000000000000000000000000 DUP2 MSTORE PUSH1 0x4 ADD PUSH2 0x748 SWAP1 PUSH2 0x1190 JUMP JUMPDEST PUSH1 0x40 MLOAD DUP1 SWAP2 SUB SWAP1 REVERT JUMPDEST PUSH1 0x40 MLOAD DUP1 PUSH1 0xC0 ADD PUSH1 0x40 MSTORE DUP1 DUP8 DUP2 MSTORE PUSH1 0x20 ADD DUP7 DUP2 MSTORE PUSH1 0x20 ADD DUP6 DUP2 MSTORE PUSH1 0x20 ADD DUP5 DUP2 MSTORE PUSH1 0x20 ADD DUP4 DUP2 MSTORE PUSH1 0x20 ADD DUP3 PUSH1 0x5 DUP2 GT ISZERO PUSH2 0x78D JUMPI PUSH2 0x78C PUSH2 0x9C7 JUMP JUMPDEST JUMPDEST DUP2 MSTORE POP PUSH0 DUP1 DUP10 DUP2 MSTORE PUSH1 0x20 ADD SWAP1 DUP2 MSTORE PUSH1 0x20 ADD PUSH0 KECCAK256 PUSH0 DUP3 ADD MLOAD DUP2 PUSH0 ADD SSTORE PUSH1 0x20 DUP3 ADD MLOAD DUP2 PUSH1 0x1 ADD SWAP1 DUP2 PUSH2 0x7BD SWAP2 SWAP1 PUSH2 0xFD9 JUMP JUMPDEST POP PUSH1 0x40 DUP3 ADD MLOAD DUP2 PUSH1 0x2 ADD SWAP1 DUP2 PUSH2 0x7D3 SWAP2 SWAP1 PUSH2 0xFD9 JUMP JUMPDEST POP PUSH1 0x60 DUP3 ADD MLOAD DUP2 PUSH1 0x3 ADD SSTORE PUSH1 0x80 DUP3 ADD MLOAD DUP2 PUSH1 0x4 ADD SSTORE PUSH1 0xA0 DUP3 ADD MLOAD DUP2 PUSH1 0x5 ADD PUSH0 PUSH2 0x100 EXP DUP2 SLOAD DUP2 PUSH1 0xFF MUL NOT AND SWAP1 DUP4 PUSH1 0x5 DUP2 GT ISZERO PUSH2 0x812 JUMPI PUSH2 0x811 PUSH2 0x9C7 JUMP JUMPDEST JUMPDEST MUL OR SWAP1 SSTORE POP SWAP1 POP POP PUSH1 0x1 PUSH0 DUP2 SLOAD DUP1 SWAP3 SWAP2 SWAP1 PUSH2 0x82C SWAP1 PUSH2 0x11AE JUMP JUMPDEST SWAP2 SWAP1 POP SSTORE POP DUP6 DUP8 PUSH32 0xB8B48272EAB3E0E74B9F07624D5E186EA5B90AA52F2C697F35D3CA5B2DF69B64 DUP8 DUP8 DUP8 DUP8 DUP8 PUSH1 0x40 MLOAD PUSH2 0x86A SWAP6 SWAP5 SWAP4 SWAP3 SWAP2 SWAP1 PUSH2 0x11F5 JUMP JUMPDEST PUSH1 0x40 MLOAD DUP1 SWAP2 SUB SWAP1 LOG3 POP POP POP POP POP POP POP JUMP JUMPDEST PUSH1 0x1 SLOAD DUP2 JUMP JUMPDEST POP DUP1 SLOAD PUSH2 0x88D SWAP1 PUSH2 0xDA4 JUMP JUMPDEST PUSH0 DUP3 SSTORE DUP1 PUSH1 0x1F LT PUSH2 0x89E JUMPI POP PUSH2 0x8BB JUMP JUMPDEST PUSH1 0x1F ADD PUSH1 0x20 SWAP1 DIV SWAP1 PUSH0 MSTORE PUSH1 0x20 PUSH0 KECCAK256 SWAP1 DUP2 ADD SWAP1 PUSH2 0x8BA SWAP2 SWAP1 PUSH2 0x8BE JUMP JUMPDEST JUMPDEST POP JUMP JUMPDEST JUMPDEST DUP1 DUP3 GT ISZERO PUSH2 0x8D5 JUMPI PUSH0 DUP2 PUSH0 SWAP1 SSTORE POP PUSH1 0x1 ADD PUSH2 0x8BF JUMP JUMPDEST POP SWAP1 JUMP JUMPDEST PUSH0 PUSH1 0x40 MLOAD SWAP1 POP SWAP1 JUMP JUMPDEST PUSH0 DUP1 REVERT JUMPDEST PUSH0 DUP1 REVERT JUMPDEST PUSH0 DUP2 SWAP1 POP SWAP2 SWAP1 POP JUMP JUMPDEST PUSH2 0x8FC DUP2 PUSH2 0x8EA JUMP JUMPDEST DUP2 EQ PUSH2 0x906 JUMPI PUSH0 DUP1 REVERT JUMPDEST POP JUMP JUMPDEST PUSH0 DUP2 CALLDATALOAD SWAP1 POP PUSH2 0x917 DUP2 PUSH2 0x8F3 JUMP JUMPDEST SWAP3 SWAP2 POP POP JUMP JUMPDEST PUSH0 PUSH1 0x20 DUP3 DUP5 SUB SLT ISZERO PUSH2 0x932 JUMPI PUSH2 0x931 PUSH2 0x8E2 JUMP JUMPDEST JUMPDEST PUSH0 PUSH2 0x93F DUP5 DUP3 DUP6 ADD PUSH2 0x909 JUMP JUMPDEST SWAP2 POP POP SWAP3 SWAP2 POP POP JUMP JUMPDEST PUSH2 0x951 DUP2 PUSH2 0x8EA JUMP JUMPDEST DUP3 MSTORE POP POP JUMP JUMPDEST PUSH0 DUP2 MLOAD SWAP1 POP SWAP2 SWAP1 POP JUMP JUMPDEST PUSH0 DUP3 DUP3 MSTORE PUSH1 0x20 DUP3 ADD SWAP1 POP SWAP3 SWAP2 POP POP JUMP JUMPDEST DUP3 DUP2 DUP4 MCOPY PUSH0 DUP4 DUP4 ADD MSTORE POP POP POP JUMP JUMPDEST PUSH0 PUSH1 0x1F NOT PUSH1 0x1F DUP4 ADD AND SWAP1 POP SWAP2 SWAP1 POP JUMP JUMPDEST PUSH0 PUSH2 0x999 DUP3 PUSH2 0x957 JUMP JUMPDEST PUSH2 0x9A3 DUP2 DUP6 PUSH2 0x961 JUMP JUMPDEST SWAP4 POP PUSH2 0x9B3 DUP2 DUP6 PUSH1 0x20 DUP7 ADD PUSH2 0x971 JUMP JUMPDEST PUSH2 0x9BC DUP2 PUSH2 0x97F JUMP JUMPDEST DUP5 ADD SWAP2 POP POP SWAP3 SWAP2 POP POP JUMP JUMPDEST PUSH32 0x4E487B7100000000000000000000000000000000000000000000000000000000 PUSH0 MSTORE PUSH1 0x21 PUSH1 0x4 MSTORE PUSH1 0x24 PUSH0 REVERT JUMPDEST PUSH1 0x6 DUP2 LT PUSH2 0xA05 JUMPI PUSH2 0xA04 PUSH2 0x9C7 JUMP JUMPDEST JUMPDEST POP JUMP JUMPDEST PUSH0 DUP2 SWAP1 POP PUSH2 0xA15 DUP3 PUSH2 0x9F4 JUMP JUMPDEST SWAP2 SWAP1 POP JUMP JUMPDEST PUSH0 PUSH2 0xA24 DUP3 PUSH2 0xA08 JUMP JUMPDEST SWAP1 POP SWAP2 SWAP1 POP JUMP JUMPDEST PUSH2 0xA34 DUP2 PUSH2 0xA1A JUMP JUMPDEST DUP3 MSTORE POP POP JUMP JUMPDEST PUSH0 PUSH1 0xC0 DUP3 ADD SWAP1 POP PUSH2 0xA4D PUSH0 DUP4 ADD DUP10 PUSH2 0x948 JUMP JUMPDEST DUP2 DUP2 SUB PUSH1 0x20 DUP4 ADD MSTORE PUSH2 0xA5F DUP2 DUP9 PUSH2 0x98F JUMP JUMPDEST SWAP1 POP DUP2 DUP2 SUB PUSH1 0x40 DUP4 ADD MSTORE PUSH2 0xA73 DUP2 DUP8 PUSH2 0x98F JUMP JUMPDEST SWAP1 POP PUSH2 0xA82 PUSH1 0x60 DUP4 ADD DUP7 PUSH2 0x948 JUMP JUMPDEST PUSH2 0xA8F PUSH1 0x80 DUP4 ADD DUP6 PUSH2 0x948 JUMP JUMPDEST PUSH2 0xA9C PUSH1 0xA0 DUP4 ADD DUP5 PUSH2 0xA2B JUMP JUMPDEST SWAP8 SWAP7 POP POP POP POP POP POP POP JUMP JUMPDEST PUSH0 DUP1 REVERT JUMPDEST PUSH0 DUP1 REVERT JUMPDEST PUSH32 0x4E487B7100000000000000000000000000000000000000000000000000000000 PUSH0 MSTORE PUSH1 0x41 PUSH1 0x4 MSTORE PUSH1 0x24 PUSH0 REVERT JUMPDEST PUSH2 0xAE5 DUP3 PUSH2 0x97F JUMP JUMPDEST DUP2 ADD DUP2 DUP2 LT PUSH8 0xFFFFFFFFFFFFFFFF DUP3 GT OR ISZERO PUSH2 0xB04 JUMPI PUSH2 0xB03 PUSH2 0xAAF JUMP JUMPDEST JUMPDEST DUP1 PUSH1 0x40 MSTORE POP POP POP JUMP JUMPDEST PUSH0 PUSH2 0xB16 PUSH2 0x8D9 JUMP JUMPDEST SWAP1 POP PUSH2 0xB22 DUP3 DUP3 PUSH2 0xADC JUMP JUMPDEST SWAP2 SWAP1 POP JUMP JUMPDEST PUSH0 PUSH8 0xFFFFFFFFFFFFFFFF DUP3 GT ISZERO PUSH2 0xB41 JUMPI PUSH2 0xB40 PUSH2 0xAAF JUMP JUMPDEST JUMPDEST PUSH2 0xB4A DUP3 PUSH2 0x97F JUMP JUMPDEST SWAP1 POP PUSH1 0x20 DUP2 ADD SWAP1 POP SWAP2 SWAP1 POP JUMP JUMPDEST DUP3 DUP2 DUP4 CALLDATACOPY PUSH0 DUP4 DUP4 ADD MSTORE POP POP POP JUMP JUMPDEST PUSH0 PUSH2 0xB77 PUSH2 0xB72 DUP5 PUSH2 0xB27 JUMP JUMPDEST PUSH2 0xB0D JUMP JUMPDEST SWAP1 POP DUP3 DUP2 MSTORE PUSH1 0x20 DUP2 ADD DUP5 DUP5 DUP5 ADD GT ISZERO PUSH2 0xB93 JUMPI PUSH2 0xB92 PUSH2 0xAAB JUMP JUMPDEST JUMPDEST PUSH2 0xB9E DUP5 DUP3 DUP6 PUSH2 0xB57 JUMP JUMPDEST POP SWAP4 SWAP3 POP POP POP JUMP JUMPDEST PUSH0 DUP3 PUSH1 0x1F DUP4 ADD SLT PUSH2 0xBBA JUMPI PUSH2 0xBB9 PUSH2 0xAA7 JUMP JUMPDEST JUMPDEST DUP2 CALLDATALOAD PUSH2 0xBCA DUP5 DUP3 PUSH1 0x20 DUP7 ADD PUSH2 0xB65 JUMP JUMPDEST SWAP2 POP POP SWAP3 SWAP2 POP POP JUMP JUMPDEST PUSH1 0x6 DUP2 LT PUSH2 0xBDF JUMPI PUSH0 DUP1 REVERT JUMPDEST POP JUMP JUMPDEST PUSH0 DUP2 CALLDATALOAD SWAP1 POP PUSH2 0xBF0 DUP2 PUSH2 0xBD3 JUMP JUMPDEST SWAP3 SWAP2 POP POP JUMP JUMPDEST PUSH0 DUP1 PUSH0 DUP1 PUSH0 PUSH1 0xA0 DUP7 DUP9 SUB SLT ISZERO PUSH2 0xC0F JUMPI PUSH2 0xC0E PUSH2 0x8E2 JUMP JUMPDEST JUMPDEST PUSH0 PUSH2 0xC1C DUP9 DUP3 DUP10 ADD PUSH2 0x909 JUMP JUMPDEST SWAP6 POP POP PUSH1 0x20 DUP7 ADD CALLDATALOAD PUSH8 0xFFFFFFFFFFFFFFFF DUP2 GT ISZERO PUSH2 0xC3D JUMPI PUSH2 0xC3C PUSH2 0x8E6 JUMP JUMPDEST JUMPDEST PUSH2 0xC49 DUP9 DUP3 DUP10 ADD PUSH2 0xBA6 JUMP JUMPDEST SWAP5 POP POP PUSH1 0x40 PUSH2 0xC5A DUP9 DUP3 DUP10 ADD PUSH2 0x909 JUMP JUMPDEST SWAP4 POP POP PUSH1 0x60 PUSH2 0xC6B DUP9 DUP3 DUP10 ADD PUSH2 0x909 JUMP JUMPDEST SWAP3 POP POP PUSH1 0x80 PUSH2 0xC7C DUP9 DUP3 DUP10 ADD PUSH2 0xBE2 JUMP JUMPDEST SWAP2 POP POP SWAP3 SWAP6 POP SWAP3 SWAP6 SWAP1 SWAP4 POP JUMP JUMPDEST PUSH0 DUP1 PUSH0 DUP1 PUSH0 DUP1 PUSH0 PUSH1 0xE0 DUP9 DUP11 SUB SLT ISZERO PUSH2 0xCA4 JUMPI PUSH2 0xCA3 PUSH2 0x8E2 JUMP JUMPDEST JUMPDEST PUSH0 PUSH2 0xCB1 DUP11 DUP3 DUP12 ADD PUSH2 0x909 JUMP JUMPDEST SWAP8 POP POP PUSH1 0x20 PUSH2 0xCC2 DUP11 DUP3 DUP12 ADD PUSH2 0x909 JUMP JUMPDEST SWAP7 POP POP PUSH1 0x40 DUP9 ADD CALLDATALOAD PUSH8 0xFFFFFFFFFFFFFFFF DUP2 GT ISZERO PUSH2 0xCE3 JUMPI PUSH2 0xCE2 PUSH2 0x8E6 JUMP JUMPDEST JUMPDEST PUSH2 0xCEF DUP11 DUP3 DUP12 ADD PUSH2 0xBA6 JUMP JUMPDEST SWAP6 POP POP PUSH1 0x60 DUP9 ADD CALLDATALOAD PUSH8 0xFFFFFFFFFFFFFFFF DUP2 GT ISZERO PUSH2 0xD10 JUMPI PUSH2 0xD0F PUSH2 0x8E6 JUMP JUMPDEST JUMPDEST PUSH2 0xD1C DUP11 DUP3 DUP12 ADD PUSH2 0xBA6 JUMP JUMPDEST SWAP5 POP POP PUSH1 0x80 PUSH2 0xD2D DUP11 DUP3 DUP12 ADD PUSH2 0x909 JUMP JUMPDEST SWAP4 POP POP PUSH1 0xA0 PUSH2 0xD3E DUP11 DUP3 DUP12 ADD PUSH2 0x909 JUMP JUMPDEST SWAP3 POP POP PUSH1 0xC0 PUSH2 0xD4F DUP11 DUP3 DUP12 ADD PUSH2 0xBE2 JUMP JUMPDEST SWAP2 POP POP SWAP3 SWAP6 SWAP9 SWAP2 SWAP5 SWAP8 POP SWAP3 SWAP6 POP JUMP JUMPDEST PUSH0 PUSH1 0x20 DUP3 ADD SWAP1 POP PUSH2 0xD71 PUSH0 DUP4 ADD DUP5 PUSH2 0x948 JUMP JUMPDEST SWAP3 SWAP2 POP POP JUMP JUMPDEST PUSH32 0x4E487B7100000000000000000000000000000000000000000000000000000000 PUSH0 MSTORE PUSH1 0x22 PUSH1 0x4 MSTORE PUSH1 0x24 PUSH0 REVERT JUMPDEST PUSH0 PUSH1 0x2 DUP3 DIV SWAP1 POP PUSH1 0x1 DUP3 AND DUP1 PUSH2 0xDBB JUMPI PUSH1 0x7F DUP3 AND SWAP2 POP JUMPDEST PUSH1 0x20 DUP3 LT DUP2 SUB PUSH2 0xDCE JUMPI PUSH2 0xDCD PUSH2 0xD77 JUMP JUMPDEST JUMPDEST POP SWAP2 SWAP1 POP JUMP JUMPDEST PUSH32 0x536869706D656E7420646F6573206E6F74206578697374000000000000000000 PUSH0 DUP3 ADD MSTORE POP JUMP JUMPDEST PUSH0 PUSH2 0xE08 PUSH1 0x17 DUP4 PUSH2 0x961 JUMP JUMPDEST SWAP2 POP PUSH2 0xE13 DUP3 PUSH2 0xDD4 JUMP JUMPDEST PUSH1 0x20 DUP3 ADD SWAP1 POP SWAP2 SWAP1 POP JUMP JUMPDEST PUSH0 PUSH1 0x20 DUP3 ADD SWAP1 POP DUP2 DUP2 SUB PUSH0 DUP4 ADD MSTORE PUSH2 0xE35 DUP2 PUSH2 0xDFC JUMP JUMPDEST SWAP1 POP SWAP2 SWAP1 POP JUMP JUMPDEST PUSH0 DUP2 SWAP1 POP DUP2 PUSH0 MSTORE PUSH1 0x20 PUSH0 KECCAK256 SWAP1 POP SWAP2 SWAP1 POP JUMP JUMPDEST PUSH0 PUSH1 0x20 PUSH1 0x1F DUP4 ADD DIV SWAP1 POP SWAP2 SWAP1 POP JUMP JUMPDEST PUSH0 DUP3 DUP3 SHL SWAP1 POP SWAP3 SWAP2 POP POP JUMP JUMPDEST PUSH0 PUSH1 0x8 DUP4 MUL PUSH2 0xE98 PUSH32 0xFFFFFFFFFFFFFFFFFFFFFFFFFFFFFFFFFFFFFFFFFFFFFFFFFFFFFFFFFFFFFFFF DUP3 PUSH2 0xE5D JUMP JUMPDEST PUSH2 0xEA2 DUP7 DUP4 PUSH2 0xE5D JUMP JUMPDEST SWAP6 POP DUP1 NOT DUP5 AND SWAP4 POP DUP1 DUP7 AND DUP5 OR SWAP3 POP POP POP SWAP4 SWAP3 POP POP POP JUMP JUMPDEST PUSH0 DUP2 SWAP1 POP SWAP2 SWAP1 POP JUMP JUMPDEST PUSH0 PUSH2 0xEDD PUSH2 0xED8 PUSH2 0xED3 DUP5 PUSH2 0x8EA JUMP JUMPDEST PUSH2 0xEBA JUMP JUMPDEST PUSH2 0x8EA JUMP JUMPDEST SWAP1 POP SWAP2 SWAP1 POP JUMP JUMPDEST PUSH0 DUP2 SWAP1 POP SWAP2 SWAP1 POP JUMP JUMPDEST PUSH2 0xEF6 DUP4 PUSH2 0xEC3 JUMP JUMPDEST PUSH2 0xF0A PUSH2 0xF02 DUP3 PUSH2 0xEE4 JUMP JUMPDEST DUP5 DUP5 SLOAD PUSH2 0xE69 JUMP JUMPDEST DUP3 SSTORE POP POP POP POP JUMP JUMPDEST PUSH0 SWAP1 JUMP JUMPDEST PUSH2 0xF1E PUSH2 0xF12 JUMP JUMPDEST PUSH2 0xF29 DUP2 DUP5 DUP5 PUSH2 0xEED JUMP JUMPDEST POP POP POP JUMP JUMPDEST JUMPDEST DUP2 DUP2 LT ISZERO PUSH2 0xF4C JUMPI PUSH2 0xF41 PUSH0 DUP3 PUSH2 0xF16 JUMP JUMPDEST PUSH1 0x1 DUP2 ADD SWAP1 POP PUSH2 0xF2F JUMP JUMPDEST POP POP JUMP JUMPDEST PUSH1 0x1F DUP3 GT ISZERO PUSH2 0xF91 JUMPI PUSH2 0xF62 DUP2 PUSH2 0xE3C JUMP JUMPDEST PUSH2 0xF6B DUP5 PUSH2 0xE4E JUMP JUMPDEST DUP2 ADD PUSH1 0x20 DUP6 LT ISZERO PUSH2 0xF7A JUMPI DUP2 SWAP1 POP JUMPDEST PUSH2 0xF8E PUSH2 0xF86 DUP6 PUSH2 0xE4E JUMP JUMPDEST DUP4 ADD DUP3 PUSH2 0xF2E JUMP JUMPDEST POP POP JUMPDEST POP POP POP JUMP JUMPDEST PUSH0 DUP3 DUP3 SHR SWAP1 POP SWAP3 SWAP2 POP POP JUMP JUMPDEST PUSH0 PUSH2 0xFB1 PUSH0 NOT DUP5 PUSH1 0x8 MUL PUSH2 0xF96 JUMP JUMPDEST NOT DUP1 DUP4 AND SWAP2 POP POP SWAP3 SWAP2 POP POP JUMP JUMPDEST PUSH0 PUSH2 0xFC9 DUP4 DUP4 PUSH2 0xFA2 JUMP JUMPDEST SWAP2 POP DUP3 PUSH1 0x2 MUL DUP3 OR SWAP1 POP SWAP3 SWAP2 POP POP JUMP JUMPDEST PUSH2 0xFE2 DUP3 PUSH2 0x957 JUMP JUMPDEST PUSH8 0xFFFFFFFFFFFFFFFF DUP2 GT ISZERO PUSH2 0xFFB JUMPI PUSH2 0xFFA PUSH2 0xAAF JUMP JUMPDEST JUMPDEST PUSH2 0x1005 DUP3 SLOAD PUSH2 0xDA4 JUMP JUMPDEST PUSH2 0x1010 DUP3 DUP3 DUP6 PUSH2 0xF50 JUMP JUMPDEST PUSH0 PUSH1 0x20 SWAP1 POP PUSH1 0x1F DUP4 GT PUSH1 0x1 DUP2 EQ PUSH2 0x1041 JUMPI PUSH0 DUP5 ISZERO PUSH2 0x102F JUMPI DUP3 DUP8 ADD MLOAD SWAP1 POP JUMPDEST PUSH2 0x1039 DUP6 DUP3 PUSH2 0xFBE JUMP JUMPDEST DUP7 SSTORE POP PUSH2 0x10A0 JUMP JUMPDEST PUSH1 0x1F NOT DUP5 AND PUSH2 0x104F DUP7 PUSH2 0xE3C JUMP JUMPDEST PUSH0 JUMPDEST DUP3 DUP2 LT ISZERO PUSH2 0x1076 JUMPI DUP5 DUP10 ADD MLOAD DUP3 SSTORE PUSH1 0x1 DUP3 ADD SWAP2 POP PUSH1 0x20 DUP6 ADD SWAP5 POP PUSH1 0x20 DUP2 ADD SWAP1 POP PUSH2 0x1051 JUMP JUMPDEST DUP7 DUP4 LT ISZERO PUSH2 0x1093 JUMPI DUP5 DUP10 ADD MLOAD PUSH2 0x108F PUSH1 0x1F DUP10 AND DUP3 PUSH2 0xFA2 JUMP JUMPDEST DUP4 SSTORE POP JUMPDEST PUSH1 0x1 PUSH1 0x2 DUP9 MUL ADD DUP9 SSTORE POP POP POP JUMPDEST POP POP POP POP POP POP JUMP JUMPDEST PUSH0 PUSH1 0x80 DUP3 ADD SWAP1 POP DUP2 DUP2 SUB PUSH0 DUP4 ADD MSTORE PUSH2 0x10C0 DUP2 DUP8 PUSH2 0x98F JUMP JUMPDEST SWAP1 POP PUSH2 0x10CF PUSH1 0x20 DUP4 ADD DUP7 PUSH2 0x948 JUMP JUMPDEST PUSH2 0x10DC PUSH1 0x40 DUP4 ADD DUP6 PUSH2 0x948 JUMP JUMPDEST PUSH2 0x10E9 PUSH1 0x60 DUP4 ADD DUP5 PUSH2 0xA2B JUMP JUMPDEST SWAP6 SWAP5 POP POP POP POP POP JUMP JUMPDEST PUSH32 0x4E487B7100000000000000000000000000000000000000000000000000000000 PUSH0 MSTORE PUSH1 0x11 PUSH1 0x4 MSTORE PUSH1 0x24 PUSH0 REVERT JUMPDEST PUSH0 PUSH2 0x1129 DUP3 PUSH2 0x8EA JUMP JUMPDEST SWAP2 POP PUSH0 DUP3 SUB PUSH2 0x113B JUMPI PUSH2 0x113A PUSH2 0x10F2 JUMP JUMPDEST JUMPDEST PUSH1 0x1 DUP3 SUB SWAP1 POP SWAP2 SWAP1 POP JUMP JUMPDEST PUSH32 0x536869706D656E7420616C726561647920657869737473000000000000000000 PUSH0 DUP3 ADD MSTORE POP JUMP JUMPDEST PUSH0 PUSH2 0x117A PUSH1 0x17 DUP4 PUSH2 0x961 JUMP JUMPDEST SWAP2 POP PUSH2 0x1185 DUP3 PUSH2 0x1146 JUMP JUMPDEST PUSH1 0x20 DUP3 ADD SWAP1 POP SWAP2 SWAP1 POP JUMP JUMPDEST PUSH0 PUSH1 0x20 DUP3 ADD SWAP1 POP DUP2 DUP2 SUB PUSH0 DUP4 ADD MSTORE PUSH2 0x11A7 DUP2 PUSH2 0x116E JUMP JUMPDEST SWAP1 POP SWAP2 SWAP1 POP JUMP JUMPDEST PUSH0 PUSH2 0x11B8 DUP3 PUSH2 0x8EA JUMP JUMPDEST SWAP2 POP PUSH32 0xFFFFFFFFFFFFFFFFFFFFFFFFFFFFFFFFFFFFFFFFFFFFFFFFFFFFFFFFFFFFFFFF DUP3 SUB PUSH2 0x11EA JUMPI PUSH2 0x11E9 PUSH2 0x10F2 JUMP JUMPDEST JUMPDEST PUSH1 0x1 DUP3 ADD SWAP1 POP SWAP2 SWAP1 POP JUMP JUMPDEST PUSH0 PUSH1 0xA0 DUP3 ADD SWAP1 POP DUP2 DUP2 SUB PUSH0 DUP4 ADD MSTORE PUSH2 0x120D DUP2 DUP9 PUSH2 0x98F JUMP JUMPDEST SWAP1 POP DUP2 DUP2 SUB PUSH1 0x20 DUP4 ADD MSTORE PUSH2 0x1221 DUP2 DUP8 PUSH2 0x98F JUMP JUMPDEST SWAP1 POP PUSH2 0x1230 PUSH1 0x40 DUP4 ADD DUP7 PUSH2 0x948 JUMP JUMPDEST PUSH2 0x123D PUSH1 0x60 DUP4 ADD DUP6 PUSH2 0x948 JUMP JUMPDEST PUSH2 0x124A PUSH1 0x80 DUP4 ADD DUP5 PUSH2 0xA2B JUMP JUMPDEST SWAP7 SWAP6 POP POP POP POP POP POP JUMP INVALID LOG2 PUSH5 0x6970667358 0x22 SLT KECCAK256 PUSH9 0x4670F4519757633278 0xEA LOG0 PUSH32 0x92367DD89FBE14BD36CA39D6DBB749A247A6C564736F6C634300081A00330000 "
				},
				"gasEstimates": {
					"creation": {
						"codeDepositCost": "949200",
						"executionCost": "5991",
						"totalCost": "955191"
					},
					"external": {
						"addShipment(uint256,uint256,string,string,uint256,uint256,uint8)": "infinite",
						"getShipment(uint256)": "infinite",
						"removeShipment(uint256)": "infinite",
						"shipmentCount()": "2513",
						"shipments(uint256)": "infinite",
						"updateShipment(uint256,string,uint256,uint256,uint8)": "infinite"
					}
				},
				"methodIdentifiers": {
					"addShipment(uint256,uint256,string,string,uint256,uint256,uint8)": "a5bd537f",
					"getShipment(uint256)": "092b3740",
					"removeShipment(uint256)": "959f9272",
					"shipmentCount()": "aace20b7",
					"shipments(uint256)": "2ac08a93",
					"updateShipment(uint256,string,uint256,uint256,uint8)": "1c6ea48e"
				}
			},
			"storageLayout": {
				"storage": [
					{
						"astId": 27,
						"contract": ".deps/contracts/ShippingManagement.sol:ShippingManagement",
						"label": "shipments",
						"offset": 0,
						"slot": "0",
						"type": "t_mapping(t_uint256,t_struct(Shipping)22_storage)"
					},
					{
						"astId": 30,
						"contract": ".deps/contracts/ShippingManagement.sol:ShippingManagement",
						"label": "shipmentCount",
						"offset": 0,
						"slot": "1",
						"type": "t_uint256"
					}
				],
				"types": {
					"t_enum(Position)8": {
						"encoding": "inplace",
						"label": "enum ShippingManagement.Position",
						"numberOfBytes": "1"
					},
					"t_mapping(t_uint256,t_struct(Shipping)22_storage)": {
						"encoding": "mapping",
						"key": "t_uint256",
						"label": "mapping(uint256 => struct ShippingManagement.Shipping)",
						"numberOfBytes": "32",
						"value": "t_struct(Shipping)22_storage"
					},
					"t_string_storage": {
						"encoding": "bytes",
						"label": "string",
						"numberOfBytes": "32"
					},
					"t_struct(Shipping)22_storage": {
						"encoding": "inplace",
						"label": "struct ShippingManagement.Shipping",
						"members": [
							{
								"astId": 10,
								"contract": ".deps/contracts/ShippingManagement.sol:ShippingManagement",
								"label": "productId",
								"offset": 0,
								"slot": "0",
								"type": "t_uint256"
							},
							{
								"astId": 12,
								"contract": ".deps/contracts/ShippingManagement.sol:ShippingManagement",
								"label": "origin",
								"offset": 0,
								"slot": "1",
								"type": "t_string_storage"
							},
							{
								"astId": 14,
								"contract": ".deps/contracts/ShippingManagement.sol:ShippingManagement",
								"label": "destination",
								"offset": 0,
								"slot": "2",
								"type": "t_string_storage"
							},
							{
								"astId": 16,
								"contract": ".deps/contracts/ShippingManagement.sol:ShippingManagement",
								"label": "departureDate",
								"offset": 0,
								"slot": "3",
								"type": "t_uint256"
							},
							{
								"astId": 18,
								"contract": ".deps/contracts/ShippingManagement.sol:ShippingManagement",
								"label": "expectedArrivalDate",
								"offset": 0,
								"slot": "4",
								"type": "t_uint256"
							},
							{
								"astId": 21,
								"contract": ".deps/contracts/ShippingManagement.sol:ShippingManagement",
								"label": "status",
								"offset": 0,
								"slot": "5",
								"type": "t_enum(Position)8"
							}
						],
						"numberOfBytes": "192"
					},
					"t_uint256": {
						"encoding": "inplace",
						"label": "uint256",
						"numberOfBytes": "32"
					}
				}
			},
			"userdoc": {
				"kind": "user",
				"methods": {},
				"version": 1
			}
		}
	}
}