{
	".deps/contracts/ShippingManagement.sol": {
		"ShippingManagement": {
			"abi": [
				{
					"anonymous": false,
					"inputs": [
						{
							"indexed": true,
							"internalType": "uint256",
							"name": "shipmentId",
							"type": "uint256"
						},
						{
							"indexed": true,
							"internalType": "uint256",
							"name": "productId",
							"type": "uint256"
						},
						{
							"indexed": false,
							"internalType": "string",
							"name": "origin",
							"type": "string"
						},
						{
							"indexed": false,
							"internalType": "string",
							"name": "destination",
							"type": "string"
						},
						{
							"indexed": false,
							"internalType": "uint256",
							"name": "departureDate",
							"type": "uint256"
						},
						{
							"indexed": false,
							"internalType": "uint256",
							"name": "expectedArrivalDate",
							"type": "uint256"
						},
						{
							"indexed": false,
							"internalType": "string",
							"name": "status",
							"type": "string"
						}
					],
					"name": "ShipmentAdded",
					"type": "event"
				},
				{
					"anonymous": false,
					"inputs": [
						{
							"indexed": true,
							"internalType": "uint256",
							"name": "shipmentId",
							"type": "uint256"
						}
					],
					"name": "ShipmentRemoved",
					"type": "event"
				},
				{
					"anonymous": false,
					"inputs": [
						{
							"indexed": true,
							"internalType": "uint256",
							"name": "shipmentId",
							"type": "uint256"
						},
						{
							"indexed": false,
							"internalType": "string",
							"name": "newDestination",
							"type": "string"
						},
						{
							"indexed": false,
							"internalType": "uint256",
							"name": "newDepartureDate",
							"type": "uint256"
						},
						{
							"indexed": false,
							"internalType": "uint256",
							"name": "newExpectedArrivalDate",
							"type": "uint256"
						},
						{
							"indexed": false,
							"internalType": "string",
							"name": "newStatus",
							"type": "string"
						}
					],
					"name": "ShipmentUpdated",
					"type": "event"
				},
				{
					"inputs": [
						{
							"internalType": "uint256",
							"name": "_shipmentId",
							"type": "uint256"
						},
						{
							"internalType": "uint256",
							"name": "_productId",
							"type": "uint256"
						},
						{
							"internalType": "string",
							"name": "_origin",
							"type": "string"
						},
						{
							"internalType": "string",
							"name": "_destination",
							"type": "string"
						},
						{
							"internalType": "uint256",
							"name": "_departureDate",
							"type": "uint256"
						},
						{
							"internalType": "uint256",
							"name": "_expectedArrivalDate",
							"type": "uint256"
						},
						{
							"internalType": "string",
							"name": "_status",
							"type": "string"
						}
					],
					"name": "addShipment",
					"outputs": [],
					"stateMutability": "nonpayable",
					"type": "function"
				},
				{
					"inputs": [
						{
							"internalType": "uint256",
							"name": "_shipmentId",
							"type": "uint256"
						}
					],
					"name": "getShipment",
					"outputs": [
						{
							"internalType": "uint256",
							"name": "",
							"type": "uint256"
						},
						{
							"internalType": "string",
							"name": "",
							"type": "string"
						},
						{
							"internalType": "string",
							"name": "",
							"type": "string"
						},
						{
							"internalType": "uint256",
							"name": "",
							"type": "uint256"
						},
						{
							"internalType": "uint256",
							"name": "",
							"type": "uint256"
						},
						{
							"internalType": "string",
							"name": "",
							"type": "string"
						}
					],
					"stateMutability": "view",
					"type": "function"
				},
				{
					"inputs": [
						{
							"internalType": "uint256",
							"name": "_shipmentId",
							"type": "uint256"
						}
					],
					"name": "removeShipment",
					"outputs": [],
					"stateMutability": "nonpayable",
					"type": "function"
				},
				{
					"inputs": [],
					"name": "shipmentCount",
					"outputs": [
						{
							"internalType": "uint256",
							"name": "",
							"type": "uint256"
						}
					],
					"stateMutability": "view",
					"type": "function"
				},
				{
					"inputs": [
						{
							"internalType": "uint256",
							"name": "",
							"type": "uint256"
						}
					],
					"name": "shipments",
					"outputs": [
						{
							"internalType": "uint256",
							"name": "productId",
							"type": "uint256"
						},
						{
							"internalType": "string",
							"name": "origin",
							"type": "string"
						},
						{
							"internalType": "string",
							"name": "destination",
							"type": "string"
						},
						{
							"internalType": "uint256",
							"name": "departureDate",
							"type": "uint256"
						},
						{
							"internalType": "uint256",
							"name": "expectedArrivalDate",
							"type": "uint256"
						},
						{
							"internalType": "string",
							"name": "status",
							"type": "string"
						}
					],
					"stateMutability": "view",
					"type": "function"
				},
				{
					"inputs": [
						{
							"internalType": "uint256",
							"name": "_shipmentId",
							"type": "uint256"
						},
						{
							"internalType": "string",
							"name": "_newDestination",
							"type": "string"
						},
						{
							"internalType": "uint256",
							"name": "_newDepartureDate",
							"type": "uint256"
						},
						{
							"internalType": "uint256",
							"name": "_newExpectedArrivalDate",
							"type": "uint256"
						},
						{
							"internalType": "string",
							"name": "_newStatus",
							"type": "string"
						}
					],
					"name": "updateShipment",
					"outputs": [],
					"stateMutability": "nonpayable",
					"type": "function"
				}
			],
			"devdoc": {
				"kind": "dev",
				"methods": {},
				"version": 1
			},
			"evm": {
				"assembly": "    /* \".deps/contracts/ShippingManagement.sol\":57:3765  contract ShippingManagement {... */\n  mstore(0x40, 0x80)\n    /* \".deps/contracts/ShippingManagement.sol\":371:372  0 */\n  0x00\n    /* \".deps/contracts/ShippingManagement.sol\":340:372  uint256 public shipmentCount = 0 */\n  0x01\n  sstore\n    /* \".deps/contracts/ShippingManagement.sol\":57:3765  contract ShippingManagement {... */\n  callvalue\n  dup1\n  iszero\n  tag_1\n  jumpi\n  0x00\n  dup1\n  revert\ntag_1:\n  pop\n  dataSize(sub_0)\n  dup1\n  dataOffset(sub_0)\n  0x00\n  codecopy\n  0x00\n  return\nstop\n\nsub_0: assembly {\n        /* \".deps/contracts/ShippingManagement.sol\":57:3765  contract ShippingManagement {... */\n      mstore(0x40, 0x80)\n      callvalue\n      dup1\n      iszero\n      tag_1\n      jumpi\n      0x00\n      dup1\n      revert\n    tag_1:\n      pop\n      jumpi(tag_2, lt(calldatasize, 0x04))\n      shr(0xe0, calldataload(0x00))\n      dup1\n      0x092b3740\n      eq\n      tag_3\n      jumpi\n      dup1\n      0x2ac08a93\n      eq\n      tag_4\n      jumpi\n      dup1\n      0x317d9fca\n      eq\n      tag_5\n      jumpi\n      dup1\n      0x959f9272\n      eq\n      tag_6\n      jumpi\n      dup1\n      0xaace20b7\n      eq\n      tag_7\n      jumpi\n      dup1\n      0xf8186d37\n      eq\n      tag_8\n      jumpi\n    tag_2:\n      0x00\n      dup1\n      revert\n        /* \".deps/contracts/ShippingManagement.sol\":3094:3763  function getShipment(uint256 _shipmentId)... */\n    tag_3:\n      tag_9\n      0x04\n      dup1\n      calldatasize\n      sub\n      dup2\n      add\n      swap1\n      tag_10\n      swap2\n      swap1\n      tag_11\n      jump\t// in\n    tag_10:\n      tag_12\n      jump\t// in\n    tag_9:\n      mload(0x40)\n      tag_13\n      swap7\n      swap6\n      swap5\n      swap4\n      swap3\n      swap2\n      swap1\n      tag_14\n      jump\t// in\n    tag_13:\n      mload(0x40)\n      dup1\n      swap2\n      sub\n      swap1\n      return\n        /* \".deps/contracts/ShippingManagement.sol\":289:334  mapping(uint256 => Shipping) public shipments */\n    tag_4:\n      tag_15\n      0x04\n      dup1\n      calldatasize\n      sub\n      dup2\n      add\n      swap1\n      tag_16\n      swap2\n      swap1\n      tag_11\n      jump\t// in\n    tag_16:\n      tag_17\n      jump\t// in\n    tag_15:\n      mload(0x40)\n      tag_18\n      swap7\n      swap6\n      swap5\n      swap4\n      swap3\n      swap2\n      swap1\n      tag_14\n      jump\t// in\n    tag_18:\n      mload(0x40)\n      dup1\n      swap2\n      sub\n      swap1\n      return\n        /* \".deps/contracts/ShippingManagement.sol\":945:1868  function addShipment(... */\n    tag_5:\n      tag_19\n      0x04\n      dup1\n      calldatasize\n      sub\n      dup2\n      add\n      swap1\n      tag_20\n      swap2\n      swap1\n      tag_21\n      jump\t// in\n    tag_20:\n      tag_22\n      jump\t// in\n    tag_19:\n      stop\n        /* \".deps/contracts/ShippingManagement.sol\":2764:3060  function removeShipment(uint256 _shipmentId) public {... */\n    tag_6:\n      tag_23\n      0x04\n      dup1\n      calldatasize\n      sub\n      dup2\n      add\n      swap1\n      tag_24\n      swap2\n      swap1\n      tag_11\n      jump\t// in\n    tag_24:\n      tag_25\n      jump\t// in\n    tag_23:\n      stop\n        /* \".deps/contracts/ShippingManagement.sol\":340:372  uint256 public shipmentCount = 0 */\n    tag_7:\n      tag_26\n      tag_27\n      jump\t// in\n    tag_26:\n      mload(0x40)\n      tag_28\n      swap2\n      swap1\n      tag_29\n      jump\t// in\n    tag_28:\n      mload(0x40)\n      dup1\n      swap2\n      sub\n      swap1\n      return\n        /* \".deps/contracts/ShippingManagement.sol\":1937:2733  function updateShipment(... */\n    tag_8:\n      tag_30\n      0x04\n      dup1\n      calldatasize\n      sub\n      dup2\n      add\n      swap1\n      tag_31\n      swap2\n      swap1\n      tag_32\n      jump\t// in\n    tag_31:\n      tag_33\n      jump\t// in\n    tag_30:\n      stop\n        /* \".deps/contracts/ShippingManagement.sol\":3094:3763  function getShipment(uint256 _shipmentId)... */\n    tag_12:\n        /* \".deps/contracts/ShippingManagement.sol\":3194:3201  uint256 */\n      0x00\n        /* \".deps/contracts/ShippingManagement.sol\":3215:3228  string memory */\n      0x60\n        /* \".deps/contracts/ShippingManagement.sol\":3242:3255  string memory */\n      dup1\n        /* \".deps/contracts/ShippingManagement.sol\":3269:3276  uint256 */\n      0x00\n        /* \".deps/contracts/ShippingManagement.sol\":3290:3297  uint256 */\n      dup1\n        /* \".deps/contracts/ShippingManagement.sol\":3311:3324  string memory */\n      0x60\n        /* \".deps/contracts/ShippingManagement.sol\":3417:3418  0 */\n      0x00\n        /* \".deps/contracts/ShippingManagement.sol\":3376:3385  shipments */\n      dup1\n        /* \".deps/contracts/ShippingManagement.sol\":3376:3398  shipments[_shipmentId] */\n      0x00\n        /* \".deps/contracts/ShippingManagement.sol\":3386:3397  _shipmentId */\n      dup10\n        /* \".deps/contracts/ShippingManagement.sol\":3376:3398  shipments[_shipmentId] */\n      dup2\n      mstore\n      0x20\n      add\n      swap1\n      dup2\n      mstore\n      0x20\n      add\n      0x00\n      keccak256\n        /* \".deps/contracts/ShippingManagement.sol\":3376:3405  shipments[_shipmentId].origin */\n      0x01\n      add\n        /* \".deps/contracts/ShippingManagement.sol\":3370:3413  bytes(shipments[_shipmentId].origin).length */\n      dup1\n      sload\n      tag_35\n      swap1\n      tag_36\n      jump\t// in\n    tag_35:\n      swap1\n      pop\n        /* \".deps/contracts/ShippingManagement.sol\":3370:3418  bytes(shipments[_shipmentId].origin).length != 0 */\n      sub\n        /* \".deps/contracts/ShippingManagement.sol\":3349:3467  require(... */\n      tag_37\n      jumpi\n      mload(0x40)\n      0x08c379a000000000000000000000000000000000000000000000000000000000\n      dup2\n      mstore\n      0x04\n      add\n      tag_38\n      swap1\n      tag_39\n      jump\t// in\n    tag_38:\n      mload(0x40)\n      dup1\n      swap2\n      sub\n      swap1\n      revert\n    tag_37:\n        /* \".deps/contracts/ShippingManagement.sol\":3478:3502  Shipping memory shipment */\n      0x00\n        /* \".deps/contracts/ShippingManagement.sol\":3505:3514  shipments */\n      dup1\n        /* \".deps/contracts/ShippingManagement.sol\":3505:3527  shipments[_shipmentId] */\n      0x00\n        /* \".deps/contracts/ShippingManagement.sol\":3515:3526  _shipmentId */\n      dup10\n        /* \".deps/contracts/ShippingManagement.sol\":3505:3527  shipments[_shipmentId] */\n      dup2\n      mstore\n      0x20\n      add\n      swap1\n      dup2\n      mstore\n      0x20\n      add\n      0x00\n      keccak256\n        /* \".deps/contracts/ShippingManagement.sol\":3478:3527  Shipping memory shipment = shipments[_shipmentId] */\n      mload(0x40)\n      dup1\n      0xc0\n      add\n      0x40\n      mstore\n      swap1\n      dup2\n      0x00\n      dup3\n      add\n      sload\n      dup2\n      mstore\n      0x20\n      add\n      0x01\n      dup3\n      add\n      dup1\n      sload\n      tag_40\n      swap1\n      tag_36\n      jump\t// in\n    tag_40:\n      dup1\n      0x1f\n      add\n      0x20\n      dup1\n      swap2\n      div\n      mul\n      0x20\n      add\n      mload(0x40)\n      swap1\n      dup2\n      add\n      0x40\n      mstore\n      dup1\n      swap3\n      swap2\n      swap1\n      dup2\n      dup2\n      mstore\n      0x20\n      add\n      dup3\n      dup1\n      sload\n      tag_41\n      swap1\n      tag_36\n      jump\t// in\n    tag_41:\n      dup1\n      iszero\n      tag_42\n      jumpi\n      dup1\n      0x1f\n      lt\n      tag_43\n      jumpi\n      0x0100\n      dup1\n      dup4\n      sload\n      div\n      mul\n      dup4\n      mstore\n      swap2\n      0x20\n      add\n      swap2\n      jump(tag_42)\n    tag_43:\n      dup3\n      add\n      swap2\n      swap1\n      0x00\n      mstore\n      keccak256(0x00, 0x20)\n      swap1\n    tag_44:\n      dup2\n      sload\n      dup2\n      mstore\n      swap1\n      0x01\n      add\n      swap1\n      0x20\n      add\n      dup1\n      dup4\n      gt\n      tag_44\n      jumpi\n      dup3\n      swap1\n      sub\n      0x1f\n      and\n      dup3\n      add\n      swap2\n    tag_42:\n      pop\n      pop\n      pop\n      pop\n      pop\n      dup2\n      mstore\n      0x20\n      add\n      0x02\n      dup3\n      add\n      dup1\n      sload\n      tag_45\n      swap1\n      tag_36\n      jump\t// in\n    tag_45:\n      dup1\n      0x1f\n      add\n      0x20\n      dup1\n      swap2\n      div\n      mul\n      0x20\n      add\n      mload(0x40)\n      swap1\n      dup2\n      add\n      0x40\n      mstore\n      dup1\n      swap3\n      swap2\n      swap1\n      dup2\n      dup2\n      mstore\n      0x20\n      add\n      dup3\n      dup1\n      sload\n      tag_46\n      swap1\n      tag_36\n      jump\t// in\n    tag_46:\n      dup1\n      iszero\n      tag_47\n      jumpi\n      dup1\n      0x1f\n      lt\n      tag_48\n      jumpi\n      0x0100\n      dup1\n      dup4\n      sload\n      div\n      mul\n      dup4\n      mstore\n      swap2\n      0x20\n      add\n      swap2\n      jump(tag_47)\n    tag_48:\n      dup3\n      add\n      swap2\n      swap1\n      0x00\n      mstore\n      keccak256(0x00, 0x20)\n      swap1\n    tag_49:\n      dup2\n      sload\n      dup2\n      mstore\n      swap1\n      0x01\n      add\n      swap1\n      0x20\n      add\n      dup1\n      dup4\n      gt\n      tag_49\n      jumpi\n      dup3\n      swap1\n      sub\n      0x1f\n      and\n      dup3\n      add\n      swap2\n    tag_47:\n      pop\n      pop\n      pop\n      pop\n      pop\n      dup2\n      mstore\n      0x20\n      add\n      0x03\n      dup3\n      add\n      sload\n      dup2\n      mstore\n      0x20\n      add\n      0x04\n      dup3\n      add\n      sload\n      dup2\n      mstore\n      0x20\n      add\n      0x05\n      dup3\n      add\n      dup1\n      sload\n      tag_50\n      swap1\n      tag_36\n      jump\t// in\n    tag_50:\n      dup1\n      0x1f\n      add\n      0x20\n      dup1\n      swap2\n      div\n      mul\n      0x20\n      add\n      mload(0x40)\n      swap1\n      dup2\n      add\n      0x40\n      mstore\n      dup1\n      swap3\n      swap2\n      swap1\n      dup2\n      dup2\n      mstore\n      0x20\n      add\n      dup3\n      dup1\n      sload\n      tag_51\n      swap1\n      tag_36\n      jump\t// in\n    tag_51:\n      dup1\n      iszero\n      tag_52\n      jumpi\n      dup1\n      0x1f\n      lt\n      tag_53\n      jumpi\n      0x0100\n      dup1\n      dup4\n      sload\n      div\n      mul\n      dup4\n      mstore\n      swap2\n      0x20\n      add\n      swap2\n      jump(tag_52)\n    tag_53:\n      dup3\n      add\n      swap2\n      swap1\n      0x00\n      mstore\n      keccak256(0x00, 0x20)\n      swap1\n    tag_54:\n      dup2\n      sload\n      dup2\n      mstore\n      swap1\n      0x01\n      add\n      swap1\n      0x20\n      add\n      dup1\n      dup4\n      gt\n      tag_54\n      jumpi\n      dup3\n      swap1\n      sub\n      0x1f\n      and\n      dup3\n      add\n      swap2\n    tag_52:\n      pop\n      pop\n      pop\n      pop\n      pop\n      dup2\n      mstore\n      pop\n      pop\n      swap1\n      pop\n        /* \".deps/contracts/ShippingManagement.sol\":3558:3566  shipment */\n      dup1\n        /* \".deps/contracts/ShippingManagement.sol\":3558:3576  shipment.productId */\n      0x00\n      add\n      mload\n        /* \".deps/contracts/ShippingManagement.sol\":3590:3598  shipment */\n      dup2\n        /* \".deps/contracts/ShippingManagement.sol\":3590:3605  shipment.origin */\n      0x20\n      add\n      mload\n        /* \".deps/contracts/ShippingManagement.sol\":3619:3627  shipment */\n      dup3\n        /* \".deps/contracts/ShippingManagement.sol\":3619:3639  shipment.destination */\n      0x40\n      add\n      mload\n        /* \".deps/contracts/ShippingManagement.sol\":3653:3661  shipment */\n      dup4\n        /* \".deps/contracts/ShippingManagement.sol\":3653:3675  shipment.departureDate */\n      0x60\n      add\n      mload\n        /* \".deps/contracts/ShippingManagement.sol\":3689:3697  shipment */\n      dup5\n        /* \".deps/contracts/ShippingManagement.sol\":3689:3717  shipment.expectedArrivalDate */\n      0x80\n      add\n      mload\n        /* \".deps/contracts/ShippingManagement.sol\":3731:3739  shipment */\n      dup6\n        /* \".deps/contracts/ShippingManagement.sol\":3731:3746  shipment.status */\n      0xa0\n      add\n      mload\n        /* \".deps/contracts/ShippingManagement.sol\":3537:3756  return (... */\n      swap7\n      pop\n      swap7\n      pop\n      swap7\n      pop\n      swap7\n      pop\n      swap7\n      pop\n      swap7\n      pop\n      pop\n        /* \".deps/contracts/ShippingManagement.sol\":3094:3763  function getShipment(uint256 _shipmentId)... */\n      swap2\n      swap4\n      swap6\n      pop\n      swap2\n      swap4\n      swap6\n      jump\t// out\n        /* \".deps/contracts/ShippingManagement.sol\":289:334  mapping(uint256 => Shipping) public shipments */\n    tag_17:\n      mstore(0x20, 0x00)\n      dup1\n      0x00\n      mstore\n      keccak256(0x00, 0x40)\n      0x00\n      swap2\n      pop\n      swap1\n      pop\n      dup1\n      0x00\n      add\n      sload\n      swap1\n      dup1\n      0x01\n      add\n      dup1\n      sload\n      tag_55\n      swap1\n      tag_36\n      jump\t// in\n    tag_55:\n      dup1\n      0x1f\n      add\n      0x20\n      dup1\n      swap2\n      div\n      mul\n      0x20\n      add\n      mload(0x40)\n      swap1\n      dup2\n      add\n      0x40\n      mstore\n      dup1\n      swap3\n      swap2\n      swap1\n      dup2\n      dup2\n      mstore\n      0x20\n      add\n      dup3\n      dup1\n      sload\n      tag_56\n      swap1\n      tag_36\n      jump\t// in\n    tag_56:\n      dup1\n      iszero\n      tag_57\n      jumpi\n      dup1\n      0x1f\n      lt\n      tag_58\n      jumpi\n      0x0100\n      dup1\n      dup4\n      sload\n      div\n      mul\n      dup4\n      mstore\n      swap2\n      0x20\n      add\n      swap2\n      jump(tag_57)\n    tag_58:\n      dup3\n      add\n      swap2\n      swap1\n      0x00\n      mstore\n      keccak256(0x00, 0x20)\n      swap1\n    tag_59:\n      dup2\n      sload\n      dup2\n      mstore\n      swap1\n      0x01\n      add\n      swap1\n      0x20\n      add\n      dup1\n      dup4\n      gt\n      tag_59\n      jumpi\n      dup3\n      swap1\n      sub\n      0x1f\n      and\n      dup3\n      add\n      swap2\n    tag_57:\n      pop\n      pop\n      pop\n      pop\n      pop\n      swap1\n      dup1\n      0x02\n      add\n      dup1\n      sload\n      tag_60\n      swap1\n      tag_36\n      jump\t// in\n    tag_60:\n      dup1\n      0x1f\n      add\n      0x20\n      dup1\n      swap2\n      div\n      mul\n      0x20\n      add\n      mload(0x40)\n      swap1\n      dup2\n      add\n      0x40\n      mstore\n      dup1\n      swap3\n      swap2\n      swap1\n      dup2\n      dup2\n      mstore\n      0x20\n      add\n      dup3\n      dup1\n      sload\n      tag_61\n      swap1\n      tag_36\n      jump\t// in\n    tag_61:\n      dup1\n      iszero\n      tag_62\n      jumpi\n      dup1\n      0x1f\n      lt\n      tag_63\n      jumpi\n      0x0100\n      dup1\n      dup4\n      sload\n      div\n      mul\n      dup4\n      mstore\n      swap2\n      0x20\n      add\n      swap2\n      jump(tag_62)\n    tag_63:\n      dup3\n      add\n      swap2\n      swap1\n      0x00\n      mstore\n      keccak256(0x00, 0x20)\n      swap1\n    tag_64:\n      dup2\n      sload\n      dup2\n      mstore\n      swap1\n      0x01\n      add\n      swap1\n      0x20\n      add\n      dup1\n      dup4\n      gt\n      tag_64\n      jumpi\n      dup3\n      swap1\n      sub\n      0x1f\n      and\n      dup3\n      add\n      swap2\n    tag_62:\n      pop\n      pop\n      pop\n      pop\n      pop\n      swap1\n      dup1\n      0x03\n      add\n      sload\n      swap1\n      dup1\n      0x04\n      add\n      sload\n      swap1\n      dup1\n      0x05\n      add\n      dup1\n      sload\n      tag_65\n      swap1\n      tag_36\n      jump\t// in\n    tag_65:\n      dup1\n      0x1f\n      add\n      0x20\n      dup1\n      swap2\n      div\n      mul\n      0x20\n      add\n      mload(0x40)\n      swap1\n      dup2\n      add\n      0x40\n      mstore\n      dup1\n      swap3\n      swap2\n      swap1\n      dup2\n      dup2\n      mstore\n      0x20\n      add\n      dup3\n      dup1\n      sload\n      tag_66\n      swap1\n      tag_36\n      jump\t// in\n    tag_66:\n      dup1\n      iszero\n      tag_67\n      jumpi\n      dup1\n      0x1f\n      lt\n      tag_68\n      jumpi\n      0x0100\n      dup1\n      dup4\n      sload\n      div\n      mul\n      dup4\n      mstore\n      swap2\n      0x20\n      add\n      swap2\n      jump(tag_67)\n    tag_68:\n      dup3\n      add\n      swap2\n      swap1\n      0x00\n      mstore\n      keccak256(0x00, 0x20)\n      swap1\n    tag_69:\n      dup2\n      sload\n      dup2\n      mstore\n      swap1\n      0x01\n      add\n      swap1\n      0x20\n      add\n      dup1\n      dup4\n      gt\n      tag_69\n      jumpi\n      dup3\n      swap1\n      sub\n      0x1f\n      and\n      dup3\n      add\n      swap2\n    tag_67:\n      pop\n      pop\n      pop\n      pop\n      pop\n      swap1\n      pop\n      dup7\n      jump\t// out\n        /* \".deps/contracts/ShippingManagement.sol\":945:1868  function addShipment(... */\n    tag_22:\n        /* \".deps/contracts/ShippingManagement.sol\":1282:1283  0 */\n      0x00\n        /* \".deps/contracts/ShippingManagement.sol\":1241:1250  shipments */\n      dup1\n        /* \".deps/contracts/ShippingManagement.sol\":1241:1263  shipments[_shipmentId] */\n      0x00\n        /* \".deps/contracts/ShippingManagement.sol\":1251:1262  _shipmentId */\n      dup10\n        /* \".deps/contracts/ShippingManagement.sol\":1241:1263  shipments[_shipmentId] */\n      dup2\n      mstore\n      0x20\n      add\n      swap1\n      dup2\n      mstore\n      0x20\n      add\n      0x00\n      keccak256\n        /* \".deps/contracts/ShippingManagement.sol\":1241:1270  shipments[_shipmentId].origin */\n      0x01\n      add\n        /* \".deps/contracts/ShippingManagement.sol\":1235:1278  bytes(shipments[_shipmentId].origin).length */\n      dup1\n      sload\n      tag_71\n      swap1\n      tag_36\n      jump\t// in\n    tag_71:\n      swap1\n      pop\n        /* \".deps/contracts/ShippingManagement.sol\":1235:1283  bytes(shipments[_shipmentId].origin).length == 0 */\n      eq\n        /* \".deps/contracts/ShippingManagement.sol\":1214:1332  require(... */\n      tag_72\n      jumpi\n      mload(0x40)\n      0x08c379a000000000000000000000000000000000000000000000000000000000\n      dup2\n      mstore\n      0x04\n      add\n      tag_73\n      swap1\n      tag_74\n      jump\t// in\n    tag_73:\n      mload(0x40)\n      dup1\n      swap2\n      sub\n      swap1\n      revert\n    tag_72:\n        /* \".deps/contracts/ShippingManagement.sol\":1368:1618  Shipping({... */\n      mload(0x40)\n      dup1\n      0xc0\n      add\n      0x40\n      mstore\n      dup1\n        /* \".deps/contracts/ShippingManagement.sol\":1402:1412  _productId */\n      dup8\n        /* \".deps/contracts/ShippingManagement.sol\":1368:1618  Shipping({... */\n      dup2\n      mstore\n      0x20\n      add\n        /* \".deps/contracts/ShippingManagement.sol\":1434:1441  _origin */\n      dup7\n        /* \".deps/contracts/ShippingManagement.sol\":1368:1618  Shipping({... */\n      dup2\n      mstore\n      0x20\n      add\n        /* \".deps/contracts/ShippingManagement.sol\":1468:1480  _destination */\n      dup6\n        /* \".deps/contracts/ShippingManagement.sol\":1368:1618  Shipping({... */\n      dup2\n      mstore\n      0x20\n      add\n        /* \".deps/contracts/ShippingManagement.sol\":1509:1523  _departureDate */\n      dup5\n        /* \".deps/contracts/ShippingManagement.sol\":1368:1618  Shipping({... */\n      dup2\n      mstore\n      0x20\n      add\n        /* \".deps/contracts/ShippingManagement.sol\":1558:1578  _expectedArrivalDate */\n      dup4\n        /* \".deps/contracts/ShippingManagement.sol\":1368:1618  Shipping({... */\n      dup2\n      mstore\n      0x20\n      add\n        /* \".deps/contracts/ShippingManagement.sol\":1600:1607  _status */\n      dup3\n        /* \".deps/contracts/ShippingManagement.sol\":1368:1618  Shipping({... */\n      dup2\n      mstore\n      pop\n        /* \".deps/contracts/ShippingManagement.sol\":1343:1352  shipments */\n      0x00\n        /* \".deps/contracts/ShippingManagement.sol\":1343:1365  shipments[_shipmentId] */\n      dup1\n        /* \".deps/contracts/ShippingManagement.sol\":1353:1364  _shipmentId */\n      dup10\n        /* \".deps/contracts/ShippingManagement.sol\":1343:1365  shipments[_shipmentId] */\n      dup2\n      mstore\n      0x20\n      add\n      swap1\n      dup2\n      mstore\n      0x20\n      add\n      0x00\n      keccak256\n        /* \".deps/contracts/ShippingManagement.sol\":1343:1618  shipments[_shipmentId] = Shipping({... */\n      0x00\n      dup3\n      add\n      mload\n      dup2\n      0x00\n      add\n      sstore\n      0x20\n      dup3\n      add\n      mload\n      dup2\n      0x01\n      add\n      swap1\n      dup2\n      tag_75\n      swap2\n      swap1\n      tag_76\n      jump\t// in\n    tag_75:\n      pop\n      0x40\n      dup3\n      add\n      mload\n      dup2\n      0x02\n      add\n      swap1\n      dup2\n      tag_77\n      swap2\n      swap1\n      tag_76\n      jump\t// in\n    tag_77:\n      pop\n      0x60\n      dup3\n      add\n      mload\n      dup2\n      0x03\n      add\n      sstore\n      0x80\n      dup3\n      add\n      mload\n      dup2\n      0x04\n      add\n      sstore\n      0xa0\n      dup3\n      add\n      mload\n      dup2\n      0x05\n      add\n      swap1\n      dup2\n      tag_78\n      swap2\n      swap1\n      tag_76\n      jump\t// in\n    tag_78:\n      pop\n      swap1\n      pop\n      pop\n        /* \".deps/contracts/ShippingManagement.sol\":1629:1642  shipmentCount */\n      0x01\n      0x00\n        /* \".deps/contracts/ShippingManagement.sol\":1629:1644  shipmentCount++ */\n      dup2\n      sload\n      dup1\n      swap3\n      swap2\n      swap1\n      tag_79\n      swap1\n      tag_80\n      jump\t// in\n    tag_79:\n      swap2\n      swap1\n      pop\n      sstore\n      pop\n        /* \".deps/contracts/ShippingManagement.sol\":1711:1721  _productId */\n      dup6\n        /* \".deps/contracts/ShippingManagement.sol\":1686:1697  _shipmentId */\n      dup8\n        /* \".deps/contracts/ShippingManagement.sol\":1659:1861  ShipmentAdded(... */\n      0x601a0e875ddfe57cad229d8e1b980ddc2211aad2010439670036cea9b1b014d0\n        /* \".deps/contracts/ShippingManagement.sol\":1735:1742  _origin */\n      dup8\n        /* \".deps/contracts/ShippingManagement.sol\":1756:1768  _destination */\n      dup8\n        /* \".deps/contracts/ShippingManagement.sol\":1782:1796  _departureDate */\n      dup8\n        /* \".deps/contracts/ShippingManagement.sol\":1810:1830  _expectedArrivalDate */\n      dup8\n        /* \".deps/contracts/ShippingManagement.sol\":1844:1851  _status */\n      dup8\n        /* \".deps/contracts/ShippingManagement.sol\":1659:1861  ShipmentAdded(... */\n      mload(0x40)\n      tag_81\n      swap6\n      swap5\n      swap4\n      swap3\n      swap2\n      swap1\n      tag_82\n      jump\t// in\n    tag_81:\n      mload(0x40)\n      dup1\n      swap2\n      sub\n      swap1\n      log3\n        /* \".deps/contracts/ShippingManagement.sol\":945:1868  function addShipment(... */\n      pop\n      pop\n      pop\n      pop\n      pop\n      pop\n      pop\n      jump\t// out\n        /* \".deps/contracts/ShippingManagement.sol\":2764:3060  function removeShipment(uint256 _shipmentId) public {... */\n    tag_25:\n        /* \".deps/contracts/ShippingManagement.sol\":2894:2895  0 */\n      0x00\n        /* \".deps/contracts/ShippingManagement.sol\":2853:2862  shipments */\n      dup1\n        /* \".deps/contracts/ShippingManagement.sol\":2853:2875  shipments[_shipmentId] */\n      0x00\n        /* \".deps/contracts/ShippingManagement.sol\":2863:2874  _shipmentId */\n      dup4\n        /* \".deps/contracts/ShippingManagement.sol\":2853:2875  shipments[_shipmentId] */\n      dup2\n      mstore\n      0x20\n      add\n      swap1\n      dup2\n      mstore\n      0x20\n      add\n      0x00\n      keccak256\n        /* \".deps/contracts/ShippingManagement.sol\":2853:2882  shipments[_shipmentId].origin */\n      0x01\n      add\n        /* \".deps/contracts/ShippingManagement.sol\":2847:2890  bytes(shipments[_shipmentId].origin).length */\n      dup1\n      sload\n      tag_84\n      swap1\n      tag_36\n      jump\t// in\n    tag_84:\n      swap1\n      pop\n        /* \".deps/contracts/ShippingManagement.sol\":2847:2895  bytes(shipments[_shipmentId].origin).length != 0 */\n      sub\n        /* \".deps/contracts/ShippingManagement.sol\":2826:2944  require(... */\n      tag_85\n      jumpi\n      mload(0x40)\n      0x08c379a000000000000000000000000000000000000000000000000000000000\n      dup2\n      mstore\n      0x04\n      add\n      tag_86\n      swap1\n      tag_39\n      jump\t// in\n    tag_86:\n      mload(0x40)\n      dup1\n      swap2\n      sub\n      swap1\n      revert\n    tag_85:\n        /* \".deps/contracts/ShippingManagement.sol\":2962:2971  shipments */\n      0x00\n        /* \".deps/contracts/ShippingManagement.sol\":2962:2984  shipments[_shipmentId] */\n      dup1\n        /* \".deps/contracts/ShippingManagement.sol\":2972:2983  _shipmentId */\n      dup3\n        /* \".deps/contracts/ShippingManagement.sol\":2962:2984  shipments[_shipmentId] */\n      dup2\n      mstore\n      0x20\n      add\n      swap1\n      dup2\n      mstore\n      0x20\n      add\n      0x00\n      keccak256\n      0x00\n        /* \".deps/contracts/ShippingManagement.sol\":2955:2984  delete shipments[_shipmentId] */\n      dup1\n      dup3\n      add\n      0x00\n      swap1\n      sstore\n      0x01\n      dup3\n      add\n      0x00\n      tag_87\n      swap2\n      swap1\n      tag_88\n      jump\t// in\n    tag_87:\n      0x02\n      dup3\n      add\n      0x00\n      tag_89\n      swap2\n      swap1\n      tag_88\n      jump\t// in\n    tag_89:\n      0x03\n      dup3\n      add\n      0x00\n      swap1\n      sstore\n      0x04\n      dup3\n      add\n      0x00\n      swap1\n      sstore\n      0x05\n      dup3\n      add\n      0x00\n      tag_90\n      swap2\n      swap1\n      tag_88\n      jump\t// in\n    tag_90:\n      pop\n      pop\n        /* \".deps/contracts/ShippingManagement.sol\":2994:3007  shipmentCount */\n      0x01\n      0x00\n        /* \".deps/contracts/ShippingManagement.sol\":2994:3009  shipmentCount-- */\n      dup2\n      sload\n      dup1\n      swap3\n      swap2\n      swap1\n      tag_91\n      swap1\n      tag_92\n      jump\t// in\n    tag_91:\n      swap2\n      swap1\n      pop\n      sstore\n      pop\n        /* \".deps/contracts/ShippingManagement.sol\":3041:3052  _shipmentId */\n      dup1\n        /* \".deps/contracts/ShippingManagement.sol\":3025:3053  ShipmentRemoved(_shipmentId) */\n      0x66c891e51efb5e3de78f960a0177f968c9e0866811cde856de366b3c1c295eb5\n      mload(0x40)\n      mload(0x40)\n      dup1\n      swap2\n      sub\n      swap1\n      log2\n        /* \".deps/contracts/ShippingManagement.sol\":2764:3060  function removeShipment(uint256 _shipmentId) public {... */\n      pop\n      jump\t// out\n        /* \".deps/contracts/ShippingManagement.sol\":340:372  uint256 public shipmentCount = 0 */\n    tag_27:\n      sload(0x01)\n      dup2\n      jump\t// out\n        /* \".deps/contracts/ShippingManagement.sol\":1937:2733  function updateShipment(... */\n    tag_33:\n        /* \".deps/contracts/ShippingManagement.sol\":2230:2231  0 */\n      0x00\n        /* \".deps/contracts/ShippingManagement.sol\":2189:2198  shipments */\n      dup1\n        /* \".deps/contracts/ShippingManagement.sol\":2189:2211  shipments[_shipmentId] */\n      0x00\n        /* \".deps/contracts/ShippingManagement.sol\":2199:2210  _shipmentId */\n      dup8\n        /* \".deps/contracts/ShippingManagement.sol\":2189:2211  shipments[_shipmentId] */\n      dup2\n      mstore\n      0x20\n      add\n      swap1\n      dup2\n      mstore\n      0x20\n      add\n      0x00\n      keccak256\n        /* \".deps/contracts/ShippingManagement.sol\":2189:2218  shipments[_shipmentId].origin */\n      0x01\n      add\n        /* \".deps/contracts/ShippingManagement.sol\":2183:2226  bytes(shipments[_shipmentId].origin).length */\n      dup1\n      sload\n      tag_94\n      swap1\n      tag_36\n      jump\t// in\n    tag_94:\n      swap1\n      pop\n        /* \".deps/contracts/ShippingManagement.sol\":2183:2231  bytes(shipments[_shipmentId].origin).length != 0 */\n      sub\n        /* \".deps/contracts/ShippingManagement.sol\":2162:2280  require(... */\n      tag_95\n      jumpi\n      mload(0x40)\n      0x08c379a000000000000000000000000000000000000000000000000000000000\n      dup2\n      mstore\n      0x04\n      add\n      tag_96\n      swap1\n      tag_39\n      jump\t// in\n    tag_96:\n      mload(0x40)\n      dup1\n      swap2\n      sub\n      swap1\n      revert\n    tag_95:\n        /* \".deps/contracts/ShippingManagement.sol\":2328:2343  _newDestination */\n      dup4\n        /* \".deps/contracts/ShippingManagement.sol\":2291:2300  shipments */\n      0x00\n        /* \".deps/contracts/ShippingManagement.sol\":2291:2313  shipments[_shipmentId] */\n      dup1\n        /* \".deps/contracts/ShippingManagement.sol\":2301:2312  _shipmentId */\n      dup8\n        /* \".deps/contracts/ShippingManagement.sol\":2291:2313  shipments[_shipmentId] */\n      dup2\n      mstore\n      0x20\n      add\n      swap1\n      dup2\n      mstore\n      0x20\n      add\n      0x00\n      keccak256\n        /* \".deps/contracts/ShippingManagement.sol\":2291:2325  shipments[_shipmentId].destination */\n      0x02\n      add\n        /* \".deps/contracts/ShippingManagement.sol\":2291:2343  shipments[_shipmentId].destination = _newDestination */\n      swap1\n      dup2\n      tag_97\n      swap2\n      swap1\n      tag_76\n      jump\t// in\n    tag_97:\n      pop\n        /* \".deps/contracts/ShippingManagement.sol\":2392:2409  _newDepartureDate */\n      dup3\n        /* \".deps/contracts/ShippingManagement.sol\":2353:2362  shipments */\n      0x00\n        /* \".deps/contracts/ShippingManagement.sol\":2353:2375  shipments[_shipmentId] */\n      dup1\n        /* \".deps/contracts/ShippingManagement.sol\":2363:2374  _shipmentId */\n      dup8\n        /* \".deps/contracts/ShippingManagement.sol\":2353:2375  shipments[_shipmentId] */\n      dup2\n      mstore\n      0x20\n      add\n      swap1\n      dup2\n      mstore\n      0x20\n      add\n      0x00\n      keccak256\n        /* \".deps/contracts/ShippingManagement.sol\":2353:2389  shipments[_shipmentId].departureDate */\n      0x03\n      add\n        /* \".deps/contracts/ShippingManagement.sol\":2353:2409  shipments[_shipmentId].departureDate = _newDepartureDate */\n      dup2\n      swap1\n      sstore\n      pop\n        /* \".deps/contracts/ShippingManagement.sol\":2464:2487  _newExpectedArrivalDate */\n      dup2\n        /* \".deps/contracts/ShippingManagement.sol\":2419:2428  shipments */\n      0x00\n        /* \".deps/contracts/ShippingManagement.sol\":2419:2441  shipments[_shipmentId] */\n      dup1\n        /* \".deps/contracts/ShippingManagement.sol\":2429:2440  _shipmentId */\n      dup8\n        /* \".deps/contracts/ShippingManagement.sol\":2419:2441  shipments[_shipmentId] */\n      dup2\n      mstore\n      0x20\n      add\n      swap1\n      dup2\n      mstore\n      0x20\n      add\n      0x00\n      keccak256\n        /* \".deps/contracts/ShippingManagement.sol\":2419:2461  shipments[_shipmentId].expectedArrivalDate */\n      0x04\n      add\n        /* \".deps/contracts/ShippingManagement.sol\":2419:2487  shipments[_shipmentId].expectedArrivalDate = _newExpectedArrivalDate */\n      dup2\n      swap1\n      sstore\n      pop\n        /* \".deps/contracts/ShippingManagement.sol\":2529:2539  _newStatus */\n      dup1\n        /* \".deps/contracts/ShippingManagement.sol\":2497:2506  shipments */\n      0x00\n        /* \".deps/contracts/ShippingManagement.sol\":2497:2519  shipments[_shipmentId] */\n      dup1\n        /* \".deps/contracts/ShippingManagement.sol\":2507:2518  _shipmentId */\n      dup8\n        /* \".deps/contracts/ShippingManagement.sol\":2497:2519  shipments[_shipmentId] */\n      dup2\n      mstore\n      0x20\n      add\n      swap1\n      dup2\n      mstore\n      0x20\n      add\n      0x00\n      keccak256\n        /* \".deps/contracts/ShippingManagement.sol\":2497:2526  shipments[_shipmentId].status */\n      0x05\n      add\n        /* \".deps/contracts/ShippingManagement.sol\":2497:2539  shipments[_shipmentId].status = _newStatus */\n      swap1\n      dup2\n      tag_98\n      swap2\n      swap1\n      tag_76\n      jump\t// in\n    tag_98:\n      pop\n        /* \".deps/contracts/ShippingManagement.sol\":2584:2595  _shipmentId */\n      dup5\n        /* \".deps/contracts/ShippingManagement.sol\":2555:2726  ShipmentUpdated(... */\n      0xacaaac77c8bae53d1026541e4970309b3ca003985a8ad181de65203d9d2f7224\n        /* \".deps/contracts/ShippingManagement.sol\":2609:2624  _newDestination */\n      dup6\n        /* \".deps/contracts/ShippingManagement.sol\":2638:2655  _newDepartureDate */\n      dup6\n        /* \".deps/contracts/ShippingManagement.sol\":2669:2692  _newExpectedArrivalDate */\n      dup6\n        /* \".deps/contracts/ShippingManagement.sol\":2706:2716  _newStatus */\n      dup6\n        /* \".deps/contracts/ShippingManagement.sol\":2555:2726  ShipmentUpdated(... */\n      mload(0x40)\n      tag_99\n      swap5\n      swap4\n      swap3\n      swap2\n      swap1\n      tag_100\n      jump\t// in\n    tag_99:\n      mload(0x40)\n      dup1\n      swap2\n      sub\n      swap1\n      log2\n        /* \".deps/contracts/ShippingManagement.sol\":1937:2733  function updateShipment(... */\n      pop\n      pop\n      pop\n      pop\n      pop\n      jump\t// out\n    tag_88:\n      pop\n      dup1\n      sload\n      tag_101\n      swap1\n      tag_36\n      jump\t// in\n    tag_101:\n      0x00\n      dup3\n      sstore\n      dup1\n      0x1f\n      lt\n      tag_103\n      jumpi\n      pop\n      jump(tag_102)\n    tag_103:\n      0x1f\n      add\n      0x20\n      swap1\n      div\n      swap1\n      0x00\n      mstore\n      keccak256(0x00, 0x20)\n      swap1\n      dup2\n      add\n      swap1\n      tag_104\n      swap2\n      swap1\n      tag_105\n      jump\t// in\n    tag_104:\n    tag_102:\n      pop\n      jump\t// out\n    tag_105:\n    tag_106:\n      dup1\n      dup3\n      gt\n      iszero\n      tag_107\n      jumpi\n      0x00\n      dup2\n      0x00\n      swap1\n      sstore\n      pop\n      0x01\n      add\n      jump(tag_106)\n    tag_107:\n      pop\n      swap1\n      jump\t// out\n        /* \"#utility.yul\":7:82   */\n    tag_108:\n        /* \"#utility.yul\":40:46   */\n      0x00\n        /* \"#utility.yul\":73:75   */\n      0x40\n        /* \"#utility.yul\":67:76   */\n      mload\n        /* \"#utility.yul\":57:76   */\n      swap1\n      pop\n        /* \"#utility.yul\":7:82   */\n      swap1\n      jump\t// out\n        /* \"#utility.yul\":88:205   */\n    tag_109:\n        /* \"#utility.yul\":197:198   */\n      0x00\n        /* \"#utility.yul\":194:195   */\n      dup1\n        /* \"#utility.yul\":187:199   */\n      revert\n        /* \"#utility.yul\":211:328   */\n    tag_110:\n        /* \"#utility.yul\":320:321   */\n      0x00\n        /* \"#utility.yul\":317:318   */\n      dup1\n        /* \"#utility.yul\":310:322   */\n      revert\n        /* \"#utility.yul\":334:411   */\n    tag_111:\n        /* \"#utility.yul\":371:378   */\n      0x00\n        /* \"#utility.yul\":400:405   */\n      dup2\n        /* \"#utility.yul\":389:405   */\n      swap1\n      pop\n        /* \"#utility.yul\":334:411   */\n      swap2\n      swap1\n      pop\n      jump\t// out\n        /* \"#utility.yul\":417:539   */\n    tag_112:\n        /* \"#utility.yul\":490:514   */\n      tag_156\n        /* \"#utility.yul\":508:513   */\n      dup2\n        /* \"#utility.yul\":490:514   */\n      tag_111\n      jump\t// in\n    tag_156:\n        /* \"#utility.yul\":483:488   */\n      dup2\n        /* \"#utility.yul\":480:515   */\n      eq\n        /* \"#utility.yul\":470:533   */\n      tag_157\n      jumpi\n        /* \"#utility.yul\":529:530   */\n      0x00\n        /* \"#utility.yul\":526:527   */\n      dup1\n        /* \"#utility.yul\":519:531   */\n      revert\n        /* \"#utility.yul\":470:533   */\n    tag_157:\n        /* \"#utility.yul\":417:539   */\n      pop\n      jump\t// out\n        /* \"#utility.yul\":545:684   */\n    tag_113:\n        /* \"#utility.yul\":591:596   */\n      0x00\n        /* \"#utility.yul\":629:635   */\n      dup2\n        /* \"#utility.yul\":616:636   */\n      calldataload\n        /* \"#utility.yul\":607:636   */\n      swap1\n      pop\n        /* \"#utility.yul\":645:678   */\n      tag_159\n        /* \"#utility.yul\":672:677   */\n      dup2\n        /* \"#utility.yul\":645:678   */\n      tag_112\n      jump\t// in\n    tag_159:\n        /* \"#utility.yul\":545:684   */\n      swap3\n      swap2\n      pop\n      pop\n      jump\t// out\n        /* \"#utility.yul\":690:1019   */\n    tag_11:\n        /* \"#utility.yul\":749:755   */\n      0x00\n        /* \"#utility.yul\":798:800   */\n      0x20\n        /* \"#utility.yul\":786:795   */\n      dup3\n        /* \"#utility.yul\":777:784   */\n      dup5\n        /* \"#utility.yul\":773:796   */\n      sub\n        /* \"#utility.yul\":769:801   */\n      slt\n        /* \"#utility.yul\":766:885   */\n      iszero\n      tag_161\n      jumpi\n        /* \"#utility.yul\":804:883   */\n      tag_162\n      tag_109\n      jump\t// in\n    tag_162:\n        /* \"#utility.yul\":766:885   */\n    tag_161:\n        /* \"#utility.yul\":924:925   */\n      0x00\n        /* \"#utility.yul\":949:1002   */\n      tag_163\n        /* \"#utility.yul\":994:1001   */\n      dup5\n        /* \"#utility.yul\":985:991   */\n      dup3\n        /* \"#utility.yul\":974:983   */\n      dup6\n        /* \"#utility.yul\":970:992   */\n      add\n        /* \"#utility.yul\":949:1002   */\n      tag_113\n      jump\t// in\n    tag_163:\n        /* \"#utility.yul\":939:1002   */\n      swap2\n      pop\n        /* \"#utility.yul\":895:1012   */\n      pop\n        /* \"#utility.yul\":690:1019   */\n      swap3\n      swap2\n      pop\n      pop\n      jump\t// out\n        /* \"#utility.yul\":1025:1143   */\n    tag_114:\n        /* \"#utility.yul\":1112:1136   */\n      tag_165\n        /* \"#utility.yul\":1130:1135   */\n      dup2\n        /* \"#utility.yul\":1112:1136   */\n      tag_111\n      jump\t// in\n    tag_165:\n        /* \"#utility.yul\":1107:1110   */\n      dup3\n        /* \"#utility.yul\":1100:1137   */\n      mstore\n        /* \"#utility.yul\":1025:1143   */\n      pop\n      pop\n      jump\t// out\n        /* \"#utility.yul\":1149:1248   */\n    tag_115:\n        /* \"#utility.yul\":1201:1207   */\n      0x00\n        /* \"#utility.yul\":1235:1240   */\n      dup2\n        /* \"#utility.yul\":1229:1241   */\n      mload\n        /* \"#utility.yul\":1219:1241   */\n      swap1\n      pop\n        /* \"#utility.yul\":1149:1248   */\n      swap2\n      swap1\n      pop\n      jump\t// out\n        /* \"#utility.yul\":1254:1423   */\n    tag_116:\n        /* \"#utility.yul\":1338:1349   */\n      0x00\n        /* \"#utility.yul\":1372:1378   */\n      dup3\n        /* \"#utility.yul\":1367:1370   */\n      dup3\n        /* \"#utility.yul\":1360:1379   */\n      mstore\n        /* \"#utility.yul\":1412:1416   */\n      0x20\n        /* \"#utility.yul\":1407:1410   */\n      dup3\n        /* \"#utility.yul\":1403:1417   */\n      add\n        /* \"#utility.yul\":1388:1417   */\n      swap1\n      pop\n        /* \"#utility.yul\":1254:1423   */\n      swap3\n      swap2\n      pop\n      pop\n      jump\t// out\n        /* \"#utility.yul\":1429:1568   */\n    tag_117:\n        /* \"#utility.yul\":1518:1524   */\n      dup3\n        /* \"#utility.yul\":1513:1516   */\n      dup2\n        /* \"#utility.yul\":1508:1511   */\n      dup4\n        /* \"#utility.yul\":1502:1525   */\n      mcopy\n        /* \"#utility.yul\":1559:1560   */\n      0x00\n        /* \"#utility.yul\":1550:1556   */\n      dup4\n        /* \"#utility.yul\":1545:1548   */\n      dup4\n        /* \"#utility.yul\":1541:1557   */\n      add\n        /* \"#utility.yul\":1534:1561   */\n      mstore\n        /* \"#utility.yul\":1429:1568   */\n      pop\n      pop\n      pop\n      jump\t// out\n        /* \"#utility.yul\":1574:1676   */\n    tag_118:\n        /* \"#utility.yul\":1615:1621   */\n      0x00\n        /* \"#utility.yul\":1666:1668   */\n      0x1f\n        /* \"#utility.yul\":1662:1669   */\n      not\n        /* \"#utility.yul\":1657:1659   */\n      0x1f\n        /* \"#utility.yul\":1650:1655   */\n      dup4\n        /* \"#utility.yul\":1646:1660   */\n      add\n        /* \"#utility.yul\":1642:1670   */\n      and\n        /* \"#utility.yul\":1632:1670   */\n      swap1\n      pop\n        /* \"#utility.yul\":1574:1676   */\n      swap2\n      swap1\n      pop\n      jump\t// out\n        /* \"#utility.yul\":1682:2059   */\n    tag_119:\n        /* \"#utility.yul\":1770:1773   */\n      0x00\n        /* \"#utility.yul\":1798:1837   */\n      tag_171\n        /* \"#utility.yul\":1831:1836   */\n      dup3\n        /* \"#utility.yul\":1798:1837   */\n      tag_115\n      jump\t// in\n    tag_171:\n        /* \"#utility.yul\":1853:1924   */\n      tag_172\n        /* \"#utility.yul\":1917:1923   */\n      dup2\n        /* \"#utility.yul\":1912:1915   */\n      dup6\n        /* \"#utility.yul\":1853:1924   */\n      tag_116\n      jump\t// in\n    tag_172:\n        /* \"#utility.yul\":1846:1924   */\n      swap4\n      pop\n        /* \"#utility.yul\":1933:1998   */\n      tag_173\n        /* \"#utility.yul\":1991:1997   */\n      dup2\n        /* \"#utility.yul\":1986:1989   */\n      dup6\n        /* \"#utility.yul\":1979:1983   */\n      0x20\n        /* \"#utility.yul\":1972:1977   */\n      dup7\n        /* \"#utility.yul\":1968:1984   */\n      add\n        /* \"#utility.yul\":1933:1998   */\n      tag_117\n      jump\t// in\n    tag_173:\n        /* \"#utility.yul\":2023:2052   */\n      tag_174\n        /* \"#utility.yul\":2045:2051   */\n      dup2\n        /* \"#utility.yul\":2023:2052   */\n      tag_118\n      jump\t// in\n    tag_174:\n        /* \"#utility.yul\":2018:2021   */\n      dup5\n        /* \"#utility.yul\":2014:2053   */\n      add\n        /* \"#utility.yul\":2007:2053   */\n      swap2\n      pop\n        /* \"#utility.yul\":1774:2059   */\n      pop\n        /* \"#utility.yul\":1682:2059   */\n      swap3\n      swap2\n      pop\n      pop\n      jump\t// out\n        /* \"#utility.yul\":2065:3113   */\n    tag_14:\n        /* \"#utility.yul\":2358:2362   */\n      0x00\n        /* \"#utility.yul\":2396:2399   */\n      0xc0\n        /* \"#utility.yul\":2385:2394   */\n      dup3\n        /* \"#utility.yul\":2381:2400   */\n      add\n        /* \"#utility.yul\":2373:2400   */\n      swap1\n      pop\n        /* \"#utility.yul\":2410:2481   */\n      tag_176\n        /* \"#utility.yul\":2478:2479   */\n      0x00\n        /* \"#utility.yul\":2467:2476   */\n      dup4\n        /* \"#utility.yul\":2463:2480   */\n      add\n        /* \"#utility.yul\":2454:2460   */\n      dup10\n        /* \"#utility.yul\":2410:2481   */\n      tag_114\n      jump\t// in\n    tag_176:\n        /* \"#utility.yul\":2528:2537   */\n      dup2\n        /* \"#utility.yul\":2522:2526   */\n      dup2\n        /* \"#utility.yul\":2518:2538   */\n      sub\n        /* \"#utility.yul\":2513:2515   */\n      0x20\n        /* \"#utility.yul\":2502:2511   */\n      dup4\n        /* \"#utility.yul\":2498:2516   */\n      add\n        /* \"#utility.yul\":2491:2539   */\n      mstore\n        /* \"#utility.yul\":2556:2634   */\n      tag_177\n        /* \"#utility.yul\":2629:2633   */\n      dup2\n        /* \"#utility.yul\":2620:2626   */\n      dup9\n        /* \"#utility.yul\":2556:2634   */\n      tag_119\n      jump\t// in\n    tag_177:\n        /* \"#utility.yul\":2548:2634   */\n      swap1\n      pop\n        /* \"#utility.yul\":2681:2690   */\n      dup2\n        /* \"#utility.yul\":2675:2679   */\n      dup2\n        /* \"#utility.yul\":2671:2691   */\n      sub\n        /* \"#utility.yul\":2666:2668   */\n      0x40\n        /* \"#utility.yul\":2655:2664   */\n      dup4\n        /* \"#utility.yul\":2651:2669   */\n      add\n        /* \"#utility.yul\":2644:2692   */\n      mstore\n        /* \"#utility.yul\":2709:2787   */\n      tag_178\n        /* \"#utility.yul\":2782:2786   */\n      dup2\n        /* \"#utility.yul\":2773:2779   */\n      dup8\n        /* \"#utility.yul\":2709:2787   */\n      tag_119\n      jump\t// in\n    tag_178:\n        /* \"#utility.yul\":2701:2787   */\n      swap1\n      pop\n        /* \"#utility.yul\":2797:2869   */\n      tag_179\n        /* \"#utility.yul\":2865:2867   */\n      0x60\n        /* \"#utility.yul\":2854:2863   */\n      dup4\n        /* \"#utility.yul\":2850:2868   */\n      add\n        /* \"#utility.yul\":2841:2847   */\n      dup7\n        /* \"#utility.yul\":2797:2869   */\n      tag_114\n      jump\t// in\n    tag_179:\n        /* \"#utility.yul\":2879:2952   */\n      tag_180\n        /* \"#utility.yul\":2947:2950   */\n      0x80\n        /* \"#utility.yul\":2936:2945   */\n      dup4\n        /* \"#utility.yul\":2932:2951   */\n      add\n        /* \"#utility.yul\":2923:2929   */\n      dup6\n        /* \"#utility.yul\":2879:2952   */\n      tag_114\n      jump\t// in\n    tag_180:\n        /* \"#utility.yul\":3000:3009   */\n      dup2\n        /* \"#utility.yul\":2994:2998   */\n      dup2\n        /* \"#utility.yul\":2990:3010   */\n      sub\n        /* \"#utility.yul\":2984:2987   */\n      0xa0\n        /* \"#utility.yul\":2973:2982   */\n      dup4\n        /* \"#utility.yul\":2969:2988   */\n      add\n        /* \"#utility.yul\":2962:3011   */\n      mstore\n        /* \"#utility.yul\":3028:3106   */\n      tag_181\n        /* \"#utility.yul\":3101:3105   */\n      dup2\n        /* \"#utility.yul\":3092:3098   */\n      dup5\n        /* \"#utility.yul\":3028:3106   */\n      tag_119\n      jump\t// in\n    tag_181:\n        /* \"#utility.yul\":3020:3106   */\n      swap1\n      pop\n        /* \"#utility.yul\":2065:3113   */\n      swap8\n      swap7\n      pop\n      pop\n      pop\n      pop\n      pop\n      pop\n      pop\n      jump\t// out\n        /* \"#utility.yul\":3119:3236   */\n    tag_120:\n        /* \"#utility.yul\":3228:3229   */\n      0x00\n        /* \"#utility.yul\":3225:3226   */\n      dup1\n        /* \"#utility.yul\":3218:3230   */\n      revert\n        /* \"#utility.yul\":3242:3359   */\n    tag_121:\n        /* \"#utility.yul\":3351:3352   */\n      0x00\n        /* \"#utility.yul\":3348:3349   */\n      dup1\n        /* \"#utility.yul\":3341:3353   */\n      revert\n        /* \"#utility.yul\":3365:3545   */\n    tag_122:\n        /* \"#utility.yul\":3413:3490   */\n      0x4e487b7100000000000000000000000000000000000000000000000000000000\n        /* \"#utility.yul\":3410:3411   */\n      0x00\n        /* \"#utility.yul\":3403:3491   */\n      mstore\n        /* \"#utility.yul\":3510:3514   */\n      0x41\n        /* \"#utility.yul\":3507:3508   */\n      0x04\n        /* \"#utility.yul\":3500:3515   */\n      mstore\n        /* \"#utility.yul\":3534:3538   */\n      0x24\n        /* \"#utility.yul\":3531:3532   */\n      0x00\n        /* \"#utility.yul\":3524:3539   */\n      revert\n        /* \"#utility.yul\":3551:3832   */\n    tag_123:\n        /* \"#utility.yul\":3634:3661   */\n      tag_186\n        /* \"#utility.yul\":3656:3660   */\n      dup3\n        /* \"#utility.yul\":3634:3661   */\n      tag_118\n      jump\t// in\n    tag_186:\n        /* \"#utility.yul\":3626:3632   */\n      dup2\n        /* \"#utility.yul\":3622:3662   */\n      add\n        /* \"#utility.yul\":3764:3770   */\n      dup2\n        /* \"#utility.yul\":3752:3762   */\n      dup2\n        /* \"#utility.yul\":3749:3771   */\n      lt\n        /* \"#utility.yul\":3728:3746   */\n      0xffffffffffffffff\n        /* \"#utility.yul\":3716:3726   */\n      dup3\n        /* \"#utility.yul\":3713:3747   */\n      gt\n        /* \"#utility.yul\":3710:3772   */\n      or\n        /* \"#utility.yul\":3707:3795   */\n      iszero\n      tag_187\n      jumpi\n        /* \"#utility.yul\":3775:3793   */\n      tag_188\n      tag_122\n      jump\t// in\n    tag_188:\n        /* \"#utility.yul\":3707:3795   */\n    tag_187:\n        /* \"#utility.yul\":3815:3825   */\n      dup1\n        /* \"#utility.yul\":3811:3813   */\n      0x40\n        /* \"#utility.yul\":3804:3826   */\n      mstore\n        /* \"#utility.yul\":3594:3832   */\n      pop\n        /* \"#utility.yul\":3551:3832   */\n      pop\n      pop\n      jump\t// out\n        /* \"#utility.yul\":3838:3967   */\n    tag_124:\n        /* \"#utility.yul\":3872:3878   */\n      0x00\n        /* \"#utility.yul\":3899:3919   */\n      tag_190\n      tag_108\n      jump\t// in\n    tag_190:\n        /* \"#utility.yul\":3889:3919   */\n      swap1\n      pop\n        /* \"#utility.yul\":3928:3961   */\n      tag_191\n        /* \"#utility.yul\":3956:3960   */\n      dup3\n        /* \"#utility.yul\":3948:3954   */\n      dup3\n        /* \"#utility.yul\":3928:3961   */\n      tag_123\n      jump\t// in\n    tag_191:\n        /* \"#utility.yul\":3838:3967   */\n      swap2\n      swap1\n      pop\n      jump\t// out\n        /* \"#utility.yul\":3973:4281   */\n    tag_125:\n        /* \"#utility.yul\":4035:4039   */\n      0x00\n        /* \"#utility.yul\":4125:4143   */\n      0xffffffffffffffff\n        /* \"#utility.yul\":4117:4123   */\n      dup3\n        /* \"#utility.yul\":4114:4144   */\n      gt\n        /* \"#utility.yul\":4111:4167   */\n      iszero\n      tag_193\n      jumpi\n        /* \"#utility.yul\":4147:4165   */\n      tag_194\n      tag_122\n      jump\t// in\n    tag_194:\n        /* \"#utility.yul\":4111:4167   */\n    tag_193:\n        /* \"#utility.yul\":4185:4214   */\n      tag_195\n        /* \"#utility.yul\":4207:4213   */\n      dup3\n        /* \"#utility.yul\":4185:4214   */\n      tag_118\n      jump\t// in\n    tag_195:\n        /* \"#utility.yul\":4177:4214   */\n      swap1\n      pop\n        /* \"#utility.yul\":4269:4273   */\n      0x20\n        /* \"#utility.yul\":4263:4267   */\n      dup2\n        /* \"#utility.yul\":4259:4274   */\n      add\n        /* \"#utility.yul\":4251:4274   */\n      swap1\n      pop\n        /* \"#utility.yul\":3973:4281   */\n      swap2\n      swap1\n      pop\n      jump\t// out\n        /* \"#utility.yul\":4287:4435   */\n    tag_126:\n        /* \"#utility.yul\":4385:4391   */\n      dup3\n        /* \"#utility.yul\":4380:4383   */\n      dup2\n        /* \"#utility.yul\":4375:4378   */\n      dup4\n        /* \"#utility.yul\":4362:4392   */\n      calldatacopy\n        /* \"#utility.yul\":4426:4427   */\n      0x00\n        /* \"#utility.yul\":4417:4423   */\n      dup4\n        /* \"#utility.yul\":4412:4415   */\n      dup4\n        /* \"#utility.yul\":4408:4424   */\n      add\n        /* \"#utility.yul\":4401:4428   */\n      mstore\n        /* \"#utility.yul\":4287:4435   */\n      pop\n      pop\n      pop\n      jump\t// out\n        /* \"#utility.yul\":4441:4866   */\n    tag_127:\n        /* \"#utility.yul\":4519:4524   */\n      0x00\n        /* \"#utility.yul\":4544:4610   */\n      tag_198\n        /* \"#utility.yul\":4560:4609   */\n      tag_199\n        /* \"#utility.yul\":4602:4608   */\n      dup5\n        /* \"#utility.yul\":4560:4609   */\n      tag_125\n      jump\t// in\n    tag_199:\n        /* \"#utility.yul\":4544:4610   */\n      tag_124\n      jump\t// in\n    tag_198:\n        /* \"#utility.yul\":4535:4610   */\n      swap1\n      pop\n        /* \"#utility.yul\":4633:4639   */\n      dup3\n        /* \"#utility.yul\":4626:4631   */\n      dup2\n        /* \"#utility.yul\":4619:4640   */\n      mstore\n        /* \"#utility.yul\":4671:4675   */\n      0x20\n        /* \"#utility.yul\":4664:4669   */\n      dup2\n        /* \"#utility.yul\":4660:4676   */\n      add\n        /* \"#utility.yul\":4709:4712   */\n      dup5\n        /* \"#utility.yul\":4700:4706   */\n      dup5\n        /* \"#utility.yul\":4695:4698   */\n      dup5\n        /* \"#utility.yul\":4691:4707   */\n      add\n        /* \"#utility.yul\":4688:4713   */\n      gt\n        /* \"#utility.yul\":4685:4797   */\n      iszero\n      tag_200\n      jumpi\n        /* \"#utility.yul\":4716:4795   */\n      tag_201\n      tag_121\n      jump\t// in\n    tag_201:\n        /* \"#utility.yul\":4685:4797   */\n    tag_200:\n        /* \"#utility.yul\":4806:4860   */\n      tag_202\n        /* \"#utility.yul\":4853:4859   */\n      dup5\n        /* \"#utility.yul\":4848:4851   */\n      dup3\n        /* \"#utility.yul\":4843:4846   */\n      dup6\n        /* \"#utility.yul\":4806:4860   */\n      tag_126\n      jump\t// in\n    tag_202:\n        /* \"#utility.yul\":4525:4866   */\n      pop\n        /* \"#utility.yul\":4441:4866   */\n      swap4\n      swap3\n      pop\n      pop\n      pop\n      jump\t// out\n        /* \"#utility.yul\":4886:5226   */\n    tag_128:\n        /* \"#utility.yul\":4942:4947   */\n      0x00\n        /* \"#utility.yul\":4991:4994   */\n      dup3\n        /* \"#utility.yul\":4984:4988   */\n      0x1f\n        /* \"#utility.yul\":4976:4982   */\n      dup4\n        /* \"#utility.yul\":4972:4989   */\n      add\n        /* \"#utility.yul\":4968:4995   */\n      slt\n        /* \"#utility.yul\":4958:5080   */\n      tag_204\n      jumpi\n        /* \"#utility.yul\":4999:5078   */\n      tag_205\n      tag_120\n      jump\t// in\n    tag_205:\n        /* \"#utility.yul\":4958:5080   */\n    tag_204:\n        /* \"#utility.yul\":5116:5122   */\n      dup2\n        /* \"#utility.yul\":5103:5123   */\n      calldataload\n        /* \"#utility.yul\":5141:5220   */\n      tag_206\n        /* \"#utility.yul\":5216:5219   */\n      dup5\n        /* \"#utility.yul\":5208:5214   */\n      dup3\n        /* \"#utility.yul\":5201:5205   */\n      0x20\n        /* \"#utility.yul\":5193:5199   */\n      dup7\n        /* \"#utility.yul\":5189:5206   */\n      add\n        /* \"#utility.yul\":5141:5220   */\n      tag_127\n      jump\t// in\n    tag_206:\n        /* \"#utility.yul\":5132:5220   */\n      swap2\n      pop\n        /* \"#utility.yul\":4948:5226   */\n      pop\n        /* \"#utility.yul\":4886:5226   */\n      swap3\n      swap2\n      pop\n      pop\n      jump\t// out\n        /* \"#utility.yul\":5232:6975   */\n    tag_21:\n        /* \"#utility.yul\":5375:5381   */\n      0x00\n        /* \"#utility.yul\":5383:5389   */\n      dup1\n        /* \"#utility.yul\":5391:5397   */\n      0x00\n        /* \"#utility.yul\":5399:5405   */\n      dup1\n        /* \"#utility.yul\":5407:5413   */\n      0x00\n        /* \"#utility.yul\":5415:5421   */\n      dup1\n        /* \"#utility.yul\":5423:5429   */\n      0x00\n        /* \"#utility.yul\":5472:5475   */\n      0xe0\n        /* \"#utility.yul\":5460:5469   */\n      dup9\n        /* \"#utility.yul\":5451:5458   */\n      dup11\n        /* \"#utility.yul\":5447:5470   */\n      sub\n        /* \"#utility.yul\":5443:5476   */\n      slt\n        /* \"#utility.yul\":5440:5560   */\n      iszero\n      tag_208\n      jumpi\n        /* \"#utility.yul\":5479:5558   */\n      tag_209\n      tag_109\n      jump\t// in\n    tag_209:\n        /* \"#utility.yul\":5440:5560   */\n    tag_208:\n        /* \"#utility.yul\":5599:5600   */\n      0x00\n        /* \"#utility.yul\":5624:5677   */\n      tag_210\n        /* \"#utility.yul\":5669:5676   */\n      dup11\n        /* \"#utility.yul\":5660:5666   */\n      dup3\n        /* \"#utility.yul\":5649:5658   */\n      dup12\n        /* \"#utility.yul\":5645:5667   */\n      add\n        /* \"#utility.yul\":5624:5677   */\n      tag_113\n      jump\t// in\n    tag_210:\n        /* \"#utility.yul\":5614:5677   */\n      swap8\n      pop\n        /* \"#utility.yul\":5570:5687   */\n      pop\n        /* \"#utility.yul\":5726:5728   */\n      0x20\n        /* \"#utility.yul\":5752:5805   */\n      tag_211\n        /* \"#utility.yul\":5797:5804   */\n      dup11\n        /* \"#utility.yul\":5788:5794   */\n      dup3\n        /* \"#utility.yul\":5777:5786   */\n      dup12\n        /* \"#utility.yul\":5773:5795   */\n      add\n        /* \"#utility.yul\":5752:5805   */\n      tag_113\n      jump\t// in\n    tag_211:\n        /* \"#utility.yul\":5742:5805   */\n      swap7\n      pop\n        /* \"#utility.yul\":5697:5815   */\n      pop\n        /* \"#utility.yul\":5882:5884   */\n      0x40\n        /* \"#utility.yul\":5871:5880   */\n      dup9\n        /* \"#utility.yul\":5867:5885   */\n      add\n        /* \"#utility.yul\":5854:5886   */\n      calldataload\n        /* \"#utility.yul\":5913:5931   */\n      0xffffffffffffffff\n        /* \"#utility.yul\":5905:5911   */\n      dup2\n        /* \"#utility.yul\":5902:5932   */\n      gt\n        /* \"#utility.yul\":5899:6016   */\n      iszero\n      tag_212\n      jumpi\n        /* \"#utility.yul\":5935:6014   */\n      tag_213\n      tag_110\n      jump\t// in\n    tag_213:\n        /* \"#utility.yul\":5899:6016   */\n    tag_212:\n        /* \"#utility.yul\":6040:6103   */\n      tag_214\n        /* \"#utility.yul\":6095:6102   */\n      dup11\n        /* \"#utility.yul\":6086:6092   */\n      dup3\n        /* \"#utility.yul\":6075:6084   */\n      dup12\n        /* \"#utility.yul\":6071:6093   */\n      add\n        /* \"#utility.yul\":6040:6103   */\n      tag_128\n      jump\t// in\n    tag_214:\n        /* \"#utility.yul\":6030:6103   */\n      swap6\n      pop\n        /* \"#utility.yul\":5825:6113   */\n      pop\n        /* \"#utility.yul\":6180:6182   */\n      0x60\n        /* \"#utility.yul\":6169:6178   */\n      dup9\n        /* \"#utility.yul\":6165:6183   */\n      add\n        /* \"#utility.yul\":6152:6184   */\n      calldataload\n        /* \"#utility.yul\":6211:6229   */\n      0xffffffffffffffff\n        /* \"#utility.yul\":6203:6209   */\n      dup2\n        /* \"#utility.yul\":6200:6230   */\n      gt\n        /* \"#utility.yul\":6197:6314   */\n      iszero\n      tag_215\n      jumpi\n        /* \"#utility.yul\":6233:6312   */\n      tag_216\n      tag_110\n      jump\t// in\n    tag_216:\n        /* \"#utility.yul\":6197:6314   */\n    tag_215:\n        /* \"#utility.yul\":6338:6401   */\n      tag_217\n        /* \"#utility.yul\":6393:6400   */\n      dup11\n        /* \"#utility.yul\":6384:6390   */\n      dup3\n        /* \"#utility.yul\":6373:6382   */\n      dup12\n        /* \"#utility.yul\":6369:6391   */\n      add\n        /* \"#utility.yul\":6338:6401   */\n      tag_128\n      jump\t// in\n    tag_217:\n        /* \"#utility.yul\":6328:6401   */\n      swap5\n      pop\n        /* \"#utility.yul\":6123:6411   */\n      pop\n        /* \"#utility.yul\":6450:6453   */\n      0x80\n        /* \"#utility.yul\":6477:6530   */\n      tag_218\n        /* \"#utility.yul\":6522:6529   */\n      dup11\n        /* \"#utility.yul\":6513:6519   */\n      dup3\n        /* \"#utility.yul\":6502:6511   */\n      dup12\n        /* \"#utility.yul\":6498:6520   */\n      add\n        /* \"#utility.yul\":6477:6530   */\n      tag_113\n      jump\t// in\n    tag_218:\n        /* \"#utility.yul\":6467:6530   */\n      swap4\n      pop\n        /* \"#utility.yul\":6421:6540   */\n      pop\n        /* \"#utility.yul\":6579:6582   */\n      0xa0\n        /* \"#utility.yul\":6606:6659   */\n      tag_219\n        /* \"#utility.yul\":6651:6658   */\n      dup11\n        /* \"#utility.yul\":6642:6648   */\n      dup3\n        /* \"#utility.yul\":6631:6640   */\n      dup12\n        /* \"#utility.yul\":6627:6649   */\n      add\n        /* \"#utility.yul\":6606:6659   */\n      tag_113\n      jump\t// in\n    tag_219:\n        /* \"#utility.yul\":6596:6659   */\n      swap3\n      pop\n        /* \"#utility.yul\":6550:6669   */\n      pop\n        /* \"#utility.yul\":6736:6739   */\n      0xc0\n        /* \"#utility.yul\":6725:6734   */\n      dup9\n        /* \"#utility.yul\":6721:6740   */\n      add\n        /* \"#utility.yul\":6708:6741   */\n      calldataload\n        /* \"#utility.yul\":6768:6786   */\n      0xffffffffffffffff\n        /* \"#utility.yul\":6760:6766   */\n      dup2\n        /* \"#utility.yul\":6757:6787   */\n      gt\n        /* \"#utility.yul\":6754:6871   */\n      iszero\n      tag_220\n      jumpi\n        /* \"#utility.yul\":6790:6869   */\n      tag_221\n      tag_110\n      jump\t// in\n    tag_221:\n        /* \"#utility.yul\":6754:6871   */\n    tag_220:\n        /* \"#utility.yul\":6895:6958   */\n      tag_222\n        /* \"#utility.yul\":6950:6957   */\n      dup11\n        /* \"#utility.yul\":6941:6947   */\n      dup3\n        /* \"#utility.yul\":6930:6939   */\n      dup12\n        /* \"#utility.yul\":6926:6948   */\n      add\n        /* \"#utility.yul\":6895:6958   */\n      tag_128\n      jump\t// in\n    tag_222:\n        /* \"#utility.yul\":6885:6958   */\n      swap2\n      pop\n        /* \"#utility.yul\":6679:6968   */\n      pop\n        /* \"#utility.yul\":5232:6975   */\n      swap3\n      swap6\n      swap9\n      swap2\n      swap5\n      swap8\n      pop\n      swap3\n      swap6\n      pop\n      jump\t// out\n        /* \"#utility.yul\":6981:7203   */\n    tag_29:\n        /* \"#utility.yul\":7074:7078   */\n      0x00\n        /* \"#utility.yul\":7112:7114   */\n      0x20\n        /* \"#utility.yul\":7101:7110   */\n      dup3\n        /* \"#utility.yul\":7097:7115   */\n      add\n        /* \"#utility.yul\":7089:7115   */\n      swap1\n      pop\n        /* \"#utility.yul\":7125:7196   */\n      tag_224\n        /* \"#utility.yul\":7193:7194   */\n      0x00\n        /* \"#utility.yul\":7182:7191   */\n      dup4\n        /* \"#utility.yul\":7178:7195   */\n      add\n        /* \"#utility.yul\":7169:7175   */\n      dup5\n        /* \"#utility.yul\":7125:7196   */\n      tag_114\n      jump\t// in\n    tag_224:\n        /* \"#utility.yul\":6981:7203   */\n      swap3\n      swap2\n      pop\n      pop\n      jump\t// out\n        /* \"#utility.yul\":7209:8480   */\n    tag_32:\n        /* \"#utility.yul\":7324:7330   */\n      0x00\n        /* \"#utility.yul\":7332:7338   */\n      dup1\n        /* \"#utility.yul\":7340:7346   */\n      0x00\n        /* \"#utility.yul\":7348:7354   */\n      dup1\n        /* \"#utility.yul\":7356:7362   */\n      0x00\n        /* \"#utility.yul\":7405:7408   */\n      0xa0\n        /* \"#utility.yul\":7393:7402   */\n      dup7\n        /* \"#utility.yul\":7384:7391   */\n      dup9\n        /* \"#utility.yul\":7380:7403   */\n      sub\n        /* \"#utility.yul\":7376:7409   */\n      slt\n        /* \"#utility.yul\":7373:7493   */\n      iszero\n      tag_226\n      jumpi\n        /* \"#utility.yul\":7412:7491   */\n      tag_227\n      tag_109\n      jump\t// in\n    tag_227:\n        /* \"#utility.yul\":7373:7493   */\n    tag_226:\n        /* \"#utility.yul\":7532:7533   */\n      0x00\n        /* \"#utility.yul\":7557:7610   */\n      tag_228\n        /* \"#utility.yul\":7602:7609   */\n      dup9\n        /* \"#utility.yul\":7593:7599   */\n      dup3\n        /* \"#utility.yul\":7582:7591   */\n      dup10\n        /* \"#utility.yul\":7578:7600   */\n      add\n        /* \"#utility.yul\":7557:7610   */\n      tag_113\n      jump\t// in\n    tag_228:\n        /* \"#utility.yul\":7547:7610   */\n      swap6\n      pop\n        /* \"#utility.yul\":7503:7620   */\n      pop\n        /* \"#utility.yul\":7687:7689   */\n      0x20\n        /* \"#utility.yul\":7676:7685   */\n      dup7\n        /* \"#utility.yul\":7672:7690   */\n      add\n        /* \"#utility.yul\":7659:7691   */\n      calldataload\n        /* \"#utility.yul\":7718:7736   */\n      0xffffffffffffffff\n        /* \"#utility.yul\":7710:7716   */\n      dup2\n        /* \"#utility.yul\":7707:7737   */\n      gt\n        /* \"#utility.yul\":7704:7821   */\n      iszero\n      tag_229\n      jumpi\n        /* \"#utility.yul\":7740:7819   */\n      tag_230\n      tag_110\n      jump\t// in\n    tag_230:\n        /* \"#utility.yul\":7704:7821   */\n    tag_229:\n        /* \"#utility.yul\":7845:7908   */\n      tag_231\n        /* \"#utility.yul\":7900:7907   */\n      dup9\n        /* \"#utility.yul\":7891:7897   */\n      dup3\n        /* \"#utility.yul\":7880:7889   */\n      dup10\n        /* \"#utility.yul\":7876:7898   */\n      add\n        /* \"#utility.yul\":7845:7908   */\n      tag_128\n      jump\t// in\n    tag_231:\n        /* \"#utility.yul\":7835:7908   */\n      swap5\n      pop\n        /* \"#utility.yul\":7630:7918   */\n      pop\n        /* \"#utility.yul\":7957:7959   */\n      0x40\n        /* \"#utility.yul\":7983:8036   */\n      tag_232\n        /* \"#utility.yul\":8028:8035   */\n      dup9\n        /* \"#utility.yul\":8019:8025   */\n      dup3\n        /* \"#utility.yul\":8008:8017   */\n      dup10\n        /* \"#utility.yul\":8004:8026   */\n      add\n        /* \"#utility.yul\":7983:8036   */\n      tag_113\n      jump\t// in\n    tag_232:\n        /* \"#utility.yul\":7973:8036   */\n      swap4\n      pop\n        /* \"#utility.yul\":7928:8046   */\n      pop\n        /* \"#utility.yul\":8085:8087   */\n      0x60\n        /* \"#utility.yul\":8111:8164   */\n      tag_233\n        /* \"#utility.yul\":8156:8163   */\n      dup9\n        /* \"#utility.yul\":8147:8153   */\n      dup3\n        /* \"#utility.yul\":8136:8145   */\n      dup10\n        /* \"#utility.yul\":8132:8154   */\n      add\n        /* \"#utility.yul\":8111:8164   */\n      tag_113\n      jump\t// in\n    tag_233:\n        /* \"#utility.yul\":8101:8164   */\n      swap3\n      pop\n        /* \"#utility.yul\":8056:8174   */\n      pop\n        /* \"#utility.yul\":8241:8244   */\n      0x80\n        /* \"#utility.yul\":8230:8239   */\n      dup7\n        /* \"#utility.yul\":8226:8245   */\n      add\n        /* \"#utility.yul\":8213:8246   */\n      calldataload\n        /* \"#utility.yul\":8273:8291   */\n      0xffffffffffffffff\n        /* \"#utility.yul\":8265:8271   */\n      dup2\n        /* \"#utility.yul\":8262:8292   */\n      gt\n        /* \"#utility.yul\":8259:8376   */\n      iszero\n      tag_234\n      jumpi\n        /* \"#utility.yul\":8295:8374   */\n      tag_235\n      tag_110\n      jump\t// in\n    tag_235:\n        /* \"#utility.yul\":8259:8376   */\n    tag_234:\n        /* \"#utility.yul\":8400:8463   */\n      tag_236\n        /* \"#utility.yul\":8455:8462   */\n      dup9\n        /* \"#utility.yul\":8446:8452   */\n      dup3\n        /* \"#utility.yul\":8435:8444   */\n      dup10\n        /* \"#utility.yul\":8431:8453   */\n      add\n        /* \"#utility.yul\":8400:8463   */\n      tag_128\n      jump\t// in\n    tag_236:\n        /* \"#utility.yul\":8390:8463   */\n      swap2\n      pop\n        /* \"#utility.yul\":8184:8473   */\n      pop\n        /* \"#utility.yul\":7209:8480   */\n      swap3\n      swap6\n      pop\n      swap3\n      swap6\n      swap1\n      swap4\n      pop\n      jump\t// out\n        /* \"#utility.yul\":8486:8666   */\n    tag_129:\n        /* \"#utility.yul\":8534:8611   */\n      0x4e487b7100000000000000000000000000000000000000000000000000000000\n        /* \"#utility.yul\":8531:8532   */\n      0x00\n        /* \"#utility.yul\":8524:8612   */\n      mstore\n        /* \"#utility.yul\":8631:8635   */\n      0x22\n        /* \"#utility.yul\":8628:8629   */\n      0x04\n        /* \"#utility.yul\":8621:8636   */\n      mstore\n        /* \"#utility.yul\":8655:8659   */\n      0x24\n        /* \"#utility.yul\":8652:8653   */\n      0x00\n        /* \"#utility.yul\":8645:8660   */\n      revert\n        /* \"#utility.yul\":8672:8992   */\n    tag_36:\n        /* \"#utility.yul\":8716:8722   */\n      0x00\n        /* \"#utility.yul\":8753:8754   */\n      0x02\n        /* \"#utility.yul\":8747:8751   */\n      dup3\n        /* \"#utility.yul\":8743:8755   */\n      div\n        /* \"#utility.yul\":8733:8755   */\n      swap1\n      pop\n        /* \"#utility.yul\":8800:8801   */\n      0x01\n        /* \"#utility.yul\":8794:8798   */\n      dup3\n        /* \"#utility.yul\":8790:8802   */\n      and\n        /* \"#utility.yul\":8821:8839   */\n      dup1\n        /* \"#utility.yul\":8811:8892   */\n      tag_239\n      jumpi\n        /* \"#utility.yul\":8877:8881   */\n      0x7f\n        /* \"#utility.yul\":8869:8875   */\n      dup3\n        /* \"#utility.yul\":8865:8882   */\n      and\n        /* \"#utility.yul\":8855:8882   */\n      swap2\n      pop\n        /* \"#utility.yul\":8811:8892   */\n    tag_239:\n        /* \"#utility.yul\":8939:8941   */\n      0x20\n        /* \"#utility.yul\":8931:8937   */\n      dup3\n        /* \"#utility.yul\":8928:8942   */\n      lt\n        /* \"#utility.yul\":8908:8926   */\n      dup2\n        /* \"#utility.yul\":8905:8943   */\n      sub\n        /* \"#utility.yul\":8902:8986   */\n      tag_240\n      jumpi\n        /* \"#utility.yul\":8958:8976   */\n      tag_241\n      tag_129\n      jump\t// in\n    tag_241:\n        /* \"#utility.yul\":8902:8986   */\n    tag_240:\n        /* \"#utility.yul\":8723:8992   */\n      pop\n        /* \"#utility.yul\":8672:8992   */\n      swap2\n      swap1\n      pop\n      jump\t// out\n        /* \"#utility.yul\":8998:9171   */\n    tag_130:\n        /* \"#utility.yul\":9138:9163   */\n      0x536869706d656e7420646f6573206e6f74206578697374000000000000000000\n        /* \"#utility.yul\":9134:9135   */\n      0x00\n        /* \"#utility.yul\":9126:9132   */\n      dup3\n        /* \"#utility.yul\":9122:9136   */\n      add\n        /* \"#utility.yul\":9115:9164   */\n      mstore\n        /* \"#utility.yul\":8998:9171   */\n      pop\n      jump\t// out\n        /* \"#utility.yul\":9177:9543   */\n    tag_131:\n        /* \"#utility.yul\":9319:9322   */\n      0x00\n        /* \"#utility.yul\":9340:9407   */\n      tag_244\n        /* \"#utility.yul\":9404:9406   */\n      0x17\n        /* \"#utility.yul\":9399:9402   */\n      dup4\n        /* \"#utility.yul\":9340:9407   */\n      tag_116\n      jump\t// in\n    tag_244:\n        /* \"#utility.yul\":9333:9407   */\n      swap2\n      pop\n        /* \"#utility.yul\":9416:9509   */\n      tag_245\n        /* \"#utility.yul\":9505:9508   */\n      dup3\n        /* \"#utility.yul\":9416:9509   */\n      tag_130\n      jump\t// in\n    tag_245:\n        /* \"#utility.yul\":9534:9536   */\n      0x20\n        /* \"#utility.yul\":9529:9532   */\n      dup3\n        /* \"#utility.yul\":9525:9537   */\n      add\n        /* \"#utility.yul\":9518:9537   */\n      swap1\n      pop\n        /* \"#utility.yul\":9177:9543   */\n      swap2\n      swap1\n      pop\n      jump\t// out\n        /* \"#utility.yul\":9549:9968   */\n    tag_39:\n        /* \"#utility.yul\":9715:9719   */\n      0x00\n        /* \"#utility.yul\":9753:9755   */\n      0x20\n        /* \"#utility.yul\":9742:9751   */\n      dup3\n        /* \"#utility.yul\":9738:9756   */\n      add\n        /* \"#utility.yul\":9730:9756   */\n      swap1\n      pop\n        /* \"#utility.yul\":9802:9811   */\n      dup2\n        /* \"#utility.yul\":9796:9800   */\n      dup2\n        /* \"#utility.yul\":9792:9812   */\n      sub\n        /* \"#utility.yul\":9788:9789   */\n      0x00\n        /* \"#utility.yul\":9777:9786   */\n      dup4\n        /* \"#utility.yul\":9773:9790   */\n      add\n        /* \"#utility.yul\":9766:9813   */\n      mstore\n        /* \"#utility.yul\":9830:9961   */\n      tag_247\n        /* \"#utility.yul\":9956:9960   */\n      dup2\n        /* \"#utility.yul\":9830:9961   */\n      tag_131\n      jump\t// in\n    tag_247:\n        /* \"#utility.yul\":9822:9961   */\n      swap1\n      pop\n        /* \"#utility.yul\":9549:9968   */\n      swap2\n      swap1\n      pop\n      jump\t// out\n        /* \"#utility.yul\":9974:10147   */\n    tag_132:\n        /* \"#utility.yul\":10114:10139   */\n      0x536869706d656e7420616c726561647920657869737473000000000000000000\n        /* \"#utility.yul\":10110:10111   */\n      0x00\n        /* \"#utility.yul\":10102:10108   */\n      dup3\n        /* \"#utility.yul\":10098:10112   */\n      add\n        /* \"#utility.yul\":10091:10140   */\n      mstore\n        /* \"#utility.yul\":9974:10147   */\n      pop\n      jump\t// out\n        /* \"#utility.yul\":10153:10519   */\n    tag_133:\n        /* \"#utility.yul\":10295:10298   */\n      0x00\n        /* \"#utility.yul\":10316:10383   */\n      tag_250\n        /* \"#utility.yul\":10380:10382   */\n      0x17\n        /* \"#utility.yul\":10375:10378   */\n      dup4\n        /* \"#utility.yul\":10316:10383   */\n      tag_116\n      jump\t// in\n    tag_250:\n        /* \"#utility.yul\":10309:10383   */\n      swap2\n      pop\n        /* \"#utility.yul\":10392:10485   */\n      tag_251\n        /* \"#utility.yul\":10481:10484   */\n      dup3\n        /* \"#utility.yul\":10392:10485   */\n      tag_132\n      jump\t// in\n    tag_251:\n        /* \"#utility.yul\":10510:10512   */\n      0x20\n        /* \"#utility.yul\":10505:10508   */\n      dup3\n        /* \"#utility.yul\":10501:10513   */\n      add\n        /* \"#utility.yul\":10494:10513   */\n      swap1\n      pop\n        /* \"#utility.yul\":10153:10519   */\n      swap2\n      swap1\n      pop\n      jump\t// out\n        /* \"#utility.yul\":10525:10944   */\n    tag_74:\n        /* \"#utility.yul\":10691:10695   */\n      0x00\n        /* \"#utility.yul\":10729:10731   */\n      0x20\n        /* \"#utility.yul\":10718:10727   */\n      dup3\n        /* \"#utility.yul\":10714:10732   */\n      add\n        /* \"#utility.yul\":10706:10732   */\n      swap1\n      pop\n        /* \"#utility.yul\":10778:10787   */\n      dup2\n        /* \"#utility.yul\":10772:10776   */\n      dup2\n        /* \"#utility.yul\":10768:10788   */\n      sub\n        /* \"#utility.yul\":10764:10765   */\n      0x00\n        /* \"#utility.yul\":10753:10762   */\n      dup4\n        /* \"#utility.yul\":10749:10766   */\n      add\n        /* \"#utility.yul\":10742:10789   */\n      mstore\n        /* \"#utility.yul\":10806:10937   */\n      tag_253\n        /* \"#utility.yul\":10932:10936   */\n      dup2\n        /* \"#utility.yul\":10806:10937   */\n      tag_133\n      jump\t// in\n    tag_253:\n        /* \"#utility.yul\":10798:10937   */\n      swap1\n      pop\n        /* \"#utility.yul\":10525:10944   */\n      swap2\n      swap1\n      pop\n      jump\t// out\n        /* \"#utility.yul\":10950:11091   */\n    tag_134:\n        /* \"#utility.yul\":10999:11003   */\n      0x00\n        /* \"#utility.yul\":11022:11025   */\n      dup2\n        /* \"#utility.yul\":11014:11025   */\n      swap1\n      pop\n        /* \"#utility.yul\":11045:11048   */\n      dup2\n        /* \"#utility.yul\":11042:11043   */\n      0x00\n        /* \"#utility.yul\":11035:11049   */\n      mstore\n        /* \"#utility.yul\":11079:11083   */\n      0x20\n        /* \"#utility.yul\":11076:11077   */\n      0x00\n        /* \"#utility.yul\":11066:11084   */\n      keccak256\n        /* \"#utility.yul\":11058:11084   */\n      swap1\n      pop\n        /* \"#utility.yul\":10950:11091   */\n      swap2\n      swap1\n      pop\n      jump\t// out\n        /* \"#utility.yul\":11097:11190   */\n    tag_135:\n        /* \"#utility.yul\":11134:11140   */\n      0x00\n        /* \"#utility.yul\":11181:11183   */\n      0x20\n        /* \"#utility.yul\":11176:11178   */\n      0x1f\n        /* \"#utility.yul\":11169:11174   */\n      dup4\n        /* \"#utility.yul\":11165:11179   */\n      add\n        /* \"#utility.yul\":11161:11184   */\n      div\n        /* \"#utility.yul\":11151:11184   */\n      swap1\n      pop\n        /* \"#utility.yul\":11097:11190   */\n      swap2\n      swap1\n      pop\n      jump\t// out\n        /* \"#utility.yul\":11196:11303   */\n    tag_136:\n        /* \"#utility.yul\":11240:11248   */\n      0x00\n        /* \"#utility.yul\":11290:11295   */\n      dup3\n        /* \"#utility.yul\":11284:11288   */\n      dup3\n        /* \"#utility.yul\":11280:11296   */\n      shl\n        /* \"#utility.yul\":11259:11296   */\n      swap1\n      pop\n        /* \"#utility.yul\":11196:11303   */\n      swap3\n      swap2\n      pop\n      pop\n      jump\t// out\n        /* \"#utility.yul\":11309:11702   */\n    tag_137:\n        /* \"#utility.yul\":11378:11384   */\n      0x00\n        /* \"#utility.yul\":11428:11429   */\n      0x08\n        /* \"#utility.yul\":11416:11426   */\n      dup4\n        /* \"#utility.yul\":11412:11430   */\n      mul\n        /* \"#utility.yul\":11451:11548   */\n      tag_258\n        /* \"#utility.yul\":11481:11547   */\n      0xffffffffffffffffffffffffffffffffffffffffffffffffffffffffffffffff\n        /* \"#utility.yul\":11470:11479   */\n      dup3\n        /* \"#utility.yul\":11451:11548   */\n      tag_136\n      jump\t// in\n    tag_258:\n        /* \"#utility.yul\":11569:11608   */\n      tag_259\n        /* \"#utility.yul\":11599:11607   */\n      dup7\n        /* \"#utility.yul\":11588:11597   */\n      dup4\n        /* \"#utility.yul\":11569:11608   */\n      tag_136\n      jump\t// in\n    tag_259:\n        /* \"#utility.yul\":11557:11608   */\n      swap6\n      pop\n        /* \"#utility.yul\":11641:11645   */\n      dup1\n        /* \"#utility.yul\":11637:11646   */\n      not\n        /* \"#utility.yul\":11630:11635   */\n      dup5\n        /* \"#utility.yul\":11626:11647   */\n      and\n        /* \"#utility.yul\":11617:11647   */\n      swap4\n      pop\n        /* \"#utility.yul\":11690:11694   */\n      dup1\n        /* \"#utility.yul\":11680:11688   */\n      dup7\n        /* \"#utility.yul\":11676:11695   */\n      and\n        /* \"#utility.yul\":11669:11674   */\n      dup5\n        /* \"#utility.yul\":11666:11696   */\n      or\n        /* \"#utility.yul\":11656:11696   */\n      swap3\n      pop\n        /* \"#utility.yul\":11385:11702   */\n      pop\n      pop\n        /* \"#utility.yul\":11309:11702   */\n      swap4\n      swap3\n      pop\n      pop\n      pop\n      jump\t// out\n        /* \"#utility.yul\":11708:11768   */\n    tag_138:\n        /* \"#utility.yul\":11736:11739   */\n      0x00\n        /* \"#utility.yul\":11757:11762   */\n      dup2\n        /* \"#utility.yul\":11750:11762   */\n      swap1\n      pop\n        /* \"#utility.yul\":11708:11768   */\n      swap2\n      swap1\n      pop\n      jump\t// out\n        /* \"#utility.yul\":11774:11916   */\n    tag_139:\n        /* \"#utility.yul\":11824:11833   */\n      0x00\n        /* \"#utility.yul\":11857:11910   */\n      tag_262\n        /* \"#utility.yul\":11875:11909   */\n      tag_263\n        /* \"#utility.yul\":11884:11908   */\n      tag_264\n        /* \"#utility.yul\":11902:11907   */\n      dup5\n        /* \"#utility.yul\":11884:11908   */\n      tag_111\n      jump\t// in\n    tag_264:\n        /* \"#utility.yul\":11875:11909   */\n      tag_138\n      jump\t// in\n    tag_263:\n        /* \"#utility.yul\":11857:11910   */\n      tag_111\n      jump\t// in\n    tag_262:\n        /* \"#utility.yul\":11844:11910   */\n      swap1\n      pop\n        /* \"#utility.yul\":11774:11916   */\n      swap2\n      swap1\n      pop\n      jump\t// out\n        /* \"#utility.yul\":11922:11997   */\n    tag_140:\n        /* \"#utility.yul\":11965:11968   */\n      0x00\n        /* \"#utility.yul\":11986:11991   */\n      dup2\n        /* \"#utility.yul\":11979:11991   */\n      swap1\n      pop\n        /* \"#utility.yul\":11922:11997   */\n      swap2\n      swap1\n      pop\n      jump\t// out\n        /* \"#utility.yul\":12003:12272   */\n    tag_141:\n        /* \"#utility.yul\":12113:12152   */\n      tag_267\n        /* \"#utility.yul\":12144:12151   */\n      dup4\n        /* \"#utility.yul\":12113:12152   */\n      tag_139\n      jump\t// in\n    tag_267:\n        /* \"#utility.yul\":12174:12265   */\n      tag_268\n        /* \"#utility.yul\":12223:12264   */\n      tag_269\n        /* \"#utility.yul\":12247:12263   */\n      dup3\n        /* \"#utility.yul\":12223:12264   */\n      tag_140\n      jump\t// in\n    tag_269:\n        /* \"#utility.yul\":12215:12221   */\n      dup5\n        /* \"#utility.yul\":12208:12212   */\n      dup5\n        /* \"#utility.yul\":12202:12213   */\n      sload\n        /* \"#utility.yul\":12174:12265   */\n      tag_137\n      jump\t// in\n    tag_268:\n        /* \"#utility.yul\":12168:12172   */\n      dup3\n        /* \"#utility.yul\":12161:12266   */\n      sstore\n        /* \"#utility.yul\":12079:12272   */\n      pop\n        /* \"#utility.yul\":12003:12272   */\n      pop\n      pop\n      pop\n      jump\t// out\n        /* \"#utility.yul\":12278:12351   */\n    tag_142:\n        /* \"#utility.yul\":12323:12326   */\n      0x00\n        /* \"#utility.yul\":12278:12351   */\n      swap1\n      jump\t// out\n        /* \"#utility.yul\":12357:12546   */\n    tag_143:\n        /* \"#utility.yul\":12434:12466   */\n      tag_272\n      tag_142\n      jump\t// in\n    tag_272:\n        /* \"#utility.yul\":12475:12540   */\n      tag_273\n        /* \"#utility.yul\":12533:12539   */\n      dup2\n        /* \"#utility.yul\":12525:12531   */\n      dup5\n        /* \"#utility.yul\":12519:12523   */\n      dup5\n        /* \"#utility.yul\":12475:12540   */\n      tag_141\n      jump\t// in\n    tag_273:\n        /* \"#utility.yul\":12410:12546   */\n      pop\n        /* \"#utility.yul\":12357:12546   */\n      pop\n      pop\n      jump\t// out\n        /* \"#utility.yul\":12552:12738   */\n    tag_144:\n        /* \"#utility.yul\":12612:12732   */\n    tag_275:\n        /* \"#utility.yul\":12629:12632   */\n      dup2\n        /* \"#utility.yul\":12622:12627   */\n      dup2\n        /* \"#utility.yul\":12619:12633   */\n      lt\n        /* \"#utility.yul\":12612:12732   */\n      iszero\n      tag_277\n      jumpi\n        /* \"#utility.yul\":12683:12722   */\n      tag_278\n        /* \"#utility.yul\":12720:12721   */\n      0x00\n        /* \"#utility.yul\":12713:12718   */\n      dup3\n        /* \"#utility.yul\":12683:12722   */\n      tag_143\n      jump\t// in\n    tag_278:\n        /* \"#utility.yul\":12656:12657   */\n      0x01\n        /* \"#utility.yul\":12649:12654   */\n      dup2\n        /* \"#utility.yul\":12645:12658   */\n      add\n        /* \"#utility.yul\":12636:12658   */\n      swap1\n      pop\n        /* \"#utility.yul\":12612:12732   */\n      jump(tag_275)\n    tag_277:\n        /* \"#utility.yul\":12552:12738   */\n      pop\n      pop\n      jump\t// out\n        /* \"#utility.yul\":12744:13287   */\n    tag_145:\n        /* \"#utility.yul\":12845:12847   */\n      0x1f\n        /* \"#utility.yul\":12840:12843   */\n      dup3\n        /* \"#utility.yul\":12837:12848   */\n      gt\n        /* \"#utility.yul\":12834:13280   */\n      iszero\n      tag_280\n      jumpi\n        /* \"#utility.yul\":12879:12917   */\n      tag_281\n        /* \"#utility.yul\":12911:12916   */\n      dup2\n        /* \"#utility.yul\":12879:12917   */\n      tag_134\n      jump\t// in\n    tag_281:\n        /* \"#utility.yul\":12963:12992   */\n      tag_282\n        /* \"#utility.yul\":12981:12991   */\n      dup5\n        /* \"#utility.yul\":12963:12992   */\n      tag_135\n      jump\t// in\n    tag_282:\n        /* \"#utility.yul\":12953:12961   */\n      dup2\n        /* \"#utility.yul\":12949:12993   */\n      add\n        /* \"#utility.yul\":13146:13148   */\n      0x20\n        /* \"#utility.yul\":13134:13144   */\n      dup6\n        /* \"#utility.yul\":13131:13149   */\n      lt\n        /* \"#utility.yul\":13128:13177   */\n      iszero\n      tag_283\n      jumpi\n        /* \"#utility.yul\":13167:13175   */\n      dup2\n        /* \"#utility.yul\":13152:13175   */\n      swap1\n      pop\n        /* \"#utility.yul\":13128:13177   */\n    tag_283:\n        /* \"#utility.yul\":13190:13270   */\n      tag_284\n        /* \"#utility.yul\":13246:13268   */\n      tag_285\n        /* \"#utility.yul\":13264:13267   */\n      dup6\n        /* \"#utility.yul\":13246:13268   */\n      tag_135\n      jump\t// in\n    tag_285:\n        /* \"#utility.yul\":13236:13244   */\n      dup4\n        /* \"#utility.yul\":13232:13269   */\n      add\n        /* \"#utility.yul\":13219:13230   */\n      dup3\n        /* \"#utility.yul\":13190:13270   */\n      tag_144\n      jump\t// in\n    tag_284:\n        /* \"#utility.yul\":12849:13280   */\n      pop\n      pop\n        /* \"#utility.yul\":12834:13280   */\n    tag_280:\n        /* \"#utility.yul\":12744:13287   */\n      pop\n      pop\n      pop\n      jump\t// out\n        /* \"#utility.yul\":13293:13410   */\n    tag_146:\n        /* \"#utility.yul\":13347:13355   */\n      0x00\n        /* \"#utility.yul\":13397:13402   */\n      dup3\n        /* \"#utility.yul\":13391:13395   */\n      dup3\n        /* \"#utility.yul\":13387:13403   */\n      shr\n        /* \"#utility.yul\":13366:13403   */\n      swap1\n      pop\n        /* \"#utility.yul\":13293:13410   */\n      swap3\n      swap2\n      pop\n      pop\n      jump\t// out\n        /* \"#utility.yul\":13416:13585   */\n    tag_147:\n        /* \"#utility.yul\":13460:13466   */\n      0x00\n        /* \"#utility.yul\":13493:13544   */\n      tag_288\n        /* \"#utility.yul\":13541:13542   */\n      0x00\n        /* \"#utility.yul\":13537:13543   */\n      not\n        /* \"#utility.yul\":13529:13534   */\n      dup5\n        /* \"#utility.yul\":13526:13527   */\n      0x08\n        /* \"#utility.yul\":13522:13535   */\n      mul\n        /* \"#utility.yul\":13493:13544   */\n      tag_146\n      jump\t// in\n    tag_288:\n        /* \"#utility.yul\":13489:13545   */\n      not\n        /* \"#utility.yul\":13574:13578   */\n      dup1\n        /* \"#utility.yul\":13568:13572   */\n      dup4\n        /* \"#utility.yul\":13564:13579   */\n      and\n        /* \"#utility.yul\":13554:13579   */\n      swap2\n      pop\n        /* \"#utility.yul\":13467:13585   */\n      pop\n        /* \"#utility.yul\":13416:13585   */\n      swap3\n      swap2\n      pop\n      pop\n      jump\t// out\n        /* \"#utility.yul\":13590:13885   */\n    tag_148:\n        /* \"#utility.yul\":13666:13670   */\n      0x00\n        /* \"#utility.yul\":13812:13841   */\n      tag_290\n        /* \"#utility.yul\":13837:13840   */\n      dup4\n        /* \"#utility.yul\":13831:13835   */\n      dup4\n        /* \"#utility.yul\":13812:13841   */\n      tag_147\n      jump\t// in\n    tag_290:\n        /* \"#utility.yul\":13804:13841   */\n      swap2\n      pop\n        /* \"#utility.yul\":13874:13877   */\n      dup3\n        /* \"#utility.yul\":13871:13872   */\n      0x02\n        /* \"#utility.yul\":13867:13878   */\n      mul\n        /* \"#utility.yul\":13861:13865   */\n      dup3\n        /* \"#utility.yul\":13858:13879   */\n      or\n        /* \"#utility.yul\":13850:13879   */\n      swap1\n      pop\n        /* \"#utility.yul\":13590:13885   */\n      swap3\n      swap2\n      pop\n      pop\n      jump\t// out\n        /* \"#utility.yul\":13890:15285   */\n    tag_76:\n        /* \"#utility.yul\":14007:14044   */\n      tag_292\n        /* \"#utility.yul\":14040:14043   */\n      dup3\n        /* \"#utility.yul\":14007:14044   */\n      tag_115\n      jump\t// in\n    tag_292:\n        /* \"#utility.yul\":14109:14127   */\n      0xffffffffffffffff\n        /* \"#utility.yul\":14101:14107   */\n      dup2\n        /* \"#utility.yul\":14098:14128   */\n      gt\n        /* \"#utility.yul\":14095:14151   */\n      iszero\n      tag_293\n      jumpi\n        /* \"#utility.yul\":14131:14149   */\n      tag_294\n      tag_122\n      jump\t// in\n    tag_294:\n        /* \"#utility.yul\":14095:14151   */\n    tag_293:\n        /* \"#utility.yul\":14175:14213   */\n      tag_295\n        /* \"#utility.yul\":14207:14211   */\n      dup3\n        /* \"#utility.yul\":14201:14212   */\n      sload\n        /* \"#utility.yul\":14175:14213   */\n      tag_36\n      jump\t// in\n    tag_295:\n        /* \"#utility.yul\":14260:14327   */\n      tag_296\n        /* \"#utility.yul\":14320:14326   */\n      dup3\n        /* \"#utility.yul\":14312:14318   */\n      dup3\n        /* \"#utility.yul\":14306:14310   */\n      dup6\n        /* \"#utility.yul\":14260:14327   */\n      tag_145\n      jump\t// in\n    tag_296:\n        /* \"#utility.yul\":14354:14355   */\n      0x00\n        /* \"#utility.yul\":14378:14382   */\n      0x20\n        /* \"#utility.yul\":14365:14382   */\n      swap1\n      pop\n        /* \"#utility.yul\":14410:14412   */\n      0x1f\n        /* \"#utility.yul\":14402:14408   */\n      dup4\n        /* \"#utility.yul\":14399:14413   */\n      gt\n        /* \"#utility.yul\":14427:14428   */\n      0x01\n        /* \"#utility.yul\":14422:15040   */\n      dup2\n      eq\n      tag_298\n      jumpi\n        /* \"#utility.yul\":15084:15085   */\n      0x00\n        /* \"#utility.yul\":15101:15107   */\n      dup5\n        /* \"#utility.yul\":15098:15175   */\n      iszero\n      tag_299\n      jumpi\n        /* \"#utility.yul\":15150:15159   */\n      dup3\n        /* \"#utility.yul\":15145:15148   */\n      dup8\n        /* \"#utility.yul\":15141:15160   */\n      add\n        /* \"#utility.yul\":15135:15161   */\n      mload\n        /* \"#utility.yul\":15126:15161   */\n      swap1\n      pop\n        /* \"#utility.yul\":15098:15175   */\n    tag_299:\n        /* \"#utility.yul\":15201:15268   */\n      tag_300\n        /* \"#utility.yul\":15261:15267   */\n      dup6\n        /* \"#utility.yul\":15254:15259   */\n      dup3\n        /* \"#utility.yul\":15201:15268   */\n      tag_148\n      jump\t// in\n    tag_300:\n        /* \"#utility.yul\":15195:15199   */\n      dup7\n        /* \"#utility.yul\":15188:15269   */\n      sstore\n        /* \"#utility.yul\":15057:15279   */\n      pop\n        /* \"#utility.yul\":14392:15279   */\n      jump(tag_297)\n        /* \"#utility.yul\":14422:15040   */\n    tag_298:\n        /* \"#utility.yul\":14474:14478   */\n      0x1f\n        /* \"#utility.yul\":14470:14479   */\n      not\n        /* \"#utility.yul\":14462:14468   */\n      dup5\n        /* \"#utility.yul\":14458:14480   */\n      and\n        /* \"#utility.yul\":14508:14545   */\n      tag_301\n        /* \"#utility.yul\":14540:14544   */\n      dup7\n        /* \"#utility.yul\":14508:14545   */\n      tag_134\n      jump\t// in\n    tag_301:\n        /* \"#utility.yul\":14567:14568   */\n      0x00\n        /* \"#utility.yul\":14581:14789   */\n    tag_302:\n        /* \"#utility.yul\":14595:14602   */\n      dup3\n        /* \"#utility.yul\":14592:14593   */\n      dup2\n        /* \"#utility.yul\":14589:14603   */\n      lt\n        /* \"#utility.yul\":14581:14789   */\n      iszero\n      tag_304\n      jumpi\n        /* \"#utility.yul\":14674:14683   */\n      dup5\n        /* \"#utility.yul\":14669:14672   */\n      dup10\n        /* \"#utility.yul\":14665:14684   */\n      add\n        /* \"#utility.yul\":14659:14685   */\n      mload\n        /* \"#utility.yul\":14651:14657   */\n      dup3\n        /* \"#utility.yul\":14644:14686   */\n      sstore\n        /* \"#utility.yul\":14725:14726   */\n      0x01\n        /* \"#utility.yul\":14717:14723   */\n      dup3\n        /* \"#utility.yul\":14713:14727   */\n      add\n        /* \"#utility.yul\":14703:14727   */\n      swap2\n      pop\n        /* \"#utility.yul\":14772:14774   */\n      0x20\n        /* \"#utility.yul\":14761:14770   */\n      dup6\n        /* \"#utility.yul\":14757:14775   */\n      add\n        /* \"#utility.yul\":14744:14775   */\n      swap5\n      pop\n        /* \"#utility.yul\":14618:14622   */\n      0x20\n        /* \"#utility.yul\":14615:14616   */\n      dup2\n        /* \"#utility.yul\":14611:14623   */\n      add\n        /* \"#utility.yul\":14606:14623   */\n      swap1\n      pop\n        /* \"#utility.yul\":14581:14789   */\n      jump(tag_302)\n    tag_304:\n        /* \"#utility.yul\":14817:14823   */\n      dup7\n        /* \"#utility.yul\":14808:14815   */\n      dup4\n        /* \"#utility.yul\":14805:14824   */\n      lt\n        /* \"#utility.yul\":14802:14981   */\n      iszero\n      tag_305\n      jumpi\n        /* \"#utility.yul\":14875:14884   */\n      dup5\n        /* \"#utility.yul\":14870:14873   */\n      dup10\n        /* \"#utility.yul\":14866:14885   */\n      add\n        /* \"#utility.yul\":14860:14886   */\n      mload\n        /* \"#utility.yul\":14918:14966   */\n      tag_306\n        /* \"#utility.yul\":14960:14964   */\n      0x1f\n        /* \"#utility.yul\":14952:14958   */\n      dup10\n        /* \"#utility.yul\":14948:14965   */\n      and\n        /* \"#utility.yul\":14937:14946   */\n      dup3\n        /* \"#utility.yul\":14918:14966   */\n      tag_147\n      jump\t// in\n    tag_306:\n        /* \"#utility.yul\":14910:14916   */\n      dup4\n        /* \"#utility.yul\":14903:14967   */\n      sstore\n        /* \"#utility.yul\":14825:14981   */\n      pop\n        /* \"#utility.yul\":14802:14981   */\n    tag_305:\n        /* \"#utility.yul\":15027:15028   */\n      0x01\n        /* \"#utility.yul\":15023:15024   */\n      0x02\n        /* \"#utility.yul\":15015:15021   */\n      dup9\n        /* \"#utility.yul\":15011:15025   */\n      mul\n        /* \"#utility.yul\":15007:15029   */\n      add\n        /* \"#utility.yul\":15001:15005   */\n      dup9\n        /* \"#utility.yul\":14994:15030   */\n      sstore\n        /* \"#utility.yul\":14429:15040   */\n      pop\n      pop\n      pop\n        /* \"#utility.yul\":14392:15279   */\n    tag_297:\n      pop\n        /* \"#utility.yul\":13982:15285   */\n      pop\n      pop\n      pop\n        /* \"#utility.yul\":13890:15285   */\n      pop\n      pop\n      jump\t// out\n        /* \"#utility.yul\":15291:15471   */\n    tag_149:\n        /* \"#utility.yul\":15339:15416   */\n      0x4e487b7100000000000000000000000000000000000000000000000000000000\n        /* \"#utility.yul\":15336:15337   */\n      0x00\n        /* \"#utility.yul\":15329:15417   */\n      mstore\n        /* \"#utility.yul\":15436:15440   */\n      0x11\n        /* \"#utility.yul\":15433:15434   */\n      0x04\n        /* \"#utility.yul\":15426:15441   */\n      mstore\n        /* \"#utility.yul\":15460:15464   */\n      0x24\n        /* \"#utility.yul\":15457:15458   */\n      0x00\n        /* \"#utility.yul\":15450:15465   */\n      revert\n        /* \"#utility.yul\":15477:15710   */\n    tag_80:\n        /* \"#utility.yul\":15516:15519   */\n      0x00\n        /* \"#utility.yul\":15539:15563   */\n      tag_309\n        /* \"#utility.yul\":15557:15562   */\n      dup3\n        /* \"#utility.yul\":15539:15563   */\n      tag_111\n      jump\t// in\n    tag_309:\n        /* \"#utility.yul\":15530:15563   */\n      swap2\n      pop\n        /* \"#utility.yul\":15585:15651   */\n      0xffffffffffffffffffffffffffffffffffffffffffffffffffffffffffffffff\n        /* \"#utility.yul\":15578:15583   */\n      dup3\n        /* \"#utility.yul\":15575:15652   */\n      sub\n        /* \"#utility.yul\":15572:15675   */\n      tag_310\n      jumpi\n        /* \"#utility.yul\":15655:15673   */\n      tag_311\n      tag_149\n      jump\t// in\n    tag_311:\n        /* \"#utility.yul\":15572:15675   */\n    tag_310:\n        /* \"#utility.yul\":15702:15703   */\n      0x01\n        /* \"#utility.yul\":15695:15700   */\n      dup3\n        /* \"#utility.yul\":15691:15704   */\n      add\n        /* \"#utility.yul\":15684:15704   */\n      swap1\n      pop\n        /* \"#utility.yul\":15477:15710   */\n      swap2\n      swap1\n      pop\n      jump\t// out\n        /* \"#utility.yul\":15716:16653   */\n    tag_82:\n        /* \"#utility.yul\":15981:15985   */\n      0x00\n        /* \"#utility.yul\":16019:16022   */\n      0xa0\n        /* \"#utility.yul\":16008:16017   */\n      dup3\n        /* \"#utility.yul\":16004:16023   */\n      add\n        /* \"#utility.yul\":15996:16023   */\n      swap1\n      pop\n        /* \"#utility.yul\":16069:16078   */\n      dup2\n        /* \"#utility.yul\":16063:16067   */\n      dup2\n        /* \"#utility.yul\":16059:16079   */\n      sub\n        /* \"#utility.yul\":16055:16056   */\n      0x00\n        /* \"#utility.yul\":16044:16053   */\n      dup4\n        /* \"#utility.yul\":16040:16057   */\n      add\n        /* \"#utility.yul\":16033:16080   */\n      mstore\n        /* \"#utility.yul\":16097:16175   */\n      tag_313\n        /* \"#utility.yul\":16170:16174   */\n      dup2\n        /* \"#utility.yul\":16161:16167   */\n      dup9\n        /* \"#utility.yul\":16097:16175   */\n      tag_119\n      jump\t// in\n    tag_313:\n        /* \"#utility.yul\":16089:16175   */\n      swap1\n      pop\n        /* \"#utility.yul\":16222:16231   */\n      dup2\n        /* \"#utility.yul\":16216:16220   */\n      dup2\n        /* \"#utility.yul\":16212:16232   */\n      sub\n        /* \"#utility.yul\":16207:16209   */\n      0x20\n        /* \"#utility.yul\":16196:16205   */\n      dup4\n        /* \"#utility.yul\":16192:16210   */\n      add\n        /* \"#utility.yul\":16185:16233   */\n      mstore\n        /* \"#utility.yul\":16250:16328   */\n      tag_314\n        /* \"#utility.yul\":16323:16327   */\n      dup2\n        /* \"#utility.yul\":16314:16320   */\n      dup8\n        /* \"#utility.yul\":16250:16328   */\n      tag_119\n      jump\t// in\n    tag_314:\n        /* \"#utility.yul\":16242:16328   */\n      swap1\n      pop\n        /* \"#utility.yul\":16338:16410   */\n      tag_315\n        /* \"#utility.yul\":16406:16408   */\n      0x40\n        /* \"#utility.yul\":16395:16404   */\n      dup4\n        /* \"#utility.yul\":16391:16409   */\n      add\n        /* \"#utility.yul\":16382:16388   */\n      dup7\n        /* \"#utility.yul\":16338:16410   */\n      tag_114\n      jump\t// in\n    tag_315:\n        /* \"#utility.yul\":16420:16492   */\n      tag_316\n        /* \"#utility.yul\":16488:16490   */\n      0x60\n        /* \"#utility.yul\":16477:16486   */\n      dup4\n        /* \"#utility.yul\":16473:16491   */\n      add\n        /* \"#utility.yul\":16464:16470   */\n      dup6\n        /* \"#utility.yul\":16420:16492   */\n      tag_114\n      jump\t// in\n    tag_316:\n        /* \"#utility.yul\":16540:16549   */\n      dup2\n        /* \"#utility.yul\":16534:16538   */\n      dup2\n        /* \"#utility.yul\":16530:16550   */\n      sub\n        /* \"#utility.yul\":16524:16527   */\n      0x80\n        /* \"#utility.yul\":16513:16522   */\n      dup4\n        /* \"#utility.yul\":16509:16528   */\n      add\n        /* \"#utility.yul\":16502:16551   */\n      mstore\n        /* \"#utility.yul\":16568:16646   */\n      tag_317\n        /* \"#utility.yul\":16641:16645   */\n      dup2\n        /* \"#utility.yul\":16632:16638   */\n      dup5\n        /* \"#utility.yul\":16568:16646   */\n      tag_119\n      jump\t// in\n    tag_317:\n        /* \"#utility.yul\":16560:16646   */\n      swap1\n      pop\n        /* \"#utility.yul\":15716:16653   */\n      swap7\n      swap6\n      pop\n      pop\n      pop\n      pop\n      pop\n      pop\n      jump\t// out\n        /* \"#utility.yul\":16659:16830   */\n    tag_92:\n        /* \"#utility.yul\":16698:16701   */\n      0x00\n        /* \"#utility.yul\":16721:16745   */\n      tag_319\n        /* \"#utility.yul\":16739:16744   */\n      dup3\n        /* \"#utility.yul\":16721:16745   */\n      tag_111\n      jump\t// in\n    tag_319:\n        /* \"#utility.yul\":16712:16745   */\n      swap2\n      pop\n        /* \"#utility.yul\":16767:16771   */\n      0x00\n        /* \"#utility.yul\":16760:16765   */\n      dup3\n        /* \"#utility.yul\":16757:16772   */\n      sub\n        /* \"#utility.yul\":16754:16795   */\n      tag_320\n      jumpi\n        /* \"#utility.yul\":16775:16793   */\n      tag_321\n      tag_149\n      jump\t// in\n    tag_321:\n        /* \"#utility.yul\":16754:16795   */\n    tag_320:\n        /* \"#utility.yul\":16822:16823   */\n      0x01\n        /* \"#utility.yul\":16815:16820   */\n      dup3\n        /* \"#utility.yul\":16811:16824   */\n      sub\n        /* \"#utility.yul\":16804:16824   */\n      swap1\n      pop\n        /* \"#utility.yul\":16659:16830   */\n      swap2\n      swap1\n      pop\n      jump\t// out\n        /* \"#utility.yul\":16836:17571   */\n    tag_100:\n        /* \"#utility.yul\":17053:17057   */\n      0x00\n        /* \"#utility.yul\":17091:17094   */\n      0x80\n        /* \"#utility.yul\":17080:17089   */\n      dup3\n        /* \"#utility.yul\":17076:17095   */\n      add\n        /* \"#utility.yul\":17068:17095   */\n      swap1\n      pop\n        /* \"#utility.yul\":17141:17150   */\n      dup2\n        /* \"#utility.yul\":17135:17139   */\n      dup2\n        /* \"#utility.yul\":17131:17151   */\n      sub\n        /* \"#utility.yul\":17127:17128   */\n      0x00\n        /* \"#utility.yul\":17116:17125   */\n      dup4\n        /* \"#utility.yul\":17112:17129   */\n      add\n        /* \"#utility.yul\":17105:17152   */\n      mstore\n        /* \"#utility.yul\":17169:17247   */\n      tag_323\n        /* \"#utility.yul\":17242:17246   */\n      dup2\n        /* \"#utility.yul\":17233:17239   */\n      dup8\n        /* \"#utility.yul\":17169:17247   */\n      tag_119\n      jump\t// in\n    tag_323:\n        /* \"#utility.yul\":17161:17247   */\n      swap1\n      pop\n        /* \"#utility.yul\":17257:17329   */\n      tag_324\n        /* \"#utility.yul\":17325:17327   */\n      0x20\n        /* \"#utility.yul\":17314:17323   */\n      dup4\n        /* \"#utility.yul\":17310:17328   */\n      add\n        /* \"#utility.yul\":17301:17307   */\n      dup7\n        /* \"#utility.yul\":17257:17329   */\n      tag_114\n      jump\t// in\n    tag_324:\n        /* \"#utility.yul\":17339:17411   */\n      tag_325\n        /* \"#utility.yul\":17407:17409   */\n      0x40\n        /* \"#utility.yul\":17396:17405   */\n      dup4\n        /* \"#utility.yul\":17392:17410   */\n      add\n        /* \"#utility.yul\":17383:17389   */\n      dup6\n        /* \"#utility.yul\":17339:17411   */\n      tag_114\n      jump\t// in\n    tag_325:\n        /* \"#utility.yul\":17458:17467   */\n      dup2\n        /* \"#utility.yul\":17452:17456   */\n      dup2\n        /* \"#utility.yul\":17448:17468   */\n      sub\n        /* \"#utility.yul\":17443:17445   */\n      0x60\n        /* \"#utility.yul\":17432:17441   */\n      dup4\n        /* \"#utility.yul\":17428:17446   */\n      add\n        /* \"#utility.yul\":17421:17469   */\n      mstore\n        /* \"#utility.yul\":17486:17564   */\n      tag_326\n        /* \"#utility.yul\":17559:17563   */\n      dup2\n        /* \"#utility.yul\":17550:17556   */\n      dup5\n        /* \"#utility.yul\":17486:17564   */\n      tag_119\n      jump\t// in\n    tag_326:\n        /* \"#utility.yul\":17478:17564   */\n      swap1\n      pop\n        /* \"#utility.yul\":16836:17571   */\n      swap6\n      swap5\n      pop\n      pop\n      pop\n      pop\n      pop\n      jump\t// out\n\n    auxdata: 0xa2646970667358221220f95f14d4536d62b1274786b696cfe04fb016756d97fc51be22702b91cc71f4c364736f6c634300081a0033\n}\n",
				"bytecode": {
					"linkReferences": {},
					"object": "60806040525f6001553480156012575f80fd5b506112ca806100205f395ff3fe608060405234801561000f575f80fd5b5060043610610060575f3560e01c8063092b3740146100645780632ac08a9314610099578063317d9fca146100ce578063959f9272146100ea578063aace20b714610106578063f8186d3714610124575b5f80fd5b61007e600480360381019061007991906109a6565b610140565b60405161009096959493929190610a50565b60405180910390f35b6100b360048036038101906100ae91906109a6565b6103c7565b6040516100c596959493929190610a50565b60405180910390f35b6100e860048036038101906100e39190610bf0565b610590565b005b61010460048036038101906100ff91906109a6565b6106f0565b005b61010e6107ec565b60405161011b9190610ce1565b60405180910390f35b61013e60048036038101906101399190610cfa565b6107f2565b005b5f6060805f8060605f805f8981526020019081526020015f20600101805461016790610dd6565b9050036101a9576040517f08c379a00000000000000000000000000000000000000000000000000000000081526004016101a090610e50565b60405180910390fd5b5f805f8981526020019081526020015f206040518060c00160405290815f82015481526020016001820180546101de90610dd6565b80601f016020809104026020016040519081016040528092919081815260200182805461020a90610dd6565b80156102555780601f1061022c57610100808354040283529160200191610255565b820191905f5260205f20905b81548152906001019060200180831161023857829003601f168201915b5050505050815260200160028201805461026e90610dd6565b80601f016020809104026020016040519081016040528092919081815260200182805461029a90610dd6565b80156102e55780601f106102bc576101008083540402835291602001916102e5565b820191905f5260205f20905b8154815290600101906020018083116102c857829003601f168201915b50505050508152602001600382015481526020016004820154815260200160058201805461031290610dd6565b80601f016020809104026020016040519081016040528092919081815260200182805461033e90610dd6565b80156103895780601f1061036057610100808354040283529160200191610389565b820191905f5260205f20905b81548152906001019060200180831161036c57829003601f168201915b5050505050815250509050805f015181602001518260400151836060015184608001518560a001519650965096509650965096505091939550919395565b5f602052805f5260405f205f91509050805f0154908060010180546103eb90610dd6565b80601f016020809104026020016040519081016040528092919081815260200182805461041790610dd6565b80156104625780601f1061043957610100808354040283529160200191610462565b820191905f5260205f20905b81548152906001019060200180831161044557829003601f168201915b50505050509080600201805461047790610dd6565b80601f01602080910402602001604051908101604052809291908181526020018280546104a390610dd6565b80156104ee5780601f106104c5576101008083540402835291602001916104ee565b820191905f5260205f20905b8154815290600101906020018083116104d157829003601f168201915b50505050509080600301549080600401549080600501805461050f90610dd6565b80601f016020809104026020016040519081016040528092919081815260200182805461053b90610dd6565b80156105865780601f1061055d57610100808354040283529160200191610586565b820191905f5260205f20905b81548152906001019060200180831161056957829003601f168201915b5050505050905086565b5f805f8981526020019081526020015f2060010180546105af90610dd6565b9050146105f1576040517f08c379a00000000000000000000000000000000000000000000000000000000081526004016105e890610eb8565b60405180910390fd5b6040518060c00160405280878152602001868152602001858152602001848152602001838152602001828152505f808981526020019081526020015f205f820151815f0155602082015181600101908161064b9190611073565b5060408201518160020190816106619190611073565b50606082015181600301556080820151816004015560a082015181600501908161068b9190611073565b5090505060015f8154809291906106a19061116f565b919050555085877f601a0e875ddfe57cad229d8e1b980ddc2211aad2010439670036cea9b1b014d087878787876040516106df9594939291906111b6565b60405180910390a350505050505050565b5f805f8381526020019081526020015f20600101805461070f90610dd6565b905003610751576040517f08c379a000000000000000000000000000000000000000000000000000000000815260040161074890610e50565b60405180910390fd5b5f808281526020019081526020015f205f8082015f9055600182015f610777919061090a565b600282015f610786919061090a565b600382015f9055600482015f9055600582015f6107a3919061090a565b505060015f8154809291906107b79061121c565b9190505550807f66c891e51efb5e3de78f960a0177f968c9e0866811cde856de366b3c1c295eb560405160405180910390a250565b60015481565b5f805f8781526020019081526020015f20600101805461081190610dd6565b905003610853576040517f08c379a000000000000000000000000000000000000000000000000000000000815260040161084a90610e50565b60405180910390fd5b835f808781526020019081526020015f2060020190816108739190611073565b50825f808781526020019081526020015f2060030181905550815f808781526020019081526020015f2060040181905550805f808781526020019081526020015f2060050190816108c49190611073565b50847facaaac77c8bae53d1026541e4970309b3ca003985a8ad181de65203d9d2f7224858585856040516108fb9493929190611243565b60405180910390a25050505050565b50805461091690610dd6565b5f825580601f106109275750610944565b601f0160209004905f5260205f20908101906109439190610947565b5b50565b5b8082111561095e575f815f905550600101610948565b5090565b5f604051905090565b5f80fd5b5f80fd5b5f819050919050565b61098581610973565b811461098f575f80fd5b50565b5f813590506109a08161097c565b92915050565b5f602082840312156109bb576109ba61096b565b5b5f6109c884828501610992565b91505092915050565b6109da81610973565b82525050565b5f81519050919050565b5f82825260208201905092915050565b8281835e5f83830152505050565b5f601f19601f8301169050919050565b5f610a22826109e0565b610a2c81856109ea565b9350610a3c8185602086016109fa565b610a4581610a08565b840191505092915050565b5f60c082019050610a635f8301896109d1565b8181036020830152610a758188610a18565b90508181036040830152610a898187610a18565b9050610a9860608301866109d1565b610aa560808301856109d1565b81810360a0830152610ab78184610a18565b9050979650505050505050565b5f80fd5b5f80fd5b7f4e487b71000000000000000000000000000000000000000000000000000000005f52604160045260245ffd5b610b0282610a08565b810181811067ffffffffffffffff82111715610b2157610b20610acc565b5b80604052505050565b5f610b33610962565b9050610b3f8282610af9565b919050565b5f67ffffffffffffffff821115610b5e57610b5d610acc565b5b610b6782610a08565b9050602081019050919050565b828183375f83830152505050565b5f610b94610b8f84610b44565b610b2a565b905082815260208101848484011115610bb057610baf610ac8565b5b610bbb848285610b74565b509392505050565b5f82601f830112610bd757610bd6610ac4565b5b8135610be7848260208601610b82565b91505092915050565b5f805f805f805f60e0888a031215610c0b57610c0a61096b565b5b5f610c188a828b01610992565b9750506020610c298a828b01610992565b965050604088013567ffffffffffffffff811115610c4a57610c4961096f565b5b610c568a828b01610bc3565b955050606088013567ffffffffffffffff811115610c7757610c7661096f565b5b610c838a828b01610bc3565b9450506080610c948a828b01610992565b93505060a0610ca58a828b01610992565b92505060c088013567ffffffffffffffff811115610cc657610cc561096f565b5b610cd28a828b01610bc3565b91505092959891949750929550565b5f602082019050610cf45f8301846109d1565b92915050565b5f805f805f60a08688031215610d1357610d1261096b565b5b5f610d2088828901610992565b955050602086013567ffffffffffffffff811115610d4157610d4061096f565b5b610d4d88828901610bc3565b9450506040610d5e88828901610992565b9350506060610d6f88828901610992565b925050608086013567ffffffffffffffff811115610d9057610d8f61096f565b5b610d9c88828901610bc3565b9150509295509295909350565b7f4e487b71000000000000000000000000000000000000000000000000000000005f52602260045260245ffd5b5f6002820490506001821680610ded57607f821691505b602082108103610e0057610dff610da9565b5b50919050565b7f536869706d656e7420646f6573206e6f742065786973740000000000000000005f82015250565b5f610e3a6017836109ea565b9150610e4582610e06565b602082019050919050565b5f6020820190508181035f830152610e6781610e2e565b9050919050565b7f536869706d656e7420616c7265616479206578697374730000000000000000005f82015250565b5f610ea26017836109ea565b9150610ead82610e6e565b602082019050919050565b5f6020820190508181035f830152610ecf81610e96565b9050919050565b5f819050815f5260205f209050919050565b5f6020601f8301049050919050565b5f82821b905092915050565b5f60088302610f327fffffffffffffffffffffffffffffffffffffffffffffffffffffffffffffffff82610ef7565b610f3c8683610ef7565b95508019841693508086168417925050509392505050565b5f819050919050565b5f610f77610f72610f6d84610973565b610f54565b610973565b9050919050565b5f819050919050565b610f9083610f5d565b610fa4610f9c82610f7e565b848454610f03565b825550505050565b5f90565b610fb8610fac565b610fc3818484610f87565b505050565b5b81811015610fe657610fdb5f82610fb0565b600181019050610fc9565b5050565b601f82111561102b57610ffc81610ed6565b61100584610ee8565b81016020851015611014578190505b61102861102085610ee8565b830182610fc8565b50505b505050565b5f82821c905092915050565b5f61104b5f1984600802611030565b1980831691505092915050565b5f611063838361103c565b9150826002028217905092915050565b61107c826109e0565b67ffffffffffffffff81111561109557611094610acc565b5b61109f8254610dd6565b6110aa828285610fea565b5f60209050601f8311600181146110db575f84156110c9578287015190505b6110d38582611058565b86555061113a565b601f1984166110e986610ed6565b5f5b82811015611110578489015182556001820191506020850194506020810190506110eb565b8683101561112d5784890151611129601f89168261103c565b8355505b6001600288020188555050505b505050505050565b7f4e487b71000000000000000000000000000000000000000000000000000000005f52601160045260245ffd5b5f61117982610973565b91507fffffffffffffffffffffffffffffffffffffffffffffffffffffffffffffffff82036111ab576111aa611142565b5b600182019050919050565b5f60a0820190508181035f8301526111ce8188610a18565b905081810360208301526111e28187610a18565b90506111f160408301866109d1565b6111fe60608301856109d1565b81810360808301526112108184610a18565b90509695505050505050565b5f61122682610973565b91505f820361123857611237611142565b5b600182039050919050565b5f6080820190508181035f83015261125b8187610a18565b905061126a60208301866109d1565b61127760408301856109d1565b81810360608301526112898184610a18565b90509594505050505056fea2646970667358221220f95f14d4536d62b1274786b696cfe04fb016756d97fc51be22702b91cc71f4c364736f6c634300081a0033",
					"opcodes": "PUSH1 0x80 PUSH1 0x40 MSTORE PUSH0 PUSH1 0x1 SSTORE CALLVALUE DUP1 ISZERO PUSH1 0x12 JUMPI PUSH0 DUP1 REVERT JUMPDEST POP PUSH2 0x12CA DUP1 PUSH2 0x20 PUSH0 CODECOPY PUSH0 RETURN INVALID PUSH1 0x80 PUSH1 0x40 MSTORE CALLVALUE DUP1 ISZERO PUSH2 0xF JUMPI PUSH0 DUP1 REVERT JUMPDEST POP PUSH1 0x4 CALLDATASIZE LT PUSH2 0x60 JUMPI PUSH0 CALLDATALOAD PUSH1 0xE0 SHR DUP1 PUSH4 0x92B3740 EQ PUSH2 0x64 JUMPI DUP1 PUSH4 0x2AC08A93 EQ PUSH2 0x99 JUMPI DUP1 PUSH4 0x317D9FCA EQ PUSH2 0xCE JUMPI DUP1 PUSH4 0x959F9272 EQ PUSH2 0xEA JUMPI DUP1 PUSH4 0xAACE20B7 EQ PUSH2 0x106 JUMPI DUP1 PUSH4 0xF8186D37 EQ PUSH2 0x124 JUMPI JUMPDEST PUSH0 DUP1 REVERT JUMPDEST PUSH2 0x7E PUSH1 0x4 DUP1 CALLDATASIZE SUB DUP2 ADD SWAP1 PUSH2 0x79 SWAP2 SWAP1 PUSH2 0x9A6 JUMP JUMPDEST PUSH2 0x140 JUMP JUMPDEST PUSH1 0x40 MLOAD PUSH2 0x90 SWAP7 SWAP6 SWAP5 SWAP4 SWAP3 SWAP2 SWAP1 PUSH2 0xA50 JUMP JUMPDEST PUSH1 0x40 MLOAD DUP1 SWAP2 SUB SWAP1 RETURN JUMPDEST PUSH2 0xB3 PUSH1 0x4 DUP1 CALLDATASIZE SUB DUP2 ADD SWAP1 PUSH2 0xAE SWAP2 SWAP1 PUSH2 0x9A6 JUMP JUMPDEST PUSH2 0x3C7 JUMP JUMPDEST PUSH1 0x40 MLOAD PUSH2 0xC5 SWAP7 SWAP6 SWAP5 SWAP4 SWAP3 SWAP2 SWAP1 PUSH2 0xA50 JUMP JUMPDEST PUSH1 0x40 MLOAD DUP1 SWAP2 SUB SWAP1 RETURN JUMPDEST PUSH2 0xE8 PUSH1 0x4 DUP1 CALLDATASIZE SUB DUP2 ADD SWAP1 PUSH2 0xE3 SWAP2 SWAP1 PUSH2 0xBF0 JUMP JUMPDEST PUSH2 0x590 JUMP JUMPDEST STOP JUMPDEST PUSH2 0x104 PUSH1 0x4 DUP1 CALLDATASIZE SUB DUP2 ADD SWAP1 PUSH2 0xFF SWAP2 SWAP1 PUSH2 0x9A6 JUMP JUMPDEST PUSH2 0x6F0 JUMP JUMPDEST STOP JUMPDEST PUSH2 0x10E PUSH2 0x7EC JUMP JUMPDEST PUSH1 0x40 MLOAD PUSH2 0x11B SWAP2 SWAP1 PUSH2 0xCE1 JUMP JUMPDEST PUSH1 0x40 MLOAD DUP1 SWAP2 SUB SWAP1 RETURN JUMPDEST PUSH2 0x13E PUSH1 0x4 DUP1 CALLDATASIZE SUB DUP2 ADD SWAP1 PUSH2 0x139 SWAP2 SWAP1 PUSH2 0xCFA JUMP JUMPDEST PUSH2 0x7F2 JUMP JUMPDEST STOP JUMPDEST PUSH0 PUSH1 0x60 DUP1 PUSH0 DUP1 PUSH1 0x60 PUSH0 DUP1 PUSH0 DUP10 DUP2 MSTORE PUSH1 0x20 ADD SWAP1 DUP2 MSTORE PUSH1 0x20 ADD PUSH0 KECCAK256 PUSH1 0x1 ADD DUP1 SLOAD PUSH2 0x167 SWAP1 PUSH2 0xDD6 JUMP JUMPDEST SWAP1 POP SUB PUSH2 0x1A9 JUMPI PUSH1 0x40 MLOAD PUSH32 0x8C379A000000000000000000000000000000000000000000000000000000000 DUP2 MSTORE PUSH1 0x4 ADD PUSH2 0x1A0 SWAP1 PUSH2 0xE50 JUMP JUMPDEST PUSH1 0x40 MLOAD DUP1 SWAP2 SUB SWAP1 REVERT JUMPDEST PUSH0 DUP1 PUSH0 DUP10 DUP2 MSTORE PUSH1 0x20 ADD SWAP1 DUP2 MSTORE PUSH1 0x20 ADD PUSH0 KECCAK256 PUSH1 0x40 MLOAD DUP1 PUSH1 0xC0 ADD PUSH1 0x40 MSTORE SWAP1 DUP2 PUSH0 DUP3 ADD SLOAD DUP2 MSTORE PUSH1 0x20 ADD PUSH1 0x1 DUP3 ADD DUP1 SLOAD PUSH2 0x1DE SWAP1 PUSH2 0xDD6 JUMP JUMPDEST DUP1 PUSH1 0x1F ADD PUSH1 0x20 DUP1 SWAP2 DIV MUL PUSH1 0x20 ADD PUSH1 0x40 MLOAD SWAP1 DUP2 ADD PUSH1 0x40 MSTORE DUP1 SWAP3 SWAP2 SWAP1 DUP2 DUP2 MSTORE PUSH1 0x20 ADD DUP3 DUP1 SLOAD PUSH2 0x20A SWAP1 PUSH2 0xDD6 JUMP JUMPDEST DUP1 ISZERO PUSH2 0x255 JUMPI DUP1 PUSH1 0x1F LT PUSH2 0x22C JUMPI PUSH2 0x100 DUP1 DUP4 SLOAD DIV MUL DUP4 MSTORE SWAP2 PUSH1 0x20 ADD SWAP2 PUSH2 0x255 JUMP JUMPDEST DUP3 ADD SWAP2 SWAP1 PUSH0 MSTORE PUSH1 0x20 PUSH0 KECCAK256 SWAP1 JUMPDEST DUP2 SLOAD DUP2 MSTORE SWAP1 PUSH1 0x1 ADD SWAP1 PUSH1 0x20 ADD DUP1 DUP4 GT PUSH2 0x238 JUMPI DUP3 SWAP1 SUB PUSH1 0x1F AND DUP3 ADD SWAP2 JUMPDEST POP POP POP POP POP DUP2 MSTORE PUSH1 0x20 ADD PUSH1 0x2 DUP3 ADD DUP1 SLOAD PUSH2 0x26E SWAP1 PUSH2 0xDD6 JUMP JUMPDEST DUP1 PUSH1 0x1F ADD PUSH1 0x20 DUP1 SWAP2 DIV MUL PUSH1 0x20 ADD PUSH1 0x40 MLOAD SWAP1 DUP2 ADD PUSH1 0x40 MSTORE DUP1 SWAP3 SWAP2 SWAP1 DUP2 DUP2 MSTORE PUSH1 0x20 ADD DUP3 DUP1 SLOAD PUSH2 0x29A SWAP1 PUSH2 0xDD6 JUMP JUMPDEST DUP1 ISZERO PUSH2 0x2E5 JUMPI DUP1 PUSH1 0x1F LT PUSH2 0x2BC JUMPI PUSH2 0x100 DUP1 DUP4 SLOAD DIV MUL DUP4 MSTORE SWAP2 PUSH1 0x20 ADD SWAP2 PUSH2 0x2E5 JUMP JUMPDEST DUP3 ADD SWAP2 SWAP1 PUSH0 MSTORE PUSH1 0x20 PUSH0 KECCAK256 SWAP1 JUMPDEST DUP2 SLOAD DUP2 MSTORE SWAP1 PUSH1 0x1 ADD SWAP1 PUSH1 0x20 ADD DUP1 DUP4 GT PUSH2 0x2C8 JUMPI DUP3 SWAP1 SUB PUSH1 0x1F AND DUP3 ADD SWAP2 JUMPDEST POP POP POP POP POP DUP2 MSTORE PUSH1 0x20 ADD PUSH1 0x3 DUP3 ADD SLOAD DUP2 MSTORE PUSH1 0x20 ADD PUSH1 0x4 DUP3 ADD SLOAD DUP2 MSTORE PUSH1 0x20 ADD PUSH1 0x5 DUP3 ADD DUP1 SLOAD PUSH2 0x312 SWAP1 PUSH2 0xDD6 JUMP JUMPDEST DUP1 PUSH1 0x1F ADD PUSH1 0x20 DUP1 SWAP2 DIV MUL PUSH1 0x20 ADD PUSH1 0x40 MLOAD SWAP1 DUP2 ADD PUSH1 0x40 MSTORE DUP1 SWAP3 SWAP2 SWAP1 DUP2 DUP2 MSTORE PUSH1 0x20 ADD DUP3 DUP1 SLOAD PUSH2 0x33E SWAP1 PUSH2 0xDD6 JUMP JUMPDEST DUP1 ISZERO PUSH2 0x389 JUMPI DUP1 PUSH1 0x1F LT PUSH2 0x360 JUMPI PUSH2 0x100 DUP1 DUP4 SLOAD DIV MUL DUP4 MSTORE SWAP2 PUSH1 0x20 ADD SWAP2 PUSH2 0x389 JUMP JUMPDEST DUP3 ADD SWAP2 SWAP1 PUSH0 MSTORE PUSH1 0x20 PUSH0 KECCAK256 SWAP1 JUMPDEST DUP2 SLOAD DUP2 MSTORE SWAP1 PUSH1 0x1 ADD SWAP1 PUSH1 0x20 ADD DUP1 DUP4 GT PUSH2 0x36C JUMPI DUP3 SWAP1 SUB PUSH1 0x1F AND DUP3 ADD SWAP2 JUMPDEST POP POP POP POP POP DUP2 MSTORE POP POP SWAP1 POP DUP1 PUSH0 ADD MLOAD DUP2 PUSH1 0x20 ADD MLOAD DUP3 PUSH1 0x40 ADD MLOAD DUP4 PUSH1 0x60 ADD MLOAD DUP5 PUSH1 0x80 ADD MLOAD DUP6 PUSH1 0xA0 ADD MLOAD SWAP7 POP SWAP7 POP SWAP7 POP SWAP7 POP SWAP7 POP SWAP7 POP POP SWAP2 SWAP4 SWAP6 POP SWAP2 SWAP4 SWAP6 JUMP JUMPDEST PUSH0 PUSH1 0x20 MSTORE DUP1 PUSH0 MSTORE PUSH1 0x40 PUSH0 KECCAK256 PUSH0 SWAP2 POP SWAP1 POP DUP1 PUSH0 ADD SLOAD SWAP1 DUP1 PUSH1 0x1 ADD DUP1 SLOAD PUSH2 0x3EB SWAP1 PUSH2 0xDD6 JUMP JUMPDEST DUP1 PUSH1 0x1F ADD PUSH1 0x20 DUP1 SWAP2 DIV MUL PUSH1 0x20 ADD PUSH1 0x40 MLOAD SWAP1 DUP2 ADD PUSH1 0x40 MSTORE DUP1 SWAP3 SWAP2 SWAP1 DUP2 DUP2 MSTORE PUSH1 0x20 ADD DUP3 DUP1 SLOAD PUSH2 0x417 SWAP1 PUSH2 0xDD6 JUMP JUMPDEST DUP1 ISZERO PUSH2 0x462 JUMPI DUP1 PUSH1 0x1F LT PUSH2 0x439 JUMPI PUSH2 0x100 DUP1 DUP4 SLOAD DIV MUL DUP4 MSTORE SWAP2 PUSH1 0x20 ADD SWAP2 PUSH2 0x462 JUMP JUMPDEST DUP3 ADD SWAP2 SWAP1 PUSH0 MSTORE PUSH1 0x20 PUSH0 KECCAK256 SWAP1 JUMPDEST DUP2 SLOAD DUP2 MSTORE SWAP1 PUSH1 0x1 ADD SWAP1 PUSH1 0x20 ADD DUP1 DUP4 GT PUSH2 0x445 JUMPI DUP3 SWAP1 SUB PUSH1 0x1F AND DUP3 ADD SWAP2 JUMPDEST POP POP POP POP POP SWAP1 DUP1 PUSH1 0x2 ADD DUP1 SLOAD PUSH2 0x477 SWAP1 PUSH2 0xDD6 JUMP JUMPDEST DUP1 PUSH1 0x1F ADD PUSH1 0x20 DUP1 SWAP2 DIV MUL PUSH1 0x20 ADD PUSH1 0x40 MLOAD SWAP1 DUP2 ADD PUSH1 0x40 MSTORE DUP1 SWAP3 SWAP2 SWAP1 DUP2 DUP2 MSTORE PUSH1 0x20 ADD DUP3 DUP1 SLOAD PUSH2 0x4A3 SWAP1 PUSH2 0xDD6 JUMP JUMPDEST DUP1 ISZERO PUSH2 0x4EE JUMPI DUP1 PUSH1 0x1F LT PUSH2 0x4C5 JUMPI PUSH2 0x100 DUP1 DUP4 SLOAD DIV MUL DUP4 MSTORE SWAP2 PUSH1 0x20 ADD SWAP2 PUSH2 0x4EE JUMP JUMPDEST DUP3 ADD SWAP2 SWAP1 PUSH0 MSTORE PUSH1 0x20 PUSH0 KECCAK256 SWAP1 JUMPDEST DUP2 SLOAD DUP2 MSTORE SWAP1 PUSH1 0x1 ADD SWAP1 PUSH1 0x20 ADD DUP1 DUP4 GT PUSH2 0x4D1 JUMPI DUP3 SWAP1 SUB PUSH1 0x1F AND DUP3 ADD SWAP2 JUMPDEST POP POP POP POP POP SWAP1 DUP1 PUSH1 0x3 ADD SLOAD SWAP1 DUP1 PUSH1 0x4 ADD SLOAD SWAP1 DUP1 PUSH1 0x5 ADD DUP1 SLOAD PUSH2 0x50F SWAP1 PUSH2 0xDD6 JUMP JUMPDEST DUP1 PUSH1 0x1F ADD PUSH1 0x20 DUP1 SWAP2 DIV MUL PUSH1 0x20 ADD PUSH1 0x40 MLOAD SWAP1 DUP2 ADD PUSH1 0x40 MSTORE DUP1 SWAP3 SWAP2 SWAP1 DUP2 DUP2 MSTORE PUSH1 0x20 ADD DUP3 DUP1 SLOAD PUSH2 0x53B SWAP1 PUSH2 0xDD6 JUMP JUMPDEST DUP1 ISZERO PUSH2 0x586 JUMPI DUP1 PUSH1 0x1F LT PUSH2 0x55D JUMPI PUSH2 0x100 DUP1 DUP4 SLOAD DIV MUL DUP4 MSTORE SWAP2 PUSH1 0x20 ADD SWAP2 PUSH2 0x586 JUMP JUMPDEST DUP3 ADD SWAP2 SWAP1 PUSH0 MSTORE PUSH1 0x20 PUSH0 KECCAK256 SWAP1 JUMPDEST DUP2 SLOAD DUP2 MSTORE SWAP1 PUSH1 0x1 ADD SWAP1 PUSH1 0x20 ADD DUP1 DUP4 GT PUSH2 0x569 JUMPI DUP3 SWAP1 SUB PUSH1 0x1F AND DUP3 ADD SWAP2 JUMPDEST POP POP POP POP POP SWAP1 POP DUP7 JUMP JUMPDEST PUSH0 DUP1 PUSH0 DUP10 DUP2 MSTORE PUSH1 0x20 ADD SWAP1 DUP2 MSTORE PUSH1 0x20 ADD PUSH0 KECCAK256 PUSH1 0x1 ADD DUP1 SLOAD PUSH2 0x5AF SWAP1 PUSH2 0xDD6 JUMP JUMPDEST SWAP1 POP EQ PUSH2 0x5F1 JUMPI PUSH1 0x40 MLOAD PUSH32 0x8C379A000000000000000000000000000000000000000000000000000000000 DUP2 MSTORE PUSH1 0x4 ADD PUSH2 0x5E8 SWAP1 PUSH2 0xEB8 JUMP JUMPDEST PUSH1 0x40 MLOAD DUP1 SWAP2 SUB SWAP1 REVERT JUMPDEST PUSH1 0x40 MLOAD DUP1 PUSH1 0xC0 ADD PUSH1 0x40 MSTORE DUP1 DUP8 DUP2 MSTORE PUSH1 0x20 ADD DUP7 DUP2 MSTORE PUSH1 0x20 ADD DUP6 DUP2 MSTORE PUSH1 0x20 ADD DUP5 DUP2 MSTORE PUSH1 0x20 ADD DUP4 DUP2 MSTORE PUSH1 0x20 ADD DUP3 DUP2 MSTORE POP PUSH0 DUP1 DUP10 DUP2 MSTORE PUSH1 0x20 ADD SWAP1 DUP2 MSTORE PUSH1 0x20 ADD PUSH0 KECCAK256 PUSH0 DUP3 ADD MLOAD DUP2 PUSH0 ADD SSTORE PUSH1 0x20 DUP3 ADD MLOAD DUP2 PUSH1 0x1 ADD SWAP1 DUP2 PUSH2 0x64B SWAP2 SWAP1 PUSH2 0x1073 JUMP JUMPDEST POP PUSH1 0x40 DUP3 ADD MLOAD DUP2 PUSH1 0x2 ADD SWAP1 DUP2 PUSH2 0x661 SWAP2 SWAP1 PUSH2 0x1073 JUMP JUMPDEST POP PUSH1 0x60 DUP3 ADD MLOAD DUP2 PUSH1 0x3 ADD SSTORE PUSH1 0x80 DUP3 ADD MLOAD DUP2 PUSH1 0x4 ADD SSTORE PUSH1 0xA0 DUP3 ADD MLOAD DUP2 PUSH1 0x5 ADD SWAP1 DUP2 PUSH2 0x68B SWAP2 SWAP1 PUSH2 0x1073 JUMP JUMPDEST POP SWAP1 POP POP PUSH1 0x1 PUSH0 DUP2 SLOAD DUP1 SWAP3 SWAP2 SWAP1 PUSH2 0x6A1 SWAP1 PUSH2 0x116F JUMP JUMPDEST SWAP2 SWAP1 POP SSTORE POP DUP6 DUP8 PUSH32 0x601A0E875DDFE57CAD229D8E1B980DDC2211AAD2010439670036CEA9B1B014D0 DUP8 DUP8 DUP8 DUP8 DUP8 PUSH1 0x40 MLOAD PUSH2 0x6DF SWAP6 SWAP5 SWAP4 SWAP3 SWAP2 SWAP1 PUSH2 0x11B6 JUMP JUMPDEST PUSH1 0x40 MLOAD DUP1 SWAP2 SUB SWAP1 LOG3 POP POP POP POP POP POP POP JUMP JUMPDEST PUSH0 DUP1 PUSH0 DUP4 DUP2 MSTORE PUSH1 0x20 ADD SWAP1 DUP2 MSTORE PUSH1 0x20 ADD PUSH0 KECCAK256 PUSH1 0x1 ADD DUP1 SLOAD PUSH2 0x70F SWAP1 PUSH2 0xDD6 JUMP JUMPDEST SWAP1 POP SUB PUSH2 0x751 JUMPI PUSH1 0x40 MLOAD PUSH32 0x8C379A000000000000000000000000000000000000000000000000000000000 DUP2 MSTORE PUSH1 0x4 ADD PUSH2 0x748 SWAP1 PUSH2 0xE50 JUMP JUMPDEST PUSH1 0x40 MLOAD DUP1 SWAP2 SUB SWAP1 REVERT JUMPDEST PUSH0 DUP1 DUP3 DUP2 MSTORE PUSH1 0x20 ADD SWAP1 DUP2 MSTORE PUSH1 0x20 ADD PUSH0 KECCAK256 PUSH0 DUP1 DUP3 ADD PUSH0 SWAP1 SSTORE PUSH1 0x1 DUP3 ADD PUSH0 PUSH2 0x777 SWAP2 SWAP1 PUSH2 0x90A JUMP JUMPDEST PUSH1 0x2 DUP3 ADD PUSH0 PUSH2 0x786 SWAP2 SWAP1 PUSH2 0x90A JUMP JUMPDEST PUSH1 0x3 DUP3 ADD PUSH0 SWAP1 SSTORE PUSH1 0x4 DUP3 ADD PUSH0 SWAP1 SSTORE PUSH1 0x5 DUP3 ADD PUSH0 PUSH2 0x7A3 SWAP2 SWAP1 PUSH2 0x90A JUMP JUMPDEST POP POP PUSH1 0x1 PUSH0 DUP2 SLOAD DUP1 SWAP3 SWAP2 SWAP1 PUSH2 0x7B7 SWAP1 PUSH2 0x121C JUMP JUMPDEST SWAP2 SWAP1 POP SSTORE POP DUP1 PUSH32 0x66C891E51EFB5E3DE78F960A0177F968C9E0866811CDE856DE366B3C1C295EB5 PUSH1 0x40 MLOAD PUSH1 0x40 MLOAD DUP1 SWAP2 SUB SWAP1 LOG2 POP JUMP JUMPDEST PUSH1 0x1 SLOAD DUP2 JUMP JUMPDEST PUSH0 DUP1 PUSH0 DUP8 DUP2 MSTORE PUSH1 0x20 ADD SWAP1 DUP2 MSTORE PUSH1 0x20 ADD PUSH0 KECCAK256 PUSH1 0x1 ADD DUP1 SLOAD PUSH2 0x811 SWAP1 PUSH2 0xDD6 JUMP JUMPDEST SWAP1 POP SUB PUSH2 0x853 JUMPI PUSH1 0x40 MLOAD PUSH32 0x8C379A000000000000000000000000000000000000000000000000000000000 DUP2 MSTORE PUSH1 0x4 ADD PUSH2 0x84A SWAP1 PUSH2 0xE50 JUMP JUMPDEST PUSH1 0x40 MLOAD DUP1 SWAP2 SUB SWAP1 REVERT JUMPDEST DUP4 PUSH0 DUP1 DUP8 DUP2 MSTORE PUSH1 0x20 ADD SWAP1 DUP2 MSTORE PUSH1 0x20 ADD PUSH0 KECCAK256 PUSH1 0x2 ADD SWAP1 DUP2 PUSH2 0x873 SWAP2 SWAP1 PUSH2 0x1073 JUMP JUMPDEST POP DUP3 PUSH0 DUP1 DUP8 DUP2 MSTORE PUSH1 0x20 ADD SWAP1 DUP2 MSTORE PUSH1 0x20 ADD PUSH0 KECCAK256 PUSH1 0x3 ADD DUP2 SWAP1 SSTORE POP DUP2 PUSH0 DUP1 DUP8 DUP2 MSTORE PUSH1 0x20 ADD SWAP1 DUP2 MSTORE PUSH1 0x20 ADD PUSH0 KECCAK256 PUSH1 0x4 ADD DUP2 SWAP1 SSTORE POP DUP1 PUSH0 DUP1 DUP8 DUP2 MSTORE PUSH1 0x20 ADD SWAP1 DUP2 MSTORE PUSH1 0x20 ADD PUSH0 KECCAK256 PUSH1 0x5 ADD SWAP1 DUP2 PUSH2 0x8C4 SWAP2 SWAP1 PUSH2 0x1073 JUMP JUMPDEST POP DUP5 PUSH32 0xACAAAC77C8BAE53D1026541E4970309B3CA003985A8AD181DE65203D9D2F7224 DUP6 DUP6 DUP6 DUP6 PUSH1 0x40 MLOAD PUSH2 0x8FB SWAP5 SWAP4 SWAP3 SWAP2 SWAP1 PUSH2 0x1243 JUMP JUMPDEST PUSH1 0x40 MLOAD DUP1 SWAP2 SUB SWAP1 LOG2 POP POP POP POP POP JUMP JUMPDEST POP DUP1 SLOAD PUSH2 0x916 SWAP1 PUSH2 0xDD6 JUMP JUMPDEST PUSH0 DUP3 SSTORE DUP1 PUSH1 0x1F LT PUSH2 0x927 JUMPI POP PUSH2 0x944 JUMP JUMPDEST PUSH1 0x1F ADD PUSH1 0x20 SWAP1 DIV SWAP1 PUSH0 MSTORE PUSH1 0x20 PUSH0 KECCAK256 SWAP1 DUP2 ADD SWAP1 PUSH2 0x943 SWAP2 SWAP1 PUSH2 0x947 JUMP JUMPDEST JUMPDEST POP JUMP JUMPDEST JUMPDEST DUP1 DUP3 GT ISZERO PUSH2 0x95E JUMPI PUSH0 DUP2 PUSH0 SWAP1 SSTORE POP PUSH1 0x1 ADD PUSH2 0x948 JUMP JUMPDEST POP SWAP1 JUMP JUMPDEST PUSH0 PUSH1 0x40 MLOAD SWAP1 POP SWAP1 JUMP JUMPDEST PUSH0 DUP1 REVERT JUMPDEST PUSH0 DUP1 REVERT JUMPDEST PUSH0 DUP2 SWAP1 POP SWAP2 SWAP1 POP JUMP JUMPDEST PUSH2 0x985 DUP2 PUSH2 0x973 JUMP JUMPDEST DUP2 EQ PUSH2 0x98F JUMPI PUSH0 DUP1 REVERT JUMPDEST POP JUMP JUMPDEST PUSH0 DUP2 CALLDATALOAD SWAP1 POP PUSH2 0x9A0 DUP2 PUSH2 0x97C JUMP JUMPDEST SWAP3 SWAP2 POP POP JUMP JUMPDEST PUSH0 PUSH1 0x20 DUP3 DUP5 SUB SLT ISZERO PUSH2 0x9BB JUMPI PUSH2 0x9BA PUSH2 0x96B JUMP JUMPDEST JUMPDEST PUSH0 PUSH2 0x9C8 DUP5 DUP3 DUP6 ADD PUSH2 0x992 JUMP JUMPDEST SWAP2 POP POP SWAP3 SWAP2 POP POP JUMP JUMPDEST PUSH2 0x9DA DUP2 PUSH2 0x973 JUMP JUMPDEST DUP3 MSTORE POP POP JUMP JUMPDEST PUSH0 DUP2 MLOAD SWAP1 POP SWAP2 SWAP1 POP JUMP JUMPDEST PUSH0 DUP3 DUP3 MSTORE PUSH1 0x20 DUP3 ADD SWAP1 POP SWAP3 SWAP2 POP POP JUMP JUMPDEST DUP3 DUP2 DUP4 MCOPY PUSH0 DUP4 DUP4 ADD MSTORE POP POP POP JUMP JUMPDEST PUSH0 PUSH1 0x1F NOT PUSH1 0x1F DUP4 ADD AND SWAP1 POP SWAP2 SWAP1 POP JUMP JUMPDEST PUSH0 PUSH2 0xA22 DUP3 PUSH2 0x9E0 JUMP JUMPDEST PUSH2 0xA2C DUP2 DUP6 PUSH2 0x9EA JUMP JUMPDEST SWAP4 POP PUSH2 0xA3C DUP2 DUP6 PUSH1 0x20 DUP7 ADD PUSH2 0x9FA JUMP JUMPDEST PUSH2 0xA45 DUP2 PUSH2 0xA08 JUMP JUMPDEST DUP5 ADD SWAP2 POP POP SWAP3 SWAP2 POP POP JUMP JUMPDEST PUSH0 PUSH1 0xC0 DUP3 ADD SWAP1 POP PUSH2 0xA63 PUSH0 DUP4 ADD DUP10 PUSH2 0x9D1 JUMP JUMPDEST DUP2 DUP2 SUB PUSH1 0x20 DUP4 ADD MSTORE PUSH2 0xA75 DUP2 DUP9 PUSH2 0xA18 JUMP JUMPDEST SWAP1 POP DUP2 DUP2 SUB PUSH1 0x40 DUP4 ADD MSTORE PUSH2 0xA89 DUP2 DUP8 PUSH2 0xA18 JUMP JUMPDEST SWAP1 POP PUSH2 0xA98 PUSH1 0x60 DUP4 ADD DUP7 PUSH2 0x9D1 JUMP JUMPDEST PUSH2 0xAA5 PUSH1 0x80 DUP4 ADD DUP6 PUSH2 0x9D1 JUMP JUMPDEST DUP2 DUP2 SUB PUSH1 0xA0 DUP4 ADD MSTORE PUSH2 0xAB7 DUP2 DUP5 PUSH2 0xA18 JUMP JUMPDEST SWAP1 POP SWAP8 SWAP7 POP POP POP POP POP POP POP JUMP JUMPDEST PUSH0 DUP1 REVERT JUMPDEST PUSH0 DUP1 REVERT JUMPDEST PUSH32 0x4E487B7100000000000000000000000000000000000000000000000000000000 PUSH0 MSTORE PUSH1 0x41 PUSH1 0x4 MSTORE PUSH1 0x24 PUSH0 REVERT JUMPDEST PUSH2 0xB02 DUP3 PUSH2 0xA08 JUMP JUMPDEST DUP2 ADD DUP2 DUP2 LT PUSH8 0xFFFFFFFFFFFFFFFF DUP3 GT OR ISZERO PUSH2 0xB21 JUMPI PUSH2 0xB20 PUSH2 0xACC JUMP JUMPDEST JUMPDEST DUP1 PUSH1 0x40 MSTORE POP POP POP JUMP JUMPDEST PUSH0 PUSH2 0xB33 PUSH2 0x962 JUMP JUMPDEST SWAP1 POP PUSH2 0xB3F DUP3 DUP3 PUSH2 0xAF9 JUMP JUMPDEST SWAP2 SWAP1 POP JUMP JUMPDEST PUSH0 PUSH8 0xFFFFFFFFFFFFFFFF DUP3 GT ISZERO PUSH2 0xB5E JUMPI PUSH2 0xB5D PUSH2 0xACC JUMP JUMPDEST JUMPDEST PUSH2 0xB67 DUP3 PUSH2 0xA08 JUMP JUMPDEST SWAP1 POP PUSH1 0x20 DUP2 ADD SWAP1 POP SWAP2 SWAP1 POP JUMP JUMPDEST DUP3 DUP2 DUP4 CALLDATACOPY PUSH0 DUP4 DUP4 ADD MSTORE POP POP POP JUMP JUMPDEST PUSH0 PUSH2 0xB94 PUSH2 0xB8F DUP5 PUSH2 0xB44 JUMP JUMPDEST PUSH2 0xB2A JUMP JUMPDEST SWAP1 POP DUP3 DUP2 MSTORE PUSH1 0x20 DUP2 ADD DUP5 DUP5 DUP5 ADD GT ISZERO PUSH2 0xBB0 JUMPI PUSH2 0xBAF PUSH2 0xAC8 JUMP JUMPDEST JUMPDEST PUSH2 0xBBB DUP5 DUP3 DUP6 PUSH2 0xB74 JUMP JUMPDEST POP SWAP4 SWAP3 POP POP POP JUMP JUMPDEST PUSH0 DUP3 PUSH1 0x1F DUP4 ADD SLT PUSH2 0xBD7 JUMPI PUSH2 0xBD6 PUSH2 0xAC4 JUMP JUMPDEST JUMPDEST DUP2 CALLDATALOAD PUSH2 0xBE7 DUP5 DUP3 PUSH1 0x20 DUP7 ADD PUSH2 0xB82 JUMP JUMPDEST SWAP2 POP POP SWAP3 SWAP2 POP POP JUMP JUMPDEST PUSH0 DUP1 PUSH0 DUP1 PUSH0 DUP1 PUSH0 PUSH1 0xE0 DUP9 DUP11 SUB SLT ISZERO PUSH2 0xC0B JUMPI PUSH2 0xC0A PUSH2 0x96B JUMP JUMPDEST JUMPDEST PUSH0 PUSH2 0xC18 DUP11 DUP3 DUP12 ADD PUSH2 0x992 JUMP JUMPDEST SWAP8 POP POP PUSH1 0x20 PUSH2 0xC29 DUP11 DUP3 DUP12 ADD PUSH2 0x992 JUMP JUMPDEST SWAP7 POP POP PUSH1 0x40 DUP9 ADD CALLDATALOAD PUSH8 0xFFFFFFFFFFFFFFFF DUP2 GT ISZERO PUSH2 0xC4A JUMPI PUSH2 0xC49 PUSH2 0x96F JUMP JUMPDEST JUMPDEST PUSH2 0xC56 DUP11 DUP3 DUP12 ADD PUSH2 0xBC3 JUMP JUMPDEST SWAP6 POP POP PUSH1 0x60 DUP9 ADD CALLDATALOAD PUSH8 0xFFFFFFFFFFFFFFFF DUP2 GT ISZERO PUSH2 0xC77 JUMPI PUSH2 0xC76 PUSH2 0x96F JUMP JUMPDEST JUMPDEST PUSH2 0xC83 DUP11 DUP3 DUP12 ADD PUSH2 0xBC3 JUMP JUMPDEST SWAP5 POP POP PUSH1 0x80 PUSH2 0xC94 DUP11 DUP3 DUP12 ADD PUSH2 0x992 JUMP JUMPDEST SWAP4 POP POP PUSH1 0xA0 PUSH2 0xCA5 DUP11 DUP3 DUP12 ADD PUSH2 0x992 JUMP JUMPDEST SWAP3 POP POP PUSH1 0xC0 DUP9 ADD CALLDATALOAD PUSH8 0xFFFFFFFFFFFFFFFF DUP2 GT ISZERO PUSH2 0xCC6 JUMPI PUSH2 0xCC5 PUSH2 0x96F JUMP JUMPDEST JUMPDEST PUSH2 0xCD2 DUP11 DUP3 DUP12 ADD PUSH2 0xBC3 JUMP JUMPDEST SWAP2 POP POP SWAP3 SWAP6 SWAP9 SWAP2 SWAP5 SWAP8 POP SWAP3 SWAP6 POP JUMP JUMPDEST PUSH0 PUSH1 0x20 DUP3 ADD SWAP1 POP PUSH2 0xCF4 PUSH0 DUP4 ADD DUP5 PUSH2 0x9D1 JUMP JUMPDEST SWAP3 SWAP2 POP POP JUMP JUMPDEST PUSH0 DUP1 PUSH0 DUP1 PUSH0 PUSH1 0xA0 DUP7 DUP9 SUB SLT ISZERO PUSH2 0xD13 JUMPI PUSH2 0xD12 PUSH2 0x96B JUMP JUMPDEST JUMPDEST PUSH0 PUSH2 0xD20 DUP9 DUP3 DUP10 ADD PUSH2 0x992 JUMP JUMPDEST SWAP6 POP POP PUSH1 0x20 DUP7 ADD CALLDATALOAD PUSH8 0xFFFFFFFFFFFFFFFF DUP2 GT ISZERO PUSH2 0xD41 JUMPI PUSH2 0xD40 PUSH2 0x96F JUMP JUMPDEST JUMPDEST PUSH2 0xD4D DUP9 DUP3 DUP10 ADD PUSH2 0xBC3 JUMP JUMPDEST SWAP5 POP POP PUSH1 0x40 PUSH2 0xD5E DUP9 DUP3 DUP10 ADD PUSH2 0x992 JUMP JUMPDEST SWAP4 POP POP PUSH1 0x60 PUSH2 0xD6F DUP9 DUP3 DUP10 ADD PUSH2 0x992 JUMP JUMPDEST SWAP3 POP POP PUSH1 0x80 DUP7 ADD CALLDATALOAD PUSH8 0xFFFFFFFFFFFFFFFF DUP2 GT ISZERO PUSH2 0xD90 JUMPI PUSH2 0xD8F PUSH2 0x96F JUMP JUMPDEST JUMPDEST PUSH2 0xD9C DUP9 DUP3 DUP10 ADD PUSH2 0xBC3 JUMP JUMPDEST SWAP2 POP POP SWAP3 SWAP6 POP SWAP3 SWAP6 SWAP1 SWAP4 POP JUMP JUMPDEST PUSH32 0x4E487B7100000000000000000000000000000000000000000000000000000000 PUSH0 MSTORE PUSH1 0x22 PUSH1 0x4 MSTORE PUSH1 0x24 PUSH0 REVERT JUMPDEST PUSH0 PUSH1 0x2 DUP3 DIV SWAP1 POP PUSH1 0x1 DUP3 AND DUP1 PUSH2 0xDED JUMPI PUSH1 0x7F DUP3 AND SWAP2 POP JUMPDEST PUSH1 0x20 DUP3 LT DUP2 SUB PUSH2 0xE00 JUMPI PUSH2 0xDFF PUSH2 0xDA9 JUMP JUMPDEST JUMPDEST POP SWAP2 SWAP1 POP JUMP JUMPDEST PUSH32 0x536869706D656E7420646F6573206E6F74206578697374000000000000000000 PUSH0 DUP3 ADD MSTORE POP JUMP JUMPDEST PUSH0 PUSH2 0xE3A PUSH1 0x17 DUP4 PUSH2 0x9EA JUMP JUMPDEST SWAP2 POP PUSH2 0xE45 DUP3 PUSH2 0xE06 JUMP JUMPDEST PUSH1 0x20 DUP3 ADD SWAP1 POP SWAP2 SWAP1 POP JUMP JUMPDEST PUSH0 PUSH1 0x20 DUP3 ADD SWAP1 POP DUP2 DUP2 SUB PUSH0 DUP4 ADD MSTORE PUSH2 0xE67 DUP2 PUSH2 0xE2E JUMP JUMPDEST SWAP1 POP SWAP2 SWAP1 POP JUMP JUMPDEST PUSH32 0x536869706D656E7420616C726561647920657869737473000000000000000000 PUSH0 DUP3 ADD MSTORE POP JUMP JUMPDEST PUSH0 PUSH2 0xEA2 PUSH1 0x17 DUP4 PUSH2 0x9EA JUMP JUMPDEST SWAP2 POP PUSH2 0xEAD DUP3 PUSH2 0xE6E JUMP JUMPDEST PUSH1 0x20 DUP3 ADD SWAP1 POP SWAP2 SWAP1 POP JUMP JUMPDEST PUSH0 PUSH1 0x20 DUP3 ADD SWAP1 POP DUP2 DUP2 SUB PUSH0 DUP4 ADD MSTORE PUSH2 0xECF DUP2 PUSH2 0xE96 JUMP JUMPDEST SWAP1 POP SWAP2 SWAP1 POP JUMP JUMPDEST PUSH0 DUP2 SWAP1 POP DUP2 PUSH0 MSTORE PUSH1 0x20 PUSH0 KECCAK256 SWAP1 POP SWAP2 SWAP1 POP JUMP JUMPDEST PUSH0 PUSH1 0x20 PUSH1 0x1F DUP4 ADD DIV SWAP1 POP SWAP2 SWAP1 POP JUMP JUMPDEST PUSH0 DUP3 DUP3 SHL SWAP1 POP SWAP3 SWAP2 POP POP JUMP JUMPDEST PUSH0 PUSH1 0x8 DUP4 MUL PUSH2 0xF32 PUSH32 0xFFFFFFFFFFFFFFFFFFFFFFFFFFFFFFFFFFFFFFFFFFFFFFFFFFFFFFFFFFFFFFFF DUP3 PUSH2 0xEF7 JUMP JUMPDEST PUSH2 0xF3C DUP7 DUP4 PUSH2 0xEF7 JUMP JUMPDEST SWAP6 POP DUP1 NOT DUP5 AND SWAP4 POP DUP1 DUP7 AND DUP5 OR SWAP3 POP POP POP SWAP4 SWAP3 POP POP POP JUMP JUMPDEST PUSH0 DUP2 SWAP1 POP SWAP2 SWAP1 POP JUMP JUMPDEST PUSH0 PUSH2 0xF77 PUSH2 0xF72 PUSH2 0xF6D DUP5 PUSH2 0x973 JUMP JUMPDEST PUSH2 0xF54 JUMP JUMPDEST PUSH2 0x973 JUMP JUMPDEST SWAP1 POP SWAP2 SWAP1 POP JUMP JUMPDEST PUSH0 DUP2 SWAP1 POP SWAP2 SWAP1 POP JUMP JUMPDEST PUSH2 0xF90 DUP4 PUSH2 0xF5D JUMP JUMPDEST PUSH2 0xFA4 PUSH2 0xF9C DUP3 PUSH2 0xF7E JUMP JUMPDEST DUP5 DUP5 SLOAD PUSH2 0xF03 JUMP JUMPDEST DUP3 SSTORE POP POP POP POP JUMP JUMPDEST PUSH0 SWAP1 JUMP JUMPDEST PUSH2 0xFB8 PUSH2 0xFAC JUMP JUMPDEST PUSH2 0xFC3 DUP2 DUP5 DUP5 PUSH2 0xF87 JUMP JUMPDEST POP POP POP JUMP JUMPDEST JUMPDEST DUP2 DUP2 LT ISZERO PUSH2 0xFE6 JUMPI PUSH2 0xFDB PUSH0 DUP3 PUSH2 0xFB0 JUMP JUMPDEST PUSH1 0x1 DUP2 ADD SWAP1 POP PUSH2 0xFC9 JUMP JUMPDEST POP POP JUMP JUMPDEST PUSH1 0x1F DUP3 GT ISZERO PUSH2 0x102B JUMPI PUSH2 0xFFC DUP2 PUSH2 0xED6 JUMP JUMPDEST PUSH2 0x1005 DUP5 PUSH2 0xEE8 JUMP JUMPDEST DUP2 ADD PUSH1 0x20 DUP6 LT ISZERO PUSH2 0x1014 JUMPI DUP2 SWAP1 POP JUMPDEST PUSH2 0x1028 PUSH2 0x1020 DUP6 PUSH2 0xEE8 JUMP JUMPDEST DUP4 ADD DUP3 PUSH2 0xFC8 JUMP JUMPDEST POP POP JUMPDEST POP POP POP JUMP JUMPDEST PUSH0 DUP3 DUP3 SHR SWAP1 POP SWAP3 SWAP2 POP POP JUMP JUMPDEST PUSH0 PUSH2 0x104B PUSH0 NOT DUP5 PUSH1 0x8 MUL PUSH2 0x1030 JUMP JUMPDEST NOT DUP1 DUP4 AND SWAP2 POP POP SWAP3 SWAP2 POP POP JUMP JUMPDEST PUSH0 PUSH2 0x1063 DUP4 DUP4 PUSH2 0x103C JUMP JUMPDEST SWAP2 POP DUP3 PUSH1 0x2 MUL DUP3 OR SWAP1 POP SWAP3 SWAP2 POP POP JUMP JUMPDEST PUSH2 0x107C DUP3 PUSH2 0x9E0 JUMP JUMPDEST PUSH8 0xFFFFFFFFFFFFFFFF DUP2 GT ISZERO PUSH2 0x1095 JUMPI PUSH2 0x1094 PUSH2 0xACC JUMP JUMPDEST JUMPDEST PUSH2 0x109F DUP3 SLOAD PUSH2 0xDD6 JUMP JUMPDEST PUSH2 0x10AA DUP3 DUP3 DUP6 PUSH2 0xFEA JUMP JUMPDEST PUSH0 PUSH1 0x20 SWAP1 POP PUSH1 0x1F DUP4 GT PUSH1 0x1 DUP2 EQ PUSH2 0x10DB JUMPI PUSH0 DUP5 ISZERO PUSH2 0x10C9 JUMPI DUP3 DUP8 ADD MLOAD SWAP1 POP JUMPDEST PUSH2 0x10D3 DUP6 DUP3 PUSH2 0x1058 JUMP JUMPDEST DUP7 SSTORE POP PUSH2 0x113A JUMP JUMPDEST PUSH1 0x1F NOT DUP5 AND PUSH2 0x10E9 DUP7 PUSH2 0xED6 JUMP JUMPDEST PUSH0 JUMPDEST DUP3 DUP2 LT ISZERO PUSH2 0x1110 JUMPI DUP5 DUP10 ADD MLOAD DUP3 SSTORE PUSH1 0x1 DUP3 ADD SWAP2 POP PUSH1 0x20 DUP6 ADD SWAP5 POP PUSH1 0x20 DUP2 ADD SWAP1 POP PUSH2 0x10EB JUMP JUMPDEST DUP7 DUP4 LT ISZERO PUSH2 0x112D JUMPI DUP5 DUP10 ADD MLOAD PUSH2 0x1129 PUSH1 0x1F DUP10 AND DUP3 PUSH2 0x103C JUMP JUMPDEST DUP4 SSTORE POP JUMPDEST PUSH1 0x1 PUSH1 0x2 DUP9 MUL ADD DUP9 SSTORE POP POP POP JUMPDEST POP POP POP POP POP POP JUMP JUMPDEST PUSH32 0x4E487B7100000000000000000000000000000000000000000000000000000000 PUSH0 MSTORE PUSH1 0x11 PUSH1 0x4 MSTORE PUSH1 0x24 PUSH0 REVERT JUMPDEST PUSH0 PUSH2 0x1179 DUP3 PUSH2 0x973 JUMP JUMPDEST SWAP2 POP PUSH32 0xFFFFFFFFFFFFFFFFFFFFFFFFFFFFFFFFFFFFFFFFFFFFFFFFFFFFFFFFFFFFFFFF DUP3 SUB PUSH2 0x11AB JUMPI PUSH2 0x11AA PUSH2 0x1142 JUMP JUMPDEST JUMPDEST PUSH1 0x1 DUP3 ADD SWAP1 POP SWAP2 SWAP1 POP JUMP JUMPDEST PUSH0 PUSH1 0xA0 DUP3 ADD SWAP1 POP DUP2 DUP2 SUB PUSH0 DUP4 ADD MSTORE PUSH2 0x11CE DUP2 DUP9 PUSH2 0xA18 JUMP JUMPDEST SWAP1 POP DUP2 DUP2 SUB PUSH1 0x20 DUP4 ADD MSTORE PUSH2 0x11E2 DUP2 DUP8 PUSH2 0xA18 JUMP JUMPDEST SWAP1 POP PUSH2 0x11F1 PUSH1 0x40 DUP4 ADD DUP7 PUSH2 0x9D1 JUMP JUMPDEST PUSH2 0x11FE PUSH1 0x60 DUP4 ADD DUP6 PUSH2 0x9D1 JUMP JUMPDEST DUP2 DUP2 SUB PUSH1 0x80 DUP4 ADD MSTORE PUSH2 0x1210 DUP2 DUP5 PUSH2 0xA18 JUMP JUMPDEST SWAP1 POP SWAP7 SWAP6 POP POP POP POP POP POP JUMP JUMPDEST PUSH0 PUSH2 0x1226 DUP3 PUSH2 0x973 JUMP JUMPDEST SWAP2 POP PUSH0 DUP3 SUB PUSH2 0x1238 JUMPI PUSH2 0x1237 PUSH2 0x1142 JUMP JUMPDEST JUMPDEST PUSH1 0x1 DUP3 SUB SWAP1 POP SWAP2 SWAP1 POP JUMP JUMPDEST PUSH0 PUSH1 0x80 DUP3 ADD SWAP1 POP DUP2 DUP2 SUB PUSH0 DUP4 ADD MSTORE PUSH2 0x125B DUP2 DUP8 PUSH2 0xA18 JUMP JUMPDEST SWAP1 POP PUSH2 0x126A PUSH1 0x20 DUP4 ADD DUP7 PUSH2 0x9D1 JUMP JUMPDEST PUSH2 0x1277 PUSH1 0x40 DUP4 ADD DUP6 PUSH2 0x9D1 JUMP JUMPDEST DUP2 DUP2 SUB PUSH1 0x60 DUP4 ADD MSTORE PUSH2 0x1289 DUP2 DUP5 PUSH2 0xA18 JUMP JUMPDEST SWAP1 POP SWAP6 SWAP5 POP POP POP POP POP JUMP INVALID LOG2 PUSH5 0x6970667358 0x22 SLT KECCAK256 0xF9 PUSH0 EQ 0xD4 MSTORE8 PUSH14 0x62B1274786B696CFE04FB016756D SWAP8 0xFC MLOAD 0xBE 0x22 PUSH17 0x2B91CC71F4C364736F6C634300081A0033 "
				},
				"gasEstimates": {
					"creation": {
						"codeDepositCost": "962000",
						"executionCost": "6004",
						"totalCost": "968004"
					},
					"external": {
						"addShipment(uint256,uint256,string,string,uint256,uint256,string)": "infinite",
						"getShipment(uint256)": "infinite",
						"removeShipment(uint256)": "infinite",
						"shipmentCount()": "2491",
						"shipments(uint256)": "infinite",
						"updateShipment(uint256,string,uint256,uint256,string)": "infinite"
					}
				},
				"methodIdentifiers": {
					"addShipment(uint256,uint256,string,string,uint256,uint256,string)": "317d9fca",
					"getShipment(uint256)": "092b3740",
					"removeShipment(uint256)": "959f9272",
					"shipmentCount()": "aace20b7",
					"shipments(uint256)": "2ac08a93",
					"updateShipment(uint256,string,uint256,uint256,string)": "f8186d37"
				}
			},
			"storageLayout": {
				"storage": [
					{
						"astId": 19,
						"contract": ".deps/contracts/ShippingManagement.sol:ShippingManagement",
						"label": "shipments",
						"offset": 0,
						"slot": "0",
						"type": "t_mapping(t_uint256,t_struct(Shipping)14_storage)"
					},
					{
						"astId": 22,
						"contract": ".deps/contracts/ShippingManagement.sol:ShippingManagement",
						"label": "shipmentCount",
						"offset": 0,
						"slot": "1",
						"type": "t_uint256"
					}
				],
				"types": {
					"t_mapping(t_uint256,t_struct(Shipping)14_storage)": {
						"encoding": "mapping",
						"key": "t_uint256",
						"label": "mapping(uint256 => struct ShippingManagement.Shipping)",
						"numberOfBytes": "32",
						"value": "t_struct(Shipping)14_storage"
					},
					"t_string_storage": {
						"encoding": "bytes",
						"label": "string",
						"numberOfBytes": "32"
					},
					"t_struct(Shipping)14_storage": {
						"encoding": "inplace",
						"label": "struct ShippingManagement.Shipping",
						"members": [
							{
								"astId": 3,
								"contract": ".deps/contracts/ShippingManagement.sol:ShippingManagement",
								"label": "productId",
								"offset": 0,
								"slot": "0",
								"type": "t_uint256"
							},
							{
								"astId": 5,
								"contract": ".deps/contracts/ShippingManagement.sol:ShippingManagement",
								"label": "origin",
								"offset": 0,
								"slot": "1",
								"type": "t_string_storage"
							},
							{
								"astId": 7,
								"contract": ".deps/contracts/ShippingManagement.sol:ShippingManagement",
								"label": "destination",
								"offset": 0,
								"slot": "2",
								"type": "t_string_storage"
							},
							{
								"astId": 9,
								"contract": ".deps/contracts/ShippingManagement.sol:ShippingManagement",
								"label": "departureDate",
								"offset": 0,
								"slot": "3",
								"type": "t_uint256"
							},
							{
								"astId": 11,
								"contract": ".deps/contracts/ShippingManagement.sol:ShippingManagement",
								"label": "expectedArrivalDate",
								"offset": 0,
								"slot": "4",
								"type": "t_uint256"
							},
							{
								"astId": 13,
								"contract": ".deps/contracts/ShippingManagement.sol:ShippingManagement",
								"label": "status",
								"offset": 0,
								"slot": "5",
								"type": "t_string_storage"
							}
						],
						"numberOfBytes": "192"
					},
					"t_uint256": {
						"encoding": "inplace",
						"label": "uint256",
						"numberOfBytes": "32"
					}
				}
			},
			"userdoc": {
				"kind": "user",
				"methods": {},
				"version": 1
			}
		}
	}
}