{
	"data": {
		"bytecode": {
			"linkReferences": {
				"remix_tests.sol": {
					"Assert": [
						{
							"length": 20,
							"start": 625
						},
						{
							"length": 20,
							"start": 1373
						},
						{
							"length": 20,
							"start": 1494
						},
						{
							"length": 20,
							"start": 1615
						},
						{
							"length": 20,
							"start": 1736
						},
						{
							"length": 20,
							"start": 1857
						},
						{
							"length": 20,
							"start": 1978
						},
						{
							"length": 20,
							"start": 2578
						},
						{
							"length": 20,
							"start": 2699
						},
						{
							"length": 20,
							"start": 2820
						},
						{
							"length": 20,
							"start": 2941
						},
						{
							"length": 20,
							"start": 3594
						},
						{
							"length": 20,
							"start": 3715
						},
						{
							"length": 20,
							"start": 3836
						},
						{
							"length": 20,
							"start": 3957
						},
						{
							"length": 20,
							"start": 4078
						},
						{
							"length": 20,
							"start": 4199
						}
					]
				}
			},
			"object": "6080604052348015600e575f80fd5b506132068061001c5f395ff3fe608060405234801561000f575f80fd5b5060043610610060575f3560e01c80632c23ac5c146100645780637fea0d4b1461006e578063a15c6e7014610078578063e64f471714610082578063ecd8f5b91461008c578063f6716cd614610096575b5f80fd5b61006c6100b4565b005b6100766102d0565b005b610080610336565b005b61008a610824565b005b610094610be3565b005b61009e6110d1565b6040516100ab9190611189565b60405180910390f35b5f600190505f8054906101000a900473ffffffffffffffffffffffffffffffffffffffff1673ffffffffffffffffffffffffffffffffffffffff1663959f9272826040518263ffffffff1660e01b81526004016101119190611189565b5f604051808303815f87803b158015610128575f80fd5b505af115801561013a573d5f803e3d5ffd5b505050505f805f9054906101000a900473ffffffffffffffffffffffffffffffffffffffff1673ffffffffffffffffffffffffffffffffffffffff16826040516024016101879190611189565b6040516020818303038152906040527f092b3740000000000000000000000000000000000000000000000000000000007bffffffffffffffffffffffffffffffffffffffffffffffffffffffff19166020820180517bffffffffffffffffffffffffffffffffffffffffffffffffffffffff838183161783525050505060405161021191906111f4565b5f604051808303815f865af19150503d805f811461024a576040519150601f19603f3d011682016040523d82523d5f602084013e61024f565b606091505b5050905073__$acbfb1c35000d78352310b16a054a6b106$__63767392b3825f6040518363ffffffff1660e01b815260040161028c92919061127e565b602060405180830381865af41580156102a7573d5f803e3d5ffd5b505050506040513d601f19601f820116820180604052508101906102cb91906112f3565b505050565b6040516102dc90611164565b604051809103905ff0801580156102f5573d5f803e3d5ffd5b505f806101000a81548173ffffffffffffffffffffffffffffffffffffffff021916908373ffffffffffffffffffffffffffffffffffffffff160217905550565b5f600190505f6103e990505f6040518060400160405280600c81526020017f4d616e756661637475726572000000000000000000000000000000000000000081525090505f6040518060400160405280600b81526020017f57617265686f757365204100000000000000000000000000000000000000000081525090505f4290505f62093a80426103c7919061134b565b90505f6040518060400160405280600a81526020017f496e207472616e7369740000000000000000000000000000000000000000000081525090505f8054906101000a900473ffffffffffffffffffffffffffffffffffffffff1673ffffffffffffffffffffffffffffffffffffffff1663317d9fca888888888888886040518863ffffffff1660e01b815260040161046697969594939291906113e0565b5f604051808303815f87803b15801561047d575f80fd5b505af115801561048f573d5f803e3d5ffd5b505050505f805f805f805f8054906101000a900473ffffffffffffffffffffffffffffffffffffffff1673ffffffffffffffffffffffffffffffffffffffff1663092b37408e6040518263ffffffff1660e01b81526004016104f19190611189565b5f60405180830381865afa15801561050b573d5f803e3d5ffd5b505050506040513d5f823e3d601f19601f8201168201806040525081019061053391906115aa565b95509550955095509550955073__$acbfb1c35000d78352310b16a054a6b106$__63abcd7960878e6040518363ffffffff1660e01b81526004016105789291906116e0565b602060405180830381865af4158015610593573d5f803e3d5ffd5b505050506040513d601f19601f820116820180604052508101906105b791906112f3565b5073__$acbfb1c35000d78352310b16a054a6b106$__63e8c2cb16868d6040518363ffffffff1660e01b81526004016105f192919061179c565b602060405180830381865af415801561060c573d5f803e3d5ffd5b505050506040513d601f19601f8201168201806040525081019061063091906112f3565b5073__$acbfb1c35000d78352310b16a054a6b106$__63e8c2cb16858c6040518363ffffffff1660e01b815260040161066a929190611854565b602060405180830381865af4158015610685573d5f803e3d5ffd5b505050506040513d601f19601f820116820180604052508101906106a991906112f3565b5073__$acbfb1c35000d78352310b16a054a6b106$__63abcd7960848b6040518363ffffffff1660e01b81526004016106e39291906118e6565b602060405180830381865af41580156106fe573d5f803e3d5ffd5b505050506040513d601f19601f8201168201806040525081019061072291906112f3565b5073__$acbfb1c35000d78352310b16a054a6b106$__63abcd7960838a6040518363ffffffff1660e01b815260040161075c929190611990565b602060405180830381865af4158015610777573d5f803e3d5ffd5b505050506040513d601f19601f8201168201806040525081019061079b91906112f3565b5073__$acbfb1c35000d78352310b16a054a6b106$__63e8c2cb1682896040518363ffffffff1660e01b81526004016107d5929190611a14565b602060405180830381865af41580156107f0573d5f803e3d5ffd5b505050506040513d601f19601f8201168201806040525081019061081491906112f3565b5050505050505050505050505050565b5f600190505f6040518060400160405280600f81526020017f4c6f6769737469632043656e746572000000000000000000000000000000000081525090505f6201518042610872919061134b565b90505f620a8c0042610884919061134b565b90505f6040518060400160405280600781526020017f44656c617965640000000000000000000000000000000000000000000000000081525090505f8054906101000a900473ffffffffffffffffffffffffffffffffffffffff1673ffffffffffffffffffffffffffffffffffffffff1663f8186d3786868686866040518663ffffffff1660e01b815260040161091f959493929190611a5c565b5f604051808303815f87803b158015610936575f80fd5b505af1158015610948573d5f803e3d5ffd5b505050505f805f805f8054906101000a900473ffffffffffffffffffffffffffffffffffffffff1673ffffffffffffffffffffffffffffffffffffffff1663092b37408a6040518263ffffffff1660e01b81526004016109a89190611189565b5f60405180830381865afa1580156109c2573d5f803e3d5ffd5b505050506040513d5f823e3d601f19601f820116820180604052508101906109ea91906115aa565b9550955095509550505073__$acbfb1c35000d78352310b16a054a6b106$__63e8c2cb16858a6040518363ffffffff1660e01b8152600401610a2d929190611b2b565b602060405180830381865af4158015610a48573d5f803e3d5ffd5b505050506040513d601f19601f82011682018060405250810190610a6c91906112f3565b5073__$acbfb1c35000d78352310b16a054a6b106$__63abcd796084896040518363ffffffff1660e01b8152600401610aa6929190611be3565b602060405180830381865af4158015610ac1573d5f803e3d5ffd5b505050506040513d601f19601f82011682018060405250810190610ae591906112f3565b5073__$acbfb1c35000d78352310b16a054a6b106$__63abcd796083886040518363ffffffff1660e01b8152600401610b1f929190611c8d565b602060405180830381865af4158015610b3a573d5f803e3d5ffd5b505050506040513d601f19601f82011682018060405250810190610b5e91906112f3565b5073__$acbfb1c35000d78352310b16a054a6b106$__63e8c2cb1682876040518363ffffffff1660e01b8152600401610b98929190611d37565b602060405180830381865af4158015610bb3573d5f803e3d5ffd5b505050506040513d601f19601f82011682018060405250810190610bd791906112f3565b50505050505050505050565b5f600390505f6103f790505f6040518060400160405280600c81526020017f4d616e756661637475726572000000000000000000000000000000000000000081525090505f6040518060400160405280600b81526020017f57617265686f757365204200000000000000000000000000000000000000000081525090505f4290505f62093a8042610c74919061134b565b90505f6040518060400160405280600f81526020017f496e20436f6e737472756374696f6e000000000000000000000000000000000081525090505f8054906101000a900473ffffffffffffffffffffffffffffffffffffffff1673ffffffffffffffffffffffffffffffffffffffff1663317d9fca888888888888886040518863ffffffff1660e01b8152600401610d1397969594939291906113e0565b5f604051808303815f87803b158015610d2a575f80fd5b505af1158015610d3c573d5f803e3d5ffd5b505050505f805f805f805f8054906101000a900473ffffffffffffffffffffffffffffffffffffffff1673ffffffffffffffffffffffffffffffffffffffff1663092b37408e6040518263ffffffff1660e01b8152600401610d9e9190611189565b5f60405180830381865afa158015610db8573d5f803e3d5ffd5b505050506040513d5f823e3d601f19601f82011682018060405250810190610de091906115aa565b95509550955095509550955073__$acbfb1c35000d78352310b16a054a6b106$__63abcd7960878e6040518363ffffffff1660e01b8152600401610e25929190611dc9565b602060405180830381865af4158015610e40573d5f803e3d5ffd5b505050506040513d601f19601f82011682018060405250810190610e6491906112f3565b5073__$acbfb1c35000d78352310b16a054a6b106$__63e8c2cb16868d6040518363ffffffff1660e01b8152600401610e9e92919061179c565b602060405180830381865af4158015610eb9573d5f803e3d5ffd5b505050506040513d601f19601f82011682018060405250810190610edd91906112f3565b5073__$acbfb1c35000d78352310b16a054a6b106$__63e8c2cb16858c6040518363ffffffff1660e01b8152600401610f17929190611e73565b602060405180830381865af4158015610f32573d5f803e3d5ffd5b505050506040513d601f19601f82011682018060405250810190610f5691906112f3565b5073__$acbfb1c35000d78352310b16a054a6b106$__63abcd7960848b6040518363ffffffff1660e01b8152600401610f909291906118e6565b602060405180830381865af4158015610fab573d5f803e3d5ffd5b505050506040513d601f19601f82011682018060405250810190610fcf91906112f3565b5073__$acbfb1c35000d78352310b16a054a6b106$__63abcd7960838a6040518363ffffffff1660e01b8152600401611009929190611990565b602060405180830381865af4158015611024573d5f803e3d5ffd5b505050506040513d601f19601f8201168201806040525081019061104891906112f3565b5073__$acbfb1c35000d78352310b16a054a6b106$__63e8c2cb1682896040518363ffffffff1660e01b8152600401611082929190611a14565b602060405180830381865af415801561109d573d5f803e3d5ffd5b505050506040513d601f19601f820116820180604052508101906110c191906112f3565b5050505050505050505050505050565b5f805f9054906101000a900473ffffffffffffffffffffffffffffffffffffffff1673ffffffffffffffffffffffffffffffffffffffff1663aace20b76040518163ffffffff1660e01b8152600401602060405180830381865afa15801561113b573d5f803e3d5ffd5b505050506040513d601f19601f8201168201806040525081019061115f9190611ebb565b905090565b6112ea80611ee783390190565b5f819050919050565b61118381611171565b82525050565b5f60208201905061119c5f83018461117a565b92915050565b5f81519050919050565b5f81905092915050565b8281835e5f83830152505050565b5f6111ce826111a2565b6111d881856111ac565b93506111e88185602086016111b6565b80840191505092915050565b5f6111ff82846111c4565b915081905092915050565b5f8115159050919050565b61121e8161120a565b82525050565b5f82825260208201905092915050565b7f45787065637465642072657665727420646964206e6f74206f636375720000005f82015250565b5f611268601d83611224565b915061127382611234565b602082019050919050565b5f6060820190506112915f830185611215565b61129e6020830184611215565b81810360408301526112af8161125c565b90509392505050565b5f604051905090565b5f80fd5b5f80fd5b6112d28161120a565b81146112dc575f80fd5b50565b5f815190506112ed816112c9565b92915050565b5f60208284031215611308576113076112c1565b5b5f611315848285016112df565b91505092915050565b7f4e487b71000000000000000000000000000000000000000000000000000000005f52601160045260245ffd5b5f61135582611171565b915061136083611171565b92508282019050808211156113785761137761131e565b5b92915050565b5f81519050919050565b5f82825260208201905092915050565b5f601f19601f8301169050919050565b5f6113b28261137e565b6113bc8185611388565b93506113cc8185602086016111b6565b6113d581611398565b840191505092915050565b5f60e0820190506113f35f83018a61117a565b611400602083018961117a565b818103604083015261141281886113a8565b9050818103606083015261142681876113a8565b9050611435608083018661117a565b61144260a083018561117a565b81810360c083015261145481846113a8565b905098975050505050505050565b61146b81611171565b8114611475575f80fd5b50565b5f8151905061148681611462565b92915050565b5f80fd5b5f80fd5b7f4e487b71000000000000000000000000000000000000000000000000000000005f52604160045260245ffd5b6114ca82611398565b810181811067ffffffffffffffff821117156114e9576114e8611494565b5b80604052505050565b5f6114fb6112b8565b905061150782826114c1565b919050565b5f67ffffffffffffffff82111561152657611525611494565b5b61152f82611398565b9050602081019050919050565b5f61154e6115498461150c565b6114f2565b90508281526020810184848401111561156a57611569611490565b5b6115758482856111b6565b509392505050565b5f82601f8301126115915761159061148c565b5b81516115a184826020860161153c565b91505092915050565b5f805f805f8060c087890312156115c4576115c36112c1565b5b5f6115d189828a01611478565b965050602087015167ffffffffffffffff8111156115f2576115f16112c5565b5b6115fe89828a0161157d565b955050604087015167ffffffffffffffff81111561161f5761161e6112c5565b5b61162b89828a0161157d565b945050606061163c89828a01611478565b935050608061164d89828a01611478565b92505060a087015167ffffffffffffffff81111561166e5761166d6112c5565b5b61167a89828a0161157d565b9150509295509295509295565b61169081611171565b82525050565b7f50726f647563742049442073686f756c642062652031303031000000000000005f82015250565b5f6116ca601983611224565b91506116d582611696565b602082019050919050565b5f6060820190506116f35f830185611687565b6117006020830184611687565b8181036040830152611711816116be565b90509392505050565b5f6117248261137e565b61172e8185611224565b935061173e8185602086016111b6565b61174781611398565b840191505092915050565b7f4f726967696e2073686f756c6420626520274d616e75666163747572657227005f82015250565b5f611786601f83611224565b915061179182611752565b602082019050919050565b5f6060820190508181035f8301526117b4818561171a565b905081810360208301526117c8818461171a565b905081810360408301526117db8161177a565b90509392505050565b7f44657374696e6174696f6e2073686f756c64206265202757617265686f7573655f8201527f2041270000000000000000000000000000000000000000000000000000000000602082015250565b5f61183e602383611224565b9150611849826117e4565b604082019050919050565b5f6060820190508181035f83015261186c818561171a565b90508181036020830152611880818461171a565b9050818103604083015261189381611832565b90509392505050565b7f44657061727475726520646174652073686f756c64206d6174636800000000005f82015250565b5f6118d0601b83611224565b91506118db8261189c565b602082019050919050565b5f6060820190506118f95f830185611687565b6119066020830184611687565b8181036040830152611917816118c4565b90509392505050565b7f4578706563746564206172726976616c20646174652073686f756c64206d61745f8201527f6368000000000000000000000000000000000000000000000000000000000000602082015250565b5f61197a602283611224565b915061198582611920565b604082019050919050565b5f6060820190506119a35f830185611687565b6119b06020830184611687565b81810360408301526119c18161196e565b90509392505050565b7f5374617475732073686f756c642062652027496e207472616e736974270000005f82015250565b5f6119fe601d83611224565b9150611a09826119ca565b602082019050919050565b5f6060820190508181035f830152611a2c818561171a565b90508181036020830152611a40818461171a565b90508181036040830152611a53816119f2565b90509392505050565b5f60a082019050611a6f5f83018861117a565b8181036020830152611a8181876113a8565b9050611a90604083018661117a565b611a9d606083018561117a565b8181036080830152611aaf81846113a8565b90509695505050505050565b7f557064617465642064657374696e6174696f6e2073686f756c6420626520274c5f8201527f6f6769737469632043656e746572270000000000000000000000000000000000602082015250565b5f611b15602f83611224565b9150611b2082611abb565b604082019050919050565b5f6060820190508181035f830152611b43818561171a565b90508181036020830152611b57818461171a565b90508181036040830152611b6a81611b09565b90509392505050565b7f557064617465642064657061727475726520646174652073686f756c64206d615f8201527f7463680000000000000000000000000000000000000000000000000000000000602082015250565b5f611bcd602383611224565b9150611bd882611b73565b604082019050919050565b5f606082019050611bf65f830185611687565b611c036020830184611687565b8181036040830152611c1481611bc1565b90509392505050565b7f55706461746564206578706563746564206172726976616c20646174652073685f8201527f6f756c64206d6174636800000000000000000000000000000000000000000000602082015250565b5f611c77602a83611224565b9150611c8282611c1d565b604082019050919050565b5f606082019050611ca05f830185611687565b611cad6020830184611687565b8181036040830152611cbe81611c6b565b90509392505050565b7f55706461746564207374617475732073686f756c64206265202744656c6179655f8201527f6427000000000000000000000000000000000000000000000000000000000000602082015250565b5f611d21602283611224565b9150611d2c82611cc7565b604082019050919050565b5f6060820190508181035f830152611d4f818561171a565b90508181036020830152611d63818461171a565b90508181036040830152611d7681611d15565b90509392505050565b7f50726f647563742049442073686f756c642062652031303135000000000000005f82015250565b5f611db3601983611224565b9150611dbe82611d7f565b602082019050919050565b5f606082019050611ddc5f830185611687565b611de96020830184611687565b8181036040830152611dfa81611da7565b90509392505050565b7f44657374696e6174696f6e2073686f756c64206265202757617265686f7573655f8201527f2042270000000000000000000000000000000000000000000000000000000000602082015250565b5f611e5d602383611224565b9150611e6882611e03565b604082019050919050565b5f6060820190508181035f830152611e8b818561171a565b90508181036020830152611e9f818461171a565b90508181036040830152611eb281611e51565b90509392505050565b5f60208284031215611ed057611ecf6112c1565b5b5f611edd84828501611478565b9150509291505056fe60806040525f6001553480156012575f80fd5b506112ca806100205f395ff3fe608060405234801561000f575f80fd5b5060043610610060575f3560e01c8063092b3740146100645780632ac08a9314610099578063317d9fca146100ce578063959f9272146100ea578063aace20b714610106578063f8186d3714610124575b5f80fd5b61007e600480360381019061007991906109a6565b610140565b60405161009096959493929190610a50565b60405180910390f35b6100b360048036038101906100ae91906109a6565b6103c7565b6040516100c596959493929190610a50565b60405180910390f35b6100e860048036038101906100e39190610bf0565b610590565b005b61010460048036038101906100ff91906109a6565b6106f0565b005b61010e6107ec565b60405161011b9190610ce1565b60405180910390f35b61013e60048036038101906101399190610cfa565b6107f2565b005b5f6060805f8060605f805f8981526020019081526020015f20600101805461016790610dd6565b9050036101a9576040517f08c379a00000000000000000000000000000000000000000000000000000000081526004016101a090610e50565b60405180910390fd5b5f805f8981526020019081526020015f206040518060c00160405290815f82015481526020016001820180546101de90610dd6565b80601f016020809104026020016040519081016040528092919081815260200182805461020a90610dd6565b80156102555780601f1061022c57610100808354040283529160200191610255565b820191905f5260205f20905b81548152906001019060200180831161023857829003601f168201915b5050505050815260200160028201805461026e90610dd6565b80601f016020809104026020016040519081016040528092919081815260200182805461029a90610dd6565b80156102e55780601f106102bc576101008083540402835291602001916102e5565b820191905f5260205f20905b8154815290600101906020018083116102c857829003601f168201915b50505050508152602001600382015481526020016004820154815260200160058201805461031290610dd6565b80601f016020809104026020016040519081016040528092919081815260200182805461033e90610dd6565b80156103895780601f1061036057610100808354040283529160200191610389565b820191905f5260205f20905b81548152906001019060200180831161036c57829003601f168201915b5050505050815250509050805f015181602001518260400151836060015184608001518560a001519650965096509650965096505091939550919395565b5f602052805f5260405f205f91509050805f0154908060010180546103eb90610dd6565b80601f016020809104026020016040519081016040528092919081815260200182805461041790610dd6565b80156104625780601f1061043957610100808354040283529160200191610462565b820191905f5260205f20905b81548152906001019060200180831161044557829003601f168201915b50505050509080600201805461047790610dd6565b80601f01602080910402602001604051908101604052809291908181526020018280546104a390610dd6565b80156104ee5780601f106104c5576101008083540402835291602001916104ee565b820191905f5260205f20905b8154815290600101906020018083116104d157829003601f168201915b50505050509080600301549080600401549080600501805461050f90610dd6565b80601f016020809104026020016040519081016040528092919081815260200182805461053b90610dd6565b80156105865780601f1061055d57610100808354040283529160200191610586565b820191905f5260205f20905b81548152906001019060200180831161056957829003601f168201915b5050505050905086565b5f805f8981526020019081526020015f2060010180546105af90610dd6565b9050146105f1576040517f08c379a00000000000000000000000000000000000000000000000000000000081526004016105e890610eb8565b60405180910390fd5b6040518060c00160405280878152602001868152602001858152602001848152602001838152602001828152505f808981526020019081526020015f205f820151815f0155602082015181600101908161064b9190611073565b5060408201518160020190816106619190611073565b50606082015181600301556080820151816004015560a082015181600501908161068b9190611073565b5090505060015f8154809291906106a19061116f565b919050555085877f601a0e875ddfe57cad229d8e1b980ddc2211aad2010439670036cea9b1b014d087878787876040516106df9594939291906111b6565b60405180910390a350505050505050565b5f805f8381526020019081526020015f20600101805461070f90610dd6565b905003610751576040517f08c379a000000000000000000000000000000000000000000000000000000000815260040161074890610e50565b60405180910390fd5b5f808281526020019081526020015f205f8082015f9055600182015f610777919061090a565b600282015f610786919061090a565b600382015f9055600482015f9055600582015f6107a3919061090a565b505060015f8154809291906107b79061121c565b9190505550807f66c891e51efb5e3de78f960a0177f968c9e0866811cde856de366b3c1c295eb560405160405180910390a250565b60015481565b5f805f8781526020019081526020015f20600101805461081190610dd6565b905003610853576040517f08c379a000000000000000000000000000000000000000000000000000000000815260040161084a90610e50565b60405180910390fd5b835f808781526020019081526020015f2060020190816108739190611073565b50825f808781526020019081526020015f2060030181905550815f808781526020019081526020015f2060040181905550805f808781526020019081526020015f2060050190816108c49190611073565b50847facaaac77c8bae53d1026541e4970309b3ca003985a8ad181de65203d9d2f7224858585856040516108fb9493929190611243565b60405180910390a25050505050565b50805461091690610dd6565b5f825580601f106109275750610944565b601f0160209004905f5260205f20908101906109439190610947565b5b50565b5b8082111561095e575f815f905550600101610948565b5090565b5f604051905090565b5f80fd5b5f80fd5b5f819050919050565b61098581610973565b811461098f575f80fd5b50565b5f813590506109a08161097c565b92915050565b5f602082840312156109bb576109ba61096b565b5b5f6109c884828501610992565b91505092915050565b6109da81610973565b82525050565b5f81519050919050565b5f82825260208201905092915050565b8281835e5f83830152505050565b5f601f19601f8301169050919050565b5f610a22826109e0565b610a2c81856109ea565b9350610a3c8185602086016109fa565b610a4581610a08565b840191505092915050565b5f60c082019050610a635f8301896109d1565b8181036020830152610a758188610a18565b90508181036040830152610a898187610a18565b9050610a9860608301866109d1565b610aa560808301856109d1565b81810360a0830152610ab78184610a18565b9050979650505050505050565b5f80fd5b5f80fd5b7f4e487b71000000000000000000000000000000000000000000000000000000005f52604160045260245ffd5b610b0282610a08565b810181811067ffffffffffffffff82111715610b2157610b20610acc565b5b80604052505050565b5f610b33610962565b9050610b3f8282610af9565b919050565b5f67ffffffffffffffff821115610b5e57610b5d610acc565b5b610b6782610a08565b9050602081019050919050565b828183375f83830152505050565b5f610b94610b8f84610b44565b610b2a565b905082815260208101848484011115610bb057610baf610ac8565b5b610bbb848285610b74565b509392505050565b5f82601f830112610bd757610bd6610ac4565b5b8135610be7848260208601610b82565b91505092915050565b5f805f805f805f60e0888a031215610c0b57610c0a61096b565b5b5f610c188a828b01610992565b9750506020610c298a828b01610992565b965050604088013567ffffffffffffffff811115610c4a57610c4961096f565b5b610c568a828b01610bc3565b955050606088013567ffffffffffffffff811115610c7757610c7661096f565b5b610c838a828b01610bc3565b9450506080610c948a828b01610992565b93505060a0610ca58a828b01610992565b92505060c088013567ffffffffffffffff811115610cc657610cc561096f565b5b610cd28a828b01610bc3565b91505092959891949750929550565b5f602082019050610cf45f8301846109d1565b92915050565b5f805f805f60a08688031215610d1357610d1261096b565b5b5f610d2088828901610992565b955050602086013567ffffffffffffffff811115610d4157610d4061096f565b5b610d4d88828901610bc3565b9450506040610d5e88828901610992565b9350506060610d6f88828901610992565b925050608086013567ffffffffffffffff811115610d9057610d8f61096f565b5b610d9c88828901610bc3565b9150509295509295909350565b7f4e487b71000000000000000000000000000000000000000000000000000000005f52602260045260245ffd5b5f6002820490506001821680610ded57607f821691505b602082108103610e0057610dff610da9565b5b50919050565b7f536869706d656e7420646f6573206e6f742065786973740000000000000000005f82015250565b5f610e3a6017836109ea565b9150610e4582610e06565b602082019050919050565b5f6020820190508181035f830152610e6781610e2e565b9050919050565b7f536869706d656e7420616c7265616479206578697374730000000000000000005f82015250565b5f610ea26017836109ea565b9150610ead82610e6e565b602082019050919050565b5f6020820190508181035f830152610ecf81610e96565b9050919050565b5f819050815f5260205f209050919050565b5f6020601f8301049050919050565b5f82821b905092915050565b5f60088302610f327fffffffffffffffffffffffffffffffffffffffffffffffffffffffffffffffff82610ef7565b610f3c8683610ef7565b95508019841693508086168417925050509392505050565b5f819050919050565b5f610f77610f72610f6d84610973565b610f54565b610973565b9050919050565b5f819050919050565b610f9083610f5d565b610fa4610f9c82610f7e565b848454610f03565b825550505050565b5f90565b610fb8610fac565b610fc3818484610f87565b505050565b5b81811015610fe657610fdb5f82610fb0565b600181019050610fc9565b5050565b601f82111561102b57610ffc81610ed6565b61100584610ee8565b81016020851015611014578190505b61102861102085610ee8565b830182610fc8565b50505b505050565b5f82821c905092915050565b5f61104b5f1984600802611030565b1980831691505092915050565b5f611063838361103c565b9150826002028217905092915050565b61107c826109e0565b67ffffffffffffffff81111561109557611094610acc565b5b61109f8254610dd6565b6110aa828285610fea565b5f60209050601f8311600181146110db575f84156110c9578287015190505b6110d38582611058565b86555061113a565b601f1984166110e986610ed6565b5f5b82811015611110578489015182556001820191506020850194506020810190506110eb565b8683101561112d5784890151611129601f89168261103c565b8355505b6001600288020188555050505b505050505050565b7f4e487b71000000000000000000000000000000000000000000000000000000005f52601160045260245ffd5b5f61117982610973565b91507fffffffffffffffffffffffffffffffffffffffffffffffffffffffffffffffff82036111ab576111aa611142565b5b600182019050919050565b5f60a0820190508181035f8301526111ce8188610a18565b905081810360208301526111e28187610a18565b90506111f160408301866109d1565b6111fe60608301856109d1565b81810360808301526112108184610a18565b90509695505050505050565b5f61122682610973565b91505f820361123857611237611142565b5b600182039050919050565b5f6080820190508181035f83015261125b8187610a18565b905061126a60208301866109d1565b61127760408301856109d1565b81810360608301526112898184610a18565b90509594505050505056fea2646970667358221220f95f14d4536d62b1274786b696cfe04fb016756d97fc51be22702b91cc71f4c364736f6c634300081a0033a26469706673582212202719df262fcc38131c7a2d8b558a99727e49cbfcd941a669321a3701cbcb11ae64736f6c634300081a0033",
			"opcodes": "PUSH1 0x80 PUSH1 0x40 MSTORE CALLVALUE DUP1 ISZERO PUSH1 0xE JUMPI PUSH0 DUP1 REVERT JUMPDEST POP PUSH2 0x3206 DUP1 PUSH2 0x1C PUSH0 CODECOPY PUSH0 RETURN INVALID PUSH1 0x80 PUSH1 0x40 MSTORE CALLVALUE DUP1 ISZERO PUSH2 0xF JUMPI PUSH0 DUP1 REVERT JUMPDEST POP PUSH1 0x4 CALLDATASIZE LT PUSH2 0x60 JUMPI PUSH0 CALLDATALOAD PUSH1 0xE0 SHR DUP1 PUSH4 0x2C23AC5C EQ PUSH2 0x64 JUMPI DUP1 PUSH4 0x7FEA0D4B EQ PUSH2 0x6E JUMPI DUP1 PUSH4 0xA15C6E70 EQ PUSH2 0x78 JUMPI DUP1 PUSH4 0xE64F4717 EQ PUSH2 0x82 JUMPI DUP1 PUSH4 0xECD8F5B9 EQ PUSH2 0x8C JUMPI DUP1 PUSH4 0xF6716CD6 EQ PUSH2 0x96 JUMPI JUMPDEST PUSH0 DUP1 REVERT JUMPDEST PUSH2 0x6C PUSH2 0xB4 JUMP JUMPDEST STOP JUMPDEST PUSH2 0x76 PUSH2 0x2D0 JUMP JUMPDEST STOP JUMPDEST PUSH2 0x80 PUSH2 0x336 JUMP JUMPDEST STOP JUMPDEST PUSH2 0x8A PUSH2 0x824 JUMP JUMPDEST STOP JUMPDEST PUSH2 0x94 PUSH2 0xBE3 JUMP JUMPDEST STOP JUMPDEST PUSH2 0x9E PUSH2 0x10D1 JUMP JUMPDEST PUSH1 0x40 MLOAD PUSH2 0xAB SWAP2 SWAP1 PUSH2 0x1189 JUMP JUMPDEST PUSH1 0x40 MLOAD DUP1 SWAP2 SUB SWAP1 RETURN JUMPDEST PUSH0 PUSH1 0x1 SWAP1 POP PUSH0 DUP1 SLOAD SWAP1 PUSH2 0x100 EXP SWAP1 DIV PUSH20 0xFFFFFFFFFFFFFFFFFFFFFFFFFFFFFFFFFFFFFFFF AND PUSH20 0xFFFFFFFFFFFFFFFFFFFFFFFFFFFFFFFFFFFFFFFF AND PUSH4 0x959F9272 DUP3 PUSH1 0x40 MLOAD DUP3 PUSH4 0xFFFFFFFF AND PUSH1 0xE0 SHL DUP2 MSTORE PUSH1 0x4 ADD PUSH2 0x111 SWAP2 SWAP1 PUSH2 0x1189 JUMP JUMPDEST PUSH0 PUSH1 0x40 MLOAD DUP1 DUP4 SUB DUP2 PUSH0 DUP8 DUP1 EXTCODESIZE ISZERO DUP1 ISZERO PUSH2 0x128 JUMPI PUSH0 DUP1 REVERT JUMPDEST POP GAS CALL ISZERO DUP1 ISZERO PUSH2 0x13A JUMPI RETURNDATASIZE PUSH0 DUP1 RETURNDATACOPY RETURNDATASIZE PUSH0 REVERT JUMPDEST POP POP POP POP PUSH0 DUP1 PUSH0 SWAP1 SLOAD SWAP1 PUSH2 0x100 EXP SWAP1 DIV PUSH20 0xFFFFFFFFFFFFFFFFFFFFFFFFFFFFFFFFFFFFFFFF AND PUSH20 0xFFFFFFFFFFFFFFFFFFFFFFFFFFFFFFFFFFFFFFFF AND DUP3 PUSH1 0x40 MLOAD PUSH1 0x24 ADD PUSH2 0x187 SWAP2 SWAP1 PUSH2 0x1189 JUMP JUMPDEST PUSH1 0x40 MLOAD PUSH1 0x20 DUP2 DUP4 SUB SUB DUP2 MSTORE SWAP1 PUSH1 0x40 MSTORE PUSH32 0x92B374000000000000000000000000000000000000000000000000000000000 PUSH28 0xFFFFFFFFFFFFFFFFFFFFFFFFFFFFFFFFFFFFFFFFFFFFFFFFFFFFFFFF NOT AND PUSH1 0x20 DUP3 ADD DUP1 MLOAD PUSH28 0xFFFFFFFFFFFFFFFFFFFFFFFFFFFFFFFFFFFFFFFFFFFFFFFFFFFFFFFF DUP4 DUP2 DUP4 AND OR DUP4 MSTORE POP POP POP POP PUSH1 0x40 MLOAD PUSH2 0x211 SWAP2 SWAP1 PUSH2 0x11F4 JUMP JUMPDEST PUSH0 PUSH1 0x40 MLOAD DUP1 DUP4 SUB DUP2 PUSH0 DUP7 GAS CALL SWAP2 POP POP RETURNDATASIZE DUP1 PUSH0 DUP2 EQ PUSH2 0x24A JUMPI PUSH1 0x40 MLOAD SWAP2 POP PUSH1 0x1F NOT PUSH1 0x3F RETURNDATASIZE ADD AND DUP3 ADD PUSH1 0x40 MSTORE RETURNDATASIZE DUP3 MSTORE RETURNDATASIZE PUSH0 PUSH1 0x20 DUP5 ADD RETURNDATACOPY PUSH2 0x24F JUMP JUMPDEST PUSH1 0x60 SWAP2 POP JUMPDEST POP POP SWAP1 POP PUSH20 0x0 PUSH4 0x767392B3 DUP3 PUSH0 PUSH1 0x40 MLOAD DUP4 PUSH4 0xFFFFFFFF AND PUSH1 0xE0 SHL DUP2 MSTORE PUSH1 0x4 ADD PUSH2 0x28C SWAP3 SWAP2 SWAP1 PUSH2 0x127E JUMP JUMPDEST PUSH1 0x20 PUSH1 0x40 MLOAD DUP1 DUP4 SUB DUP2 DUP7 GAS DELEGATECALL ISZERO DUP1 ISZERO PUSH2 0x2A7 JUMPI RETURNDATASIZE PUSH0 DUP1 RETURNDATACOPY RETURNDATASIZE PUSH0 REVERT JUMPDEST POP POP POP POP PUSH1 0x40 MLOAD RETURNDATASIZE PUSH1 0x1F NOT PUSH1 0x1F DUP3 ADD AND DUP3 ADD DUP1 PUSH1 0x40 MSTORE POP DUP2 ADD SWAP1 PUSH2 0x2CB SWAP2 SWAP1 PUSH2 0x12F3 JUMP JUMPDEST POP POP POP JUMP JUMPDEST PUSH1 0x40 MLOAD PUSH2 0x2DC SWAP1 PUSH2 0x1164 JUMP JUMPDEST PUSH1 0x40 MLOAD DUP1 SWAP2 SUB SWAP1 PUSH0 CREATE DUP1 ISZERO DUP1 ISZERO PUSH2 0x2F5 JUMPI RETURNDATASIZE PUSH0 DUP1 RETURNDATACOPY RETURNDATASIZE PUSH0 REVERT JUMPDEST POP PUSH0 DUP1 PUSH2 0x100 EXP DUP2 SLOAD DUP2 PUSH20 0xFFFFFFFFFFFFFFFFFFFFFFFFFFFFFFFFFFFFFFFF MUL NOT AND SWAP1 DUP4 PUSH20 0xFFFFFFFFFFFFFFFFFFFFFFFFFFFFFFFFFFFFFFFF AND MUL OR SWAP1 SSTORE POP JUMP JUMPDEST PUSH0 PUSH1 0x1 SWAP1 POP PUSH0 PUSH2 0x3E9 SWAP1 POP PUSH0 PUSH1 0x40 MLOAD DUP1 PUSH1 0x40 ADD PUSH1 0x40 MSTORE DUP1 PUSH1 0xC DUP2 MSTORE PUSH1 0x20 ADD PUSH32 0x4D616E7566616374757265720000000000000000000000000000000000000000 DUP2 MSTORE POP SWAP1 POP PUSH0 PUSH1 0x40 MLOAD DUP1 PUSH1 0x40 ADD PUSH1 0x40 MSTORE DUP1 PUSH1 0xB DUP2 MSTORE PUSH1 0x20 ADD PUSH32 0x57617265686F7573652041000000000000000000000000000000000000000000 DUP2 MSTORE POP SWAP1 POP PUSH0 TIMESTAMP SWAP1 POP PUSH0 PUSH3 0x93A80 TIMESTAMP PUSH2 0x3C7 SWAP2 SWAP1 PUSH2 0x134B JUMP JUMPDEST SWAP1 POP PUSH0 PUSH1 0x40 MLOAD DUP1 PUSH1 0x40 ADD PUSH1 0x40 MSTORE DUP1 PUSH1 0xA DUP2 MSTORE PUSH1 0x20 ADD PUSH32 0x496E207472616E73697400000000000000000000000000000000000000000000 DUP2 MSTORE POP SWAP1 POP PUSH0 DUP1 SLOAD SWAP1 PUSH2 0x100 EXP SWAP1 DIV PUSH20 0xFFFFFFFFFFFFFFFFFFFFFFFFFFFFFFFFFFFFFFFF AND PUSH20 0xFFFFFFFFFFFFFFFFFFFFFFFFFFFFFFFFFFFFFFFF AND PUSH4 0x317D9FCA DUP9 DUP9 DUP9 DUP9 DUP9 DUP9 DUP9 PUSH1 0x40 MLOAD DUP9 PUSH4 0xFFFFFFFF AND PUSH1 0xE0 SHL DUP2 MSTORE PUSH1 0x4 ADD PUSH2 0x466 SWAP8 SWAP7 SWAP6 SWAP5 SWAP4 SWAP3 SWAP2 SWAP1 PUSH2 0x13E0 JUMP JUMPDEST PUSH0 PUSH1 0x40 MLOAD DUP1 DUP4 SUB DUP2 PUSH0 DUP8 DUP1 EXTCODESIZE ISZERO DUP1 ISZERO PUSH2 0x47D JUMPI PUSH0 DUP1 REVERT JUMPDEST POP GAS CALL ISZERO DUP1 ISZERO PUSH2 0x48F JUMPI RETURNDATASIZE PUSH0 DUP1 RETURNDATACOPY RETURNDATASIZE PUSH0 REVERT JUMPDEST POP POP POP POP PUSH0 DUP1 PUSH0 DUP1 PUSH0 DUP1 PUSH0 DUP1 SLOAD SWAP1 PUSH2 0x100 EXP SWAP1 DIV PUSH20 0xFFFFFFFFFFFFFFFFFFFFFFFFFFFFFFFFFFFFFFFF AND PUSH20 0xFFFFFFFFFFFFFFFFFFFFFFFFFFFFFFFFFFFFFFFF AND PUSH4 0x92B3740 DUP15 PUSH1 0x40 MLOAD DUP3 PUSH4 0xFFFFFFFF AND PUSH1 0xE0 SHL DUP2 MSTORE PUSH1 0x4 ADD PUSH2 0x4F1 SWAP2 SWAP1 PUSH2 0x1189 JUMP JUMPDEST PUSH0 PUSH1 0x40 MLOAD DUP1 DUP4 SUB DUP2 DUP7 GAS STATICCALL ISZERO DUP1 ISZERO PUSH2 0x50B JUMPI RETURNDATASIZE PUSH0 DUP1 RETURNDATACOPY RETURNDATASIZE PUSH0 REVERT JUMPDEST POP POP POP POP PUSH1 0x40 MLOAD RETURNDATASIZE PUSH0 DUP3 RETURNDATACOPY RETURNDATASIZE PUSH1 0x1F NOT PUSH1 0x1F DUP3 ADD AND DUP3 ADD DUP1 PUSH1 0x40 MSTORE POP DUP2 ADD SWAP1 PUSH2 0x533 SWAP2 SWAP1 PUSH2 0x15AA JUMP JUMPDEST SWAP6 POP SWAP6 POP SWAP6 POP SWAP6 POP SWAP6 POP SWAP6 POP PUSH20 0x0 PUSH4 0xABCD7960 DUP8 DUP15 PUSH1 0x40 MLOAD DUP4 PUSH4 0xFFFFFFFF AND PUSH1 0xE0 SHL DUP2 MSTORE PUSH1 0x4 ADD PUSH2 0x578 SWAP3 SWAP2 SWAP1 PUSH2 0x16E0 JUMP JUMPDEST PUSH1 0x20 PUSH1 0x40 MLOAD DUP1 DUP4 SUB DUP2 DUP7 GAS DELEGATECALL ISZERO DUP1 ISZERO PUSH2 0x593 JUMPI RETURNDATASIZE PUSH0 DUP1 RETURNDATACOPY RETURNDATASIZE PUSH0 REVERT JUMPDEST POP POP POP POP PUSH1 0x40 MLOAD RETURNDATASIZE PUSH1 0x1F NOT PUSH1 0x1F DUP3 ADD AND DUP3 ADD DUP1 PUSH1 0x40 MSTORE POP DUP2 ADD SWAP1 PUSH2 0x5B7 SWAP2 SWAP1 PUSH2 0x12F3 JUMP JUMPDEST POP PUSH20 0x0 PUSH4 0xE8C2CB16 DUP7 DUP14 PUSH1 0x40 MLOAD DUP4 PUSH4 0xFFFFFFFF AND PUSH1 0xE0 SHL DUP2 MSTORE PUSH1 0x4 ADD PUSH2 0x5F1 SWAP3 SWAP2 SWAP1 PUSH2 0x179C JUMP JUMPDEST PUSH1 0x20 PUSH1 0x40 MLOAD DUP1 DUP4 SUB DUP2 DUP7 GAS DELEGATECALL ISZERO DUP1 ISZERO PUSH2 0x60C JUMPI RETURNDATASIZE PUSH0 DUP1 RETURNDATACOPY RETURNDATASIZE PUSH0 REVERT JUMPDEST POP POP POP POP PUSH1 0x40 MLOAD RETURNDATASIZE PUSH1 0x1F NOT PUSH1 0x1F DUP3 ADD AND DUP3 ADD DUP1 PUSH1 0x40 MSTORE POP DUP2 ADD SWAP1 PUSH2 0x630 SWAP2 SWAP1 PUSH2 0x12F3 JUMP JUMPDEST POP PUSH20 0x0 PUSH4 0xE8C2CB16 DUP6 DUP13 PUSH1 0x40 MLOAD DUP4 PUSH4 0xFFFFFFFF AND PUSH1 0xE0 SHL DUP2 MSTORE PUSH1 0x4 ADD PUSH2 0x66A SWAP3 SWAP2 SWAP1 PUSH2 0x1854 JUMP JUMPDEST PUSH1 0x20 PUSH1 0x40 MLOAD DUP1 DUP4 SUB DUP2 DUP7 GAS DELEGATECALL ISZERO DUP1 ISZERO PUSH2 0x685 JUMPI RETURNDATASIZE PUSH0 DUP1 RETURNDATACOPY RETURNDATASIZE PUSH0 REVERT JUMPDEST POP POP POP POP PUSH1 0x40 MLOAD RETURNDATASIZE PUSH1 0x1F NOT PUSH1 0x1F DUP3 ADD AND DUP3 ADD DUP1 PUSH1 0x40 MSTORE POP DUP2 ADD SWAP1 PUSH2 0x6A9 SWAP2 SWAP1 PUSH2 0x12F3 JUMP JUMPDEST POP PUSH20 0x0 PUSH4 0xABCD7960 DUP5 DUP12 PUSH1 0x40 MLOAD DUP4 PUSH4 0xFFFFFFFF AND PUSH1 0xE0 SHL DUP2 MSTORE PUSH1 0x4 ADD PUSH2 0x6E3 SWAP3 SWAP2 SWAP1 PUSH2 0x18E6 JUMP JUMPDEST PUSH1 0x20 PUSH1 0x40 MLOAD DUP1 DUP4 SUB DUP2 DUP7 GAS DELEGATECALL ISZERO DUP1 ISZERO PUSH2 0x6FE JUMPI RETURNDATASIZE PUSH0 DUP1 RETURNDATACOPY RETURNDATASIZE PUSH0 REVERT JUMPDEST POP POP POP POP PUSH1 0x40 MLOAD RETURNDATASIZE PUSH1 0x1F NOT PUSH1 0x1F DUP3 ADD AND DUP3 ADD DUP1 PUSH1 0x40 MSTORE POP DUP2 ADD SWAP1 PUSH2 0x722 SWAP2 SWAP1 PUSH2 0x12F3 JUMP JUMPDEST POP PUSH20 0x0 PUSH4 0xABCD7960 DUP4 DUP11 PUSH1 0x40 MLOAD DUP4 PUSH4 0xFFFFFFFF AND PUSH1 0xE0 SHL DUP2 MSTORE PUSH1 0x4 ADD PUSH2 0x75C SWAP3 SWAP2 SWAP1 PUSH2 0x1990 JUMP JUMPDEST PUSH1 0x20 PUSH1 0x40 MLOAD DUP1 DUP4 SUB DUP2 DUP7 GAS DELEGATECALL ISZERO DUP1 ISZERO PUSH2 0x777 JUMPI RETURNDATASIZE PUSH0 DUP1 RETURNDATACOPY RETURNDATASIZE PUSH0 REVERT JUMPDEST POP POP POP POP PUSH1 0x40 MLOAD RETURNDATASIZE PUSH1 0x1F NOT PUSH1 0x1F DUP3 ADD AND DUP3 ADD DUP1 PUSH1 0x40 MSTORE POP DUP2 ADD SWAP1 PUSH2 0x79B SWAP2 SWAP1 PUSH2 0x12F3 JUMP JUMPDEST POP PUSH20 0x0 PUSH4 0xE8C2CB16 DUP3 DUP10 PUSH1 0x40 MLOAD DUP4 PUSH4 0xFFFFFFFF AND PUSH1 0xE0 SHL DUP2 MSTORE PUSH1 0x4 ADD PUSH2 0x7D5 SWAP3 SWAP2 SWAP1 PUSH2 0x1A14 JUMP JUMPDEST PUSH1 0x20 PUSH1 0x40 MLOAD DUP1 DUP4 SUB DUP2 DUP7 GAS DELEGATECALL ISZERO DUP1 ISZERO PUSH2 0x7F0 JUMPI RETURNDATASIZE PUSH0 DUP1 RETURNDATACOPY RETURNDATASIZE PUSH0 REVERT JUMPDEST POP POP POP POP PUSH1 0x40 MLOAD RETURNDATASIZE PUSH1 0x1F NOT PUSH1 0x1F DUP3 ADD AND DUP3 ADD DUP1 PUSH1 0x40 MSTORE POP DUP2 ADD SWAP1 PUSH2 0x814 SWAP2 SWAP1 PUSH2 0x12F3 JUMP JUMPDEST POP POP POP POP POP POP POP POP POP POP POP POP POP POP JUMP JUMPDEST PUSH0 PUSH1 0x1 SWAP1 POP PUSH0 PUSH1 0x40 MLOAD DUP1 PUSH1 0x40 ADD PUSH1 0x40 MSTORE DUP1 PUSH1 0xF DUP2 MSTORE PUSH1 0x20 ADD PUSH32 0x4C6F6769737469632043656E7465720000000000000000000000000000000000 DUP2 MSTORE POP SWAP1 POP PUSH0 PUSH3 0x15180 TIMESTAMP PUSH2 0x872 SWAP2 SWAP1 PUSH2 0x134B JUMP JUMPDEST SWAP1 POP PUSH0 PUSH3 0xA8C00 TIMESTAMP PUSH2 0x884 SWAP2 SWAP1 PUSH2 0x134B JUMP JUMPDEST SWAP1 POP PUSH0 PUSH1 0x40 MLOAD DUP1 PUSH1 0x40 ADD PUSH1 0x40 MSTORE DUP1 PUSH1 0x7 DUP2 MSTORE PUSH1 0x20 ADD PUSH32 0x44656C6179656400000000000000000000000000000000000000000000000000 DUP2 MSTORE POP SWAP1 POP PUSH0 DUP1 SLOAD SWAP1 PUSH2 0x100 EXP SWAP1 DIV PUSH20 0xFFFFFFFFFFFFFFFFFFFFFFFFFFFFFFFFFFFFFFFF AND PUSH20 0xFFFFFFFFFFFFFFFFFFFFFFFFFFFFFFFFFFFFFFFF AND PUSH4 0xF8186D37 DUP7 DUP7 DUP7 DUP7 DUP7 PUSH1 0x40 MLOAD DUP7 PUSH4 0xFFFFFFFF AND PUSH1 0xE0 SHL DUP2 MSTORE PUSH1 0x4 ADD PUSH2 0x91F SWAP6 SWAP5 SWAP4 SWAP3 SWAP2 SWAP1 PUSH2 0x1A5C JUMP JUMPDEST PUSH0 PUSH1 0x40 MLOAD DUP1 DUP4 SUB DUP2 PUSH0 DUP8 DUP1 EXTCODESIZE ISZERO DUP1 ISZERO PUSH2 0x936 JUMPI PUSH0 DUP1 REVERT JUMPDEST POP GAS CALL ISZERO DUP1 ISZERO PUSH2 0x948 JUMPI RETURNDATASIZE PUSH0 DUP1 RETURNDATACOPY RETURNDATASIZE PUSH0 REVERT JUMPDEST POP POP POP POP PUSH0 DUP1 PUSH0 DUP1 PUSH0 DUP1 SLOAD SWAP1 PUSH2 0x100 EXP SWAP1 DIV PUSH20 0xFFFFFFFFFFFFFFFFFFFFFFFFFFFFFFFFFFFFFFFF AND PUSH20 0xFFFFFFFFFFFFFFFFFFFFFFFFFFFFFFFFFFFFFFFF AND PUSH4 0x92B3740 DUP11 PUSH1 0x40 MLOAD DUP3 PUSH4 0xFFFFFFFF AND PUSH1 0xE0 SHL DUP2 MSTORE PUSH1 0x4 ADD PUSH2 0x9A8 SWAP2 SWAP1 PUSH2 0x1189 JUMP JUMPDEST PUSH0 PUSH1 0x40 MLOAD DUP1 DUP4 SUB DUP2 DUP7 GAS STATICCALL ISZERO DUP1 ISZERO PUSH2 0x9C2 JUMPI RETURNDATASIZE PUSH0 DUP1 RETURNDATACOPY RETURNDATASIZE PUSH0 REVERT JUMPDEST POP POP POP POP PUSH1 0x40 MLOAD RETURNDATASIZE PUSH0 DUP3 RETURNDATACOPY RETURNDATASIZE PUSH1 0x1F NOT PUSH1 0x1F DUP3 ADD AND DUP3 ADD DUP1 PUSH1 0x40 MSTORE POP DUP2 ADD SWAP1 PUSH2 0x9EA SWAP2 SWAP1 PUSH2 0x15AA JUMP JUMPDEST SWAP6 POP SWAP6 POP SWAP6 POP SWAP6 POP POP POP PUSH20 0x0 PUSH4 0xE8C2CB16 DUP6 DUP11 PUSH1 0x40 MLOAD DUP4 PUSH4 0xFFFFFFFF AND PUSH1 0xE0 SHL DUP2 MSTORE PUSH1 0x4 ADD PUSH2 0xA2D SWAP3 SWAP2 SWAP1 PUSH2 0x1B2B JUMP JUMPDEST PUSH1 0x20 PUSH1 0x40 MLOAD DUP1 DUP4 SUB DUP2 DUP7 GAS DELEGATECALL ISZERO DUP1 ISZERO PUSH2 0xA48 JUMPI RETURNDATASIZE PUSH0 DUP1 RETURNDATACOPY RETURNDATASIZE PUSH0 REVERT JUMPDEST POP POP POP POP PUSH1 0x40 MLOAD RETURNDATASIZE PUSH1 0x1F NOT PUSH1 0x1F DUP3 ADD AND DUP3 ADD DUP1 PUSH1 0x40 MSTORE POP DUP2 ADD SWAP1 PUSH2 0xA6C SWAP2 SWAP1 PUSH2 0x12F3 JUMP JUMPDEST POP PUSH20 0x0 PUSH4 0xABCD7960 DUP5 DUP10 PUSH1 0x40 MLOAD DUP4 PUSH4 0xFFFFFFFF AND PUSH1 0xE0 SHL DUP2 MSTORE PUSH1 0x4 ADD PUSH2 0xAA6 SWAP3 SWAP2 SWAP1 PUSH2 0x1BE3 JUMP JUMPDEST PUSH1 0x20 PUSH1 0x40 MLOAD DUP1 DUP4 SUB DUP2 DUP7 GAS DELEGATECALL ISZERO DUP1 ISZERO PUSH2 0xAC1 JUMPI RETURNDATASIZE PUSH0 DUP1 RETURNDATACOPY RETURNDATASIZE PUSH0 REVERT JUMPDEST POP POP POP POP PUSH1 0x40 MLOAD RETURNDATASIZE PUSH1 0x1F NOT PUSH1 0x1F DUP3 ADD AND DUP3 ADD DUP1 PUSH1 0x40 MSTORE POP DUP2 ADD SWAP1 PUSH2 0xAE5 SWAP2 SWAP1 PUSH2 0x12F3 JUMP JUMPDEST POP PUSH20 0x0 PUSH4 0xABCD7960 DUP4 DUP9 PUSH1 0x40 MLOAD DUP4 PUSH4 0xFFFFFFFF AND PUSH1 0xE0 SHL DUP2 MSTORE PUSH1 0x4 ADD PUSH2 0xB1F SWAP3 SWAP2 SWAP1 PUSH2 0x1C8D JUMP JUMPDEST PUSH1 0x20 PUSH1 0x40 MLOAD DUP1 DUP4 SUB DUP2 DUP7 GAS DELEGATECALL ISZERO DUP1 ISZERO PUSH2 0xB3A JUMPI RETURNDATASIZE PUSH0 DUP1 RETURNDATACOPY RETURNDATASIZE PUSH0 REVERT JUMPDEST POP POP POP POP PUSH1 0x40 MLOAD RETURNDATASIZE PUSH1 0x1F NOT PUSH1 0x1F DUP3 ADD AND DUP3 ADD DUP1 PUSH1 0x40 MSTORE POP DUP2 ADD SWAP1 PUSH2 0xB5E SWAP2 SWAP1 PUSH2 0x12F3 JUMP JUMPDEST POP PUSH20 0x0 PUSH4 0xE8C2CB16 DUP3 DUP8 PUSH1 0x40 MLOAD DUP4 PUSH4 0xFFFFFFFF AND PUSH1 0xE0 SHL DUP2 MSTORE PUSH1 0x4 ADD PUSH2 0xB98 SWAP3 SWAP2 SWAP1 PUSH2 0x1D37 JUMP JUMPDEST PUSH1 0x20 PUSH1 0x40 MLOAD DUP1 DUP4 SUB DUP2 DUP7 GAS DELEGATECALL ISZERO DUP1 ISZERO PUSH2 0xBB3 JUMPI RETURNDATASIZE PUSH0 DUP1 RETURNDATACOPY RETURNDATASIZE PUSH0 REVERT JUMPDEST POP POP POP POP PUSH1 0x40 MLOAD RETURNDATASIZE PUSH1 0x1F NOT PUSH1 0x1F DUP3 ADD AND DUP3 ADD DUP1 PUSH1 0x40 MSTORE POP DUP2 ADD SWAP1 PUSH2 0xBD7 SWAP2 SWAP1 PUSH2 0x12F3 JUMP JUMPDEST POP POP POP POP POP POP POP POP POP POP JUMP JUMPDEST PUSH0 PUSH1 0x3 SWAP1 POP PUSH0 PUSH2 0x3F7 SWAP1 POP PUSH0 PUSH1 0x40 MLOAD DUP1 PUSH1 0x40 ADD PUSH1 0x40 MSTORE DUP1 PUSH1 0xC DUP2 MSTORE PUSH1 0x20 ADD PUSH32 0x4D616E7566616374757265720000000000000000000000000000000000000000 DUP2 MSTORE POP SWAP1 POP PUSH0 PUSH1 0x40 MLOAD DUP1 PUSH1 0x40 ADD PUSH1 0x40 MSTORE DUP1 PUSH1 0xB DUP2 MSTORE PUSH1 0x20 ADD PUSH32 0x57617265686F7573652042000000000000000000000000000000000000000000 DUP2 MSTORE POP SWAP1 POP PUSH0 TIMESTAMP SWAP1 POP PUSH0 PUSH3 0x93A80 TIMESTAMP PUSH2 0xC74 SWAP2 SWAP1 PUSH2 0x134B JUMP JUMPDEST SWAP1 POP PUSH0 PUSH1 0x40 MLOAD DUP1 PUSH1 0x40 ADD PUSH1 0x40 MSTORE DUP1 PUSH1 0xF DUP2 MSTORE PUSH1 0x20 ADD PUSH32 0x496E20436F6E737472756374696F6E0000000000000000000000000000000000 DUP2 MSTORE POP SWAP1 POP PUSH0 DUP1 SLOAD SWAP1 PUSH2 0x100 EXP SWAP1 DIV PUSH20 0xFFFFFFFFFFFFFFFFFFFFFFFFFFFFFFFFFFFFFFFF AND PUSH20 0xFFFFFFFFFFFFFFFFFFFFFFFFFFFFFFFFFFFFFFFF AND PUSH4 0x317D9FCA DUP9 DUP9 DUP9 DUP9 DUP9 DUP9 DUP9 PUSH1 0x40 MLOAD DUP9 PUSH4 0xFFFFFFFF AND PUSH1 0xE0 SHL DUP2 MSTORE PUSH1 0x4 ADD PUSH2 0xD13 SWAP8 SWAP7 SWAP6 SWAP5 SWAP4 SWAP3 SWAP2 SWAP1 PUSH2 0x13E0 JUMP JUMPDEST PUSH0 PUSH1 0x40 MLOAD DUP1 DUP4 SUB DUP2 PUSH0 DUP8 DUP1 EXTCODESIZE ISZERO DUP1 ISZERO PUSH2 0xD2A JUMPI PUSH0 DUP1 REVERT JUMPDEST POP GAS CALL ISZERO DUP1 ISZERO PUSH2 0xD3C JUMPI RETURNDATASIZE PUSH0 DUP1 RETURNDATACOPY RETURNDATASIZE PUSH0 REVERT JUMPDEST POP POP POP POP PUSH0 DUP1 PUSH0 DUP1 PUSH0 DUP1 PUSH0 DUP1 SLOAD SWAP1 PUSH2 0x100 EXP SWAP1 DIV PUSH20 0xFFFFFFFFFFFFFFFFFFFFFFFFFFFFFFFFFFFFFFFF AND PUSH20 0xFFFFFFFFFFFFFFFFFFFFFFFFFFFFFFFFFFFFFFFF AND PUSH4 0x92B3740 DUP15 PUSH1 0x40 MLOAD DUP3 PUSH4 0xFFFFFFFF AND PUSH1 0xE0 SHL DUP2 MSTORE PUSH1 0x4 ADD PUSH2 0xD9E SWAP2 SWAP1 PUSH2 0x1189 JUMP JUMPDEST PUSH0 PUSH1 0x40 MLOAD DUP1 DUP4 SUB DUP2 DUP7 GAS STATICCALL ISZERO DUP1 ISZERO PUSH2 0xDB8 JUMPI RETURNDATASIZE PUSH0 DUP1 RETURNDATACOPY RETURNDATASIZE PUSH0 REVERT JUMPDEST POP POP POP POP PUSH1 0x40 MLOAD RETURNDATASIZE PUSH0 DUP3 RETURNDATACOPY RETURNDATASIZE PUSH1 0x1F NOT PUSH1 0x1F DUP3 ADD AND DUP3 ADD DUP1 PUSH1 0x40 MSTORE POP DUP2 ADD SWAP1 PUSH2 0xDE0 SWAP2 SWAP1 PUSH2 0x15AA JUMP JUMPDEST SWAP6 POP SWAP6 POP SWAP6 POP SWAP6 POP SWAP6 POP SWAP6 POP PUSH20 0x0 PUSH4 0xABCD7960 DUP8 DUP15 PUSH1 0x40 MLOAD DUP4 PUSH4 0xFFFFFFFF AND PUSH1 0xE0 SHL DUP2 MSTORE PUSH1 0x4 ADD PUSH2 0xE25 SWAP3 SWAP2 SWAP1 PUSH2 0x1DC9 JUMP JUMPDEST PUSH1 0x20 PUSH1 0x40 MLOAD DUP1 DUP4 SUB DUP2 DUP7 GAS DELEGATECALL ISZERO DUP1 ISZERO PUSH2 0xE40 JUMPI RETURNDATASIZE PUSH0 DUP1 RETURNDATACOPY RETURNDATASIZE PUSH0 REVERT JUMPDEST POP POP POP POP PUSH1 0x40 MLOAD RETURNDATASIZE PUSH1 0x1F NOT PUSH1 0x1F DUP3 ADD AND DUP3 ADD DUP1 PUSH1 0x40 MSTORE POP DUP2 ADD SWAP1 PUSH2 0xE64 SWAP2 SWAP1 PUSH2 0x12F3 JUMP JUMPDEST POP PUSH20 0x0 PUSH4 0xE8C2CB16 DUP7 DUP14 PUSH1 0x40 MLOAD DUP4 PUSH4 0xFFFFFFFF AND PUSH1 0xE0 SHL DUP2 MSTORE PUSH1 0x4 ADD PUSH2 0xE9E SWAP3 SWAP2 SWAP1 PUSH2 0x179C JUMP JUMPDEST PUSH1 0x20 PUSH1 0x40 MLOAD DUP1 DUP4 SUB DUP2 DUP7 GAS DELEGATECALL ISZERO DUP1 ISZERO PUSH2 0xEB9 JUMPI RETURNDATASIZE PUSH0 DUP1 RETURNDATACOPY RETURNDATASIZE PUSH0 REVERT JUMPDEST POP POP POP POP PUSH1 0x40 MLOAD RETURNDATASIZE PUSH1 0x1F NOT PUSH1 0x1F DUP3 ADD AND DUP3 ADD DUP1 PUSH1 0x40 MSTORE POP DUP2 ADD SWAP1 PUSH2 0xEDD SWAP2 SWAP1 PUSH2 0x12F3 JUMP JUMPDEST POP PUSH20 0x0 PUSH4 0xE8C2CB16 DUP6 DUP13 PUSH1 0x40 MLOAD DUP4 PUSH4 0xFFFFFFFF AND PUSH1 0xE0 SHL DUP2 MSTORE PUSH1 0x4 ADD PUSH2 0xF17 SWAP3 SWAP2 SWAP1 PUSH2 0x1E73 JUMP JUMPDEST PUSH1 0x20 PUSH1 0x40 MLOAD DUP1 DUP4 SUB DUP2 DUP7 GAS DELEGATECALL ISZERO DUP1 ISZERO PUSH2 0xF32 JUMPI RETURNDATASIZE PUSH0 DUP1 RETURNDATACOPY RETURNDATASIZE PUSH0 REVERT JUMPDEST POP POP POP POP PUSH1 0x40 MLOAD RETURNDATASIZE PUSH1 0x1F NOT PUSH1 0x1F DUP3 ADD AND DUP3 ADD DUP1 PUSH1 0x40 MSTORE POP DUP2 ADD SWAP1 PUSH2 0xF56 SWAP2 SWAP1 PUSH2 0x12F3 JUMP JUMPDEST POP PUSH20 0x0 PUSH4 0xABCD7960 DUP5 DUP12 PUSH1 0x40 MLOAD DUP4 PUSH4 0xFFFFFFFF AND PUSH1 0xE0 SHL DUP2 MSTORE PUSH1 0x4 ADD PUSH2 0xF90 SWAP3 SWAP2 SWAP1 PUSH2 0x18E6 JUMP JUMPDEST PUSH1 0x20 PUSH1 0x40 MLOAD DUP1 DUP4 SUB DUP2 DUP7 GAS DELEGATECALL ISZERO DUP1 ISZERO PUSH2 0xFAB JUMPI RETURNDATASIZE PUSH0 DUP1 RETURNDATACOPY RETURNDATASIZE PUSH0 REVERT JUMPDEST POP POP POP POP PUSH1 0x40 MLOAD RETURNDATASIZE PUSH1 0x1F NOT PUSH1 0x1F DUP3 ADD AND DUP3 ADD DUP1 PUSH1 0x40 MSTORE POP DUP2 ADD SWAP1 PUSH2 0xFCF SWAP2 SWAP1 PUSH2 0x12F3 JUMP JUMPDEST POP PUSH20 0x0 PUSH4 0xABCD7960 DUP4 DUP11 PUSH1 0x40 MLOAD DUP4 PUSH4 0xFFFFFFFF AND PUSH1 0xE0 SHL DUP2 MSTORE PUSH1 0x4 ADD PUSH2 0x1009 SWAP3 SWAP2 SWAP1 PUSH2 0x1990 JUMP JUMPDEST PUSH1 0x20 PUSH1 0x40 MLOAD DUP1 DUP4 SUB DUP2 DUP7 GAS DELEGATECALL ISZERO DUP1 ISZERO PUSH2 0x1024 JUMPI RETURNDATASIZE PUSH0 DUP1 RETURNDATACOPY RETURNDATASIZE PUSH0 REVERT JUMPDEST POP POP POP POP PUSH1 0x40 MLOAD RETURNDATASIZE PUSH1 0x1F NOT PUSH1 0x1F DUP3 ADD AND DUP3 ADD DUP1 PUSH1 0x40 MSTORE POP DUP2 ADD SWAP1 PUSH2 0x1048 SWAP2 SWAP1 PUSH2 0x12F3 JUMP JUMPDEST POP PUSH20 0x0 PUSH4 0xE8C2CB16 DUP3 DUP10 PUSH1 0x40 MLOAD DUP4 PUSH4 0xFFFFFFFF AND PUSH1 0xE0 SHL DUP2 MSTORE PUSH1 0x4 ADD PUSH2 0x1082 SWAP3 SWAP2 SWAP1 PUSH2 0x1A14 JUMP JUMPDEST PUSH1 0x20 PUSH1 0x40 MLOAD DUP1 DUP4 SUB DUP2 DUP7 GAS DELEGATECALL ISZERO DUP1 ISZERO PUSH2 0x109D JUMPI RETURNDATASIZE PUSH0 DUP1 RETURNDATACOPY RETURNDATASIZE PUSH0 REVERT JUMPDEST POP POP POP POP PUSH1 0x40 MLOAD RETURNDATASIZE PUSH1 0x1F NOT PUSH1 0x1F DUP3 ADD AND DUP3 ADD DUP1 PUSH1 0x40 MSTORE POP DUP2 ADD SWAP1 PUSH2 0x10C1 SWAP2 SWAP1 PUSH2 0x12F3 JUMP JUMPDEST POP POP POP POP POP POP POP POP POP POP POP POP POP POP JUMP JUMPDEST PUSH0 DUP1 PUSH0 SWAP1 SLOAD SWAP1 PUSH2 0x100 EXP SWAP1 DIV PUSH20 0xFFFFFFFFFFFFFFFFFFFFFFFFFFFFFFFFFFFFFFFF AND PUSH20 0xFFFFFFFFFFFFFFFFFFFFFFFFFFFFFFFFFFFFFFFF AND PUSH4 0xAACE20B7 PUSH1 0x40 MLOAD DUP2 PUSH4 0xFFFFFFFF AND PUSH1 0xE0 SHL DUP2 MSTORE PUSH1 0x4 ADD PUSH1 0x20 PUSH1 0x40 MLOAD DUP1 DUP4 SUB DUP2 DUP7 GAS STATICCALL ISZERO DUP1 ISZERO PUSH2 0x113B JUMPI RETURNDATASIZE PUSH0 DUP1 RETURNDATACOPY RETURNDATASIZE PUSH0 REVERT JUMPDEST POP POP POP POP PUSH1 0x40 MLOAD RETURNDATASIZE PUSH1 0x1F NOT PUSH1 0x1F DUP3 ADD AND DUP3 ADD DUP1 PUSH1 0x40 MSTORE POP DUP2 ADD SWAP1 PUSH2 0x115F SWAP2 SWAP1 PUSH2 0x1EBB JUMP JUMPDEST SWAP1 POP SWAP1 JUMP JUMPDEST PUSH2 0x12EA DUP1 PUSH2 0x1EE7 DUP4 CODECOPY ADD SWAP1 JUMP JUMPDEST PUSH0 DUP2 SWAP1 POP SWAP2 SWAP1 POP JUMP JUMPDEST PUSH2 0x1183 DUP2 PUSH2 0x1171 JUMP JUMPDEST DUP3 MSTORE POP POP JUMP JUMPDEST PUSH0 PUSH1 0x20 DUP3 ADD SWAP1 POP PUSH2 0x119C PUSH0 DUP4 ADD DUP5 PUSH2 0x117A JUMP JUMPDEST SWAP3 SWAP2 POP POP JUMP JUMPDEST PUSH0 DUP2 MLOAD SWAP1 POP SWAP2 SWAP1 POP JUMP JUMPDEST PUSH0 DUP2 SWAP1 POP SWAP3 SWAP2 POP POP JUMP JUMPDEST DUP3 DUP2 DUP4 MCOPY PUSH0 DUP4 DUP4 ADD MSTORE POP POP POP JUMP JUMPDEST PUSH0 PUSH2 0x11CE DUP3 PUSH2 0x11A2 JUMP JUMPDEST PUSH2 0x11D8 DUP2 DUP6 PUSH2 0x11AC JUMP JUMPDEST SWAP4 POP PUSH2 0x11E8 DUP2 DUP6 PUSH1 0x20 DUP7 ADD PUSH2 0x11B6 JUMP JUMPDEST DUP1 DUP5 ADD SWAP2 POP POP SWAP3 SWAP2 POP POP JUMP JUMPDEST PUSH0 PUSH2 0x11FF DUP3 DUP5 PUSH2 0x11C4 JUMP JUMPDEST SWAP2 POP DUP2 SWAP1 POP SWAP3 SWAP2 POP POP JUMP JUMPDEST PUSH0 DUP2 ISZERO ISZERO SWAP1 POP SWAP2 SWAP1 POP JUMP JUMPDEST PUSH2 0x121E DUP2 PUSH2 0x120A JUMP JUMPDEST DUP3 MSTORE POP POP JUMP JUMPDEST PUSH0 DUP3 DUP3 MSTORE PUSH1 0x20 DUP3 ADD SWAP1 POP SWAP3 SWAP2 POP POP JUMP JUMPDEST PUSH32 0x45787065637465642072657665727420646964206E6F74206F63637572000000 PUSH0 DUP3 ADD MSTORE POP JUMP JUMPDEST PUSH0 PUSH2 0x1268 PUSH1 0x1D DUP4 PUSH2 0x1224 JUMP JUMPDEST SWAP2 POP PUSH2 0x1273 DUP3 PUSH2 0x1234 JUMP JUMPDEST PUSH1 0x20 DUP3 ADD SWAP1 POP SWAP2 SWAP1 POP JUMP JUMPDEST PUSH0 PUSH1 0x60 DUP3 ADD SWAP1 POP PUSH2 0x1291 PUSH0 DUP4 ADD DUP6 PUSH2 0x1215 JUMP JUMPDEST PUSH2 0x129E PUSH1 0x20 DUP4 ADD DUP5 PUSH2 0x1215 JUMP JUMPDEST DUP2 DUP2 SUB PUSH1 0x40 DUP4 ADD MSTORE PUSH2 0x12AF DUP2 PUSH2 0x125C JUMP JUMPDEST SWAP1 POP SWAP4 SWAP3 POP POP POP JUMP JUMPDEST PUSH0 PUSH1 0x40 MLOAD SWAP1 POP SWAP1 JUMP JUMPDEST PUSH0 DUP1 REVERT JUMPDEST PUSH0 DUP1 REVERT JUMPDEST PUSH2 0x12D2 DUP2 PUSH2 0x120A JUMP JUMPDEST DUP2 EQ PUSH2 0x12DC JUMPI PUSH0 DUP1 REVERT JUMPDEST POP JUMP JUMPDEST PUSH0 DUP2 MLOAD SWAP1 POP PUSH2 0x12ED DUP2 PUSH2 0x12C9 JUMP JUMPDEST SWAP3 SWAP2 POP POP JUMP JUMPDEST PUSH0 PUSH1 0x20 DUP3 DUP5 SUB SLT ISZERO PUSH2 0x1308 JUMPI PUSH2 0x1307 PUSH2 0x12C1 JUMP JUMPDEST JUMPDEST PUSH0 PUSH2 0x1315 DUP5 DUP3 DUP6 ADD PUSH2 0x12DF JUMP JUMPDEST SWAP2 POP POP SWAP3 SWAP2 POP POP JUMP JUMPDEST PUSH32 0x4E487B7100000000000000000000000000000000000000000000000000000000 PUSH0 MSTORE PUSH1 0x11 PUSH1 0x4 MSTORE PUSH1 0x24 PUSH0 REVERT JUMPDEST PUSH0 PUSH2 0x1355 DUP3 PUSH2 0x1171 JUMP JUMPDEST SWAP2 POP PUSH2 0x1360 DUP4 PUSH2 0x1171 JUMP JUMPDEST SWAP3 POP DUP3 DUP3 ADD SWAP1 POP DUP1 DUP3 GT ISZERO PUSH2 0x1378 JUMPI PUSH2 0x1377 PUSH2 0x131E JUMP JUMPDEST JUMPDEST SWAP3 SWAP2 POP POP JUMP JUMPDEST PUSH0 DUP2 MLOAD SWAP1 POP SWAP2 SWAP1 POP JUMP JUMPDEST PUSH0 DUP3 DUP3 MSTORE PUSH1 0x20 DUP3 ADD SWAP1 POP SWAP3 SWAP2 POP POP JUMP JUMPDEST PUSH0 PUSH1 0x1F NOT PUSH1 0x1F DUP4 ADD AND SWAP1 POP SWAP2 SWAP1 POP JUMP JUMPDEST PUSH0 PUSH2 0x13B2 DUP3 PUSH2 0x137E JUMP JUMPDEST PUSH2 0x13BC DUP2 DUP6 PUSH2 0x1388 JUMP JUMPDEST SWAP4 POP PUSH2 0x13CC DUP2 DUP6 PUSH1 0x20 DUP7 ADD PUSH2 0x11B6 JUMP JUMPDEST PUSH2 0x13D5 DUP2 PUSH2 0x1398 JUMP JUMPDEST DUP5 ADD SWAP2 POP POP SWAP3 SWAP2 POP POP JUMP JUMPDEST PUSH0 PUSH1 0xE0 DUP3 ADD SWAP1 POP PUSH2 0x13F3 PUSH0 DUP4 ADD DUP11 PUSH2 0x117A JUMP JUMPDEST PUSH2 0x1400 PUSH1 0x20 DUP4 ADD DUP10 PUSH2 0x117A JUMP JUMPDEST DUP2 DUP2 SUB PUSH1 0x40 DUP4 ADD MSTORE PUSH2 0x1412 DUP2 DUP9 PUSH2 0x13A8 JUMP JUMPDEST SWAP1 POP DUP2 DUP2 SUB PUSH1 0x60 DUP4 ADD MSTORE PUSH2 0x1426 DUP2 DUP8 PUSH2 0x13A8 JUMP JUMPDEST SWAP1 POP PUSH2 0x1435 PUSH1 0x80 DUP4 ADD DUP7 PUSH2 0x117A JUMP JUMPDEST PUSH2 0x1442 PUSH1 0xA0 DUP4 ADD DUP6 PUSH2 0x117A JUMP JUMPDEST DUP2 DUP2 SUB PUSH1 0xC0 DUP4 ADD MSTORE PUSH2 0x1454 DUP2 DUP5 PUSH2 0x13A8 JUMP JUMPDEST SWAP1 POP SWAP9 SWAP8 POP POP POP POP POP POP POP POP JUMP JUMPDEST PUSH2 0x146B DUP2 PUSH2 0x1171 JUMP JUMPDEST DUP2 EQ PUSH2 0x1475 JUMPI PUSH0 DUP1 REVERT JUMPDEST POP JUMP JUMPDEST PUSH0 DUP2 MLOAD SWAP1 POP PUSH2 0x1486 DUP2 PUSH2 0x1462 JUMP JUMPDEST SWAP3 SWAP2 POP POP JUMP JUMPDEST PUSH0 DUP1 REVERT JUMPDEST PUSH0 DUP1 REVERT JUMPDEST PUSH32 0x4E487B7100000000000000000000000000000000000000000000000000000000 PUSH0 MSTORE PUSH1 0x41 PUSH1 0x4 MSTORE PUSH1 0x24 PUSH0 REVERT JUMPDEST PUSH2 0x14CA DUP3 PUSH2 0x1398 JUMP JUMPDEST DUP2 ADD DUP2 DUP2 LT PUSH8 0xFFFFFFFFFFFFFFFF DUP3 GT OR ISZERO PUSH2 0x14E9 JUMPI PUSH2 0x14E8 PUSH2 0x1494 JUMP JUMPDEST JUMPDEST DUP1 PUSH1 0x40 MSTORE POP POP POP JUMP JUMPDEST PUSH0 PUSH2 0x14FB PUSH2 0x12B8 JUMP JUMPDEST SWAP1 POP PUSH2 0x1507 DUP3 DUP3 PUSH2 0x14C1 JUMP JUMPDEST SWAP2 SWAP1 POP JUMP JUMPDEST PUSH0 PUSH8 0xFFFFFFFFFFFFFFFF DUP3 GT ISZERO PUSH2 0x1526 JUMPI PUSH2 0x1525 PUSH2 0x1494 JUMP JUMPDEST JUMPDEST PUSH2 0x152F DUP3 PUSH2 0x1398 JUMP JUMPDEST SWAP1 POP PUSH1 0x20 DUP2 ADD SWAP1 POP SWAP2 SWAP1 POP JUMP JUMPDEST PUSH0 PUSH2 0x154E PUSH2 0x1549 DUP5 PUSH2 0x150C JUMP JUMPDEST PUSH2 0x14F2 JUMP JUMPDEST SWAP1 POP DUP3 DUP2 MSTORE PUSH1 0x20 DUP2 ADD DUP5 DUP5 DUP5 ADD GT ISZERO PUSH2 0x156A JUMPI PUSH2 0x1569 PUSH2 0x1490 JUMP JUMPDEST JUMPDEST PUSH2 0x1575 DUP5 DUP3 DUP6 PUSH2 0x11B6 JUMP JUMPDEST POP SWAP4 SWAP3 POP POP POP JUMP JUMPDEST PUSH0 DUP3 PUSH1 0x1F DUP4 ADD SLT PUSH2 0x1591 JUMPI PUSH2 0x1590 PUSH2 0x148C JUMP JUMPDEST JUMPDEST DUP2 MLOAD PUSH2 0x15A1 DUP5 DUP3 PUSH1 0x20 DUP7 ADD PUSH2 0x153C JUMP JUMPDEST SWAP2 POP POP SWAP3 SWAP2 POP POP JUMP JUMPDEST PUSH0 DUP1 PUSH0 DUP1 PUSH0 DUP1 PUSH1 0xC0 DUP8 DUP10 SUB SLT ISZERO PUSH2 0x15C4 JUMPI PUSH2 0x15C3 PUSH2 0x12C1 JUMP JUMPDEST JUMPDEST PUSH0 PUSH2 0x15D1 DUP10 DUP3 DUP11 ADD PUSH2 0x1478 JUMP JUMPDEST SWAP7 POP POP PUSH1 0x20 DUP8 ADD MLOAD PUSH8 0xFFFFFFFFFFFFFFFF DUP2 GT ISZERO PUSH2 0x15F2 JUMPI PUSH2 0x15F1 PUSH2 0x12C5 JUMP JUMPDEST JUMPDEST PUSH2 0x15FE DUP10 DUP3 DUP11 ADD PUSH2 0x157D JUMP JUMPDEST SWAP6 POP POP PUSH1 0x40 DUP8 ADD MLOAD PUSH8 0xFFFFFFFFFFFFFFFF DUP2 GT ISZERO PUSH2 0x161F JUMPI PUSH2 0x161E PUSH2 0x12C5 JUMP JUMPDEST JUMPDEST PUSH2 0x162B DUP10 DUP3 DUP11 ADD PUSH2 0x157D JUMP JUMPDEST SWAP5 POP POP PUSH1 0x60 PUSH2 0x163C DUP10 DUP3 DUP11 ADD PUSH2 0x1478 JUMP JUMPDEST SWAP4 POP POP PUSH1 0x80 PUSH2 0x164D DUP10 DUP3 DUP11 ADD PUSH2 0x1478 JUMP JUMPDEST SWAP3 POP POP PUSH1 0xA0 DUP8 ADD MLOAD PUSH8 0xFFFFFFFFFFFFFFFF DUP2 GT ISZERO PUSH2 0x166E JUMPI PUSH2 0x166D PUSH2 0x12C5 JUMP JUMPDEST JUMPDEST PUSH2 0x167A DUP10 DUP3 DUP11 ADD PUSH2 0x157D JUMP JUMPDEST SWAP2 POP POP SWAP3 SWAP6 POP SWAP3 SWAP6 POP SWAP3 SWAP6 JUMP JUMPDEST PUSH2 0x1690 DUP2 PUSH2 0x1171 JUMP JUMPDEST DUP3 MSTORE POP POP JUMP JUMPDEST PUSH32 0x50726F647563742049442073686F756C64206265203130303100000000000000 PUSH0 DUP3 ADD MSTORE POP JUMP JUMPDEST PUSH0 PUSH2 0x16CA PUSH1 0x19 DUP4 PUSH2 0x1224 JUMP JUMPDEST SWAP2 POP PUSH2 0x16D5 DUP3 PUSH2 0x1696 JUMP JUMPDEST PUSH1 0x20 DUP3 ADD SWAP1 POP SWAP2 SWAP1 POP JUMP JUMPDEST PUSH0 PUSH1 0x60 DUP3 ADD SWAP1 POP PUSH2 0x16F3 PUSH0 DUP4 ADD DUP6 PUSH2 0x1687 JUMP JUMPDEST PUSH2 0x1700 PUSH1 0x20 DUP4 ADD DUP5 PUSH2 0x1687 JUMP JUMPDEST DUP2 DUP2 SUB PUSH1 0x40 DUP4 ADD MSTORE PUSH2 0x1711 DUP2 PUSH2 0x16BE JUMP JUMPDEST SWAP1 POP SWAP4 SWAP3 POP POP POP JUMP JUMPDEST PUSH0 PUSH2 0x1724 DUP3 PUSH2 0x137E JUMP JUMPDEST PUSH2 0x172E DUP2 DUP6 PUSH2 0x1224 JUMP JUMPDEST SWAP4 POP PUSH2 0x173E DUP2 DUP6 PUSH1 0x20 DUP7 ADD PUSH2 0x11B6 JUMP JUMPDEST PUSH2 0x1747 DUP2 PUSH2 0x1398 JUMP JUMPDEST DUP5 ADD SWAP2 POP POP SWAP3 SWAP2 POP POP JUMP JUMPDEST PUSH32 0x4F726967696E2073686F756C6420626520274D616E7566616374757265722700 PUSH0 DUP3 ADD MSTORE POP JUMP JUMPDEST PUSH0 PUSH2 0x1786 PUSH1 0x1F DUP4 PUSH2 0x1224 JUMP JUMPDEST SWAP2 POP PUSH2 0x1791 DUP3 PUSH2 0x1752 JUMP JUMPDEST PUSH1 0x20 DUP3 ADD SWAP1 POP SWAP2 SWAP1 POP JUMP JUMPDEST PUSH0 PUSH1 0x60 DUP3 ADD SWAP1 POP DUP2 DUP2 SUB PUSH0 DUP4 ADD MSTORE PUSH2 0x17B4 DUP2 DUP6 PUSH2 0x171A JUMP JUMPDEST SWAP1 POP DUP2 DUP2 SUB PUSH1 0x20 DUP4 ADD MSTORE PUSH2 0x17C8 DUP2 DUP5 PUSH2 0x171A JUMP JUMPDEST SWAP1 POP DUP2 DUP2 SUB PUSH1 0x40 DUP4 ADD MSTORE PUSH2 0x17DB DUP2 PUSH2 0x177A JUMP JUMPDEST SWAP1 POP SWAP4 SWAP3 POP POP POP JUMP JUMPDEST PUSH32 0x44657374696E6174696F6E2073686F756C64206265202757617265686F757365 PUSH0 DUP3 ADD MSTORE PUSH32 0x2041270000000000000000000000000000000000000000000000000000000000 PUSH1 0x20 DUP3 ADD MSTORE POP JUMP JUMPDEST PUSH0 PUSH2 0x183E PUSH1 0x23 DUP4 PUSH2 0x1224 JUMP JUMPDEST SWAP2 POP PUSH2 0x1849 DUP3 PUSH2 0x17E4 JUMP JUMPDEST PUSH1 0x40 DUP3 ADD SWAP1 POP SWAP2 SWAP1 POP JUMP JUMPDEST PUSH0 PUSH1 0x60 DUP3 ADD SWAP1 POP DUP2 DUP2 SUB PUSH0 DUP4 ADD MSTORE PUSH2 0x186C DUP2 DUP6 PUSH2 0x171A JUMP JUMPDEST SWAP1 POP DUP2 DUP2 SUB PUSH1 0x20 DUP4 ADD MSTORE PUSH2 0x1880 DUP2 DUP5 PUSH2 0x171A JUMP JUMPDEST SWAP1 POP DUP2 DUP2 SUB PUSH1 0x40 DUP4 ADD MSTORE PUSH2 0x1893 DUP2 PUSH2 0x1832 JUMP JUMPDEST SWAP1 POP SWAP4 SWAP3 POP POP POP JUMP JUMPDEST PUSH32 0x44657061727475726520646174652073686F756C64206D617463680000000000 PUSH0 DUP3 ADD MSTORE POP JUMP JUMPDEST PUSH0 PUSH2 0x18D0 PUSH1 0x1B DUP4 PUSH2 0x1224 JUMP JUMPDEST SWAP2 POP PUSH2 0x18DB DUP3 PUSH2 0x189C JUMP JUMPDEST PUSH1 0x20 DUP3 ADD SWAP1 POP SWAP2 SWAP1 POP JUMP JUMPDEST PUSH0 PUSH1 0x60 DUP3 ADD SWAP1 POP PUSH2 0x18F9 PUSH0 DUP4 ADD DUP6 PUSH2 0x1687 JUMP JUMPDEST PUSH2 0x1906 PUSH1 0x20 DUP4 ADD DUP5 PUSH2 0x1687 JUMP JUMPDEST DUP2 DUP2 SUB PUSH1 0x40 DUP4 ADD MSTORE PUSH2 0x1917 DUP2 PUSH2 0x18C4 JUMP JUMPDEST SWAP1 POP SWAP4 SWAP3 POP POP POP JUMP JUMPDEST PUSH32 0x4578706563746564206172726976616C20646174652073686F756C64206D6174 PUSH0 DUP3 ADD MSTORE PUSH32 0x6368000000000000000000000000000000000000000000000000000000000000 PUSH1 0x20 DUP3 ADD MSTORE POP JUMP JUMPDEST PUSH0 PUSH2 0x197A PUSH1 0x22 DUP4 PUSH2 0x1224 JUMP JUMPDEST SWAP2 POP PUSH2 0x1985 DUP3 PUSH2 0x1920 JUMP JUMPDEST PUSH1 0x40 DUP3 ADD SWAP1 POP SWAP2 SWAP1 POP JUMP JUMPDEST PUSH0 PUSH1 0x60 DUP3 ADD SWAP1 POP PUSH2 0x19A3 PUSH0 DUP4 ADD DUP6 PUSH2 0x1687 JUMP JUMPDEST PUSH2 0x19B0 PUSH1 0x20 DUP4 ADD DUP5 PUSH2 0x1687 JUMP JUMPDEST DUP2 DUP2 SUB PUSH1 0x40 DUP4 ADD MSTORE PUSH2 0x19C1 DUP2 PUSH2 0x196E JUMP JUMPDEST SWAP1 POP SWAP4 SWAP3 POP POP POP JUMP JUMPDEST PUSH32 0x5374617475732073686F756C642062652027496E207472616E73697427000000 PUSH0 DUP3 ADD MSTORE POP JUMP JUMPDEST PUSH0 PUSH2 0x19FE PUSH1 0x1D DUP4 PUSH2 0x1224 JUMP JUMPDEST SWAP2 POP PUSH2 0x1A09 DUP3 PUSH2 0x19CA JUMP JUMPDEST PUSH1 0x20 DUP3 ADD SWAP1 POP SWAP2 SWAP1 POP JUMP JUMPDEST PUSH0 PUSH1 0x60 DUP3 ADD SWAP1 POP DUP2 DUP2 SUB PUSH0 DUP4 ADD MSTORE PUSH2 0x1A2C DUP2 DUP6 PUSH2 0x171A JUMP JUMPDEST SWAP1 POP DUP2 DUP2 SUB PUSH1 0x20 DUP4 ADD MSTORE PUSH2 0x1A40 DUP2 DUP5 PUSH2 0x171A JUMP JUMPDEST SWAP1 POP DUP2 DUP2 SUB PUSH1 0x40 DUP4 ADD MSTORE PUSH2 0x1A53 DUP2 PUSH2 0x19F2 JUMP JUMPDEST SWAP1 POP SWAP4 SWAP3 POP POP POP JUMP JUMPDEST PUSH0 PUSH1 0xA0 DUP3 ADD SWAP1 POP PUSH2 0x1A6F PUSH0 DUP4 ADD DUP9 PUSH2 0x117A JUMP JUMPDEST DUP2 DUP2 SUB PUSH1 0x20 DUP4 ADD MSTORE PUSH2 0x1A81 DUP2 DUP8 PUSH2 0x13A8 JUMP JUMPDEST SWAP1 POP PUSH2 0x1A90 PUSH1 0x40 DUP4 ADD DUP7 PUSH2 0x117A JUMP JUMPDEST PUSH2 0x1A9D PUSH1 0x60 DUP4 ADD DUP6 PUSH2 0x117A JUMP JUMPDEST DUP2 DUP2 SUB PUSH1 0x80 DUP4 ADD MSTORE PUSH2 0x1AAF DUP2 DUP5 PUSH2 0x13A8 JUMP JUMPDEST SWAP1 POP SWAP7 SWAP6 POP POP POP POP POP POP JUMP JUMPDEST PUSH32 0x557064617465642064657374696E6174696F6E2073686F756C6420626520274C PUSH0 DUP3 ADD MSTORE PUSH32 0x6F6769737469632043656E746572270000000000000000000000000000000000 PUSH1 0x20 DUP3 ADD MSTORE POP JUMP JUMPDEST PUSH0 PUSH2 0x1B15 PUSH1 0x2F DUP4 PUSH2 0x1224 JUMP JUMPDEST SWAP2 POP PUSH2 0x1B20 DUP3 PUSH2 0x1ABB JUMP JUMPDEST PUSH1 0x40 DUP3 ADD SWAP1 POP SWAP2 SWAP1 POP JUMP JUMPDEST PUSH0 PUSH1 0x60 DUP3 ADD SWAP1 POP DUP2 DUP2 SUB PUSH0 DUP4 ADD MSTORE PUSH2 0x1B43 DUP2 DUP6 PUSH2 0x171A JUMP JUMPDEST SWAP1 POP DUP2 DUP2 SUB PUSH1 0x20 DUP4 ADD MSTORE PUSH2 0x1B57 DUP2 DUP5 PUSH2 0x171A JUMP JUMPDEST SWAP1 POP DUP2 DUP2 SUB PUSH1 0x40 DUP4 ADD MSTORE PUSH2 0x1B6A DUP2 PUSH2 0x1B09 JUMP JUMPDEST SWAP1 POP SWAP4 SWAP3 POP POP POP JUMP JUMPDEST PUSH32 0x557064617465642064657061727475726520646174652073686F756C64206D61 PUSH0 DUP3 ADD MSTORE PUSH32 0x7463680000000000000000000000000000000000000000000000000000000000 PUSH1 0x20 DUP3 ADD MSTORE POP JUMP JUMPDEST PUSH0 PUSH2 0x1BCD PUSH1 0x23 DUP4 PUSH2 0x1224 JUMP JUMPDEST SWAP2 POP PUSH2 0x1BD8 DUP3 PUSH2 0x1B73 JUMP JUMPDEST PUSH1 0x40 DUP3 ADD SWAP1 POP SWAP2 SWAP1 POP JUMP JUMPDEST PUSH0 PUSH1 0x60 DUP3 ADD SWAP1 POP PUSH2 0x1BF6 PUSH0 DUP4 ADD DUP6 PUSH2 0x1687 JUMP JUMPDEST PUSH2 0x1C03 PUSH1 0x20 DUP4 ADD DUP5 PUSH2 0x1687 JUMP JUMPDEST DUP2 DUP2 SUB PUSH1 0x40 DUP4 ADD MSTORE PUSH2 0x1C14 DUP2 PUSH2 0x1BC1 JUMP JUMPDEST SWAP1 POP SWAP4 SWAP3 POP POP POP JUMP JUMPDEST PUSH32 0x55706461746564206578706563746564206172726976616C2064617465207368 PUSH0 DUP3 ADD MSTORE PUSH32 0x6F756C64206D6174636800000000000000000000000000000000000000000000 PUSH1 0x20 DUP3 ADD MSTORE POP JUMP JUMPDEST PUSH0 PUSH2 0x1C77 PUSH1 0x2A DUP4 PUSH2 0x1224 JUMP JUMPDEST SWAP2 POP PUSH2 0x1C82 DUP3 PUSH2 0x1C1D JUMP JUMPDEST PUSH1 0x40 DUP3 ADD SWAP1 POP SWAP2 SWAP1 POP JUMP JUMPDEST PUSH0 PUSH1 0x60 DUP3 ADD SWAP1 POP PUSH2 0x1CA0 PUSH0 DUP4 ADD DUP6 PUSH2 0x1687 JUMP JUMPDEST PUSH2 0x1CAD PUSH1 0x20 DUP4 ADD DUP5 PUSH2 0x1687 JUMP JUMPDEST DUP2 DUP2 SUB PUSH1 0x40 DUP4 ADD MSTORE PUSH2 0x1CBE DUP2 PUSH2 0x1C6B JUMP JUMPDEST SWAP1 POP SWAP4 SWAP3 POP POP POP JUMP JUMPDEST PUSH32 0x55706461746564207374617475732073686F756C64206265202744656C617965 PUSH0 DUP3 ADD MSTORE PUSH32 0x6427000000000000000000000000000000000000000000000000000000000000 PUSH1 0x20 DUP3 ADD MSTORE POP JUMP JUMPDEST PUSH0 PUSH2 0x1D21 PUSH1 0x22 DUP4 PUSH2 0x1224 JUMP JUMPDEST SWAP2 POP PUSH2 0x1D2C DUP3 PUSH2 0x1CC7 JUMP JUMPDEST PUSH1 0x40 DUP3 ADD SWAP1 POP SWAP2 SWAP1 POP JUMP JUMPDEST PUSH0 PUSH1 0x60 DUP3 ADD SWAP1 POP DUP2 DUP2 SUB PUSH0 DUP4 ADD MSTORE PUSH2 0x1D4F DUP2 DUP6 PUSH2 0x171A JUMP JUMPDEST SWAP1 POP DUP2 DUP2 SUB PUSH1 0x20 DUP4 ADD MSTORE PUSH2 0x1D63 DUP2 DUP5 PUSH2 0x171A JUMP JUMPDEST SWAP1 POP DUP2 DUP2 SUB PUSH1 0x40 DUP4 ADD MSTORE PUSH2 0x1D76 DUP2 PUSH2 0x1D15 JUMP JUMPDEST SWAP1 POP SWAP4 SWAP3 POP POP POP JUMP JUMPDEST PUSH32 0x50726F647563742049442073686F756C64206265203130313500000000000000 PUSH0 DUP3 ADD MSTORE POP JUMP JUMPDEST PUSH0 PUSH2 0x1DB3 PUSH1 0x19 DUP4 PUSH2 0x1224 JUMP JUMPDEST SWAP2 POP PUSH2 0x1DBE DUP3 PUSH2 0x1D7F JUMP JUMPDEST PUSH1 0x20 DUP3 ADD SWAP1 POP SWAP2 SWAP1 POP JUMP JUMPDEST PUSH0 PUSH1 0x60 DUP3 ADD SWAP1 POP PUSH2 0x1DDC PUSH0 DUP4 ADD DUP6 PUSH2 0x1687 JUMP JUMPDEST PUSH2 0x1DE9 PUSH1 0x20 DUP4 ADD DUP5 PUSH2 0x1687 JUMP JUMPDEST DUP2 DUP2 SUB PUSH1 0x40 DUP4 ADD MSTORE PUSH2 0x1DFA DUP2 PUSH2 0x1DA7 JUMP JUMPDEST SWAP1 POP SWAP4 SWAP3 POP POP POP JUMP JUMPDEST PUSH32 0x44657374696E6174696F6E2073686F756C64206265202757617265686F757365 PUSH0 DUP3 ADD MSTORE PUSH32 0x2042270000000000000000000000000000000000000000000000000000000000 PUSH1 0x20 DUP3 ADD MSTORE POP JUMP JUMPDEST PUSH0 PUSH2 0x1E5D PUSH1 0x23 DUP4 PUSH2 0x1224 JUMP JUMPDEST SWAP2 POP PUSH2 0x1E68 DUP3 PUSH2 0x1E03 JUMP JUMPDEST PUSH1 0x40 DUP3 ADD SWAP1 POP SWAP2 SWAP1 POP JUMP JUMPDEST PUSH0 PUSH1 0x60 DUP3 ADD SWAP1 POP DUP2 DUP2 SUB PUSH0 DUP4 ADD MSTORE PUSH2 0x1E8B DUP2 DUP6 PUSH2 0x171A JUMP JUMPDEST SWAP1 POP DUP2 DUP2 SUB PUSH1 0x20 DUP4 ADD MSTORE PUSH2 0x1E9F DUP2 DUP5 PUSH2 0x171A JUMP JUMPDEST SWAP1 POP DUP2 DUP2 SUB PUSH1 0x40 DUP4 ADD MSTORE PUSH2 0x1EB2 DUP2 PUSH2 0x1E51 JUMP JUMPDEST SWAP1 POP SWAP4 SWAP3 POP POP POP JUMP JUMPDEST PUSH0 PUSH1 0x20 DUP3 DUP5 SUB SLT ISZERO PUSH2 0x1ED0 JUMPI PUSH2 0x1ECF PUSH2 0x12C1 JUMP JUMPDEST JUMPDEST PUSH0 PUSH2 0x1EDD DUP5 DUP3 DUP6 ADD PUSH2 0x1478 JUMP JUMPDEST SWAP2 POP POP SWAP3 SWAP2 POP POP JUMP INVALID PUSH1 0x80 PUSH1 0x40 MSTORE PUSH0 PUSH1 0x1 SSTORE CALLVALUE DUP1 ISZERO PUSH1 0x12 JUMPI PUSH0 DUP1 REVERT JUMPDEST POP PUSH2 0x12CA DUP1 PUSH2 0x20 PUSH0 CODECOPY PUSH0 RETURN INVALID PUSH1 0x80 PUSH1 0x40 MSTORE CALLVALUE DUP1 ISZERO PUSH2 0xF JUMPI PUSH0 DUP1 REVERT JUMPDEST POP PUSH1 0x4 CALLDATASIZE LT PUSH2 0x60 JUMPI PUSH0 CALLDATALOAD PUSH1 0xE0 SHR DUP1 PUSH4 0x92B3740 EQ PUSH2 0x64 JUMPI DUP1 PUSH4 0x2AC08A93 EQ PUSH2 0x99 JUMPI DUP1 PUSH4 0x317D9FCA EQ PUSH2 0xCE JUMPI DUP1 PUSH4 0x959F9272 EQ PUSH2 0xEA JUMPI DUP1 PUSH4 0xAACE20B7 EQ PUSH2 0x106 JUMPI DUP1 PUSH4 0xF8186D37 EQ PUSH2 0x124 JUMPI JUMPDEST PUSH0 DUP1 REVERT JUMPDEST PUSH2 0x7E PUSH1 0x4 DUP1 CALLDATASIZE SUB DUP2 ADD SWAP1 PUSH2 0x79 SWAP2 SWAP1 PUSH2 0x9A6 JUMP JUMPDEST PUSH2 0x140 JUMP JUMPDEST PUSH1 0x40 MLOAD PUSH2 0x90 SWAP7 SWAP6 SWAP5 SWAP4 SWAP3 SWAP2 SWAP1 PUSH2 0xA50 JUMP JUMPDEST PUSH1 0x40 MLOAD DUP1 SWAP2 SUB SWAP1 RETURN JUMPDEST PUSH2 0xB3 PUSH1 0x4 DUP1 CALLDATASIZE SUB DUP2 ADD SWAP1 PUSH2 0xAE SWAP2 SWAP1 PUSH2 0x9A6 JUMP JUMPDEST PUSH2 0x3C7 JUMP JUMPDEST PUSH1 0x40 MLOAD PUSH2 0xC5 SWAP7 SWAP6 SWAP5 SWAP4 SWAP3 SWAP2 SWAP1 PUSH2 0xA50 JUMP JUMPDEST PUSH1 0x40 MLOAD DUP1 SWAP2 SUB SWAP1 RETURN JUMPDEST PUSH2 0xE8 PUSH1 0x4 DUP1 CALLDATASIZE SUB DUP2 ADD SWAP1 PUSH2 0xE3 SWAP2 SWAP1 PUSH2 0xBF0 JUMP JUMPDEST PUSH2 0x590 JUMP JUMPDEST STOP JUMPDEST PUSH2 0x104 PUSH1 0x4 DUP1 CALLDATASIZE SUB DUP2 ADD SWAP1 PUSH2 0xFF SWAP2 SWAP1 PUSH2 0x9A6 JUMP JUMPDEST PUSH2 0x6F0 JUMP JUMPDEST STOP JUMPDEST PUSH2 0x10E PUSH2 0x7EC JUMP JUMPDEST PUSH1 0x40 MLOAD PUSH2 0x11B SWAP2 SWAP1 PUSH2 0xCE1 JUMP JUMPDEST PUSH1 0x40 MLOAD DUP1 SWAP2 SUB SWAP1 RETURN JUMPDEST PUSH2 0x13E PUSH1 0x4 DUP1 CALLDATASIZE SUB DUP2 ADD SWAP1 PUSH2 0x139 SWAP2 SWAP1 PUSH2 0xCFA JUMP JUMPDEST PUSH2 0x7F2 JUMP JUMPDEST STOP JUMPDEST PUSH0 PUSH1 0x60 DUP1 PUSH0 DUP1 PUSH1 0x60 PUSH0 DUP1 PUSH0 DUP10 DUP2 MSTORE PUSH1 0x20 ADD SWAP1 DUP2 MSTORE PUSH1 0x20 ADD PUSH0 KECCAK256 PUSH1 0x1 ADD DUP1 SLOAD PUSH2 0x167 SWAP1 PUSH2 0xDD6 JUMP JUMPDEST SWAP1 POP SUB PUSH2 0x1A9 JUMPI PUSH1 0x40 MLOAD PUSH32 0x8C379A000000000000000000000000000000000000000000000000000000000 DUP2 MSTORE PUSH1 0x4 ADD PUSH2 0x1A0 SWAP1 PUSH2 0xE50 JUMP JUMPDEST PUSH1 0x40 MLOAD DUP1 SWAP2 SUB SWAP1 REVERT JUMPDEST PUSH0 DUP1 PUSH0 DUP10 DUP2 MSTORE PUSH1 0x20 ADD SWAP1 DUP2 MSTORE PUSH1 0x20 ADD PUSH0 KECCAK256 PUSH1 0x40 MLOAD DUP1 PUSH1 0xC0 ADD PUSH1 0x40 MSTORE SWAP1 DUP2 PUSH0 DUP3 ADD SLOAD DUP2 MSTORE PUSH1 0x20 ADD PUSH1 0x1 DUP3 ADD DUP1 SLOAD PUSH2 0x1DE SWAP1 PUSH2 0xDD6 JUMP JUMPDEST DUP1 PUSH1 0x1F ADD PUSH1 0x20 DUP1 SWAP2 DIV MUL PUSH1 0x20 ADD PUSH1 0x40 MLOAD SWAP1 DUP2 ADD PUSH1 0x40 MSTORE DUP1 SWAP3 SWAP2 SWAP1 DUP2 DUP2 MSTORE PUSH1 0x20 ADD DUP3 DUP1 SLOAD PUSH2 0x20A SWAP1 PUSH2 0xDD6 JUMP JUMPDEST DUP1 ISZERO PUSH2 0x255 JUMPI DUP1 PUSH1 0x1F LT PUSH2 0x22C JUMPI PUSH2 0x100 DUP1 DUP4 SLOAD DIV MUL DUP4 MSTORE SWAP2 PUSH1 0x20 ADD SWAP2 PUSH2 0x255 JUMP JUMPDEST DUP3 ADD SWAP2 SWAP1 PUSH0 MSTORE PUSH1 0x20 PUSH0 KECCAK256 SWAP1 JUMPDEST DUP2 SLOAD DUP2 MSTORE SWAP1 PUSH1 0x1 ADD SWAP1 PUSH1 0x20 ADD DUP1 DUP4 GT PUSH2 0x238 JUMPI DUP3 SWAP1 SUB PUSH1 0x1F AND DUP3 ADD SWAP2 JUMPDEST POP POP POP POP POP DUP2 MSTORE PUSH1 0x20 ADD PUSH1 0x2 DUP3 ADD DUP1 SLOAD PUSH2 0x26E SWAP1 PUSH2 0xDD6 JUMP JUMPDEST DUP1 PUSH1 0x1F ADD PUSH1 0x20 DUP1 SWAP2 DIV MUL PUSH1 0x20 ADD PUSH1 0x40 MLOAD SWAP1 DUP2 ADD PUSH1 0x40 MSTORE DUP1 SWAP3 SWAP2 SWAP1 DUP2 DUP2 MSTORE PUSH1 0x20 ADD DUP3 DUP1 SLOAD PUSH2 0x29A SWAP1 PUSH2 0xDD6 JUMP JUMPDEST DUP1 ISZERO PUSH2 0x2E5 JUMPI DUP1 PUSH1 0x1F LT PUSH2 0x2BC JUMPI PUSH2 0x100 DUP1 DUP4 SLOAD DIV MUL DUP4 MSTORE SWAP2 PUSH1 0x20 ADD SWAP2 PUSH2 0x2E5 JUMP JUMPDEST DUP3 ADD SWAP2 SWAP1 PUSH0 MSTORE PUSH1 0x20 PUSH0 KECCAK256 SWAP1 JUMPDEST DUP2 SLOAD DUP2 MSTORE SWAP1 PUSH1 0x1 ADD SWAP1 PUSH1 0x20 ADD DUP1 DUP4 GT PUSH2 0x2C8 JUMPI DUP3 SWAP1 SUB PUSH1 0x1F AND DUP3 ADD SWAP2 JUMPDEST POP POP POP POP POP DUP2 MSTORE PUSH1 0x20 ADD PUSH1 0x3 DUP3 ADD SLOAD DUP2 MSTORE PUSH1 0x20 ADD PUSH1 0x4 DUP3 ADD SLOAD DUP2 MSTORE PUSH1 0x20 ADD PUSH1 0x5 DUP3 ADD DUP1 SLOAD PUSH2 0x312 SWAP1 PUSH2 0xDD6 JUMP JUMPDEST DUP1 PUSH1 0x1F ADD PUSH1 0x20 DUP1 SWAP2 DIV MUL PUSH1 0x20 ADD PUSH1 0x40 MLOAD SWAP1 DUP2 ADD PUSH1 0x40 MSTORE DUP1 SWAP3 SWAP2 SWAP1 DUP2 DUP2 MSTORE PUSH1 0x20 ADD DUP3 DUP1 SLOAD PUSH2 0x33E SWAP1 PUSH2 0xDD6 JUMP JUMPDEST DUP1 ISZERO PUSH2 0x389 JUMPI DUP1 PUSH1 0x1F LT PUSH2 0x360 JUMPI PUSH2 0x100 DUP1 DUP4 SLOAD DIV MUL DUP4 MSTORE SWAP2 PUSH1 0x20 ADD SWAP2 PUSH2 0x389 JUMP JUMPDEST DUP3 ADD SWAP2 SWAP1 PUSH0 MSTORE PUSH1 0x20 PUSH0 KECCAK256 SWAP1 JUMPDEST DUP2 SLOAD DUP2 MSTORE SWAP1 PUSH1 0x1 ADD SWAP1 PUSH1 0x20 ADD DUP1 DUP4 GT PUSH2 0x36C JUMPI DUP3 SWAP1 SUB PUSH1 0x1F AND DUP3 ADD SWAP2 JUMPDEST POP POP POP POP POP DUP2 MSTORE POP POP SWAP1 POP DUP1 PUSH0 ADD MLOAD DUP2 PUSH1 0x20 ADD MLOAD DUP3 PUSH1 0x40 ADD MLOAD DUP4 PUSH1 0x60 ADD MLOAD DUP5 PUSH1 0x80 ADD MLOAD DUP6 PUSH1 0xA0 ADD MLOAD SWAP7 POP SWAP7 POP SWAP7 POP SWAP7 POP SWAP7 POP SWAP7 POP POP SWAP2 SWAP4 SWAP6 POP SWAP2 SWAP4 SWAP6 JUMP JUMPDEST PUSH0 PUSH1 0x20 MSTORE DUP1 PUSH0 MSTORE PUSH1 0x40 PUSH0 KECCAK256 PUSH0 SWAP2 POP SWAP1 POP DUP1 PUSH0 ADD SLOAD SWAP1 DUP1 PUSH1 0x1 ADD DUP1 SLOAD PUSH2 0x3EB SWAP1 PUSH2 0xDD6 JUMP JUMPDEST DUP1 PUSH1 0x1F ADD PUSH1 0x20 DUP1 SWAP2 DIV MUL PUSH1 0x20 ADD PUSH1 0x40 MLOAD SWAP1 DUP2 ADD PUSH1 0x40 MSTORE DUP1 SWAP3 SWAP2 SWAP1 DUP2 DUP2 MSTORE PUSH1 0x20 ADD DUP3 DUP1 SLOAD PUSH2 0x417 SWAP1 PUSH2 0xDD6 JUMP JUMPDEST DUP1 ISZERO PUSH2 0x462 JUMPI DUP1 PUSH1 0x1F LT PUSH2 0x439 JUMPI PUSH2 0x100 DUP1 DUP4 SLOAD DIV MUL DUP4 MSTORE SWAP2 PUSH1 0x20 ADD SWAP2 PUSH2 0x462 JUMP JUMPDEST DUP3 ADD SWAP2 SWAP1 PUSH0 MSTORE PUSH1 0x20 PUSH0 KECCAK256 SWAP1 JUMPDEST DUP2 SLOAD DUP2 MSTORE SWAP1 PUSH1 0x1 ADD SWAP1 PUSH1 0x20 ADD DUP1 DUP4 GT PUSH2 0x445 JUMPI DUP3 SWAP1 SUB PUSH1 0x1F AND DUP3 ADD SWAP2 JUMPDEST POP POP POP POP POP SWAP1 DUP1 PUSH1 0x2 ADD DUP1 SLOAD PUSH2 0x477 SWAP1 PUSH2 0xDD6 JUMP JUMPDEST DUP1 PUSH1 0x1F ADD PUSH1 0x20 DUP1 SWAP2 DIV MUL PUSH1 0x20 ADD PUSH1 0x40 MLOAD SWAP1 DUP2 ADD PUSH1 0x40 MSTORE DUP1 SWAP3 SWAP2 SWAP1 DUP2 DUP2 MSTORE PUSH1 0x20 ADD DUP3 DUP1 SLOAD PUSH2 0x4A3 SWAP1 PUSH2 0xDD6 JUMP JUMPDEST DUP1 ISZERO PUSH2 0x4EE JUMPI DUP1 PUSH1 0x1F LT PUSH2 0x4C5 JUMPI PUSH2 0x100 DUP1 DUP4 SLOAD DIV MUL DUP4 MSTORE SWAP2 PUSH1 0x20 ADD SWAP2 PUSH2 0x4EE JUMP JUMPDEST DUP3 ADD SWAP2 SWAP1 PUSH0 MSTORE PUSH1 0x20 PUSH0 KECCAK256 SWAP1 JUMPDEST DUP2 SLOAD DUP2 MSTORE SWAP1 PUSH1 0x1 ADD SWAP1 PUSH1 0x20 ADD DUP1 DUP4 GT PUSH2 0x4D1 JUMPI DUP3 SWAP1 SUB PUSH1 0x1F AND DUP3 ADD SWAP2 JUMPDEST POP POP POP POP POP SWAP1 DUP1 PUSH1 0x3 ADD SLOAD SWAP1 DUP1 PUSH1 0x4 ADD SLOAD SWAP1 DUP1 PUSH1 0x5 ADD DUP1 SLOAD PUSH2 0x50F SWAP1 PUSH2 0xDD6 JUMP JUMPDEST DUP1 PUSH1 0x1F ADD PUSH1 0x20 DUP1 SWAP2 DIV MUL PUSH1 0x20 ADD PUSH1 0x40 MLOAD SWAP1 DUP2 ADD PUSH1 0x40 MSTORE DUP1 SWAP3 SWAP2 SWAP1 DUP2 DUP2 MSTORE PUSH1 0x20 ADD DUP3 DUP1 SLOAD PUSH2 0x53B SWAP1 PUSH2 0xDD6 JUMP JUMPDEST DUP1 ISZERO PUSH2 0x586 JUMPI DUP1 PUSH1 0x1F LT PUSH2 0x55D JUMPI PUSH2 0x100 DUP1 DUP4 SLOAD DIV MUL DUP4 MSTORE SWAP2 PUSH1 0x20 ADD SWAP2 PUSH2 0x586 JUMP JUMPDEST DUP3 ADD SWAP2 SWAP1 PUSH0 MSTORE PUSH1 0x20 PUSH0 KECCAK256 SWAP1 JUMPDEST DUP2 SLOAD DUP2 MSTORE SWAP1 PUSH1 0x1 ADD SWAP1 PUSH1 0x20 ADD DUP1 DUP4 GT PUSH2 0x569 JUMPI DUP3 SWAP1 SUB PUSH1 0x1F AND DUP3 ADD SWAP2 JUMPDEST POP POP POP POP POP SWAP1 POP DUP7 JUMP JUMPDEST PUSH0 DUP1 PUSH0 DUP10 DUP2 MSTORE PUSH1 0x20 ADD SWAP1 DUP2 MSTORE PUSH1 0x20 ADD PUSH0 KECCAK256 PUSH1 0x1 ADD DUP1 SLOAD PUSH2 0x5AF SWAP1 PUSH2 0xDD6 JUMP JUMPDEST SWAP1 POP EQ PUSH2 0x5F1 JUMPI PUSH1 0x40 MLOAD PUSH32 0x8C379A000000000000000000000000000000000000000000000000000000000 DUP2 MSTORE PUSH1 0x4 ADD PUSH2 0x5E8 SWAP1 PUSH2 0xEB8 JUMP JUMPDEST PUSH1 0x40 MLOAD DUP1 SWAP2 SUB SWAP1 REVERT JUMPDEST PUSH1 0x40 MLOAD DUP1 PUSH1 0xC0 ADD PUSH1 0x40 MSTORE DUP1 DUP8 DUP2 MSTORE PUSH1 0x20 ADD DUP7 DUP2 MSTORE PUSH1 0x20 ADD DUP6 DUP2 MSTORE PUSH1 0x20 ADD DUP5 DUP2 MSTORE PUSH1 0x20 ADD DUP4 DUP2 MSTORE PUSH1 0x20 ADD DUP3 DUP2 MSTORE POP PUSH0 DUP1 DUP10 DUP2 MSTORE PUSH1 0x20 ADD SWAP1 DUP2 MSTORE PUSH1 0x20 ADD PUSH0 KECCAK256 PUSH0 DUP3 ADD MLOAD DUP2 PUSH0 ADD SSTORE PUSH1 0x20 DUP3 ADD MLOAD DUP2 PUSH1 0x1 ADD SWAP1 DUP2 PUSH2 0x64B SWAP2 SWAP1 PUSH2 0x1073 JUMP JUMPDEST POP PUSH1 0x40 DUP3 ADD MLOAD DUP2 PUSH1 0x2 ADD SWAP1 DUP2 PUSH2 0x661 SWAP2 SWAP1 PUSH2 0x1073 JUMP JUMPDEST POP PUSH1 0x60 DUP3 ADD MLOAD DUP2 PUSH1 0x3 ADD SSTORE PUSH1 0x80 DUP3 ADD MLOAD DUP2 PUSH1 0x4 ADD SSTORE PUSH1 0xA0 DUP3 ADD MLOAD DUP2 PUSH1 0x5 ADD SWAP1 DUP2 PUSH2 0x68B SWAP2 SWAP1 PUSH2 0x1073 JUMP JUMPDEST POP SWAP1 POP POP PUSH1 0x1 PUSH0 DUP2 SLOAD DUP1 SWAP3 SWAP2 SWAP1 PUSH2 0x6A1 SWAP1 PUSH2 0x116F JUMP JUMPDEST SWAP2 SWAP1 POP SSTORE POP DUP6 DUP8 PUSH32 0x601A0E875DDFE57CAD229D8E1B980DDC2211AAD2010439670036CEA9B1B014D0 DUP8 DUP8 DUP8 DUP8 DUP8 PUSH1 0x40 MLOAD PUSH2 0x6DF SWAP6 SWAP5 SWAP4 SWAP3 SWAP2 SWAP1 PUSH2 0x11B6 JUMP JUMPDEST PUSH1 0x40 MLOAD DUP1 SWAP2 SUB SWAP1 LOG3 POP POP POP POP POP POP POP JUMP JUMPDEST PUSH0 DUP1 PUSH0 DUP4 DUP2 MSTORE PUSH1 0x20 ADD SWAP1 DUP2 MSTORE PUSH1 0x20 ADD PUSH0 KECCAK256 PUSH1 0x1 ADD DUP1 SLOAD PUSH2 0x70F SWAP1 PUSH2 0xDD6 JUMP JUMPDEST SWAP1 POP SUB PUSH2 0x751 JUMPI PUSH1 0x40 MLOAD PUSH32 0x8C379A000000000000000000000000000000000000000000000000000000000 DUP2 MSTORE PUSH1 0x4 ADD PUSH2 0x748 SWAP1 PUSH2 0xE50 JUMP JUMPDEST PUSH1 0x40 MLOAD DUP1 SWAP2 SUB SWAP1 REVERT JUMPDEST PUSH0 DUP1 DUP3 DUP2 MSTORE PUSH1 0x20 ADD SWAP1 DUP2 MSTORE PUSH1 0x20 ADD PUSH0 KECCAK256 PUSH0 DUP1 DUP3 ADD PUSH0 SWAP1 SSTORE PUSH1 0x1 DUP3 ADD PUSH0 PUSH2 0x777 SWAP2 SWAP1 PUSH2 0x90A JUMP JUMPDEST PUSH1 0x2 DUP3 ADD PUSH0 PUSH2 0x786 SWAP2 SWAP1 PUSH2 0x90A JUMP JUMPDEST PUSH1 0x3 DUP3 ADD PUSH0 SWAP1 SSTORE PUSH1 0x4 DUP3 ADD PUSH0 SWAP1 SSTORE PUSH1 0x5 DUP3 ADD PUSH0 PUSH2 0x7A3 SWAP2 SWAP1 PUSH2 0x90A JUMP JUMPDEST POP POP PUSH1 0x1 PUSH0 DUP2 SLOAD DUP1 SWAP3 SWAP2 SWAP1 PUSH2 0x7B7 SWAP1 PUSH2 0x121C JUMP JUMPDEST SWAP2 SWAP1 POP SSTORE POP DUP1 PUSH32 0x66C891E51EFB5E3DE78F960A0177F968C9E0866811CDE856DE366B3C1C295EB5 PUSH1 0x40 MLOAD PUSH1 0x40 MLOAD DUP1 SWAP2 SUB SWAP1 LOG2 POP JUMP JUMPDEST PUSH1 0x1 SLOAD DUP2 JUMP JUMPDEST PUSH0 DUP1 PUSH0 DUP8 DUP2 MSTORE PUSH1 0x20 ADD SWAP1 DUP2 MSTORE PUSH1 0x20 ADD PUSH0 KECCAK256 PUSH1 0x1 ADD DUP1 SLOAD PUSH2 0x811 SWAP1 PUSH2 0xDD6 JUMP JUMPDEST SWAP1 POP SUB PUSH2 0x853 JUMPI PUSH1 0x40 MLOAD PUSH32 0x8C379A000000000000000000000000000000000000000000000000000000000 DUP2 MSTORE PUSH1 0x4 ADD PUSH2 0x84A SWAP1 PUSH2 0xE50 JUMP JUMPDEST PUSH1 0x40 MLOAD DUP1 SWAP2 SUB SWAP1 REVERT JUMPDEST DUP4 PUSH0 DUP1 DUP8 DUP2 MSTORE PUSH1 0x20 ADD SWAP1 DUP2 MSTORE PUSH1 0x20 ADD PUSH0 KECCAK256 PUSH1 0x2 ADD SWAP1 DUP2 PUSH2 0x873 SWAP2 SWAP1 PUSH2 0x1073 JUMP JUMPDEST POP DUP3 PUSH0 DUP1 DUP8 DUP2 MSTORE PUSH1 0x20 ADD SWAP1 DUP2 MSTORE PUSH1 0x20 ADD PUSH0 KECCAK256 PUSH1 0x3 ADD DUP2 SWAP1 SSTORE POP DUP2 PUSH0 DUP1 DUP8 DUP2 MSTORE PUSH1 0x20 ADD SWAP1 DUP2 MSTORE PUSH1 0x20 ADD PUSH0 KECCAK256 PUSH1 0x4 ADD DUP2 SWAP1 SSTORE POP DUP1 PUSH0 DUP1 DUP8 DUP2 MSTORE PUSH1 0x20 ADD SWAP1 DUP2 MSTORE PUSH1 0x20 ADD PUSH0 KECCAK256 PUSH1 0x5 ADD SWAP1 DUP2 PUSH2 0x8C4 SWAP2 SWAP1 PUSH2 0x1073 JUMP JUMPDEST POP DUP5 PUSH32 0xACAAAC77C8BAE53D1026541E4970309B3CA003985A8AD181DE65203D9D2F7224 DUP6 DUP6 DUP6 DUP6 PUSH1 0x40 MLOAD PUSH2 0x8FB SWAP5 SWAP4 SWAP3 SWAP2 SWAP1 PUSH2 0x1243 JUMP JUMPDEST PUSH1 0x40 MLOAD DUP1 SWAP2 SUB SWAP1 LOG2 POP POP POP POP POP JUMP JUMPDEST POP DUP1 SLOAD PUSH2 0x916 SWAP1 PUSH2 0xDD6 JUMP JUMPDEST PUSH0 DUP3 SSTORE DUP1 PUSH1 0x1F LT PUSH2 0x927 JUMPI POP PUSH2 0x944 JUMP JUMPDEST PUSH1 0x1F ADD PUSH1 0x20 SWAP1 DIV SWAP1 PUSH0 MSTORE PUSH1 0x20 PUSH0 KECCAK256 SWAP1 DUP2 ADD SWAP1 PUSH2 0x943 SWAP2 SWAP1 PUSH2 0x947 JUMP JUMPDEST JUMPDEST POP JUMP JUMPDEST JUMPDEST DUP1 DUP3 GT ISZERO PUSH2 0x95E JUMPI PUSH0 DUP2 PUSH0 SWAP1 SSTORE POP PUSH1 0x1 ADD PUSH2 0x948 JUMP JUMPDEST POP SWAP1 JUMP JUMPDEST PUSH0 PUSH1 0x40 MLOAD SWAP1 POP SWAP1 JUMP JUMPDEST PUSH0 DUP1 REVERT JUMPDEST PUSH0 DUP1 REVERT JUMPDEST PUSH0 DUP2 SWAP1 POP SWAP2 SWAP1 POP JUMP JUMPDEST PUSH2 0x985 DUP2 PUSH2 0x973 JUMP JUMPDEST DUP2 EQ PUSH2 0x98F JUMPI PUSH0 DUP1 REVERT JUMPDEST POP JUMP JUMPDEST PUSH0 DUP2 CALLDATALOAD SWAP1 POP PUSH2 0x9A0 DUP2 PUSH2 0x97C JUMP JUMPDEST SWAP3 SWAP2 POP POP JUMP JUMPDEST PUSH0 PUSH1 0x20 DUP3 DUP5 SUB SLT ISZERO PUSH2 0x9BB JUMPI PUSH2 0x9BA PUSH2 0x96B JUMP JUMPDEST JUMPDEST PUSH0 PUSH2 0x9C8 DUP5 DUP3 DUP6 ADD PUSH2 0x992 JUMP JUMPDEST SWAP2 POP POP SWAP3 SWAP2 POP POP JUMP JUMPDEST PUSH2 0x9DA DUP2 PUSH2 0x973 JUMP JUMPDEST DUP3 MSTORE POP POP JUMP JUMPDEST PUSH0 DUP2 MLOAD SWAP1 POP SWAP2 SWAP1 POP JUMP JUMPDEST PUSH0 DUP3 DUP3 MSTORE PUSH1 0x20 DUP3 ADD SWAP1 POP SWAP3 SWAP2 POP POP JUMP JUMPDEST DUP3 DUP2 DUP4 MCOPY PUSH0 DUP4 DUP4 ADD MSTORE POP POP POP JUMP JUMPDEST PUSH0 PUSH1 0x1F NOT PUSH1 0x1F DUP4 ADD AND SWAP1 POP SWAP2 SWAP1 POP JUMP JUMPDEST PUSH0 PUSH2 0xA22 DUP3 PUSH2 0x9E0 JUMP JUMPDEST PUSH2 0xA2C DUP2 DUP6 PUSH2 0x9EA JUMP JUMPDEST SWAP4 POP PUSH2 0xA3C DUP2 DUP6 PUSH1 0x20 DUP7 ADD PUSH2 0x9FA JUMP JUMPDEST PUSH2 0xA45 DUP2 PUSH2 0xA08 JUMP JUMPDEST DUP5 ADD SWAP2 POP POP SWAP3 SWAP2 POP POP JUMP JUMPDEST PUSH0 PUSH1 0xC0 DUP3 ADD SWAP1 POP PUSH2 0xA63 PUSH0 DUP4 ADD DUP10 PUSH2 0x9D1 JUMP JUMPDEST DUP2 DUP2 SUB PUSH1 0x20 DUP4 ADD MSTORE PUSH2 0xA75 DUP2 DUP9 PUSH2 0xA18 JUMP JUMPDEST SWAP1 POP DUP2 DUP2 SUB PUSH1 0x40 DUP4 ADD MSTORE PUSH2 0xA89 DUP2 DUP8 PUSH2 0xA18 JUMP JUMPDEST SWAP1 POP PUSH2 0xA98 PUSH1 0x60 DUP4 ADD DUP7 PUSH2 0x9D1 JUMP JUMPDEST PUSH2 0xAA5 PUSH1 0x80 DUP4 ADD DUP6 PUSH2 0x9D1 JUMP JUMPDEST DUP2 DUP2 SUB PUSH1 0xA0 DUP4 ADD MSTORE PUSH2 0xAB7 DUP2 DUP5 PUSH2 0xA18 JUMP JUMPDEST SWAP1 POP SWAP8 SWAP7 POP POP POP POP POP POP POP JUMP JUMPDEST PUSH0 DUP1 REVERT JUMPDEST PUSH0 DUP1 REVERT JUMPDEST PUSH32 0x4E487B7100000000000000000000000000000000000000000000000000000000 PUSH0 MSTORE PUSH1 0x41 PUSH1 0x4 MSTORE PUSH1 0x24 PUSH0 REVERT JUMPDEST PUSH2 0xB02 DUP3 PUSH2 0xA08 JUMP JUMPDEST DUP2 ADD DUP2 DUP2 LT PUSH8 0xFFFFFFFFFFFFFFFF DUP3 GT OR ISZERO PUSH2 0xB21 JUMPI PUSH2 0xB20 PUSH2 0xACC JUMP JUMPDEST JUMPDEST DUP1 PUSH1 0x40 MSTORE POP POP POP JUMP JUMPDEST PUSH0 PUSH2 0xB33 PUSH2 0x962 JUMP JUMPDEST SWAP1 POP PUSH2 0xB3F DUP3 DUP3 PUSH2 0xAF9 JUMP JUMPDEST SWAP2 SWAP1 POP JUMP JUMPDEST PUSH0 PUSH8 0xFFFFFFFFFFFFFFFF DUP3 GT ISZERO PUSH2 0xB5E JUMPI PUSH2 0xB5D PUSH2 0xACC JUMP JUMPDEST JUMPDEST PUSH2 0xB67 DUP3 PUSH2 0xA08 JUMP JUMPDEST SWAP1 POP PUSH1 0x20 DUP2 ADD SWAP1 POP SWAP2 SWAP1 POP JUMP JUMPDEST DUP3 DUP2 DUP4 CALLDATACOPY PUSH0 DUP4 DUP4 ADD MSTORE POP POP POP JUMP JUMPDEST PUSH0 PUSH2 0xB94 PUSH2 0xB8F DUP5 PUSH2 0xB44 JUMP JUMPDEST PUSH2 0xB2A JUMP JUMPDEST SWAP1 POP DUP3 DUP2 MSTORE PUSH1 0x20 DUP2 ADD DUP5 DUP5 DUP5 ADD GT ISZERO PUSH2 0xBB0 JUMPI PUSH2 0xBAF PUSH2 0xAC8 JUMP JUMPDEST JUMPDEST PUSH2 0xBBB DUP5 DUP3 DUP6 PUSH2 0xB74 JUMP JUMPDEST POP SWAP4 SWAP3 POP POP POP JUMP JUMPDEST PUSH0 DUP3 PUSH1 0x1F DUP4 ADD SLT PUSH2 0xBD7 JUMPI PUSH2 0xBD6 PUSH2 0xAC4 JUMP JUMPDEST JUMPDEST DUP2 CALLDATALOAD PUSH2 0xBE7 DUP5 DUP3 PUSH1 0x20 DUP7 ADD PUSH2 0xB82 JUMP JUMPDEST SWAP2 POP POP SWAP3 SWAP2 POP POP JUMP JUMPDEST PUSH0 DUP1 PUSH0 DUP1 PUSH0 DUP1 PUSH0 PUSH1 0xE0 DUP9 DUP11 SUB SLT ISZERO PUSH2 0xC0B JUMPI PUSH2 0xC0A PUSH2 0x96B JUMP JUMPDEST JUMPDEST PUSH0 PUSH2 0xC18 DUP11 DUP3 DUP12 ADD PUSH2 0x992 JUMP JUMPDEST SWAP8 POP POP PUSH1 0x20 PUSH2 0xC29 DUP11 DUP3 DUP12 ADD PUSH2 0x992 JUMP JUMPDEST SWAP7 POP POP PUSH1 0x40 DUP9 ADD CALLDATALOAD PUSH8 0xFFFFFFFFFFFFFFFF DUP2 GT ISZERO PUSH2 0xC4A JUMPI PUSH2 0xC49 PUSH2 0x96F JUMP JUMPDEST JUMPDEST PUSH2 0xC56 DUP11 DUP3 DUP12 ADD PUSH2 0xBC3 JUMP JUMPDEST SWAP6 POP POP PUSH1 0x60 DUP9 ADD CALLDATALOAD PUSH8 0xFFFFFFFFFFFFFFFF DUP2 GT ISZERO PUSH2 0xC77 JUMPI PUSH2 0xC76 PUSH2 0x96F JUMP JUMPDEST JUMPDEST PUSH2 0xC83 DUP11 DUP3 DUP12 ADD PUSH2 0xBC3 JUMP JUMPDEST SWAP5 POP POP PUSH1 0x80 PUSH2 0xC94 DUP11 DUP3 DUP12 ADD PUSH2 0x992 JUMP JUMPDEST SWAP4 POP POP PUSH1 0xA0 PUSH2 0xCA5 DUP11 DUP3 DUP12 ADD PUSH2 0x992 JUMP JUMPDEST SWAP3 POP POP PUSH1 0xC0 DUP9 ADD CALLDATALOAD PUSH8 0xFFFFFFFFFFFFFFFF DUP2 GT ISZERO PUSH2 0xCC6 JUMPI PUSH2 0xCC5 PUSH2 0x96F JUMP JUMPDEST JUMPDEST PUSH2 0xCD2 DUP11 DUP3 DUP12 ADD PUSH2 0xBC3 JUMP JUMPDEST SWAP2 POP POP SWAP3 SWAP6 SWAP9 SWAP2 SWAP5 SWAP8 POP SWAP3 SWAP6 POP JUMP JUMPDEST PUSH0 PUSH1 0x20 DUP3 ADD SWAP1 POP PUSH2 0xCF4 PUSH0 DUP4 ADD DUP5 PUSH2 0x9D1 JUMP JUMPDEST SWAP3 SWAP2 POP POP JUMP JUMPDEST PUSH0 DUP1 PUSH0 DUP1 PUSH0 PUSH1 0xA0 DUP7 DUP9 SUB SLT ISZERO PUSH2 0xD13 JUMPI PUSH2 0xD12 PUSH2 0x96B JUMP JUMPDEST JUMPDEST PUSH0 PUSH2 0xD20 DUP9 DUP3 DUP10 ADD PUSH2 0x992 JUMP JUMPDEST SWAP6 POP POP PUSH1 0x20 DUP7 ADD CALLDATALOAD PUSH8 0xFFFFFFFFFFFFFFFF DUP2 GT ISZERO PUSH2 0xD41 JUMPI PUSH2 0xD40 PUSH2 0x96F JUMP JUMPDEST JUMPDEST PUSH2 0xD4D DUP9 DUP3 DUP10 ADD PUSH2 0xBC3 JUMP JUMPDEST SWAP5 POP POP PUSH1 0x40 PUSH2 0xD5E DUP9 DUP3 DUP10 ADD PUSH2 0x992 JUMP JUMPDEST SWAP4 POP POP PUSH1 0x60 PUSH2 0xD6F DUP9 DUP3 DUP10 ADD PUSH2 0x992 JUMP JUMPDEST SWAP3 POP POP PUSH1 0x80 DUP7 ADD CALLDATALOAD PUSH8 0xFFFFFFFFFFFFFFFF DUP2 GT ISZERO PUSH2 0xD90 JUMPI PUSH2 0xD8F PUSH2 0x96F JUMP JUMPDEST JUMPDEST PUSH2 0xD9C DUP9 DUP3 DUP10 ADD PUSH2 0xBC3 JUMP JUMPDEST SWAP2 POP POP SWAP3 SWAP6 POP SWAP3 SWAP6 SWAP1 SWAP4 POP JUMP JUMPDEST PUSH32 0x4E487B7100000000000000000000000000000000000000000000000000000000 PUSH0 MSTORE PUSH1 0x22 PUSH1 0x4 MSTORE PUSH1 0x24 PUSH0 REVERT JUMPDEST PUSH0 PUSH1 0x2 DUP3 DIV SWAP1 POP PUSH1 0x1 DUP3 AND DUP1 PUSH2 0xDED JUMPI PUSH1 0x7F DUP3 AND SWAP2 POP JUMPDEST PUSH1 0x20 DUP3 LT DUP2 SUB PUSH2 0xE00 JUMPI PUSH2 0xDFF PUSH2 0xDA9 JUMP JUMPDEST JUMPDEST POP SWAP2 SWAP1 POP JUMP JUMPDEST PUSH32 0x536869706D656E7420646F6573206E6F74206578697374000000000000000000 PUSH0 DUP3 ADD MSTORE POP JUMP JUMPDEST PUSH0 PUSH2 0xE3A PUSH1 0x17 DUP4 PUSH2 0x9EA JUMP JUMPDEST SWAP2 POP PUSH2 0xE45 DUP3 PUSH2 0xE06 JUMP JUMPDEST PUSH1 0x20 DUP3 ADD SWAP1 POP SWAP2 SWAP1 POP JUMP JUMPDEST PUSH0 PUSH1 0x20 DUP3 ADD SWAP1 POP DUP2 DUP2 SUB PUSH0 DUP4 ADD MSTORE PUSH2 0xE67 DUP2 PUSH2 0xE2E JUMP JUMPDEST SWAP1 POP SWAP2 SWAP1 POP JUMP JUMPDEST PUSH32 0x536869706D656E7420616C726561647920657869737473000000000000000000 PUSH0 DUP3 ADD MSTORE POP JUMP JUMPDEST PUSH0 PUSH2 0xEA2 PUSH1 0x17 DUP4 PUSH2 0x9EA JUMP JUMPDEST SWAP2 POP PUSH2 0xEAD DUP3 PUSH2 0xE6E JUMP JUMPDEST PUSH1 0x20 DUP3 ADD SWAP1 POP SWAP2 SWAP1 POP JUMP JUMPDEST PUSH0 PUSH1 0x20 DUP3 ADD SWAP1 POP DUP2 DUP2 SUB PUSH0 DUP4 ADD MSTORE PUSH2 0xECF DUP2 PUSH2 0xE96 JUMP JUMPDEST SWAP1 POP SWAP2 SWAP1 POP JUMP JUMPDEST PUSH0 DUP2 SWAP1 POP DUP2 PUSH0 MSTORE PUSH1 0x20 PUSH0 KECCAK256 SWAP1 POP SWAP2 SWAP1 POP JUMP JUMPDEST PUSH0 PUSH1 0x20 PUSH1 0x1F DUP4 ADD DIV SWAP1 POP SWAP2 SWAP1 POP JUMP JUMPDEST PUSH0 DUP3 DUP3 SHL SWAP1 POP SWAP3 SWAP2 POP POP JUMP JUMPDEST PUSH0 PUSH1 0x8 DUP4 MUL PUSH2 0xF32 PUSH32 0xFFFFFFFFFFFFFFFFFFFFFFFFFFFFFFFFFFFFFFFFFFFFFFFFFFFFFFFFFFFFFFFF DUP3 PUSH2 0xEF7 JUMP JUMPDEST PUSH2 0xF3C DUP7 DUP4 PUSH2 0xEF7 JUMP JUMPDEST SWAP6 POP DUP1 NOT DUP5 AND SWAP4 POP DUP1 DUP7 AND DUP5 OR SWAP3 POP POP POP SWAP4 SWAP3 POP POP POP JUMP JUMPDEST PUSH0 DUP2 SWAP1 POP SWAP2 SWAP1 POP JUMP JUMPDEST PUSH0 PUSH2 0xF77 PUSH2 0xF72 PUSH2 0xF6D DUP5 PUSH2 0x973 JUMP JUMPDEST PUSH2 0xF54 JUMP JUMPDEST PUSH2 0x973 JUMP JUMPDEST SWAP1 POP SWAP2 SWAP1 POP JUMP JUMPDEST PUSH0 DUP2 SWAP1 POP SWAP2 SWAP1 POP JUMP JUMPDEST PUSH2 0xF90 DUP4 PUSH2 0xF5D JUMP JUMPDEST PUSH2 0xFA4 PUSH2 0xF9C DUP3 PUSH2 0xF7E JUMP JUMPDEST DUP5 DUP5 SLOAD PUSH2 0xF03 JUMP JUMPDEST DUP3 SSTORE POP POP POP POP JUMP JUMPDEST PUSH0 SWAP1 JUMP JUMPDEST PUSH2 0xFB8 PUSH2 0xFAC JUMP JUMPDEST PUSH2 0xFC3 DUP2 DUP5 DUP5 PUSH2 0xF87 JUMP JUMPDEST POP POP POP JUMP JUMPDEST JUMPDEST DUP2 DUP2 LT ISZERO PUSH2 0xFE6 JUMPI PUSH2 0xFDB PUSH0 DUP3 PUSH2 0xFB0 JUMP JUMPDEST PUSH1 0x1 DUP2 ADD SWAP1 POP PUSH2 0xFC9 JUMP JUMPDEST POP POP JUMP JUMPDEST PUSH1 0x1F DUP3 GT ISZERO PUSH2 0x102B JUMPI PUSH2 0xFFC DUP2 PUSH2 0xED6 JUMP JUMPDEST PUSH2 0x1005 DUP5 PUSH2 0xEE8 JUMP JUMPDEST DUP2 ADD PUSH1 0x20 DUP6 LT ISZERO PUSH2 0x1014 JUMPI DUP2 SWAP1 POP JUMPDEST PUSH2 0x1028 PUSH2 0x1020 DUP6 PUSH2 0xEE8 JUMP JUMPDEST DUP4 ADD DUP3 PUSH2 0xFC8 JUMP JUMPDEST POP POP JUMPDEST POP POP POP JUMP JUMPDEST PUSH0 DUP3 DUP3 SHR SWAP1 POP SWAP3 SWAP2 POP POP JUMP JUMPDEST PUSH0 PUSH2 0x104B PUSH0 NOT DUP5 PUSH1 0x8 MUL PUSH2 0x1030 JUMP JUMPDEST NOT DUP1 DUP4 AND SWAP2 POP POP SWAP3 SWAP2 POP POP JUMP JUMPDEST PUSH0 PUSH2 0x1063 DUP4 DUP4 PUSH2 0x103C JUMP JUMPDEST SWAP2 POP DUP3 PUSH1 0x2 MUL DUP3 OR SWAP1 POP SWAP3 SWAP2 POP POP JUMP JUMPDEST PUSH2 0x107C DUP3 PUSH2 0x9E0 JUMP JUMPDEST PUSH8 0xFFFFFFFFFFFFFFFF DUP2 GT ISZERO PUSH2 0x1095 JUMPI PUSH2 0x1094 PUSH2 0xACC JUMP JUMPDEST JUMPDEST PUSH2 0x109F DUP3 SLOAD PUSH2 0xDD6 JUMP JUMPDEST PUSH2 0x10AA DUP3 DUP3 DUP6 PUSH2 0xFEA JUMP JUMPDEST PUSH0 PUSH1 0x20 SWAP1 POP PUSH1 0x1F DUP4 GT PUSH1 0x1 DUP2 EQ PUSH2 0x10DB JUMPI PUSH0 DUP5 ISZERO PUSH2 0x10C9 JUMPI DUP3 DUP8 ADD MLOAD SWAP1 POP JUMPDEST PUSH2 0x10D3 DUP6 DUP3 PUSH2 0x1058 JUMP JUMPDEST DUP7 SSTORE POP PUSH2 0x113A JUMP JUMPDEST PUSH1 0x1F NOT DUP5 AND PUSH2 0x10E9 DUP7 PUSH2 0xED6 JUMP JUMPDEST PUSH0 JUMPDEST DUP3 DUP2 LT ISZERO PUSH2 0x1110 JUMPI DUP5 DUP10 ADD MLOAD DUP3 SSTORE PUSH1 0x1 DUP3 ADD SWAP2 POP PUSH1 0x20 DUP6 ADD SWAP5 POP PUSH1 0x20 DUP2 ADD SWAP1 POP PUSH2 0x10EB JUMP JUMPDEST DUP7 DUP4 LT ISZERO PUSH2 0x112D JUMPI DUP5 DUP10 ADD MLOAD PUSH2 0x1129 PUSH1 0x1F DUP10 AND DUP3 PUSH2 0x103C JUMP JUMPDEST DUP4 SSTORE POP JUMPDEST PUSH1 0x1 PUSH1 0x2 DUP9 MUL ADD DUP9 SSTORE POP POP POP JUMPDEST POP POP POP POP POP POP JUMP JUMPDEST PUSH32 0x4E487B7100000000000000000000000000000000000000000000000000000000 PUSH0 MSTORE PUSH1 0x11 PUSH1 0x4 MSTORE PUSH1 0x24 PUSH0 REVERT JUMPDEST PUSH0 PUSH2 0x1179 DUP3 PUSH2 0x973 JUMP JUMPDEST SWAP2 POP PUSH32 0xFFFFFFFFFFFFFFFFFFFFFFFFFFFFFFFFFFFFFFFFFFFFFFFFFFFFFFFFFFFFFFFF DUP3 SUB PUSH2 0x11AB JUMPI PUSH2 0x11AA PUSH2 0x1142 JUMP JUMPDEST JUMPDEST PUSH1 0x1 DUP3 ADD SWAP1 POP SWAP2 SWAP1 POP JUMP JUMPDEST PUSH0 PUSH1 0xA0 DUP3 ADD SWAP1 POP DUP2 DUP2 SUB PUSH0 DUP4 ADD MSTORE PUSH2 0x11CE DUP2 DUP9 PUSH2 0xA18 JUMP JUMPDEST SWAP1 POP DUP2 DUP2 SUB PUSH1 0x20 DUP4 ADD MSTORE PUSH2 0x11E2 DUP2 DUP8 PUSH2 0xA18 JUMP JUMPDEST SWAP1 POP PUSH2 0x11F1 PUSH1 0x40 DUP4 ADD DUP7 PUSH2 0x9D1 JUMP JUMPDEST PUSH2 0x11FE PUSH1 0x60 DUP4 ADD DUP6 PUSH2 0x9D1 JUMP JUMPDEST DUP2 DUP2 SUB PUSH1 0x80 DUP4 ADD MSTORE PUSH2 0x1210 DUP2 DUP5 PUSH2 0xA18 JUMP JUMPDEST SWAP1 POP SWAP7 SWAP6 POP POP POP POP POP POP JUMP JUMPDEST PUSH0 PUSH2 0x1226 DUP3 PUSH2 0x973 JUMP JUMPDEST SWAP2 POP PUSH0 DUP3 SUB PUSH2 0x1238 JUMPI PUSH2 0x1237 PUSH2 0x1142 JUMP JUMPDEST JUMPDEST PUSH1 0x1 DUP3 SUB SWAP1 POP SWAP2 SWAP1 POP JUMP JUMPDEST PUSH0 PUSH1 0x80 DUP3 ADD SWAP1 POP DUP2 DUP2 SUB PUSH0 DUP4 ADD MSTORE PUSH2 0x125B DUP2 DUP8 PUSH2 0xA18 JUMP JUMPDEST SWAP1 POP PUSH2 0x126A PUSH1 0x20 DUP4 ADD DUP7 PUSH2 0x9D1 JUMP JUMPDEST PUSH2 0x1277 PUSH1 0x40 DUP4 ADD DUP6 PUSH2 0x9D1 JUMP JUMPDEST DUP2 DUP2 SUB PUSH1 0x60 DUP4 ADD MSTORE PUSH2 0x1289 DUP2 DUP5 PUSH2 0xA18 JUMP JUMPDEST SWAP1 POP SWAP6 SWAP5 POP POP POP POP POP JUMP INVALID LOG2 PUSH5 0x6970667358 0x22 SLT KECCAK256 0xF9 PUSH0 EQ 0xD4 MSTORE8 PUSH14 0x62B1274786B696CFE04FB016756D SWAP8 0xFC MLOAD 0xBE 0x22 PUSH17 0x2B91CC71F4C364736F6C634300081A0033 LOG2 PUSH5 0x6970667358 0x22 SLT KECCAK256 0x27 NOT 0xDF 0x26 0x2F 0xCC CODESIZE SGT SHR PUSH27 0x2D8B558A99727E49CBFCD941A669321A3701CBCB11AE64736F6C63 NUMBER STOP ADDMOD BYTE STOP CALLER "
		},
		"gasEstimates": {
			"creation": {
				"codeDepositCost": "2561200",
				"executionCost": "2769",
				"totalCost": "2563969"
			},
			"external": {
				"beforeAll()": "infinite",
				"printAllShipments()": "infinite",
				"testAddShipment()": "infinite",
				"testAddShipment2()": "infinite",
				"testRemoveShipment()": "infinite",
				"testUpdateShipment()": "infinite"
			}
		},
		"methodIdentifiers": {
			"beforeAll()": "7fea0d4b",
			"printAllShipments()": "f6716cd6",
			"testAddShipment()": "a15c6e70",
			"testAddShipment2()": "ecd8f5b9",
			"testRemoveShipment()": "2c23ac5c",
			"testUpdateShipment()": "e64f4717"
		}
	},
	"abi": [
		{
			"inputs": [],
			"name": "beforeAll",
			"outputs": [],
			"stateMutability": "nonpayable",
			"type": "function"
		},
		{
			"inputs": [],
			"name": "printAllShipments",
			"outputs": [
				{
					"internalType": "uint256",
					"name": "",
					"type": "uint256"
				}
			],
			"stateMutability": "view",
			"type": "function"
		},
		{
			"inputs": [],
			"name": "testAddShipment",
			"outputs": [],
			"stateMutability": "nonpayable",
			"type": "function"
		},
		{
			"inputs": [],
			"name": "testAddShipment2",
			"outputs": [],
			"stateMutability": "nonpayable",
			"type": "function"
		},
		{
			"inputs": [],
			"name": "testRemoveShipment",
			"outputs": [],
			"stateMutability": "nonpayable",
			"type": "function"
		},
		{
			"inputs": [],
			"name": "testUpdateShipment",
			"outputs": [],
			"stateMutability": "nonpayable",
			"type": "function"
		}
	]
}