{
	"data": {
		"bytecode": {
			"linkReferences": {},
			"object": "60806040525f6002555f6004553480156016575f80fd5b50611fb5806100245f395ff3fe608060405234801561000f575f80fd5b5060043610610109575f3560e01c80637acc0b20116100a0578063b5cb15f71161006f578063b5cb15f7146102b6578063b9db15b4146102d4578063d84f55ee14610307578063e0f6ef8714610337578063e2842d791461035557610109565b80637acc0b201461021b578063985751881461024d5780639c08328414610269578063a87430ba1461028557610109565b8063502c9bd5116100dc578063502c9bd51461019557806353488deb146101c55780635ee95cae146101e1578063663c01af146101fd57610109565b806307973ccf1461010d578063278208511461012b57806340d268541461015b5780634a348da914610177575b5f80fd5b610115610373565b604051610122919061126b565b60405180910390f35b610145600480360381019061014091906112ef565b610379565b604051610152919061138d565b60405180910390f35b61017560048036038101906101709190611505565b6103cd565b005b61017f6105f3565b60405161018c919061126b565b60405180910390f35b6101af60048036038101906101aa919061159b565b6105fc565b6040516101bc91906115d5565b60405180910390f35b6101df60048036038101906101da91906115ee565b610637565b005b6101fb60048036038101906101f6919061159b565b6106eb565b005b6102056107be565b6040516102129190611711565b60405180910390f35b6102356004803603810190610230919061159b565b61085b565b60405161024493929190611791565b60405180910390f35b610267600480360381019061026291906112ef565b61098d565b005b610283600480360381019061027e91906117d4565b610bc9565b005b61029f600480360381019061029a91906112ef565b610d51565b6040516102ad929190611870565b60405180910390f35b6102be610e02565b6040516102cb919061126b565b60405180910390f35b6102ee60048036038101906102e9919061159b565b610e0b565b6040516102fe949392919061189e565b60405180910390f35b610321600480360381019061031c91906112ef565b611033565b60405161032e91906118f6565b60405180910390f35b61033f611101565b60405161034c919061126b565b60405180910390f35b61035d611107565b60405161036a91906119cd565b60405180910390f35b60025481565b5f805f8373ffffffffffffffffffffffffffffffffffffffff1673ffffffffffffffffffffffffffffffffffffffff1681526020019081526020015f206001015f9054906101000a900460ff169050919050565b5f60048111156103e0576103df61131a565b5b5f808573ffffffffffffffffffffffffffffffffffffffff1673ffffffffffffffffffffffffffffffffffffffff1681526020019081526020015f206001015f9054906101000a900460ff16600481111561043e5761043d61131a565b5b1461047e576040517f08c379a000000000000000000000000000000000000000000000000000000000815260040161047590611a37565b60405180910390fd5b60405180604001604052808381526020018260048111156104a2576104a161131a565b5b8152505f808573ffffffffffffffffffffffffffffffffffffffff1673ffffffffffffffffffffffffffffffffffffffff1681526020019081526020015f205f820151815f0190816104f49190611c4f565b506020820151816001015f6101000a81548160ff0219169083600481111561051f5761051e61131a565b5b0217905550905050600183908060018154018082558091505060019003905f5260205f20015f9091909190916101000a81548173ffffffffffffffffffffffffffffffffffffffff021916908373ffffffffffffffffffffffffffffffffffffffff16021790555060025f81548092919061059990611d4b565b91905055508273ffffffffffffffffffffffffffffffffffffffff167f8897d4c16f6b907647cc92f3b2f80418ac81581b8e74f9dda595d3910b44c86283836040516105e6929190611870565b60405180910390a2505050565b5f600454905090565b6001818154811061060b575f80fd5b905f5260205f20015f915054906101000a900473ffffffffffffffffffffffffffffffffffffffff1681565b60045483111561067c576040517f08c379a000000000000000000000000000000000000000000000000000000000815260040161067390611ddc565b60405180910390fd5b5f60035f8581526020019081526020015f209050828160010190816106a19190611c4f565b50818160020181905550837ff9b1d9170fbe32752353e00d62e5276b143166c75aa974030dddfac2895601fe84846040516106dd929190611dfa565b60405180910390a250505050565b600454811115610730576040517f08c379a000000000000000000000000000000000000000000000000000000000815260040161072790611ddc565b60405180910390fd5b60035f8281526020019081526020015f205f8082015f6107509190611192565b600182015f61075f9190611192565b600282015f9055600382015f61077591906111cf565b5050807f07015631cff457b5b13492c2045e70c6305a0a4aa773e432e79abbe2cf52c1eb60405160405180910390a260045f8154809291906107b690611e28565b919050555050565b60605f60045467ffffffffffffffff8111156107dd576107dc6113be565b5b60405190808252806020026020018201604052801561080b5781602001602082028036833780820191505090505b5090505f5b600454811015610853576001816108279190611e4f565b82828151811061083a57610839611e82565b5b6020026020010181815250508080600101915050610810565b508091505090565b6003602052805f5260405f205f91509050805f01805461087a90611a82565b80601f01602080910402602001604051908101604052809291908181526020018280546108a690611a82565b80156108f15780601f106108c8576101008083540402835291602001916108f1565b820191905f5260205f20905b8154815290600101906020018083116108d457829003601f168201915b50505050509080600101805461090690611a82565b80601f016020809104026020016040519081016040528092919081815260200182805461093290611a82565b801561097d5780601f106109545761010080835404028352916020019161097d565b820191905f5260205f20905b81548152906001019060200180831161096057829003601f168201915b5050505050908060020154905083565b5f60048111156109a05761099f61131a565b5b5f808373ffffffffffffffffffffffffffffffffffffffff1673ffffffffffffffffffffffffffffffffffffffff1681526020019081526020015f206001015f9054906101000a900460ff1660048111156109fe576109fd61131a565b5b03610a3e576040517f08c379a0000000000000000000000000000000000000000000000000000000008152600401610a3590611ef9565b60405180910390fd5b5f808273ffffffffffffffffffffffffffffffffffffffff1673ffffffffffffffffffffffffffffffffffffffff1681526020019081526020015f205f8082015f610a899190611192565b600182015f6101000a81549060ff021916905550508073ffffffffffffffffffffffffffffffffffffffff167fe9dce8c992623ce791725b21e857e33248d1f190a25b5168313420eebdaae99d60405160405180910390a25f5b600180549050811015610bae578173ffffffffffffffffffffffffffffffffffffffff1660018281548110610b1b57610b1a611e82565b5b905f5260205f20015f9054906101000a900473ffffffffffffffffffffffffffffffffffffffff1673ffffffffffffffffffffffffffffffffffffffff1603610ba15760018181548110610b7257610b71611e82565b5b905f5260205f20015f6101000a81549073ffffffffffffffffffffffffffffffffffffffff0219169055610bae565b8080600101915050610ae3565b5060025f815480929190610bc190611e28565b919050555050565b5f60035f8681526020019081526020015f205f018054610be890611a82565b905014610c2a576040517f08c379a0000000000000000000000000000000000000000000000000000000008152600401610c2190611f61565b60405180910390fd5b60405180608001604052808481526020018381526020018281526020015f67ffffffffffffffff811115610c6157610c606113be565b5b604051908082528060200260200182016040528015610c8f5781602001602082028036833780820191505090505b5081525060035f8681526020019081526020015f205f820151815f019081610cb79190611c4f565b506020820151816001019081610ccd9190611c4f565b50604082015181600201556060820151816003019080519060200190610cf49291906111ed565b5090505060045f815480929190610d0a90611d4b565b9190505550837f7a092309290915a35151881d9282456b222c739a7d845acd25a6c13b75d62f13848484604051610d4393929190611791565b60405180910390a250505050565b5f602052805f5260405f205f91509050805f018054610d6f90611a82565b80601f0160208091040260200160405190810160405280929190818152602001828054610d9b90611a82565b8015610de65780601f10610dbd57610100808354040283529160200191610de6565b820191905f5260205f20905b815481529060010190602001808311610dc957829003601f168201915b505050505090806001015f9054906101000a900460ff16905082565b5f600254905090565b6060805f60605f60035f8781526020019081526020015f205f018054610e3090611a82565b905003610e72576040517f08c379a0000000000000000000000000000000000000000000000000000000008152600401610e6990611ddc565b60405180910390fd5b5f60035f8781526020019081526020015f206040518060800160405290815f82018054610e9e90611a82565b80601f0160208091040260200160405190810160405280929190818152602001828054610eca90611a82565b8015610f155780601f10610eec57610100808354040283529160200191610f15565b820191905f5260205f20905b815481529060010190602001808311610ef857829003601f168201915b50505050508152602001600182018054610f2e90611a82565b80601f0160208091040260200160405190810160405280929190818152602001828054610f5a90611a82565b8015610fa55780601f10610f7c57610100808354040283529160200191610fa5565b820191905f5260205f20905b815481529060010190602001808311610f8857829003601f168201915b50505050508152602001600282015481526020016003820180548060200260200160405190810160405280929190818152602001828054801561100557602002820191905f5260205f20905b815481526020019060010190808311610ff1575b5050505050815250509050805f01518160200151826040015183606001519450945094509450509193509193565b60605f808373ffffffffffffffffffffffffffffffffffffffff1673ffffffffffffffffffffffffffffffffffffffff1681526020019081526020015f205f01805461107e90611a82565b80601f01602080910402602001604051908101604052809291908181526020018280546110aa90611a82565b80156110f55780601f106110cc576101008083540402835291602001916110f5565b820191905f5260205f20905b8154815290600101906020018083116110d857829003601f168201915b50505050509050919050565b60045481565b6060600180548060200260200160405190810160405280929190818152602001828054801561118857602002820191905f5260205f20905b815f9054906101000a900473ffffffffffffffffffffffffffffffffffffffff1673ffffffffffffffffffffffffffffffffffffffff168152602001906001019080831161113f575b5050505050905090565b50805461119e90611a82565b5f825580601f106111af57506111cc565b601f0160209004905f5260205f20908101906111cb9190611238565b5b50565b5080545f8255905f5260205f20908101906111ea9190611238565b50565b828054828255905f5260205f20908101928215611227579160200282015b8281111561122657825182559160200191906001019061120b565b5b5090506112349190611238565b5090565b5b8082111561124f575f815f905550600101611239565b5090565b5f819050919050565b61126581611253565b82525050565b5f60208201905061127e5f83018461125c565b92915050565b5f604051905090565b5f80fd5b5f80fd5b5f73ffffffffffffffffffffffffffffffffffffffff82169050919050565b5f6112be82611295565b9050919050565b6112ce816112b4565b81146112d8575f80fd5b50565b5f813590506112e9816112c5565b92915050565b5f602082840312156113045761130361128d565b5b5f611311848285016112db565b91505092915050565b7f4e487b71000000000000000000000000000000000000000000000000000000005f52602160045260245ffd5b600581106113585761135761131a565b5b50565b5f81905061136882611347565b919050565b5f6113778261135b565b9050919050565b6113878161136d565b82525050565b5f6020820190506113a05f83018461137e565b92915050565b5f80fd5b5f80fd5b5f601f19601f8301169050919050565b7f4e487b71000000000000000000000000000000000000000000000000000000005f52604160045260245ffd5b6113f4826113ae565b810181811067ffffffffffffffff82111715611413576114126113be565b5b80604052505050565b5f611425611284565b905061143182826113eb565b919050565b5f67ffffffffffffffff8211156114505761144f6113be565b5b611459826113ae565b9050602081019050919050565b828183375f83830152505050565b5f61148661148184611436565b61141c565b9050828152602081018484840111156114a2576114a16113aa565b5b6114ad848285611466565b509392505050565b5f82601f8301126114c9576114c86113a6565b5b81356114d9848260208601611474565b91505092915050565b600581106114ee575f80fd5b50565b5f813590506114ff816114e2565b92915050565b5f805f6060848603121561151c5761151b61128d565b5b5f611529868287016112db565b935050602084013567ffffffffffffffff81111561154a57611549611291565b5b611556868287016114b5565b9250506040611567868287016114f1565b9150509250925092565b61157a81611253565b8114611584575f80fd5b50565b5f8135905061159581611571565b92915050565b5f602082840312156115b0576115af61128d565b5b5f6115bd84828501611587565b91505092915050565b6115cf816112b4565b82525050565b5f6020820190506115e85f8301846115c6565b92915050565b5f805f606084860312156116055761160461128d565b5b5f61161286828701611587565b935050602084013567ffffffffffffffff81111561163357611632611291565b5b61163f868287016114b5565b925050604061165086828701611587565b9150509250925092565b5f81519050919050565b5f82825260208201905092915050565b5f819050602082019050919050565b61168c81611253565b82525050565b5f61169d8383611683565b60208301905092915050565b5f602082019050919050565b5f6116bf8261165a565b6116c98185611664565b93506116d483611674565b805f5b838110156117045781516116eb8882611692565b97506116f6836116a9565b9250506001810190506116d7565b5085935050505092915050565b5f6020820190508181035f83015261172981846116b5565b905092915050565b5f81519050919050565b5f82825260208201905092915050565b8281835e5f83830152505050565b5f61176382611731565b61176d818561173b565b935061177d81856020860161174b565b611786816113ae565b840191505092915050565b5f6060820190508181035f8301526117a98186611759565b905081810360208301526117bd8185611759565b90506117cc604083018461125c565b949350505050565b5f805f80608085870312156117ec576117eb61128d565b5b5f6117f987828801611587565b945050602085013567ffffffffffffffff81111561181a57611819611291565b5b611826878288016114b5565b935050604085013567ffffffffffffffff81111561184757611846611291565b5b611853878288016114b5565b925050606061186487828801611587565b91505092959194509250565b5f6040820190508181035f8301526118888185611759565b9050611897602083018461137e565b9392505050565b5f6080820190508181035f8301526118b68187611759565b905081810360208301526118ca8186611759565b90506118d9604083018561125c565b81810360608301526118eb81846116b5565b905095945050505050565b5f6020820190508181035f83015261190e8184611759565b905092915050565b5f81519050919050565b5f82825260208201905092915050565b5f819050602082019050919050565b611948816112b4565b82525050565b5f611959838361193f565b60208301905092915050565b5f602082019050919050565b5f61197b82611916565b6119858185611920565b935061199083611930565b805f5b838110156119c05781516119a7888261194e565b97506119b283611965565b925050600181019050611993565b5085935050505092915050565b5f6020820190508181035f8301526119e58184611971565b905092915050565b7f5573657220616c726561647920657869737473000000000000000000000000005f82015250565b5f611a2160138361173b565b9150611a2c826119ed565b602082019050919050565b5f6020820190508181035f830152611a4e81611a15565b9050919050565b7f4e487b71000000000000000000000000000000000000000000000000000000005f52602260045260245ffd5b5f6002820490506001821680611a9957607f821691505b602082108103611aac57611aab611a55565b5b50919050565b5f819050815f5260205f209050919050565b5f6020601f8301049050919050565b5f82821b905092915050565b5f60088302611b0e7fffffffffffffffffffffffffffffffffffffffffffffffffffffffffffffffff82611ad3565b611b188683611ad3565b95508019841693508086168417925050509392505050565b5f819050919050565b5f611b53611b4e611b4984611253565b611b30565b611253565b9050919050565b5f819050919050565b611b6c83611b39565b611b80611b7882611b5a565b848454611adf565b825550505050565b5f90565b611b94611b88565b611b9f818484611b63565b505050565b5b81811015611bc257611bb75f82611b8c565b600181019050611ba5565b5050565b601f821115611c0757611bd881611ab2565b611be184611ac4565b81016020851015611bf0578190505b611c04611bfc85611ac4565b830182611ba4565b50505b505050565b5f82821c905092915050565b5f611c275f1984600802611c0c565b1980831691505092915050565b5f611c3f8383611c18565b9150826002028217905092915050565b611c5882611731565b67ffffffffffffffff811115611c7157611c706113be565b5b611c7b8254611a82565b611c86828285611bc6565b5f60209050601f831160018114611cb7575f8415611ca5578287015190505b611caf8582611c34565b865550611d16565b601f198416611cc586611ab2565b5f5b82811015611cec57848901518255600182019150602085019450602081019050611cc7565b86831015611d095784890151611d05601f891682611c18565b8355505b6001600288020188555050505b505050505050565b7f4e487b71000000000000000000000000000000000000000000000000000000005f52601160045260245ffd5b5f611d5582611253565b91507fffffffffffffffffffffffffffffffffffffffffffffffffffffffffffffffff8203611d8757611d86611d1e565b5b600182019050919050565b7f50726f6475637420646f6573206e6f74206578697374000000000000000000005f82015250565b5f611dc660168361173b565b9150611dd182611d92565b602082019050919050565b5f6020820190508181035f830152611df381611dba565b9050919050565b5f6040820190508181035f830152611e128185611759565b9050611e21602083018461125c565b9392505050565b5f611e3282611253565b91505f8203611e4457611e43611d1e565b5b600182039050919050565b5f611e5982611253565b9150611e6483611253565b9250828201905080821115611e7c57611e7b611d1e565b5b92915050565b7f4e487b71000000000000000000000000000000000000000000000000000000005f52603260045260245ffd5b7f5573657220646f6573206e6f74206578697374000000000000000000000000005f82015250565b5f611ee360138361173b565b9150611eee82611eaf565b602082019050919050565b5f6020820190508181035f830152611f1081611ed7565b9050919050565b7f50726f6475637420616c726561647920657869737473000000000000000000005f82015250565b5f611f4b60168361173b565b9150611f5682611f17565b602082019050919050565b5f6020820190508181035f830152611f7881611f3f565b905091905056fea26469706673582212204209fc16d0f04bdfccca4a08c6005cb0659b03ed3c70f81dbba56cf706701d2064736f6c634300081a0033",
			"opcodes": "PUSH1 0x80 PUSH1 0x40 MSTORE PUSH0 PUSH1 0x2 SSTORE PUSH0 PUSH1 0x4 SSTORE CALLVALUE DUP1 ISZERO PUSH1 0x16 JUMPI PUSH0 DUP1 REVERT JUMPDEST POP PUSH2 0x1FB5 DUP1 PUSH2 0x24 PUSH0 CODECOPY PUSH0 RETURN INVALID PUSH1 0x80 PUSH1 0x40 MSTORE CALLVALUE DUP1 ISZERO PUSH2 0xF JUMPI PUSH0 DUP1 REVERT JUMPDEST POP PUSH1 0x4 CALLDATASIZE LT PUSH2 0x109 JUMPI PUSH0 CALLDATALOAD PUSH1 0xE0 SHR DUP1 PUSH4 0x7ACC0B20 GT PUSH2 0xA0 JUMPI DUP1 PUSH4 0xB5CB15F7 GT PUSH2 0x6F JUMPI DUP1 PUSH4 0xB5CB15F7 EQ PUSH2 0x2B6 JUMPI DUP1 PUSH4 0xB9DB15B4 EQ PUSH2 0x2D4 JUMPI DUP1 PUSH4 0xD84F55EE EQ PUSH2 0x307 JUMPI DUP1 PUSH4 0xE0F6EF87 EQ PUSH2 0x337 JUMPI DUP1 PUSH4 0xE2842D79 EQ PUSH2 0x355 JUMPI PUSH2 0x109 JUMP JUMPDEST DUP1 PUSH4 0x7ACC0B20 EQ PUSH2 0x21B JUMPI DUP1 PUSH4 0x98575188 EQ PUSH2 0x24D JUMPI DUP1 PUSH4 0x9C083284 EQ PUSH2 0x269 JUMPI DUP1 PUSH4 0xA87430BA EQ PUSH2 0x285 JUMPI PUSH2 0x109 JUMP JUMPDEST DUP1 PUSH4 0x502C9BD5 GT PUSH2 0xDC JUMPI DUP1 PUSH4 0x502C9BD5 EQ PUSH2 0x195 JUMPI DUP1 PUSH4 0x53488DEB EQ PUSH2 0x1C5 JUMPI DUP1 PUSH4 0x5EE95CAE EQ PUSH2 0x1E1 JUMPI DUP1 PUSH4 0x663C01AF EQ PUSH2 0x1FD JUMPI PUSH2 0x109 JUMP JUMPDEST DUP1 PUSH4 0x7973CCF EQ PUSH2 0x10D JUMPI DUP1 PUSH4 0x27820851 EQ PUSH2 0x12B JUMPI DUP1 PUSH4 0x40D26854 EQ PUSH2 0x15B JUMPI DUP1 PUSH4 0x4A348DA9 EQ PUSH2 0x177 JUMPI JUMPDEST PUSH0 DUP1 REVERT JUMPDEST PUSH2 0x115 PUSH2 0x373 JUMP JUMPDEST PUSH1 0x40 MLOAD PUSH2 0x122 SWAP2 SWAP1 PUSH2 0x126B JUMP JUMPDEST PUSH1 0x40 MLOAD DUP1 SWAP2 SUB SWAP1 RETURN JUMPDEST PUSH2 0x145 PUSH1 0x4 DUP1 CALLDATASIZE SUB DUP2 ADD SWAP1 PUSH2 0x140 SWAP2 SWAP1 PUSH2 0x12EF JUMP JUMPDEST PUSH2 0x379 JUMP JUMPDEST PUSH1 0x40 MLOAD PUSH2 0x152 SWAP2 SWAP1 PUSH2 0x138D JUMP JUMPDEST PUSH1 0x40 MLOAD DUP1 SWAP2 SUB SWAP1 RETURN JUMPDEST PUSH2 0x175 PUSH1 0x4 DUP1 CALLDATASIZE SUB DUP2 ADD SWAP1 PUSH2 0x170 SWAP2 SWAP1 PUSH2 0x1505 JUMP JUMPDEST PUSH2 0x3CD JUMP JUMPDEST STOP JUMPDEST PUSH2 0x17F PUSH2 0x5F3 JUMP JUMPDEST PUSH1 0x40 MLOAD PUSH2 0x18C SWAP2 SWAP1 PUSH2 0x126B JUMP JUMPDEST PUSH1 0x40 MLOAD DUP1 SWAP2 SUB SWAP1 RETURN JUMPDEST PUSH2 0x1AF PUSH1 0x4 DUP1 CALLDATASIZE SUB DUP2 ADD SWAP1 PUSH2 0x1AA SWAP2 SWAP1 PUSH2 0x159B JUMP JUMPDEST PUSH2 0x5FC JUMP JUMPDEST PUSH1 0x40 MLOAD PUSH2 0x1BC SWAP2 SWAP1 PUSH2 0x15D5 JUMP JUMPDEST PUSH1 0x40 MLOAD DUP1 SWAP2 SUB SWAP1 RETURN JUMPDEST PUSH2 0x1DF PUSH1 0x4 DUP1 CALLDATASIZE SUB DUP2 ADD SWAP1 PUSH2 0x1DA SWAP2 SWAP1 PUSH2 0x15EE JUMP JUMPDEST PUSH2 0x637 JUMP JUMPDEST STOP JUMPDEST PUSH2 0x1FB PUSH1 0x4 DUP1 CALLDATASIZE SUB DUP2 ADD SWAP1 PUSH2 0x1F6 SWAP2 SWAP1 PUSH2 0x159B JUMP JUMPDEST PUSH2 0x6EB JUMP JUMPDEST STOP JUMPDEST PUSH2 0x205 PUSH2 0x7BE JUMP JUMPDEST PUSH1 0x40 MLOAD PUSH2 0x212 SWAP2 SWAP1 PUSH2 0x1711 JUMP JUMPDEST PUSH1 0x40 MLOAD DUP1 SWAP2 SUB SWAP1 RETURN JUMPDEST PUSH2 0x235 PUSH1 0x4 DUP1 CALLDATASIZE SUB DUP2 ADD SWAP1 PUSH2 0x230 SWAP2 SWAP1 PUSH2 0x159B JUMP JUMPDEST PUSH2 0x85B JUMP JUMPDEST PUSH1 0x40 MLOAD PUSH2 0x244 SWAP4 SWAP3 SWAP2 SWAP1 PUSH2 0x1791 JUMP JUMPDEST PUSH1 0x40 MLOAD DUP1 SWAP2 SUB SWAP1 RETURN JUMPDEST PUSH2 0x267 PUSH1 0x4 DUP1 CALLDATASIZE SUB DUP2 ADD SWAP1 PUSH2 0x262 SWAP2 SWAP1 PUSH2 0x12EF JUMP JUMPDEST PUSH2 0x98D JUMP JUMPDEST STOP JUMPDEST PUSH2 0x283 PUSH1 0x4 DUP1 CALLDATASIZE SUB DUP2 ADD SWAP1 PUSH2 0x27E SWAP2 SWAP1 PUSH2 0x17D4 JUMP JUMPDEST PUSH2 0xBC9 JUMP JUMPDEST STOP JUMPDEST PUSH2 0x29F PUSH1 0x4 DUP1 CALLDATASIZE SUB DUP2 ADD SWAP1 PUSH2 0x29A SWAP2 SWAP1 PUSH2 0x12EF JUMP JUMPDEST PUSH2 0xD51 JUMP JUMPDEST PUSH1 0x40 MLOAD PUSH2 0x2AD SWAP3 SWAP2 SWAP1 PUSH2 0x1870 JUMP JUMPDEST PUSH1 0x40 MLOAD DUP1 SWAP2 SUB SWAP1 RETURN JUMPDEST PUSH2 0x2BE PUSH2 0xE02 JUMP JUMPDEST PUSH1 0x40 MLOAD PUSH2 0x2CB SWAP2 SWAP1 PUSH2 0x126B JUMP JUMPDEST PUSH1 0x40 MLOAD DUP1 SWAP2 SUB SWAP1 RETURN JUMPDEST PUSH2 0x2EE PUSH1 0x4 DUP1 CALLDATASIZE SUB DUP2 ADD SWAP1 PUSH2 0x2E9 SWAP2 SWAP1 PUSH2 0x159B JUMP JUMPDEST PUSH2 0xE0B JUMP JUMPDEST PUSH1 0x40 MLOAD PUSH2 0x2FE SWAP5 SWAP4 SWAP3 SWAP2 SWAP1 PUSH2 0x189E JUMP JUMPDEST PUSH1 0x40 MLOAD DUP1 SWAP2 SUB SWAP1 RETURN JUMPDEST PUSH2 0x321 PUSH1 0x4 DUP1 CALLDATASIZE SUB DUP2 ADD SWAP1 PUSH2 0x31C SWAP2 SWAP1 PUSH2 0x12EF JUMP JUMPDEST PUSH2 0x1033 JUMP JUMPDEST PUSH1 0x40 MLOAD PUSH2 0x32E SWAP2 SWAP1 PUSH2 0x18F6 JUMP JUMPDEST PUSH1 0x40 MLOAD DUP1 SWAP2 SUB SWAP1 RETURN JUMPDEST PUSH2 0x33F PUSH2 0x1101 JUMP JUMPDEST PUSH1 0x40 MLOAD PUSH2 0x34C SWAP2 SWAP1 PUSH2 0x126B JUMP JUMPDEST PUSH1 0x40 MLOAD DUP1 SWAP2 SUB SWAP1 RETURN JUMPDEST PUSH2 0x35D PUSH2 0x1107 JUMP JUMPDEST PUSH1 0x40 MLOAD PUSH2 0x36A SWAP2 SWAP1 PUSH2 0x19CD JUMP JUMPDEST PUSH1 0x40 MLOAD DUP1 SWAP2 SUB SWAP1 RETURN JUMPDEST PUSH1 0x2 SLOAD DUP2 JUMP JUMPDEST PUSH0 DUP1 PUSH0 DUP4 PUSH20 0xFFFFFFFFFFFFFFFFFFFFFFFFFFFFFFFFFFFFFFFF AND PUSH20 0xFFFFFFFFFFFFFFFFFFFFFFFFFFFFFFFFFFFFFFFF AND DUP2 MSTORE PUSH1 0x20 ADD SWAP1 DUP2 MSTORE PUSH1 0x20 ADD PUSH0 KECCAK256 PUSH1 0x1 ADD PUSH0 SWAP1 SLOAD SWAP1 PUSH2 0x100 EXP SWAP1 DIV PUSH1 0xFF AND SWAP1 POP SWAP2 SWAP1 POP JUMP JUMPDEST PUSH0 PUSH1 0x4 DUP2 GT ISZERO PUSH2 0x3E0 JUMPI PUSH2 0x3DF PUSH2 0x131A JUMP JUMPDEST JUMPDEST PUSH0 DUP1 DUP6 PUSH20 0xFFFFFFFFFFFFFFFFFFFFFFFFFFFFFFFFFFFFFFFF AND PUSH20 0xFFFFFFFFFFFFFFFFFFFFFFFFFFFFFFFFFFFFFFFF AND DUP2 MSTORE PUSH1 0x20 ADD SWAP1 DUP2 MSTORE PUSH1 0x20 ADD PUSH0 KECCAK256 PUSH1 0x1 ADD PUSH0 SWAP1 SLOAD SWAP1 PUSH2 0x100 EXP SWAP1 DIV PUSH1 0xFF AND PUSH1 0x4 DUP2 GT ISZERO PUSH2 0x43E JUMPI PUSH2 0x43D PUSH2 0x131A JUMP JUMPDEST JUMPDEST EQ PUSH2 0x47E JUMPI PUSH1 0x40 MLOAD PUSH32 0x8C379A000000000000000000000000000000000000000000000000000000000 DUP2 MSTORE PUSH1 0x4 ADD PUSH2 0x475 SWAP1 PUSH2 0x1A37 JUMP JUMPDEST PUSH1 0x40 MLOAD DUP1 SWAP2 SUB SWAP1 REVERT JUMPDEST PUSH1 0x40 MLOAD DUP1 PUSH1 0x40 ADD PUSH1 0x40 MSTORE DUP1 DUP4 DUP2 MSTORE PUSH1 0x20 ADD DUP3 PUSH1 0x4 DUP2 GT ISZERO PUSH2 0x4A2 JUMPI PUSH2 0x4A1 PUSH2 0x131A JUMP JUMPDEST JUMPDEST DUP2 MSTORE POP PUSH0 DUP1 DUP6 PUSH20 0xFFFFFFFFFFFFFFFFFFFFFFFFFFFFFFFFFFFFFFFF AND PUSH20 0xFFFFFFFFFFFFFFFFFFFFFFFFFFFFFFFFFFFFFFFF AND DUP2 MSTORE PUSH1 0x20 ADD SWAP1 DUP2 MSTORE PUSH1 0x20 ADD PUSH0 KECCAK256 PUSH0 DUP3 ADD MLOAD DUP2 PUSH0 ADD SWAP1 DUP2 PUSH2 0x4F4 SWAP2 SWAP1 PUSH2 0x1C4F JUMP JUMPDEST POP PUSH1 0x20 DUP3 ADD MLOAD DUP2 PUSH1 0x1 ADD PUSH0 PUSH2 0x100 EXP DUP2 SLOAD DUP2 PUSH1 0xFF MUL NOT AND SWAP1 DUP4 PUSH1 0x4 DUP2 GT ISZERO PUSH2 0x51F JUMPI PUSH2 0x51E PUSH2 0x131A JUMP JUMPDEST JUMPDEST MUL OR SWAP1 SSTORE POP SWAP1 POP POP PUSH1 0x1 DUP4 SWAP1 DUP1 PUSH1 0x1 DUP2 SLOAD ADD DUP1 DUP3 SSTORE DUP1 SWAP2 POP POP PUSH1 0x1 SWAP1 SUB SWAP1 PUSH0 MSTORE PUSH1 0x20 PUSH0 KECCAK256 ADD PUSH0 SWAP1 SWAP2 SWAP1 SWAP2 SWAP1 SWAP2 PUSH2 0x100 EXP DUP2 SLOAD DUP2 PUSH20 0xFFFFFFFFFFFFFFFFFFFFFFFFFFFFFFFFFFFFFFFF MUL NOT AND SWAP1 DUP4 PUSH20 0xFFFFFFFFFFFFFFFFFFFFFFFFFFFFFFFFFFFFFFFF AND MUL OR SWAP1 SSTORE POP PUSH1 0x2 PUSH0 DUP2 SLOAD DUP1 SWAP3 SWAP2 SWAP1 PUSH2 0x599 SWAP1 PUSH2 0x1D4B JUMP JUMPDEST SWAP2 SWAP1 POP SSTORE POP DUP3 PUSH20 0xFFFFFFFFFFFFFFFFFFFFFFFFFFFFFFFFFFFFFFFF AND PUSH32 0x8897D4C16F6B907647CC92F3B2F80418AC81581B8E74F9DDA595D3910B44C862 DUP4 DUP4 PUSH1 0x40 MLOAD PUSH2 0x5E6 SWAP3 SWAP2 SWAP1 PUSH2 0x1870 JUMP JUMPDEST PUSH1 0x40 MLOAD DUP1 SWAP2 SUB SWAP1 LOG2 POP POP POP JUMP JUMPDEST PUSH0 PUSH1 0x4 SLOAD SWAP1 POP SWAP1 JUMP JUMPDEST PUSH1 0x1 DUP2 DUP2 SLOAD DUP2 LT PUSH2 0x60B JUMPI PUSH0 DUP1 REVERT JUMPDEST SWAP1 PUSH0 MSTORE PUSH1 0x20 PUSH0 KECCAK256 ADD PUSH0 SWAP2 POP SLOAD SWAP1 PUSH2 0x100 EXP SWAP1 DIV PUSH20 0xFFFFFFFFFFFFFFFFFFFFFFFFFFFFFFFFFFFFFFFF AND DUP2 JUMP JUMPDEST PUSH1 0x4 SLOAD DUP4 GT ISZERO PUSH2 0x67C JUMPI PUSH1 0x40 MLOAD PUSH32 0x8C379A000000000000000000000000000000000000000000000000000000000 DUP2 MSTORE PUSH1 0x4 ADD PUSH2 0x673 SWAP1 PUSH2 0x1DDC JUMP JUMPDEST PUSH1 0x40 MLOAD DUP1 SWAP2 SUB SWAP1 REVERT JUMPDEST PUSH0 PUSH1 0x3 PUSH0 DUP6 DUP2 MSTORE PUSH1 0x20 ADD SWAP1 DUP2 MSTORE PUSH1 0x20 ADD PUSH0 KECCAK256 SWAP1 POP DUP3 DUP2 PUSH1 0x1 ADD SWAP1 DUP2 PUSH2 0x6A1 SWAP2 SWAP1 PUSH2 0x1C4F JUMP JUMPDEST POP DUP2 DUP2 PUSH1 0x2 ADD DUP2 SWAP1 SSTORE POP DUP4 PUSH32 0xF9B1D9170FBE32752353E00D62E5276B143166C75AA974030DDDFAC2895601FE DUP5 DUP5 PUSH1 0x40 MLOAD PUSH2 0x6DD SWAP3 SWAP2 SWAP1 PUSH2 0x1DFA JUMP JUMPDEST PUSH1 0x40 MLOAD DUP1 SWAP2 SUB SWAP1 LOG2 POP POP POP POP JUMP JUMPDEST PUSH1 0x4 SLOAD DUP2 GT ISZERO PUSH2 0x730 JUMPI PUSH1 0x40 MLOAD PUSH32 0x8C379A000000000000000000000000000000000000000000000000000000000 DUP2 MSTORE PUSH1 0x4 ADD PUSH2 0x727 SWAP1 PUSH2 0x1DDC JUMP JUMPDEST PUSH1 0x40 MLOAD DUP1 SWAP2 SUB SWAP1 REVERT JUMPDEST PUSH1 0x3 PUSH0 DUP3 DUP2 MSTORE PUSH1 0x20 ADD SWAP1 DUP2 MSTORE PUSH1 0x20 ADD PUSH0 KECCAK256 PUSH0 DUP1 DUP3 ADD PUSH0 PUSH2 0x750 SWAP2 SWAP1 PUSH2 0x1192 JUMP JUMPDEST PUSH1 0x1 DUP3 ADD PUSH0 PUSH2 0x75F SWAP2 SWAP1 PUSH2 0x1192 JUMP JUMPDEST PUSH1 0x2 DUP3 ADD PUSH0 SWAP1 SSTORE PUSH1 0x3 DUP3 ADD PUSH0 PUSH2 0x775 SWAP2 SWAP1 PUSH2 0x11CF JUMP JUMPDEST POP POP DUP1 PUSH32 0x7015631CFF457B5B13492C2045E70C6305A0A4AA773E432E79ABBE2CF52C1EB PUSH1 0x40 MLOAD PUSH1 0x40 MLOAD DUP1 SWAP2 SUB SWAP1 LOG2 PUSH1 0x4 PUSH0 DUP2 SLOAD DUP1 SWAP3 SWAP2 SWAP1 PUSH2 0x7B6 SWAP1 PUSH2 0x1E28 JUMP JUMPDEST SWAP2 SWAP1 POP SSTORE POP POP JUMP JUMPDEST PUSH1 0x60 PUSH0 PUSH1 0x4 SLOAD PUSH8 0xFFFFFFFFFFFFFFFF DUP2 GT ISZERO PUSH2 0x7DD JUMPI PUSH2 0x7DC PUSH2 0x13BE JUMP JUMPDEST JUMPDEST PUSH1 0x40 MLOAD SWAP1 DUP1 DUP3 MSTORE DUP1 PUSH1 0x20 MUL PUSH1 0x20 ADD DUP3 ADD PUSH1 0x40 MSTORE DUP1 ISZERO PUSH2 0x80B JUMPI DUP2 PUSH1 0x20 ADD PUSH1 0x20 DUP3 MUL DUP1 CALLDATASIZE DUP4 CALLDATACOPY DUP1 DUP3 ADD SWAP2 POP POP SWAP1 POP JUMPDEST POP SWAP1 POP PUSH0 JUMPDEST PUSH1 0x4 SLOAD DUP2 LT ISZERO PUSH2 0x853 JUMPI PUSH1 0x1 DUP2 PUSH2 0x827 SWAP2 SWAP1 PUSH2 0x1E4F JUMP JUMPDEST DUP3 DUP3 DUP2 MLOAD DUP2 LT PUSH2 0x83A JUMPI PUSH2 0x839 PUSH2 0x1E82 JUMP JUMPDEST JUMPDEST PUSH1 0x20 MUL PUSH1 0x20 ADD ADD DUP2 DUP2 MSTORE POP POP DUP1 DUP1 PUSH1 0x1 ADD SWAP2 POP POP PUSH2 0x810 JUMP JUMPDEST POP DUP1 SWAP2 POP POP SWAP1 JUMP JUMPDEST PUSH1 0x3 PUSH1 0x20 MSTORE DUP1 PUSH0 MSTORE PUSH1 0x40 PUSH0 KECCAK256 PUSH0 SWAP2 POP SWAP1 POP DUP1 PUSH0 ADD DUP1 SLOAD PUSH2 0x87A SWAP1 PUSH2 0x1A82 JUMP JUMPDEST DUP1 PUSH1 0x1F ADD PUSH1 0x20 DUP1 SWAP2 DIV MUL PUSH1 0x20 ADD PUSH1 0x40 MLOAD SWAP1 DUP2 ADD PUSH1 0x40 MSTORE DUP1 SWAP3 SWAP2 SWAP1 DUP2 DUP2 MSTORE PUSH1 0x20 ADD DUP3 DUP1 SLOAD PUSH2 0x8A6 SWAP1 PUSH2 0x1A82 JUMP JUMPDEST DUP1 ISZERO PUSH2 0x8F1 JUMPI DUP1 PUSH1 0x1F LT PUSH2 0x8C8 JUMPI PUSH2 0x100 DUP1 DUP4 SLOAD DIV MUL DUP4 MSTORE SWAP2 PUSH1 0x20 ADD SWAP2 PUSH2 0x8F1 JUMP JUMPDEST DUP3 ADD SWAP2 SWAP1 PUSH0 MSTORE PUSH1 0x20 PUSH0 KECCAK256 SWAP1 JUMPDEST DUP2 SLOAD DUP2 MSTORE SWAP1 PUSH1 0x1 ADD SWAP1 PUSH1 0x20 ADD DUP1 DUP4 GT PUSH2 0x8D4 JUMPI DUP3 SWAP1 SUB PUSH1 0x1F AND DUP3 ADD SWAP2 JUMPDEST POP POP POP POP POP SWAP1 DUP1 PUSH1 0x1 ADD DUP1 SLOAD PUSH2 0x906 SWAP1 PUSH2 0x1A82 JUMP JUMPDEST DUP1 PUSH1 0x1F ADD PUSH1 0x20 DUP1 SWAP2 DIV MUL PUSH1 0x20 ADD PUSH1 0x40 MLOAD SWAP1 DUP2 ADD PUSH1 0x40 MSTORE DUP1 SWAP3 SWAP2 SWAP1 DUP2 DUP2 MSTORE PUSH1 0x20 ADD DUP3 DUP1 SLOAD PUSH2 0x932 SWAP1 PUSH2 0x1A82 JUMP JUMPDEST DUP1 ISZERO PUSH2 0x97D JUMPI DUP1 PUSH1 0x1F LT PUSH2 0x954 JUMPI PUSH2 0x100 DUP1 DUP4 SLOAD DIV MUL DUP4 MSTORE SWAP2 PUSH1 0x20 ADD SWAP2 PUSH2 0x97D JUMP JUMPDEST DUP3 ADD SWAP2 SWAP1 PUSH0 MSTORE PUSH1 0x20 PUSH0 KECCAK256 SWAP1 JUMPDEST DUP2 SLOAD DUP2 MSTORE SWAP1 PUSH1 0x1 ADD SWAP1 PUSH1 0x20 ADD DUP1 DUP4 GT PUSH2 0x960 JUMPI DUP3 SWAP1 SUB PUSH1 0x1F AND DUP3 ADD SWAP2 JUMPDEST POP POP POP POP POP SWAP1 DUP1 PUSH1 0x2 ADD SLOAD SWAP1 POP DUP4 JUMP JUMPDEST PUSH0 PUSH1 0x4 DUP2 GT ISZERO PUSH2 0x9A0 JUMPI PUSH2 0x99F PUSH2 0x131A JUMP JUMPDEST JUMPDEST PUSH0 DUP1 DUP4 PUSH20 0xFFFFFFFFFFFFFFFFFFFFFFFFFFFFFFFFFFFFFFFF AND PUSH20 0xFFFFFFFFFFFFFFFFFFFFFFFFFFFFFFFFFFFFFFFF AND DUP2 MSTORE PUSH1 0x20 ADD SWAP1 DUP2 MSTORE PUSH1 0x20 ADD PUSH0 KECCAK256 PUSH1 0x1 ADD PUSH0 SWAP1 SLOAD SWAP1 PUSH2 0x100 EXP SWAP1 DIV PUSH1 0xFF AND PUSH1 0x4 DUP2 GT ISZERO PUSH2 0x9FE JUMPI PUSH2 0x9FD PUSH2 0x131A JUMP JUMPDEST JUMPDEST SUB PUSH2 0xA3E JUMPI PUSH1 0x40 MLOAD PUSH32 0x8C379A000000000000000000000000000000000000000000000000000000000 DUP2 MSTORE PUSH1 0x4 ADD PUSH2 0xA35 SWAP1 PUSH2 0x1EF9 JUMP JUMPDEST PUSH1 0x40 MLOAD DUP1 SWAP2 SUB SWAP1 REVERT JUMPDEST PUSH0 DUP1 DUP3 PUSH20 0xFFFFFFFFFFFFFFFFFFFFFFFFFFFFFFFFFFFFFFFF AND PUSH20 0xFFFFFFFFFFFFFFFFFFFFFFFFFFFFFFFFFFFFFFFF AND DUP2 MSTORE PUSH1 0x20 ADD SWAP1 DUP2 MSTORE PUSH1 0x20 ADD PUSH0 KECCAK256 PUSH0 DUP1 DUP3 ADD PUSH0 PUSH2 0xA89 SWAP2 SWAP1 PUSH2 0x1192 JUMP JUMPDEST PUSH1 0x1 DUP3 ADD PUSH0 PUSH2 0x100 EXP DUP2 SLOAD SWAP1 PUSH1 0xFF MUL NOT AND SWAP1 SSTORE POP POP DUP1 PUSH20 0xFFFFFFFFFFFFFFFFFFFFFFFFFFFFFFFFFFFFFFFF AND PUSH32 0xE9DCE8C992623CE791725B21E857E33248D1F190A25B5168313420EEBDAAE99D PUSH1 0x40 MLOAD PUSH1 0x40 MLOAD DUP1 SWAP2 SUB SWAP1 LOG2 PUSH0 JUMPDEST PUSH1 0x1 DUP1 SLOAD SWAP1 POP DUP2 LT ISZERO PUSH2 0xBAE JUMPI DUP2 PUSH20 0xFFFFFFFFFFFFFFFFFFFFFFFFFFFFFFFFFFFFFFFF AND PUSH1 0x1 DUP3 DUP2 SLOAD DUP2 LT PUSH2 0xB1B JUMPI PUSH2 0xB1A PUSH2 0x1E82 JUMP JUMPDEST JUMPDEST SWAP1 PUSH0 MSTORE PUSH1 0x20 PUSH0 KECCAK256 ADD PUSH0 SWAP1 SLOAD SWAP1 PUSH2 0x100 EXP SWAP1 DIV PUSH20 0xFFFFFFFFFFFFFFFFFFFFFFFFFFFFFFFFFFFFFFFF AND PUSH20 0xFFFFFFFFFFFFFFFFFFFFFFFFFFFFFFFFFFFFFFFF AND SUB PUSH2 0xBA1 JUMPI PUSH1 0x1 DUP2 DUP2 SLOAD DUP2 LT PUSH2 0xB72 JUMPI PUSH2 0xB71 PUSH2 0x1E82 JUMP JUMPDEST JUMPDEST SWAP1 PUSH0 MSTORE PUSH1 0x20 PUSH0 KECCAK256 ADD PUSH0 PUSH2 0x100 EXP DUP2 SLOAD SWAP1 PUSH20 0xFFFFFFFFFFFFFFFFFFFFFFFFFFFFFFFFFFFFFFFF MUL NOT AND SWAP1 SSTORE PUSH2 0xBAE JUMP JUMPDEST DUP1 DUP1 PUSH1 0x1 ADD SWAP2 POP POP PUSH2 0xAE3 JUMP JUMPDEST POP PUSH1 0x2 PUSH0 DUP2 SLOAD DUP1 SWAP3 SWAP2 SWAP1 PUSH2 0xBC1 SWAP1 PUSH2 0x1E28 JUMP JUMPDEST SWAP2 SWAP1 POP SSTORE POP POP JUMP JUMPDEST PUSH0 PUSH1 0x3 PUSH0 DUP7 DUP2 MSTORE PUSH1 0x20 ADD SWAP1 DUP2 MSTORE PUSH1 0x20 ADD PUSH0 KECCAK256 PUSH0 ADD DUP1 SLOAD PUSH2 0xBE8 SWAP1 PUSH2 0x1A82 JUMP JUMPDEST SWAP1 POP EQ PUSH2 0xC2A JUMPI PUSH1 0x40 MLOAD PUSH32 0x8C379A000000000000000000000000000000000000000000000000000000000 DUP2 MSTORE PUSH1 0x4 ADD PUSH2 0xC21 SWAP1 PUSH2 0x1F61 JUMP JUMPDEST PUSH1 0x40 MLOAD DUP1 SWAP2 SUB SWAP1 REVERT JUMPDEST PUSH1 0x40 MLOAD DUP1 PUSH1 0x80 ADD PUSH1 0x40 MSTORE DUP1 DUP5 DUP2 MSTORE PUSH1 0x20 ADD DUP4 DUP2 MSTORE PUSH1 0x20 ADD DUP3 DUP2 MSTORE PUSH1 0x20 ADD PUSH0 PUSH8 0xFFFFFFFFFFFFFFFF DUP2 GT ISZERO PUSH2 0xC61 JUMPI PUSH2 0xC60 PUSH2 0x13BE JUMP JUMPDEST JUMPDEST PUSH1 0x40 MLOAD SWAP1 DUP1 DUP3 MSTORE DUP1 PUSH1 0x20 MUL PUSH1 0x20 ADD DUP3 ADD PUSH1 0x40 MSTORE DUP1 ISZERO PUSH2 0xC8F JUMPI DUP2 PUSH1 0x20 ADD PUSH1 0x20 DUP3 MUL DUP1 CALLDATASIZE DUP4 CALLDATACOPY DUP1 DUP3 ADD SWAP2 POP POP SWAP1 POP JUMPDEST POP DUP2 MSTORE POP PUSH1 0x3 PUSH0 DUP7 DUP2 MSTORE PUSH1 0x20 ADD SWAP1 DUP2 MSTORE PUSH1 0x20 ADD PUSH0 KECCAK256 PUSH0 DUP3 ADD MLOAD DUP2 PUSH0 ADD SWAP1 DUP2 PUSH2 0xCB7 SWAP2 SWAP1 PUSH2 0x1C4F JUMP JUMPDEST POP PUSH1 0x20 DUP3 ADD MLOAD DUP2 PUSH1 0x1 ADD SWAP1 DUP2 PUSH2 0xCCD SWAP2 SWAP1 PUSH2 0x1C4F JUMP JUMPDEST POP PUSH1 0x40 DUP3 ADD MLOAD DUP2 PUSH1 0x2 ADD SSTORE PUSH1 0x60 DUP3 ADD MLOAD DUP2 PUSH1 0x3 ADD SWAP1 DUP1 MLOAD SWAP1 PUSH1 0x20 ADD SWAP1 PUSH2 0xCF4 SWAP3 SWAP2 SWAP1 PUSH2 0x11ED JUMP JUMPDEST POP SWAP1 POP POP PUSH1 0x4 PUSH0 DUP2 SLOAD DUP1 SWAP3 SWAP2 SWAP1 PUSH2 0xD0A SWAP1 PUSH2 0x1D4B JUMP JUMPDEST SWAP2 SWAP1 POP SSTORE POP DUP4 PUSH32 0x7A092309290915A35151881D9282456B222C739A7D845ACD25A6C13B75D62F13 DUP5 DUP5 DUP5 PUSH1 0x40 MLOAD PUSH2 0xD43 SWAP4 SWAP3 SWAP2 SWAP1 PUSH2 0x1791 JUMP JUMPDEST PUSH1 0x40 MLOAD DUP1 SWAP2 SUB SWAP1 LOG2 POP POP POP POP JUMP JUMPDEST PUSH0 PUSH1 0x20 MSTORE DUP1 PUSH0 MSTORE PUSH1 0x40 PUSH0 KECCAK256 PUSH0 SWAP2 POP SWAP1 POP DUP1 PUSH0 ADD DUP1 SLOAD PUSH2 0xD6F SWAP1 PUSH2 0x1A82 JUMP JUMPDEST DUP1 PUSH1 0x1F ADD PUSH1 0x20 DUP1 SWAP2 DIV MUL PUSH1 0x20 ADD PUSH1 0x40 MLOAD SWAP1 DUP2 ADD PUSH1 0x40 MSTORE DUP1 SWAP3 SWAP2 SWAP1 DUP2 DUP2 MSTORE PUSH1 0x20 ADD DUP3 DUP1 SLOAD PUSH2 0xD9B SWAP1 PUSH2 0x1A82 JUMP JUMPDEST DUP1 ISZERO PUSH2 0xDE6 JUMPI DUP1 PUSH1 0x1F LT PUSH2 0xDBD JUMPI PUSH2 0x100 DUP1 DUP4 SLOAD DIV MUL DUP4 MSTORE SWAP2 PUSH1 0x20 ADD SWAP2 PUSH2 0xDE6 JUMP JUMPDEST DUP3 ADD SWAP2 SWAP1 PUSH0 MSTORE PUSH1 0x20 PUSH0 KECCAK256 SWAP1 JUMPDEST DUP2 SLOAD DUP2 MSTORE SWAP1 PUSH1 0x1 ADD SWAP1 PUSH1 0x20 ADD DUP1 DUP4 GT PUSH2 0xDC9 JUMPI DUP3 SWAP1 SUB PUSH1 0x1F AND DUP3 ADD SWAP2 JUMPDEST POP POP POP POP POP SWAP1 DUP1 PUSH1 0x1 ADD PUSH0 SWAP1 SLOAD SWAP1 PUSH2 0x100 EXP SWAP1 DIV PUSH1 0xFF AND SWAP1 POP DUP3 JUMP JUMPDEST PUSH0 PUSH1 0x2 SLOAD SWAP1 POP SWAP1 JUMP JUMPDEST PUSH1 0x60 DUP1 PUSH0 PUSH1 0x60 PUSH0 PUSH1 0x3 PUSH0 DUP8 DUP2 MSTORE PUSH1 0x20 ADD SWAP1 DUP2 MSTORE PUSH1 0x20 ADD PUSH0 KECCAK256 PUSH0 ADD DUP1 SLOAD PUSH2 0xE30 SWAP1 PUSH2 0x1A82 JUMP JUMPDEST SWAP1 POP SUB PUSH2 0xE72 JUMPI PUSH1 0x40 MLOAD PUSH32 0x8C379A000000000000000000000000000000000000000000000000000000000 DUP2 MSTORE PUSH1 0x4 ADD PUSH2 0xE69 SWAP1 PUSH2 0x1DDC JUMP JUMPDEST PUSH1 0x40 MLOAD DUP1 SWAP2 SUB SWAP1 REVERT JUMPDEST PUSH0 PUSH1 0x3 PUSH0 DUP8 DUP2 MSTORE PUSH1 0x20 ADD SWAP1 DUP2 MSTORE PUSH1 0x20 ADD PUSH0 KECCAK256 PUSH1 0x40 MLOAD DUP1 PUSH1 0x80 ADD PUSH1 0x40 MSTORE SWAP1 DUP2 PUSH0 DUP3 ADD DUP1 SLOAD PUSH2 0xE9E SWAP1 PUSH2 0x1A82 JUMP JUMPDEST DUP1 PUSH1 0x1F ADD PUSH1 0x20 DUP1 SWAP2 DIV MUL PUSH1 0x20 ADD PUSH1 0x40 MLOAD SWAP1 DUP2 ADD PUSH1 0x40 MSTORE DUP1 SWAP3 SWAP2 SWAP1 DUP2 DUP2 MSTORE PUSH1 0x20 ADD DUP3 DUP1 SLOAD PUSH2 0xECA SWAP1 PUSH2 0x1A82 JUMP JUMPDEST DUP1 ISZERO PUSH2 0xF15 JUMPI DUP1 PUSH1 0x1F LT PUSH2 0xEEC JUMPI PUSH2 0x100 DUP1 DUP4 SLOAD DIV MUL DUP4 MSTORE SWAP2 PUSH1 0x20 ADD SWAP2 PUSH2 0xF15 JUMP JUMPDEST DUP3 ADD SWAP2 SWAP1 PUSH0 MSTORE PUSH1 0x20 PUSH0 KECCAK256 SWAP1 JUMPDEST DUP2 SLOAD DUP2 MSTORE SWAP1 PUSH1 0x1 ADD SWAP1 PUSH1 0x20 ADD DUP1 DUP4 GT PUSH2 0xEF8 JUMPI DUP3 SWAP1 SUB PUSH1 0x1F AND DUP3 ADD SWAP2 JUMPDEST POP POP POP POP POP DUP2 MSTORE PUSH1 0x20 ADD PUSH1 0x1 DUP3 ADD DUP1 SLOAD PUSH2 0xF2E SWAP1 PUSH2 0x1A82 JUMP JUMPDEST DUP1 PUSH1 0x1F ADD PUSH1 0x20 DUP1 SWAP2 DIV MUL PUSH1 0x20 ADD PUSH1 0x40 MLOAD SWAP1 DUP2 ADD PUSH1 0x40 MSTORE DUP1 SWAP3 SWAP2 SWAP1 DUP2 DUP2 MSTORE PUSH1 0x20 ADD DUP3 DUP1 SLOAD PUSH2 0xF5A SWAP1 PUSH2 0x1A82 JUMP JUMPDEST DUP1 ISZERO PUSH2 0xFA5 JUMPI DUP1 PUSH1 0x1F LT PUSH2 0xF7C JUMPI PUSH2 0x100 DUP1 DUP4 SLOAD DIV MUL DUP4 MSTORE SWAP2 PUSH1 0x20 ADD SWAP2 PUSH2 0xFA5 JUMP JUMPDEST DUP3 ADD SWAP2 SWAP1 PUSH0 MSTORE PUSH1 0x20 PUSH0 KECCAK256 SWAP1 JUMPDEST DUP2 SLOAD DUP2 MSTORE SWAP1 PUSH1 0x1 ADD SWAP1 PUSH1 0x20 ADD DUP1 DUP4 GT PUSH2 0xF88 JUMPI DUP3 SWAP1 SUB PUSH1 0x1F AND DUP3 ADD SWAP2 JUMPDEST POP POP POP POP POP DUP2 MSTORE PUSH1 0x20 ADD PUSH1 0x2 DUP3 ADD SLOAD DUP2 MSTORE PUSH1 0x20 ADD PUSH1 0x3 DUP3 ADD DUP1 SLOAD DUP1 PUSH1 0x20 MUL PUSH1 0x20 ADD PUSH1 0x40 MLOAD SWAP1 DUP2 ADD PUSH1 0x40 MSTORE DUP1 SWAP3 SWAP2 SWAP1 DUP2 DUP2 MSTORE PUSH1 0x20 ADD DUP3 DUP1 SLOAD DUP1 ISZERO PUSH2 0x1005 JUMPI PUSH1 0x20 MUL DUP3 ADD SWAP2 SWAP1 PUSH0 MSTORE PUSH1 0x20 PUSH0 KECCAK256 SWAP1 JUMPDEST DUP2 SLOAD DUP2 MSTORE PUSH1 0x20 ADD SWAP1 PUSH1 0x1 ADD SWAP1 DUP1 DUP4 GT PUSH2 0xFF1 JUMPI JUMPDEST POP POP POP POP POP DUP2 MSTORE POP POP SWAP1 POP DUP1 PUSH0 ADD MLOAD DUP2 PUSH1 0x20 ADD MLOAD DUP3 PUSH1 0x40 ADD MLOAD DUP4 PUSH1 0x60 ADD MLOAD SWAP5 POP SWAP5 POP SWAP5 POP SWAP5 POP POP SWAP2 SWAP4 POP SWAP2 SWAP4 JUMP JUMPDEST PUSH1 0x60 PUSH0 DUP1 DUP4 PUSH20 0xFFFFFFFFFFFFFFFFFFFFFFFFFFFFFFFFFFFFFFFF AND PUSH20 0xFFFFFFFFFFFFFFFFFFFFFFFFFFFFFFFFFFFFFFFF AND DUP2 MSTORE PUSH1 0x20 ADD SWAP1 DUP2 MSTORE PUSH1 0x20 ADD PUSH0 KECCAK256 PUSH0 ADD DUP1 SLOAD PUSH2 0x107E SWAP1 PUSH2 0x1A82 JUMP JUMPDEST DUP1 PUSH1 0x1F ADD PUSH1 0x20 DUP1 SWAP2 DIV MUL PUSH1 0x20 ADD PUSH1 0x40 MLOAD SWAP1 DUP2 ADD PUSH1 0x40 MSTORE DUP1 SWAP3 SWAP2 SWAP1 DUP2 DUP2 MSTORE PUSH1 0x20 ADD DUP3 DUP1 SLOAD PUSH2 0x10AA SWAP1 PUSH2 0x1A82 JUMP JUMPDEST DUP1 ISZERO PUSH2 0x10F5 JUMPI DUP1 PUSH1 0x1F LT PUSH2 0x10CC JUMPI PUSH2 0x100 DUP1 DUP4 SLOAD DIV MUL DUP4 MSTORE SWAP2 PUSH1 0x20 ADD SWAP2 PUSH2 0x10F5 JUMP JUMPDEST DUP3 ADD SWAP2 SWAP1 PUSH0 MSTORE PUSH1 0x20 PUSH0 KECCAK256 SWAP1 JUMPDEST DUP2 SLOAD DUP2 MSTORE SWAP1 PUSH1 0x1 ADD SWAP1 PUSH1 0x20 ADD DUP1 DUP4 GT PUSH2 0x10D8 JUMPI DUP3 SWAP1 SUB PUSH1 0x1F AND DUP3 ADD SWAP2 JUMPDEST POP POP POP POP POP SWAP1 POP SWAP2 SWAP1 POP JUMP JUMPDEST PUSH1 0x4 SLOAD DUP2 JUMP JUMPDEST PUSH1 0x60 PUSH1 0x1 DUP1 SLOAD DUP1 PUSH1 0x20 MUL PUSH1 0x20 ADD PUSH1 0x40 MLOAD SWAP1 DUP2 ADD PUSH1 0x40 MSTORE DUP1 SWAP3 SWAP2 SWAP1 DUP2 DUP2 MSTORE PUSH1 0x20 ADD DUP3 DUP1 SLOAD DUP1 ISZERO PUSH2 0x1188 JUMPI PUSH1 0x20 MUL DUP3 ADD SWAP2 SWAP1 PUSH0 MSTORE PUSH1 0x20 PUSH0 KECCAK256 SWAP1 JUMPDEST DUP2 PUSH0 SWAP1 SLOAD SWAP1 PUSH2 0x100 EXP SWAP1 DIV PUSH20 0xFFFFFFFFFFFFFFFFFFFFFFFFFFFFFFFFFFFFFFFF AND PUSH20 0xFFFFFFFFFFFFFFFFFFFFFFFFFFFFFFFFFFFFFFFF AND DUP2 MSTORE PUSH1 0x20 ADD SWAP1 PUSH1 0x1 ADD SWAP1 DUP1 DUP4 GT PUSH2 0x113F JUMPI JUMPDEST POP POP POP POP POP SWAP1 POP SWAP1 JUMP JUMPDEST POP DUP1 SLOAD PUSH2 0x119E SWAP1 PUSH2 0x1A82 JUMP JUMPDEST PUSH0 DUP3 SSTORE DUP1 PUSH1 0x1F LT PUSH2 0x11AF JUMPI POP PUSH2 0x11CC JUMP JUMPDEST PUSH1 0x1F ADD PUSH1 0x20 SWAP1 DIV SWAP1 PUSH0 MSTORE PUSH1 0x20 PUSH0 KECCAK256 SWAP1 DUP2 ADD SWAP1 PUSH2 0x11CB SWAP2 SWAP1 PUSH2 0x1238 JUMP JUMPDEST JUMPDEST POP JUMP JUMPDEST POP DUP1 SLOAD PUSH0 DUP3 SSTORE SWAP1 PUSH0 MSTORE PUSH1 0x20 PUSH0 KECCAK256 SWAP1 DUP2 ADD SWAP1 PUSH2 0x11EA SWAP2 SWAP1 PUSH2 0x1238 JUMP JUMPDEST POP JUMP JUMPDEST DUP3 DUP1 SLOAD DUP3 DUP3 SSTORE SWAP1 PUSH0 MSTORE PUSH1 0x20 PUSH0 KECCAK256 SWAP1 DUP2 ADD SWAP3 DUP3 ISZERO PUSH2 0x1227 JUMPI SWAP2 PUSH1 0x20 MUL DUP3 ADD JUMPDEST DUP3 DUP2 GT ISZERO PUSH2 0x1226 JUMPI DUP3 MLOAD DUP3 SSTORE SWAP2 PUSH1 0x20 ADD SWAP2 SWAP1 PUSH1 0x1 ADD SWAP1 PUSH2 0x120B JUMP JUMPDEST JUMPDEST POP SWAP1 POP PUSH2 0x1234 SWAP2 SWAP1 PUSH2 0x1238 JUMP JUMPDEST POP SWAP1 JUMP JUMPDEST JUMPDEST DUP1 DUP3 GT ISZERO PUSH2 0x124F JUMPI PUSH0 DUP2 PUSH0 SWAP1 SSTORE POP PUSH1 0x1 ADD PUSH2 0x1239 JUMP JUMPDEST POP SWAP1 JUMP JUMPDEST PUSH0 DUP2 SWAP1 POP SWAP2 SWAP1 POP JUMP JUMPDEST PUSH2 0x1265 DUP2 PUSH2 0x1253 JUMP JUMPDEST DUP3 MSTORE POP POP JUMP JUMPDEST PUSH0 PUSH1 0x20 DUP3 ADD SWAP1 POP PUSH2 0x127E PUSH0 DUP4 ADD DUP5 PUSH2 0x125C JUMP JUMPDEST SWAP3 SWAP2 POP POP JUMP JUMPDEST PUSH0 PUSH1 0x40 MLOAD SWAP1 POP SWAP1 JUMP JUMPDEST PUSH0 DUP1 REVERT JUMPDEST PUSH0 DUP1 REVERT JUMPDEST PUSH0 PUSH20 0xFFFFFFFFFFFFFFFFFFFFFFFFFFFFFFFFFFFFFFFF DUP3 AND SWAP1 POP SWAP2 SWAP1 POP JUMP JUMPDEST PUSH0 PUSH2 0x12BE DUP3 PUSH2 0x1295 JUMP JUMPDEST SWAP1 POP SWAP2 SWAP1 POP JUMP JUMPDEST PUSH2 0x12CE DUP2 PUSH2 0x12B4 JUMP JUMPDEST DUP2 EQ PUSH2 0x12D8 JUMPI PUSH0 DUP1 REVERT JUMPDEST POP JUMP JUMPDEST PUSH0 DUP2 CALLDATALOAD SWAP1 POP PUSH2 0x12E9 DUP2 PUSH2 0x12C5 JUMP JUMPDEST SWAP3 SWAP2 POP POP JUMP JUMPDEST PUSH0 PUSH1 0x20 DUP3 DUP5 SUB SLT ISZERO PUSH2 0x1304 JUMPI PUSH2 0x1303 PUSH2 0x128D JUMP JUMPDEST JUMPDEST PUSH0 PUSH2 0x1311 DUP5 DUP3 DUP6 ADD PUSH2 0x12DB JUMP JUMPDEST SWAP2 POP POP SWAP3 SWAP2 POP POP JUMP JUMPDEST PUSH32 0x4E487B7100000000000000000000000000000000000000000000000000000000 PUSH0 MSTORE PUSH1 0x21 PUSH1 0x4 MSTORE PUSH1 0x24 PUSH0 REVERT JUMPDEST PUSH1 0x5 DUP2 LT PUSH2 0x1358 JUMPI PUSH2 0x1357 PUSH2 0x131A JUMP JUMPDEST JUMPDEST POP JUMP JUMPDEST PUSH0 DUP2 SWAP1 POP PUSH2 0x1368 DUP3 PUSH2 0x1347 JUMP JUMPDEST SWAP2 SWAP1 POP JUMP JUMPDEST PUSH0 PUSH2 0x1377 DUP3 PUSH2 0x135B JUMP JUMPDEST SWAP1 POP SWAP2 SWAP1 POP JUMP JUMPDEST PUSH2 0x1387 DUP2 PUSH2 0x136D JUMP JUMPDEST DUP3 MSTORE POP POP JUMP JUMPDEST PUSH0 PUSH1 0x20 DUP3 ADD SWAP1 POP PUSH2 0x13A0 PUSH0 DUP4 ADD DUP5 PUSH2 0x137E JUMP JUMPDEST SWAP3 SWAP2 POP POP JUMP JUMPDEST PUSH0 DUP1 REVERT JUMPDEST PUSH0 DUP1 REVERT JUMPDEST PUSH0 PUSH1 0x1F NOT PUSH1 0x1F DUP4 ADD AND SWAP1 POP SWAP2 SWAP1 POP JUMP JUMPDEST PUSH32 0x4E487B7100000000000000000000000000000000000000000000000000000000 PUSH0 MSTORE PUSH1 0x41 PUSH1 0x4 MSTORE PUSH1 0x24 PUSH0 REVERT JUMPDEST PUSH2 0x13F4 DUP3 PUSH2 0x13AE JUMP JUMPDEST DUP2 ADD DUP2 DUP2 LT PUSH8 0xFFFFFFFFFFFFFFFF DUP3 GT OR ISZERO PUSH2 0x1413 JUMPI PUSH2 0x1412 PUSH2 0x13BE JUMP JUMPDEST JUMPDEST DUP1 PUSH1 0x40 MSTORE POP POP POP JUMP JUMPDEST PUSH0 PUSH2 0x1425 PUSH2 0x1284 JUMP JUMPDEST SWAP1 POP PUSH2 0x1431 DUP3 DUP3 PUSH2 0x13EB JUMP JUMPDEST SWAP2 SWAP1 POP JUMP JUMPDEST PUSH0 PUSH8 0xFFFFFFFFFFFFFFFF DUP3 GT ISZERO PUSH2 0x1450 JUMPI PUSH2 0x144F PUSH2 0x13BE JUMP JUMPDEST JUMPDEST PUSH2 0x1459 DUP3 PUSH2 0x13AE JUMP JUMPDEST SWAP1 POP PUSH1 0x20 DUP2 ADD SWAP1 POP SWAP2 SWAP1 POP JUMP JUMPDEST DUP3 DUP2 DUP4 CALLDATACOPY PUSH0 DUP4 DUP4 ADD MSTORE POP POP POP JUMP JUMPDEST PUSH0 PUSH2 0x1486 PUSH2 0x1481 DUP5 PUSH2 0x1436 JUMP JUMPDEST PUSH2 0x141C JUMP JUMPDEST SWAP1 POP DUP3 DUP2 MSTORE PUSH1 0x20 DUP2 ADD DUP5 DUP5 DUP5 ADD GT ISZERO PUSH2 0x14A2 JUMPI PUSH2 0x14A1 PUSH2 0x13AA JUMP JUMPDEST JUMPDEST PUSH2 0x14AD DUP5 DUP3 DUP6 PUSH2 0x1466 JUMP JUMPDEST POP SWAP4 SWAP3 POP POP POP JUMP JUMPDEST PUSH0 DUP3 PUSH1 0x1F DUP4 ADD SLT PUSH2 0x14C9 JUMPI PUSH2 0x14C8 PUSH2 0x13A6 JUMP JUMPDEST JUMPDEST DUP2 CALLDATALOAD PUSH2 0x14D9 DUP5 DUP3 PUSH1 0x20 DUP7 ADD PUSH2 0x1474 JUMP JUMPDEST SWAP2 POP POP SWAP3 SWAP2 POP POP JUMP JUMPDEST PUSH1 0x5 DUP2 LT PUSH2 0x14EE JUMPI PUSH0 DUP1 REVERT JUMPDEST POP JUMP JUMPDEST PUSH0 DUP2 CALLDATALOAD SWAP1 POP PUSH2 0x14FF DUP2 PUSH2 0x14E2 JUMP JUMPDEST SWAP3 SWAP2 POP POP JUMP JUMPDEST PUSH0 DUP1 PUSH0 PUSH1 0x60 DUP5 DUP7 SUB SLT ISZERO PUSH2 0x151C JUMPI PUSH2 0x151B PUSH2 0x128D JUMP JUMPDEST JUMPDEST PUSH0 PUSH2 0x1529 DUP7 DUP3 DUP8 ADD PUSH2 0x12DB JUMP JUMPDEST SWAP4 POP POP PUSH1 0x20 DUP5 ADD CALLDATALOAD PUSH8 0xFFFFFFFFFFFFFFFF DUP2 GT ISZERO PUSH2 0x154A JUMPI PUSH2 0x1549 PUSH2 0x1291 JUMP JUMPDEST JUMPDEST PUSH2 0x1556 DUP7 DUP3 DUP8 ADD PUSH2 0x14B5 JUMP JUMPDEST SWAP3 POP POP PUSH1 0x40 PUSH2 0x1567 DUP7 DUP3 DUP8 ADD PUSH2 0x14F1 JUMP JUMPDEST SWAP2 POP POP SWAP3 POP SWAP3 POP SWAP3 JUMP JUMPDEST PUSH2 0x157A DUP2 PUSH2 0x1253 JUMP JUMPDEST DUP2 EQ PUSH2 0x1584 JUMPI PUSH0 DUP1 REVERT JUMPDEST POP JUMP JUMPDEST PUSH0 DUP2 CALLDATALOAD SWAP1 POP PUSH2 0x1595 DUP2 PUSH2 0x1571 JUMP JUMPDEST SWAP3 SWAP2 POP POP JUMP JUMPDEST PUSH0 PUSH1 0x20 DUP3 DUP5 SUB SLT ISZERO PUSH2 0x15B0 JUMPI PUSH2 0x15AF PUSH2 0x128D JUMP JUMPDEST JUMPDEST PUSH0 PUSH2 0x15BD DUP5 DUP3 DUP6 ADD PUSH2 0x1587 JUMP JUMPDEST SWAP2 POP POP SWAP3 SWAP2 POP POP JUMP JUMPDEST PUSH2 0x15CF DUP2 PUSH2 0x12B4 JUMP JUMPDEST DUP3 MSTORE POP POP JUMP JUMPDEST PUSH0 PUSH1 0x20 DUP3 ADD SWAP1 POP PUSH2 0x15E8 PUSH0 DUP4 ADD DUP5 PUSH2 0x15C6 JUMP JUMPDEST SWAP3 SWAP2 POP POP JUMP JUMPDEST PUSH0 DUP1 PUSH0 PUSH1 0x60 DUP5 DUP7 SUB SLT ISZERO PUSH2 0x1605 JUMPI PUSH2 0x1604 PUSH2 0x128D JUMP JUMPDEST JUMPDEST PUSH0 PUSH2 0x1612 DUP7 DUP3 DUP8 ADD PUSH2 0x1587 JUMP JUMPDEST SWAP4 POP POP PUSH1 0x20 DUP5 ADD CALLDATALOAD PUSH8 0xFFFFFFFFFFFFFFFF DUP2 GT ISZERO PUSH2 0x1633 JUMPI PUSH2 0x1632 PUSH2 0x1291 JUMP JUMPDEST JUMPDEST PUSH2 0x163F DUP7 DUP3 DUP8 ADD PUSH2 0x14B5 JUMP JUMPDEST SWAP3 POP POP PUSH1 0x40 PUSH2 0x1650 DUP7 DUP3 DUP8 ADD PUSH2 0x1587 JUMP JUMPDEST SWAP2 POP POP SWAP3 POP SWAP3 POP SWAP3 JUMP JUMPDEST PUSH0 DUP2 MLOAD SWAP1 POP SWAP2 SWAP1 POP JUMP JUMPDEST PUSH0 DUP3 DUP3 MSTORE PUSH1 0x20 DUP3 ADD SWAP1 POP SWAP3 SWAP2 POP POP JUMP JUMPDEST PUSH0 DUP2 SWAP1 POP PUSH1 0x20 DUP3 ADD SWAP1 POP SWAP2 SWAP1 POP JUMP JUMPDEST PUSH2 0x168C DUP2 PUSH2 0x1253 JUMP JUMPDEST DUP3 MSTORE POP POP JUMP JUMPDEST PUSH0 PUSH2 0x169D DUP4 DUP4 PUSH2 0x1683 JUMP JUMPDEST PUSH1 0x20 DUP4 ADD SWAP1 POP SWAP3 SWAP2 POP POP JUMP JUMPDEST PUSH0 PUSH1 0x20 DUP3 ADD SWAP1 POP SWAP2 SWAP1 POP JUMP JUMPDEST PUSH0 PUSH2 0x16BF DUP3 PUSH2 0x165A JUMP JUMPDEST PUSH2 0x16C9 DUP2 DUP6 PUSH2 0x1664 JUMP JUMPDEST SWAP4 POP PUSH2 0x16D4 DUP4 PUSH2 0x1674 JUMP JUMPDEST DUP1 PUSH0 JUMPDEST DUP4 DUP2 LT ISZERO PUSH2 0x1704 JUMPI DUP2 MLOAD PUSH2 0x16EB DUP9 DUP3 PUSH2 0x1692 JUMP JUMPDEST SWAP8 POP PUSH2 0x16F6 DUP4 PUSH2 0x16A9 JUMP JUMPDEST SWAP3 POP POP PUSH1 0x1 DUP2 ADD SWAP1 POP PUSH2 0x16D7 JUMP JUMPDEST POP DUP6 SWAP4 POP POP POP POP SWAP3 SWAP2 POP POP JUMP JUMPDEST PUSH0 PUSH1 0x20 DUP3 ADD SWAP1 POP DUP2 DUP2 SUB PUSH0 DUP4 ADD MSTORE PUSH2 0x1729 DUP2 DUP5 PUSH2 0x16B5 JUMP JUMPDEST SWAP1 POP SWAP3 SWAP2 POP POP JUMP JUMPDEST PUSH0 DUP2 MLOAD SWAP1 POP SWAP2 SWAP1 POP JUMP JUMPDEST PUSH0 DUP3 DUP3 MSTORE PUSH1 0x20 DUP3 ADD SWAP1 POP SWAP3 SWAP2 POP POP JUMP JUMPDEST DUP3 DUP2 DUP4 MCOPY PUSH0 DUP4 DUP4 ADD MSTORE POP POP POP JUMP JUMPDEST PUSH0 PUSH2 0x1763 DUP3 PUSH2 0x1731 JUMP JUMPDEST PUSH2 0x176D DUP2 DUP6 PUSH2 0x173B JUMP JUMPDEST SWAP4 POP PUSH2 0x177D DUP2 DUP6 PUSH1 0x20 DUP7 ADD PUSH2 0x174B JUMP JUMPDEST PUSH2 0x1786 DUP2 PUSH2 0x13AE JUMP JUMPDEST DUP5 ADD SWAP2 POP POP SWAP3 SWAP2 POP POP JUMP JUMPDEST PUSH0 PUSH1 0x60 DUP3 ADD SWAP1 POP DUP2 DUP2 SUB PUSH0 DUP4 ADD MSTORE PUSH2 0x17A9 DUP2 DUP7 PUSH2 0x1759 JUMP JUMPDEST SWAP1 POP DUP2 DUP2 SUB PUSH1 0x20 DUP4 ADD MSTORE PUSH2 0x17BD DUP2 DUP6 PUSH2 0x1759 JUMP JUMPDEST SWAP1 POP PUSH2 0x17CC PUSH1 0x40 DUP4 ADD DUP5 PUSH2 0x125C JUMP JUMPDEST SWAP5 SWAP4 POP POP POP POP JUMP JUMPDEST PUSH0 DUP1 PUSH0 DUP1 PUSH1 0x80 DUP6 DUP8 SUB SLT ISZERO PUSH2 0x17EC JUMPI PUSH2 0x17EB PUSH2 0x128D JUMP JUMPDEST JUMPDEST PUSH0 PUSH2 0x17F9 DUP8 DUP3 DUP9 ADD PUSH2 0x1587 JUMP JUMPDEST SWAP5 POP POP PUSH1 0x20 DUP6 ADD CALLDATALOAD PUSH8 0xFFFFFFFFFFFFFFFF DUP2 GT ISZERO PUSH2 0x181A JUMPI PUSH2 0x1819 PUSH2 0x1291 JUMP JUMPDEST JUMPDEST PUSH2 0x1826 DUP8 DUP3 DUP9 ADD PUSH2 0x14B5 JUMP JUMPDEST SWAP4 POP POP PUSH1 0x40 DUP6 ADD CALLDATALOAD PUSH8 0xFFFFFFFFFFFFFFFF DUP2 GT ISZERO PUSH2 0x1847 JUMPI PUSH2 0x1846 PUSH2 0x1291 JUMP JUMPDEST JUMPDEST PUSH2 0x1853 DUP8 DUP3 DUP9 ADD PUSH2 0x14B5 JUMP JUMPDEST SWAP3 POP POP PUSH1 0x60 PUSH2 0x1864 DUP8 DUP3 DUP9 ADD PUSH2 0x1587 JUMP JUMPDEST SWAP2 POP POP SWAP3 SWAP6 SWAP2 SWAP5 POP SWAP3 POP JUMP JUMPDEST PUSH0 PUSH1 0x40 DUP3 ADD SWAP1 POP DUP2 DUP2 SUB PUSH0 DUP4 ADD MSTORE PUSH2 0x1888 DUP2 DUP6 PUSH2 0x1759 JUMP JUMPDEST SWAP1 POP PUSH2 0x1897 PUSH1 0x20 DUP4 ADD DUP5 PUSH2 0x137E JUMP JUMPDEST SWAP4 SWAP3 POP POP POP JUMP JUMPDEST PUSH0 PUSH1 0x80 DUP3 ADD SWAP1 POP DUP2 DUP2 SUB PUSH0 DUP4 ADD MSTORE PUSH2 0x18B6 DUP2 DUP8 PUSH2 0x1759 JUMP JUMPDEST SWAP1 POP DUP2 DUP2 SUB PUSH1 0x20 DUP4 ADD MSTORE PUSH2 0x18CA DUP2 DUP7 PUSH2 0x1759 JUMP JUMPDEST SWAP1 POP PUSH2 0x18D9 PUSH1 0x40 DUP4 ADD DUP6 PUSH2 0x125C JUMP JUMPDEST DUP2 DUP2 SUB PUSH1 0x60 DUP4 ADD MSTORE PUSH2 0x18EB DUP2 DUP5 PUSH2 0x16B5 JUMP JUMPDEST SWAP1 POP SWAP6 SWAP5 POP POP POP POP POP JUMP JUMPDEST PUSH0 PUSH1 0x20 DUP3 ADD SWAP1 POP DUP2 DUP2 SUB PUSH0 DUP4 ADD MSTORE PUSH2 0x190E DUP2 DUP5 PUSH2 0x1759 JUMP JUMPDEST SWAP1 POP SWAP3 SWAP2 POP POP JUMP JUMPDEST PUSH0 DUP2 MLOAD SWAP1 POP SWAP2 SWAP1 POP JUMP JUMPDEST PUSH0 DUP3 DUP3 MSTORE PUSH1 0x20 DUP3 ADD SWAP1 POP SWAP3 SWAP2 POP POP JUMP JUMPDEST PUSH0 DUP2 SWAP1 POP PUSH1 0x20 DUP3 ADD SWAP1 POP SWAP2 SWAP1 POP JUMP JUMPDEST PUSH2 0x1948 DUP2 PUSH2 0x12B4 JUMP JUMPDEST DUP3 MSTORE POP POP JUMP JUMPDEST PUSH0 PUSH2 0x1959 DUP4 DUP4 PUSH2 0x193F JUMP JUMPDEST PUSH1 0x20 DUP4 ADD SWAP1 POP SWAP3 SWAP2 POP POP JUMP JUMPDEST PUSH0 PUSH1 0x20 DUP3 ADD SWAP1 POP SWAP2 SWAP1 POP JUMP JUMPDEST PUSH0 PUSH2 0x197B DUP3 PUSH2 0x1916 JUMP JUMPDEST PUSH2 0x1985 DUP2 DUP6 PUSH2 0x1920 JUMP JUMPDEST SWAP4 POP PUSH2 0x1990 DUP4 PUSH2 0x1930 JUMP JUMPDEST DUP1 PUSH0 JUMPDEST DUP4 DUP2 LT ISZERO PUSH2 0x19C0 JUMPI DUP2 MLOAD PUSH2 0x19A7 DUP9 DUP3 PUSH2 0x194E JUMP JUMPDEST SWAP8 POP PUSH2 0x19B2 DUP4 PUSH2 0x1965 JUMP JUMPDEST SWAP3 POP POP PUSH1 0x1 DUP2 ADD SWAP1 POP PUSH2 0x1993 JUMP JUMPDEST POP DUP6 SWAP4 POP POP POP POP SWAP3 SWAP2 POP POP JUMP JUMPDEST PUSH0 PUSH1 0x20 DUP3 ADD SWAP1 POP DUP2 DUP2 SUB PUSH0 DUP4 ADD MSTORE PUSH2 0x19E5 DUP2 DUP5 PUSH2 0x1971 JUMP JUMPDEST SWAP1 POP SWAP3 SWAP2 POP POP JUMP JUMPDEST PUSH32 0x5573657220616C72656164792065786973747300000000000000000000000000 PUSH0 DUP3 ADD MSTORE POP JUMP JUMPDEST PUSH0 PUSH2 0x1A21 PUSH1 0x13 DUP4 PUSH2 0x173B JUMP JUMPDEST SWAP2 POP PUSH2 0x1A2C DUP3 PUSH2 0x19ED JUMP JUMPDEST PUSH1 0x20 DUP3 ADD SWAP1 POP SWAP2 SWAP1 POP JUMP JUMPDEST PUSH0 PUSH1 0x20 DUP3 ADD SWAP1 POP DUP2 DUP2 SUB PUSH0 DUP4 ADD MSTORE PUSH2 0x1A4E DUP2 PUSH2 0x1A15 JUMP JUMPDEST SWAP1 POP SWAP2 SWAP1 POP JUMP JUMPDEST PUSH32 0x4E487B7100000000000000000000000000000000000000000000000000000000 PUSH0 MSTORE PUSH1 0x22 PUSH1 0x4 MSTORE PUSH1 0x24 PUSH0 REVERT JUMPDEST PUSH0 PUSH1 0x2 DUP3 DIV SWAP1 POP PUSH1 0x1 DUP3 AND DUP1 PUSH2 0x1A99 JUMPI PUSH1 0x7F DUP3 AND SWAP2 POP JUMPDEST PUSH1 0x20 DUP3 LT DUP2 SUB PUSH2 0x1AAC JUMPI PUSH2 0x1AAB PUSH2 0x1A55 JUMP JUMPDEST JUMPDEST POP SWAP2 SWAP1 POP JUMP JUMPDEST PUSH0 DUP2 SWAP1 POP DUP2 PUSH0 MSTORE PUSH1 0x20 PUSH0 KECCAK256 SWAP1 POP SWAP2 SWAP1 POP JUMP JUMPDEST PUSH0 PUSH1 0x20 PUSH1 0x1F DUP4 ADD DIV SWAP1 POP SWAP2 SWAP1 POP JUMP JUMPDEST PUSH0 DUP3 DUP3 SHL SWAP1 POP SWAP3 SWAP2 POP POP JUMP JUMPDEST PUSH0 PUSH1 0x8 DUP4 MUL PUSH2 0x1B0E PUSH32 0xFFFFFFFFFFFFFFFFFFFFFFFFFFFFFFFFFFFFFFFFFFFFFFFFFFFFFFFFFFFFFFFF DUP3 PUSH2 0x1AD3 JUMP JUMPDEST PUSH2 0x1B18 DUP7 DUP4 PUSH2 0x1AD3 JUMP JUMPDEST SWAP6 POP DUP1 NOT DUP5 AND SWAP4 POP DUP1 DUP7 AND DUP5 OR SWAP3 POP POP POP SWAP4 SWAP3 POP POP POP JUMP JUMPDEST PUSH0 DUP2 SWAP1 POP SWAP2 SWAP1 POP JUMP JUMPDEST PUSH0 PUSH2 0x1B53 PUSH2 0x1B4E PUSH2 0x1B49 DUP5 PUSH2 0x1253 JUMP JUMPDEST PUSH2 0x1B30 JUMP JUMPDEST PUSH2 0x1253 JUMP JUMPDEST SWAP1 POP SWAP2 SWAP1 POP JUMP JUMPDEST PUSH0 DUP2 SWAP1 POP SWAP2 SWAP1 POP JUMP JUMPDEST PUSH2 0x1B6C DUP4 PUSH2 0x1B39 JUMP JUMPDEST PUSH2 0x1B80 PUSH2 0x1B78 DUP3 PUSH2 0x1B5A JUMP JUMPDEST DUP5 DUP5 SLOAD PUSH2 0x1ADF JUMP JUMPDEST DUP3 SSTORE POP POP POP POP JUMP JUMPDEST PUSH0 SWAP1 JUMP JUMPDEST PUSH2 0x1B94 PUSH2 0x1B88 JUMP JUMPDEST PUSH2 0x1B9F DUP2 DUP5 DUP5 PUSH2 0x1B63 JUMP JUMPDEST POP POP POP JUMP JUMPDEST JUMPDEST DUP2 DUP2 LT ISZERO PUSH2 0x1BC2 JUMPI PUSH2 0x1BB7 PUSH0 DUP3 PUSH2 0x1B8C JUMP JUMPDEST PUSH1 0x1 DUP2 ADD SWAP1 POP PUSH2 0x1BA5 JUMP JUMPDEST POP POP JUMP JUMPDEST PUSH1 0x1F DUP3 GT ISZERO PUSH2 0x1C07 JUMPI PUSH2 0x1BD8 DUP2 PUSH2 0x1AB2 JUMP JUMPDEST PUSH2 0x1BE1 DUP5 PUSH2 0x1AC4 JUMP JUMPDEST DUP2 ADD PUSH1 0x20 DUP6 LT ISZERO PUSH2 0x1BF0 JUMPI DUP2 SWAP1 POP JUMPDEST PUSH2 0x1C04 PUSH2 0x1BFC DUP6 PUSH2 0x1AC4 JUMP JUMPDEST DUP4 ADD DUP3 PUSH2 0x1BA4 JUMP JUMPDEST POP POP JUMPDEST POP POP POP JUMP JUMPDEST PUSH0 DUP3 DUP3 SHR SWAP1 POP SWAP3 SWAP2 POP POP JUMP JUMPDEST PUSH0 PUSH2 0x1C27 PUSH0 NOT DUP5 PUSH1 0x8 MUL PUSH2 0x1C0C JUMP JUMPDEST NOT DUP1 DUP4 AND SWAP2 POP POP SWAP3 SWAP2 POP POP JUMP JUMPDEST PUSH0 PUSH2 0x1C3F DUP4 DUP4 PUSH2 0x1C18 JUMP JUMPDEST SWAP2 POP DUP3 PUSH1 0x2 MUL DUP3 OR SWAP1 POP SWAP3 SWAP2 POP POP JUMP JUMPDEST PUSH2 0x1C58 DUP3 PUSH2 0x1731 JUMP JUMPDEST PUSH8 0xFFFFFFFFFFFFFFFF DUP2 GT ISZERO PUSH2 0x1C71 JUMPI PUSH2 0x1C70 PUSH2 0x13BE JUMP JUMPDEST JUMPDEST PUSH2 0x1C7B DUP3 SLOAD PUSH2 0x1A82 JUMP JUMPDEST PUSH2 0x1C86 DUP3 DUP3 DUP6 PUSH2 0x1BC6 JUMP JUMPDEST PUSH0 PUSH1 0x20 SWAP1 POP PUSH1 0x1F DUP4 GT PUSH1 0x1 DUP2 EQ PUSH2 0x1CB7 JUMPI PUSH0 DUP5 ISZERO PUSH2 0x1CA5 JUMPI DUP3 DUP8 ADD MLOAD SWAP1 POP JUMPDEST PUSH2 0x1CAF DUP6 DUP3 PUSH2 0x1C34 JUMP JUMPDEST DUP7 SSTORE POP PUSH2 0x1D16 JUMP JUMPDEST PUSH1 0x1F NOT DUP5 AND PUSH2 0x1CC5 DUP7 PUSH2 0x1AB2 JUMP JUMPDEST PUSH0 JUMPDEST DUP3 DUP2 LT ISZERO PUSH2 0x1CEC JUMPI DUP5 DUP10 ADD MLOAD DUP3 SSTORE PUSH1 0x1 DUP3 ADD SWAP2 POP PUSH1 0x20 DUP6 ADD SWAP5 POP PUSH1 0x20 DUP2 ADD SWAP1 POP PUSH2 0x1CC7 JUMP JUMPDEST DUP7 DUP4 LT ISZERO PUSH2 0x1D09 JUMPI DUP5 DUP10 ADD MLOAD PUSH2 0x1D05 PUSH1 0x1F DUP10 AND DUP3 PUSH2 0x1C18 JUMP JUMPDEST DUP4 SSTORE POP JUMPDEST PUSH1 0x1 PUSH1 0x2 DUP9 MUL ADD DUP9 SSTORE POP POP POP JUMPDEST POP POP POP POP POP POP JUMP JUMPDEST PUSH32 0x4E487B7100000000000000000000000000000000000000000000000000000000 PUSH0 MSTORE PUSH1 0x11 PUSH1 0x4 MSTORE PUSH1 0x24 PUSH0 REVERT JUMPDEST PUSH0 PUSH2 0x1D55 DUP3 PUSH2 0x1253 JUMP JUMPDEST SWAP2 POP PUSH32 0xFFFFFFFFFFFFFFFFFFFFFFFFFFFFFFFFFFFFFFFFFFFFFFFFFFFFFFFFFFFFFFFF DUP3 SUB PUSH2 0x1D87 JUMPI PUSH2 0x1D86 PUSH2 0x1D1E JUMP JUMPDEST JUMPDEST PUSH1 0x1 DUP3 ADD SWAP1 POP SWAP2 SWAP1 POP JUMP JUMPDEST PUSH32 0x50726F6475637420646F6573206E6F7420657869737400000000000000000000 PUSH0 DUP3 ADD MSTORE POP JUMP JUMPDEST PUSH0 PUSH2 0x1DC6 PUSH1 0x16 DUP4 PUSH2 0x173B JUMP JUMPDEST SWAP2 POP PUSH2 0x1DD1 DUP3 PUSH2 0x1D92 JUMP JUMPDEST PUSH1 0x20 DUP3 ADD SWAP1 POP SWAP2 SWAP1 POP JUMP JUMPDEST PUSH0 PUSH1 0x20 DUP3 ADD SWAP1 POP DUP2 DUP2 SUB PUSH0 DUP4 ADD MSTORE PUSH2 0x1DF3 DUP2 PUSH2 0x1DBA JUMP JUMPDEST SWAP1 POP SWAP2 SWAP1 POP JUMP JUMPDEST PUSH0 PUSH1 0x40 DUP3 ADD SWAP1 POP DUP2 DUP2 SUB PUSH0 DUP4 ADD MSTORE PUSH2 0x1E12 DUP2 DUP6 PUSH2 0x1759 JUMP JUMPDEST SWAP1 POP PUSH2 0x1E21 PUSH1 0x20 DUP4 ADD DUP5 PUSH2 0x125C JUMP JUMPDEST SWAP4 SWAP3 POP POP POP JUMP JUMPDEST PUSH0 PUSH2 0x1E32 DUP3 PUSH2 0x1253 JUMP JUMPDEST SWAP2 POP PUSH0 DUP3 SUB PUSH2 0x1E44 JUMPI PUSH2 0x1E43 PUSH2 0x1D1E JUMP JUMPDEST JUMPDEST PUSH1 0x1 DUP3 SUB SWAP1 POP SWAP2 SWAP1 POP JUMP JUMPDEST PUSH0 PUSH2 0x1E59 DUP3 PUSH2 0x1253 JUMP JUMPDEST SWAP2 POP PUSH2 0x1E64 DUP4 PUSH2 0x1253 JUMP JUMPDEST SWAP3 POP DUP3 DUP3 ADD SWAP1 POP DUP1 DUP3 GT ISZERO PUSH2 0x1E7C JUMPI PUSH2 0x1E7B PUSH2 0x1D1E JUMP JUMPDEST JUMPDEST SWAP3 SWAP2 POP POP JUMP JUMPDEST PUSH32 0x4E487B7100000000000000000000000000000000000000000000000000000000 PUSH0 MSTORE PUSH1 0x32 PUSH1 0x4 MSTORE PUSH1 0x24 PUSH0 REVERT JUMPDEST PUSH32 0x5573657220646F6573206E6F7420657869737400000000000000000000000000 PUSH0 DUP3 ADD MSTORE POP JUMP JUMPDEST PUSH0 PUSH2 0x1EE3 PUSH1 0x13 DUP4 PUSH2 0x173B JUMP JUMPDEST SWAP2 POP PUSH2 0x1EEE DUP3 PUSH2 0x1EAF JUMP JUMPDEST PUSH1 0x20 DUP3 ADD SWAP1 POP SWAP2 SWAP1 POP JUMP JUMPDEST PUSH0 PUSH1 0x20 DUP3 ADD SWAP1 POP DUP2 DUP2 SUB PUSH0 DUP4 ADD MSTORE PUSH2 0x1F10 DUP2 PUSH2 0x1ED7 JUMP JUMPDEST SWAP1 POP SWAP2 SWAP1 POP JUMP JUMPDEST PUSH32 0x50726F6475637420616C72656164792065786973747300000000000000000000 PUSH0 DUP3 ADD MSTORE POP JUMP JUMPDEST PUSH0 PUSH2 0x1F4B PUSH1 0x16 DUP4 PUSH2 0x173B JUMP JUMPDEST SWAP2 POP PUSH2 0x1F56 DUP3 PUSH2 0x1F17 JUMP JUMPDEST PUSH1 0x20 DUP3 ADD SWAP1 POP SWAP2 SWAP1 POP JUMP JUMPDEST PUSH0 PUSH1 0x20 DUP3 ADD SWAP1 POP DUP2 DUP2 SUB PUSH0 DUP4 ADD MSTORE PUSH2 0x1F78 DUP2 PUSH2 0x1F3F JUMP JUMPDEST SWAP1 POP SWAP2 SWAP1 POP JUMP INVALID LOG2 PUSH5 0x6970667358 0x22 SLT KECCAK256 TIMESTAMP MULMOD 0xFC AND 0xD0 CREATE 0x4B 0xDF 0xCC 0xCA BLOBBASEFEE ADDMOD 0xC6 STOP TLOAD 0xB0 PUSH6 0x9B03ED3C70F8 SAR 0xBB 0xA5 PUSH13 0xF706701D2064736F6C63430008 BYTE STOP CALLER "
		},
		"gasEstimates": {
			"creation": {
				"codeDepositCost": "1623400",
				"executionCost": "11709",
				"totalCost": "1635109"
			},
			"external": {
				"addProduct(uint256,string,string,uint256)": "infinite",
				"addUser(address,string,uint8)": "infinite",
				"getAllProductIds()": "infinite",
				"getAllUsers()": "infinite",
				"getProduct(uint256)": "infinite",
				"getProductCount()": "2522",
				"getUserCount()": "2454",
				"getUserName(address)": "infinite",
				"getUserRole(address)": "3010",
				"productCount()": "2513",
				"products(uint256)": "infinite",
				"removeProduct(uint256)": "infinite",
				"removeUser(address)": "infinite",
				"updateProduct(uint256,string,uint256)": "infinite",
				"userAddresses(uint256)": "4967",
				"userCount()": "2449",
				"users(address)": "infinite"
			}
		},
		"methodIdentifiers": {
			"addProduct(uint256,string,string,uint256)": "9c083284",
			"addUser(address,string,uint8)": "40d26854",
			"getAllProductIds()": "663c01af",
			"getAllUsers()": "e2842d79",
			"getProduct(uint256)": "b9db15b4",
			"getProductCount()": "4a348da9",
			"getUserCount()": "b5cb15f7",
			"getUserName(address)": "d84f55ee",
			"getUserRole(address)": "27820851",
			"productCount()": "e0f6ef87",
			"products(uint256)": "7acc0b20",
			"removeProduct(uint256)": "5ee95cae",
			"removeUser(address)": "98575188",
			"updateProduct(uint256,string,uint256)": "53488deb",
			"userAddresses(uint256)": "502c9bd5",
			"userCount()": "07973ccf",
			"users(address)": "a87430ba"
		}
	},
	"abi": [
		{
			"anonymous": false,
			"inputs": [
				{
					"indexed": true,
					"internalType": "uint256",
					"name": "productId",
					"type": "uint256"
				},
				{
					"indexed": false,
					"internalType": "string",
					"name": "name",
					"type": "string"
				},
				{
					"indexed": false,
					"internalType": "string",
					"name": "currentPosition",
					"type": "string"
				},
				{
					"indexed": false,
					"internalType": "uint256",
					"name": "quantity",
					"type": "uint256"
				}
			],
			"name": "ProductAdded",
			"type": "event"
		},
		{
			"anonymous": false,
			"inputs": [
				{
					"indexed": true,
					"internalType": "uint256",
					"name": "productId",
					"type": "uint256"
				}
			],
			"name": "ProductRemoved",
			"type": "event"
		},
		{
			"anonymous": false,
			"inputs": [
				{
					"indexed": true,
					"internalType": "uint256",
					"name": "productId",
					"type": "uint256"
				},
				{
					"indexed": false,
					"internalType": "string",
					"name": "currentPosition",
					"type": "string"
				},
				{
					"indexed": false,
					"internalType": "uint256",
					"name": "quantity",
					"type": "uint256"
				}
			],
			"name": "ProductUpdated",
			"type": "event"
		},
		{
			"anonymous": false,
			"inputs": [
				{
					"indexed": true,
					"internalType": "address",
					"name": "userAddress",
					"type": "address"
				},
				{
					"indexed": false,
					"internalType": "string",
					"name": "name",
					"type": "string"
				},
				{
					"indexed": false,
					"internalType": "enum UserManagement.UserRole",
					"name": "role",
					"type": "uint8"
				}
			],
			"name": "UserAdded",
			"type": "event"
		},
		{
			"anonymous": false,
			"inputs": [
				{
					"indexed": true,
					"internalType": "address",
					"name": "userAddress",
					"type": "address"
				}
			],
			"name": "UserRemoved",
			"type": "event"
		},
		{
			"inputs": [
				{
					"internalType": "uint256",
					"name": "_id",
					"type": "uint256"
				},
				{
					"internalType": "string",
					"name": "_name",
					"type": "string"
				},
				{
					"internalType": "string",
					"name": "_currentPosition",
					"type": "string"
				},
				{
					"internalType": "uint256",
					"name": "_quantity",
					"type": "uint256"
				}
			],
			"name": "addProduct",
			"outputs": [],
			"stateMutability": "nonpayable",
			"type": "function"
		},
		{
			"inputs": [
				{
					"internalType": "address",
					"name": "_user",
					"type": "address"
				},
				{
					"internalType": "string",
					"name": "_name",
					"type": "string"
				},
				{
					"internalType": "enum UserManagement.UserRole",
					"name": "_role",
					"type": "uint8"
				}
			],
			"name": "addUser",
			"outputs": [],
			"stateMutability": "nonpayable",
			"type": "function"
		},
		{
			"inputs": [],
			"name": "getAllProductIds",
			"outputs": [
				{
					"internalType": "uint256[]",
					"name": "",
					"type": "uint256[]"
				}
			],
			"stateMutability": "view",
			"type": "function"
		},
		{
			"inputs": [],
			"name": "getAllUsers",
			"outputs": [
				{
					"internalType": "address[]",
					"name": "",
					"type": "address[]"
				}
			],
			"stateMutability": "view",
			"type": "function"
		},
		{
			"inputs": [
				{
					"internalType": "uint256",
					"name": "_id",
					"type": "uint256"
				}
			],
			"name": "getProduct",
			"outputs": [
				{
					"internalType": "string",
					"name": "",
					"type": "string"
				},
				{
					"internalType": "string",
					"name": "",
					"type": "string"
				},
				{
					"internalType": "uint256",
					"name": "",
					"type": "uint256"
				},
				{
					"internalType": "uint256[]",
					"name": "",
					"type": "uint256[]"
				}
			],
			"stateMutability": "view",
			"type": "function"
		},
		{
			"inputs": [],
			"name": "getProductCount",
			"outputs": [
				{
					"internalType": "uint256",
					"name": "",
					"type": "uint256"
				}
			],
			"stateMutability": "view",
			"type": "function"
		},
		{
			"inputs": [],
			"name": "getUserCount",
			"outputs": [
				{
					"internalType": "uint256",
					"name": "",
					"type": "uint256"
				}
			],
			"stateMutability": "view",
			"type": "function"
		},
		{
			"inputs": [
				{
					"internalType": "address",
					"name": "_user",
					"type": "address"
				}
			],
			"name": "getUserName",
			"outputs": [
				{
					"internalType": "string",
					"name": "",
					"type": "string"
				}
			],
			"stateMutability": "view",
			"type": "function"
		},
		{
			"inputs": [
				{
					"internalType": "address",
					"name": "_user",
					"type": "address"
				}
			],
			"name": "getUserRole",
			"outputs": [
				{
					"internalType": "enum UserManagement.UserRole",
					"name": "",
					"type": "uint8"
				}
			],
			"stateMutability": "view",
			"type": "function"
		},
		{
			"inputs": [],
			"name": "productCount",
			"outputs": [
				{
					"internalType": "uint256",
					"name": "",
					"type": "uint256"
				}
			],
			"stateMutability": "view",
			"type": "function"
		},
		{
			"inputs": [
				{
					"internalType": "uint256",
					"name": "",
					"type": "uint256"
				}
			],
			"name": "products",
			"outputs": [
				{
					"internalType": "string",
					"name": "name",
					"type": "string"
				},
				{
					"internalType": "string",
					"name": "currentPosition",
					"type": "string"
				},
				{
					"internalType": "uint256",
					"name": "quantity",
					"type": "uint256"
				}
			],
			"stateMutability": "view",
			"type": "function"
		},
		{
			"inputs": [
				{
					"internalType": "uint256",
					"name": "_productId",
					"type": "uint256"
				}
			],
			"name": "removeProduct",
			"outputs": [],
			"stateMutability": "nonpayable",
			"type": "function"
		},
		{
			"inputs": [
				{
					"internalType": "address",
					"name": "_user",
					"type": "address"
				}
			],
			"name": "removeUser",
			"outputs": [],
			"stateMutability": "nonpayable",
			"type": "function"
		},
		{
			"inputs": [
				{
					"internalType": "uint256",
					"name": "_productId",
					"type": "uint256"
				},
				{
					"internalType": "string",
					"name": "_currentPosition",
					"type": "string"
				},
				{
					"internalType": "uint256",
					"name": "_quantity",
					"type": "uint256"
				}
			],
			"name": "updateProduct",
			"outputs": [],
			"stateMutability": "nonpayable",
			"type": "function"
		},
		{
			"inputs": [
				{
					"internalType": "uint256",
					"name": "",
					"type": "uint256"
				}
			],
			"name": "userAddresses",
			"outputs": [
				{
					"internalType": "address",
					"name": "",
					"type": "address"
				}
			],
			"stateMutability": "view",
			"type": "function"
		},
		{
			"inputs": [],
			"name": "userCount",
			"outputs": [
				{
					"internalType": "uint256",
					"name": "",
					"type": "uint256"
				}
			],
			"stateMutability": "view",
			"type": "function"
		},
		{
			"inputs": [
				{
					"internalType": "address",
					"name": "",
					"type": "address"
				}
			],
			"name": "users",
			"outputs": [
				{
					"internalType": "string",
					"name": "name",
					"type": "string"
				},
				{
					"internalType": "enum UserManagement.UserRole",
					"name": "role",
					"type": "uint8"
				}
			],
			"stateMutability": "view",
			"type": "function"
		}
	]
}