{
	"data": {
		"bytecode": {
			"linkReferences": {},
			"object": "60806040525f6001553480156012575f80fd5b50610fe6806100205f395ff3fe608060405234801561000f575f80fd5b5060043610610060575f3560e01c806331f45cab146100645780634268ff2d146100805780635ee95cae1461009c5780637acc0b20146100b8578063b9db15b4146100ea578063e0f6ef871461011d575b5f80fd5b61007e60048036038101906100799190610771565b61013b565b005b61009a600480360381019061009591906108eb565b6101e3565b005b6100b660048036038101906100b19190610957565b61034e565b005b6100d260048036038101906100cd9190610957565b610427565b6040516100e1939291906109f1565b60405180910390f35b61010460048036038101906100ff9190610957565b6104d2565b6040516101149493929190610ae4565b60405180910390f35b610125610666565b6040516101329190610b35565b60405180910390f35b5f805f8481526020019081526020015f205f01540361018f576040517f08c379a000000000000000000000000000000000000000000000000000000000815260040161018690610b98565b60405180910390fd5b805f808481526020019081526020015f2060020181905550817f1a58b4c176a67828ebe2456bc637af85e69b115be11597e049b0669d13bea999826040516101d79190610b35565b60405180910390a25050565b5f805f8581526020019081526020015f205f015414610237576040517f08c379a000000000000000000000000000000000000000000000000000000000815260040161022e90610c00565b60405180910390fd5b60405180608001604052808481526020018381526020018281526020015f67ffffffffffffffff81111561026e5761026d6107c7565b5b60405190808252806020026020018201604052801561029c5781602001602082028036833780820191505090505b508152505f808581526020019081526020015f205f820151815f015560208201518160010190816102cd9190610e18565b506040820151816002015560608201518160030190805190602001906102f492919061066c565b5090505060015f81548092919061030a90610f14565b9190505550827fcca07c742c5274e8b72111ba69566aa4442450bfc50bd897ea38d0170d1accfc8383604051610341929190610f5b565b60405180910390a2505050565b5f805f8381526020019081526020015f205f0154036103a2576040517f08c379a000000000000000000000000000000000000000000000000000000000815260040161039990610b98565b60405180910390fd5b5f808281526020019081526020015f205f8082015f9055600182015f6103c891906106b7565b600282015f9055600382015f6103de91906106f4565b505060015f8154809291906103f290610f89565b9190505550807f07015631cff457b5b13492c2045e70c6305a0a4aa773e432e79abbe2cf52c1eb60405160405180910390a250565b5f602052805f5260405f205f91509050805f01549080600101805461044b90610c4b565b80601f016020809104026020016040519081016040528092919081815260200182805461047790610c4b565b80156104c25780601f10610499576101008083540402835291602001916104c2565b820191905f5260205f20905b8154815290600101906020018083116104a557829003601f168201915b5050505050908060020154905083565b5f60605f60605f805f8781526020019081526020015f205f01540361052c576040517f08c379a000000000000000000000000000000000000000000000000000000000815260040161052390610b98565b60405180910390fd5b5f805f8781526020019081526020015f206040518060800160405290815f820154815260200160018201805461056190610c4b565b80601f016020809104026020016040519081016040528092919081815260200182805461058d90610c4b565b80156105d85780601f106105af576101008083540402835291602001916105d8565b820191905f5260205f20905b8154815290600101906020018083116105bb57829003601f168201915b50505050508152602001600282015481526020016003820180548060200260200160405190810160405280929190818152602001828054801561063857602002820191905f5260205f20905b815481526020019060010190808311610624575b5050505050815250509050805f01518160200151826040015183606001519450945094509450509193509193565b60015481565b828054828255905f5260205f209081019282156106a6579160200282015b828111156106a557825182559160200191906001019061068a565b5b5090506106b39190610712565b5090565b5080546106c390610c4b565b5f825580601f106106d457506106f1565b601f0160209004905f5260205f20908101906106f09190610712565b5b50565b5080545f8255905f5260205f209081019061070f9190610712565b50565b5b80821115610729575f815f905550600101610713565b5090565b5f604051905090565b5f80fd5b5f80fd5b5f819050919050565b6107508161073e565b811461075a575f80fd5b50565b5f8135905061076b81610747565b92915050565b5f806040838503121561078757610786610736565b5b5f6107948582860161075d565b92505060206107a58582860161075d565b9150509250929050565b5f80fd5b5f80fd5b5f601f19601f8301169050919050565b7f4e487b71000000000000000000000000000000000000000000000000000000005f52604160045260245ffd5b6107fd826107b7565b810181811067ffffffffffffffff8211171561081c5761081b6107c7565b5b80604052505050565b5f61082e61072d565b905061083a82826107f4565b919050565b5f67ffffffffffffffff821115610859576108586107c7565b5b610862826107b7565b9050602081019050919050565b828183375f83830152505050565b5f61088f61088a8461083f565b610825565b9050828152602081018484840111156108ab576108aa6107b3565b5b6108b684828561086f565b509392505050565b5f82601f8301126108d2576108d16107af565b5b81356108e284826020860161087d565b91505092915050565b5f805f6060848603121561090257610901610736565b5b5f61090f8682870161075d565b935050602084013567ffffffffffffffff8111156109305761092f61073a565b5b61093c868287016108be565b925050604061094d8682870161075d565b9150509250925092565b5f6020828403121561096c5761096b610736565b5b5f6109798482850161075d565b91505092915050565b61098b8161073e565b82525050565b5f81519050919050565b5f82825260208201905092915050565b8281835e5f83830152505050565b5f6109c382610991565b6109cd818561099b565b93506109dd8185602086016109ab565b6109e6816107b7565b840191505092915050565b5f606082019050610a045f830186610982565b8181036020830152610a1681856109b9565b9050610a256040830184610982565b949350505050565b5f81519050919050565b5f82825260208201905092915050565b5f819050602082019050919050565b610a5f8161073e565b82525050565b5f610a708383610a56565b60208301905092915050565b5f602082019050919050565b5f610a9282610a2d565b610a9c8185610a37565b9350610aa783610a47565b805f5b83811015610ad7578151610abe8882610a65565b9750610ac983610a7c565b925050600181019050610aaa565b5085935050505092915050565b5f608082019050610af75f830187610982565b8181036020830152610b0981866109b9565b9050610b186040830185610982565b8181036060830152610b2a8184610a88565b905095945050505050565b5f602082019050610b485f830184610982565b92915050565b7f50726f6475637420646f6573206e6f74206578697374000000000000000000005f82015250565b5f610b8260168361099b565b9150610b8d82610b4e565b602082019050919050565b5f6020820190508181035f830152610baf81610b76565b9050919050565b7f50726f6475637420616c726561647920657869737473000000000000000000005f82015250565b5f610bea60168361099b565b9150610bf582610bb6565b602082019050919050565b5f6020820190508181035f830152610c1781610bde565b9050919050565b7f4e487b71000000000000000000000000000000000000000000000000000000005f52602260045260245ffd5b5f6002820490506001821680610c6257607f821691505b602082108103610c7557610c74610c1e565b5b50919050565b5f819050815f5260205f209050919050565b5f6020601f8301049050919050565b5f82821b905092915050565b5f60088302610cd77fffffffffffffffffffffffffffffffffffffffffffffffffffffffffffffffff82610c9c565b610ce18683610c9c565b95508019841693508086168417925050509392505050565b5f819050919050565b5f610d1c610d17610d128461073e565b610cf9565b61073e565b9050919050565b5f819050919050565b610d3583610d02565b610d49610d4182610d23565b848454610ca8565b825550505050565b5f90565b610d5d610d51565b610d68818484610d2c565b505050565b5b81811015610d8b57610d805f82610d55565b600181019050610d6e565b5050565b601f821115610dd057610da181610c7b565b610daa84610c8d565b81016020851015610db9578190505b610dcd610dc585610c8d565b830182610d6d565b50505b505050565b5f82821c905092915050565b5f610df05f1984600802610dd5565b1980831691505092915050565b5f610e088383610de1565b9150826002028217905092915050565b610e2182610991565b67ffffffffffffffff811115610e3a57610e396107c7565b5b610e448254610c4b565b610e4f828285610d8f565b5f60209050601f831160018114610e80575f8415610e6e578287015190505b610e788582610dfd565b865550610edf565b601f198416610e8e86610c7b565b5f5b82811015610eb557848901518255600182019150602085019450602081019050610e90565b86831015610ed25784890151610ece601f891682610de1565b8355505b6001600288020188555050505b505050505050565b7f4e487b71000000000000000000000000000000000000000000000000000000005f52601160045260245ffd5b5f610f1e8261073e565b91507fffffffffffffffffffffffffffffffffffffffffffffffffffffffffffffffff8203610f5057610f4f610ee7565b5b600182019050919050565b5f6040820190508181035f830152610f7381856109b9565b9050610f826020830184610982565b9392505050565b5f610f938261073e565b91505f8203610fa557610fa4610ee7565b5b60018203905091905056fea2646970667358221220254fa78a1f2807e74d56fe4e6b182dfd24345a97703934fea71413c9586f998164736f6c634300081a0033",
			"opcodes": "PUSH1 0x80 PUSH1 0x40 MSTORE PUSH0 PUSH1 0x1 SSTORE CALLVALUE DUP1 ISZERO PUSH1 0x12 JUMPI PUSH0 DUP1 REVERT JUMPDEST POP PUSH2 0xFE6 DUP1 PUSH2 0x20 PUSH0 CODECOPY PUSH0 RETURN INVALID PUSH1 0x80 PUSH1 0x40 MSTORE CALLVALUE DUP1 ISZERO PUSH2 0xF JUMPI PUSH0 DUP1 REVERT JUMPDEST POP PUSH1 0x4 CALLDATASIZE LT PUSH2 0x60 JUMPI PUSH0 CALLDATALOAD PUSH1 0xE0 SHR DUP1 PUSH4 0x31F45CAB EQ PUSH2 0x64 JUMPI DUP1 PUSH4 0x4268FF2D EQ PUSH2 0x80 JUMPI DUP1 PUSH4 0x5EE95CAE EQ PUSH2 0x9C JUMPI DUP1 PUSH4 0x7ACC0B20 EQ PUSH2 0xB8 JUMPI DUP1 PUSH4 0xB9DB15B4 EQ PUSH2 0xEA JUMPI DUP1 PUSH4 0xE0F6EF87 EQ PUSH2 0x11D JUMPI JUMPDEST PUSH0 DUP1 REVERT JUMPDEST PUSH2 0x7E PUSH1 0x4 DUP1 CALLDATASIZE SUB DUP2 ADD SWAP1 PUSH2 0x79 SWAP2 SWAP1 PUSH2 0x771 JUMP JUMPDEST PUSH2 0x13B JUMP JUMPDEST STOP JUMPDEST PUSH2 0x9A PUSH1 0x4 DUP1 CALLDATASIZE SUB DUP2 ADD SWAP1 PUSH2 0x95 SWAP2 SWAP1 PUSH2 0x8EB JUMP JUMPDEST PUSH2 0x1E3 JUMP JUMPDEST STOP JUMPDEST PUSH2 0xB6 PUSH1 0x4 DUP1 CALLDATASIZE SUB DUP2 ADD SWAP1 PUSH2 0xB1 SWAP2 SWAP1 PUSH2 0x957 JUMP JUMPDEST PUSH2 0x34E JUMP JUMPDEST STOP JUMPDEST PUSH2 0xD2 PUSH1 0x4 DUP1 CALLDATASIZE SUB DUP2 ADD SWAP1 PUSH2 0xCD SWAP2 SWAP1 PUSH2 0x957 JUMP JUMPDEST PUSH2 0x427 JUMP JUMPDEST PUSH1 0x40 MLOAD PUSH2 0xE1 SWAP4 SWAP3 SWAP2 SWAP1 PUSH2 0x9F1 JUMP JUMPDEST PUSH1 0x40 MLOAD DUP1 SWAP2 SUB SWAP1 RETURN JUMPDEST PUSH2 0x104 PUSH1 0x4 DUP1 CALLDATASIZE SUB DUP2 ADD SWAP1 PUSH2 0xFF SWAP2 SWAP1 PUSH2 0x957 JUMP JUMPDEST PUSH2 0x4D2 JUMP JUMPDEST PUSH1 0x40 MLOAD PUSH2 0x114 SWAP5 SWAP4 SWAP3 SWAP2 SWAP1 PUSH2 0xAE4 JUMP JUMPDEST PUSH1 0x40 MLOAD DUP1 SWAP2 SUB SWAP1 RETURN JUMPDEST PUSH2 0x125 PUSH2 0x666 JUMP JUMPDEST PUSH1 0x40 MLOAD PUSH2 0x132 SWAP2 SWAP1 PUSH2 0xB35 JUMP JUMPDEST PUSH1 0x40 MLOAD DUP1 SWAP2 SUB SWAP1 RETURN JUMPDEST PUSH0 DUP1 PUSH0 DUP5 DUP2 MSTORE PUSH1 0x20 ADD SWAP1 DUP2 MSTORE PUSH1 0x20 ADD PUSH0 KECCAK256 PUSH0 ADD SLOAD SUB PUSH2 0x18F JUMPI PUSH1 0x40 MLOAD PUSH32 0x8C379A000000000000000000000000000000000000000000000000000000000 DUP2 MSTORE PUSH1 0x4 ADD PUSH2 0x186 SWAP1 PUSH2 0xB98 JUMP JUMPDEST PUSH1 0x40 MLOAD DUP1 SWAP2 SUB SWAP1 REVERT JUMPDEST DUP1 PUSH0 DUP1 DUP5 DUP2 MSTORE PUSH1 0x20 ADD SWAP1 DUP2 MSTORE PUSH1 0x20 ADD PUSH0 KECCAK256 PUSH1 0x2 ADD DUP2 SWAP1 SSTORE POP DUP2 PUSH32 0x1A58B4C176A67828EBE2456BC637AF85E69B115BE11597E049B0669D13BEA999 DUP3 PUSH1 0x40 MLOAD PUSH2 0x1D7 SWAP2 SWAP1 PUSH2 0xB35 JUMP JUMPDEST PUSH1 0x40 MLOAD DUP1 SWAP2 SUB SWAP1 LOG2 POP POP JUMP JUMPDEST PUSH0 DUP1 PUSH0 DUP6 DUP2 MSTORE PUSH1 0x20 ADD SWAP1 DUP2 MSTORE PUSH1 0x20 ADD PUSH0 KECCAK256 PUSH0 ADD SLOAD EQ PUSH2 0x237 JUMPI PUSH1 0x40 MLOAD PUSH32 0x8C379A000000000000000000000000000000000000000000000000000000000 DUP2 MSTORE PUSH1 0x4 ADD PUSH2 0x22E SWAP1 PUSH2 0xC00 JUMP JUMPDEST PUSH1 0x40 MLOAD DUP1 SWAP2 SUB SWAP1 REVERT JUMPDEST PUSH1 0x40 MLOAD DUP1 PUSH1 0x80 ADD PUSH1 0x40 MSTORE DUP1 DUP5 DUP2 MSTORE PUSH1 0x20 ADD DUP4 DUP2 MSTORE PUSH1 0x20 ADD DUP3 DUP2 MSTORE PUSH1 0x20 ADD PUSH0 PUSH8 0xFFFFFFFFFFFFFFFF DUP2 GT ISZERO PUSH2 0x26E JUMPI PUSH2 0x26D PUSH2 0x7C7 JUMP JUMPDEST JUMPDEST PUSH1 0x40 MLOAD SWAP1 DUP1 DUP3 MSTORE DUP1 PUSH1 0x20 MUL PUSH1 0x20 ADD DUP3 ADD PUSH1 0x40 MSTORE DUP1 ISZERO PUSH2 0x29C JUMPI DUP2 PUSH1 0x20 ADD PUSH1 0x20 DUP3 MUL DUP1 CALLDATASIZE DUP4 CALLDATACOPY DUP1 DUP3 ADD SWAP2 POP POP SWAP1 POP JUMPDEST POP DUP2 MSTORE POP PUSH0 DUP1 DUP6 DUP2 MSTORE PUSH1 0x20 ADD SWAP1 DUP2 MSTORE PUSH1 0x20 ADD PUSH0 KECCAK256 PUSH0 DUP3 ADD MLOAD DUP2 PUSH0 ADD SSTORE PUSH1 0x20 DUP3 ADD MLOAD DUP2 PUSH1 0x1 ADD SWAP1 DUP2 PUSH2 0x2CD SWAP2 SWAP1 PUSH2 0xE18 JUMP JUMPDEST POP PUSH1 0x40 DUP3 ADD MLOAD DUP2 PUSH1 0x2 ADD SSTORE PUSH1 0x60 DUP3 ADD MLOAD DUP2 PUSH1 0x3 ADD SWAP1 DUP1 MLOAD SWAP1 PUSH1 0x20 ADD SWAP1 PUSH2 0x2F4 SWAP3 SWAP2 SWAP1 PUSH2 0x66C JUMP JUMPDEST POP SWAP1 POP POP PUSH1 0x1 PUSH0 DUP2 SLOAD DUP1 SWAP3 SWAP2 SWAP1 PUSH2 0x30A SWAP1 PUSH2 0xF14 JUMP JUMPDEST SWAP2 SWAP1 POP SSTORE POP DUP3 PUSH32 0xCCA07C742C5274E8B72111BA69566AA4442450BFC50BD897EA38D0170D1ACCFC DUP4 DUP4 PUSH1 0x40 MLOAD PUSH2 0x341 SWAP3 SWAP2 SWAP1 PUSH2 0xF5B JUMP JUMPDEST PUSH1 0x40 MLOAD DUP1 SWAP2 SUB SWAP1 LOG2 POP POP POP JUMP JUMPDEST PUSH0 DUP1 PUSH0 DUP4 DUP2 MSTORE PUSH1 0x20 ADD SWAP1 DUP2 MSTORE PUSH1 0x20 ADD PUSH0 KECCAK256 PUSH0 ADD SLOAD SUB PUSH2 0x3A2 JUMPI PUSH1 0x40 MLOAD PUSH32 0x8C379A000000000000000000000000000000000000000000000000000000000 DUP2 MSTORE PUSH1 0x4 ADD PUSH2 0x399 SWAP1 PUSH2 0xB98 JUMP JUMPDEST PUSH1 0x40 MLOAD DUP1 SWAP2 SUB SWAP1 REVERT JUMPDEST PUSH0 DUP1 DUP3 DUP2 MSTORE PUSH1 0x20 ADD SWAP1 DUP2 MSTORE PUSH1 0x20 ADD PUSH0 KECCAK256 PUSH0 DUP1 DUP3 ADD PUSH0 SWAP1 SSTORE PUSH1 0x1 DUP3 ADD PUSH0 PUSH2 0x3C8 SWAP2 SWAP1 PUSH2 0x6B7 JUMP JUMPDEST PUSH1 0x2 DUP3 ADD PUSH0 SWAP1 SSTORE PUSH1 0x3 DUP3 ADD PUSH0 PUSH2 0x3DE SWAP2 SWAP1 PUSH2 0x6F4 JUMP JUMPDEST POP POP PUSH1 0x1 PUSH0 DUP2 SLOAD DUP1 SWAP3 SWAP2 SWAP1 PUSH2 0x3F2 SWAP1 PUSH2 0xF89 JUMP JUMPDEST SWAP2 SWAP1 POP SSTORE POP DUP1 PUSH32 0x7015631CFF457B5B13492C2045E70C6305A0A4AA773E432E79ABBE2CF52C1EB PUSH1 0x40 MLOAD PUSH1 0x40 MLOAD DUP1 SWAP2 SUB SWAP1 LOG2 POP JUMP JUMPDEST PUSH0 PUSH1 0x20 MSTORE DUP1 PUSH0 MSTORE PUSH1 0x40 PUSH0 KECCAK256 PUSH0 SWAP2 POP SWAP1 POP DUP1 PUSH0 ADD SLOAD SWAP1 DUP1 PUSH1 0x1 ADD DUP1 SLOAD PUSH2 0x44B SWAP1 PUSH2 0xC4B JUMP JUMPDEST DUP1 PUSH1 0x1F ADD PUSH1 0x20 DUP1 SWAP2 DIV MUL PUSH1 0x20 ADD PUSH1 0x40 MLOAD SWAP1 DUP2 ADD PUSH1 0x40 MSTORE DUP1 SWAP3 SWAP2 SWAP1 DUP2 DUP2 MSTORE PUSH1 0x20 ADD DUP3 DUP1 SLOAD PUSH2 0x477 SWAP1 PUSH2 0xC4B JUMP JUMPDEST DUP1 ISZERO PUSH2 0x4C2 JUMPI DUP1 PUSH1 0x1F LT PUSH2 0x499 JUMPI PUSH2 0x100 DUP1 DUP4 SLOAD DIV MUL DUP4 MSTORE SWAP2 PUSH1 0x20 ADD SWAP2 PUSH2 0x4C2 JUMP JUMPDEST DUP3 ADD SWAP2 SWAP1 PUSH0 MSTORE PUSH1 0x20 PUSH0 KECCAK256 SWAP1 JUMPDEST DUP2 SLOAD DUP2 MSTORE SWAP1 PUSH1 0x1 ADD SWAP1 PUSH1 0x20 ADD DUP1 DUP4 GT PUSH2 0x4A5 JUMPI DUP3 SWAP1 SUB PUSH1 0x1F AND DUP3 ADD SWAP2 JUMPDEST POP POP POP POP POP SWAP1 DUP1 PUSH1 0x2 ADD SLOAD SWAP1 POP DUP4 JUMP JUMPDEST PUSH0 PUSH1 0x60 PUSH0 PUSH1 0x60 PUSH0 DUP1 PUSH0 DUP8 DUP2 MSTORE PUSH1 0x20 ADD SWAP1 DUP2 MSTORE PUSH1 0x20 ADD PUSH0 KECCAK256 PUSH0 ADD SLOAD SUB PUSH2 0x52C JUMPI PUSH1 0x40 MLOAD PUSH32 0x8C379A000000000000000000000000000000000000000000000000000000000 DUP2 MSTORE PUSH1 0x4 ADD PUSH2 0x523 SWAP1 PUSH2 0xB98 JUMP JUMPDEST PUSH1 0x40 MLOAD DUP1 SWAP2 SUB SWAP1 REVERT JUMPDEST PUSH0 DUP1 PUSH0 DUP8 DUP2 MSTORE PUSH1 0x20 ADD SWAP1 DUP2 MSTORE PUSH1 0x20 ADD PUSH0 KECCAK256 PUSH1 0x40 MLOAD DUP1 PUSH1 0x80 ADD PUSH1 0x40 MSTORE SWAP1 DUP2 PUSH0 DUP3 ADD SLOAD DUP2 MSTORE PUSH1 0x20 ADD PUSH1 0x1 DUP3 ADD DUP1 SLOAD PUSH2 0x561 SWAP1 PUSH2 0xC4B JUMP JUMPDEST DUP1 PUSH1 0x1F ADD PUSH1 0x20 DUP1 SWAP2 DIV MUL PUSH1 0x20 ADD PUSH1 0x40 MLOAD SWAP1 DUP2 ADD PUSH1 0x40 MSTORE DUP1 SWAP3 SWAP2 SWAP1 DUP2 DUP2 MSTORE PUSH1 0x20 ADD DUP3 DUP1 SLOAD PUSH2 0x58D SWAP1 PUSH2 0xC4B JUMP JUMPDEST DUP1 ISZERO PUSH2 0x5D8 JUMPI DUP1 PUSH1 0x1F LT PUSH2 0x5AF JUMPI PUSH2 0x100 DUP1 DUP4 SLOAD DIV MUL DUP4 MSTORE SWAP2 PUSH1 0x20 ADD SWAP2 PUSH2 0x5D8 JUMP JUMPDEST DUP3 ADD SWAP2 SWAP1 PUSH0 MSTORE PUSH1 0x20 PUSH0 KECCAK256 SWAP1 JUMPDEST DUP2 SLOAD DUP2 MSTORE SWAP1 PUSH1 0x1 ADD SWAP1 PUSH1 0x20 ADD DUP1 DUP4 GT PUSH2 0x5BB JUMPI DUP3 SWAP1 SUB PUSH1 0x1F AND DUP3 ADD SWAP2 JUMPDEST POP POP POP POP POP DUP2 MSTORE PUSH1 0x20 ADD PUSH1 0x2 DUP3 ADD SLOAD DUP2 MSTORE PUSH1 0x20 ADD PUSH1 0x3 DUP3 ADD DUP1 SLOAD DUP1 PUSH1 0x20 MUL PUSH1 0x20 ADD PUSH1 0x40 MLOAD SWAP1 DUP2 ADD PUSH1 0x40 MSTORE DUP1 SWAP3 SWAP2 SWAP1 DUP2 DUP2 MSTORE PUSH1 0x20 ADD DUP3 DUP1 SLOAD DUP1 ISZERO PUSH2 0x638 JUMPI PUSH1 0x20 MUL DUP3 ADD SWAP2 SWAP1 PUSH0 MSTORE PUSH1 0x20 PUSH0 KECCAK256 SWAP1 JUMPDEST DUP2 SLOAD DUP2 MSTORE PUSH1 0x20 ADD SWAP1 PUSH1 0x1 ADD SWAP1 DUP1 DUP4 GT PUSH2 0x624 JUMPI JUMPDEST POP POP POP POP POP DUP2 MSTORE POP POP SWAP1 POP DUP1 PUSH0 ADD MLOAD DUP2 PUSH1 0x20 ADD MLOAD DUP3 PUSH1 0x40 ADD MLOAD DUP4 PUSH1 0x60 ADD MLOAD SWAP5 POP SWAP5 POP SWAP5 POP SWAP5 POP POP SWAP2 SWAP4 POP SWAP2 SWAP4 JUMP JUMPDEST PUSH1 0x1 SLOAD DUP2 JUMP JUMPDEST DUP3 DUP1 SLOAD DUP3 DUP3 SSTORE SWAP1 PUSH0 MSTORE PUSH1 0x20 PUSH0 KECCAK256 SWAP1 DUP2 ADD SWAP3 DUP3 ISZERO PUSH2 0x6A6 JUMPI SWAP2 PUSH1 0x20 MUL DUP3 ADD JUMPDEST DUP3 DUP2 GT ISZERO PUSH2 0x6A5 JUMPI DUP3 MLOAD DUP3 SSTORE SWAP2 PUSH1 0x20 ADD SWAP2 SWAP1 PUSH1 0x1 ADD SWAP1 PUSH2 0x68A JUMP JUMPDEST JUMPDEST POP SWAP1 POP PUSH2 0x6B3 SWAP2 SWAP1 PUSH2 0x712 JUMP JUMPDEST POP SWAP1 JUMP JUMPDEST POP DUP1 SLOAD PUSH2 0x6C3 SWAP1 PUSH2 0xC4B JUMP JUMPDEST PUSH0 DUP3 SSTORE DUP1 PUSH1 0x1F LT PUSH2 0x6D4 JUMPI POP PUSH2 0x6F1 JUMP JUMPDEST PUSH1 0x1F ADD PUSH1 0x20 SWAP1 DIV SWAP1 PUSH0 MSTORE PUSH1 0x20 PUSH0 KECCAK256 SWAP1 DUP2 ADD SWAP1 PUSH2 0x6F0 SWAP2 SWAP1 PUSH2 0x712 JUMP JUMPDEST JUMPDEST POP JUMP JUMPDEST POP DUP1 SLOAD PUSH0 DUP3 SSTORE SWAP1 PUSH0 MSTORE PUSH1 0x20 PUSH0 KECCAK256 SWAP1 DUP2 ADD SWAP1 PUSH2 0x70F SWAP2 SWAP1 PUSH2 0x712 JUMP JUMPDEST POP JUMP JUMPDEST JUMPDEST DUP1 DUP3 GT ISZERO PUSH2 0x729 JUMPI PUSH0 DUP2 PUSH0 SWAP1 SSTORE POP PUSH1 0x1 ADD PUSH2 0x713 JUMP JUMPDEST POP SWAP1 JUMP JUMPDEST PUSH0 PUSH1 0x40 MLOAD SWAP1 POP SWAP1 JUMP JUMPDEST PUSH0 DUP1 REVERT JUMPDEST PUSH0 DUP1 REVERT JUMPDEST PUSH0 DUP2 SWAP1 POP SWAP2 SWAP1 POP JUMP JUMPDEST PUSH2 0x750 DUP2 PUSH2 0x73E JUMP JUMPDEST DUP2 EQ PUSH2 0x75A JUMPI PUSH0 DUP1 REVERT JUMPDEST POP JUMP JUMPDEST PUSH0 DUP2 CALLDATALOAD SWAP1 POP PUSH2 0x76B DUP2 PUSH2 0x747 JUMP JUMPDEST SWAP3 SWAP2 POP POP JUMP JUMPDEST PUSH0 DUP1 PUSH1 0x40 DUP4 DUP6 SUB SLT ISZERO PUSH2 0x787 JUMPI PUSH2 0x786 PUSH2 0x736 JUMP JUMPDEST JUMPDEST PUSH0 PUSH2 0x794 DUP6 DUP3 DUP7 ADD PUSH2 0x75D JUMP JUMPDEST SWAP3 POP POP PUSH1 0x20 PUSH2 0x7A5 DUP6 DUP3 DUP7 ADD PUSH2 0x75D JUMP JUMPDEST SWAP2 POP POP SWAP3 POP SWAP3 SWAP1 POP JUMP JUMPDEST PUSH0 DUP1 REVERT JUMPDEST PUSH0 DUP1 REVERT JUMPDEST PUSH0 PUSH1 0x1F NOT PUSH1 0x1F DUP4 ADD AND SWAP1 POP SWAP2 SWAP1 POP JUMP JUMPDEST PUSH32 0x4E487B7100000000000000000000000000000000000000000000000000000000 PUSH0 MSTORE PUSH1 0x41 PUSH1 0x4 MSTORE PUSH1 0x24 PUSH0 REVERT JUMPDEST PUSH2 0x7FD DUP3 PUSH2 0x7B7 JUMP JUMPDEST DUP2 ADD DUP2 DUP2 LT PUSH8 0xFFFFFFFFFFFFFFFF DUP3 GT OR ISZERO PUSH2 0x81C JUMPI PUSH2 0x81B PUSH2 0x7C7 JUMP JUMPDEST JUMPDEST DUP1 PUSH1 0x40 MSTORE POP POP POP JUMP JUMPDEST PUSH0 PUSH2 0x82E PUSH2 0x72D JUMP JUMPDEST SWAP1 POP PUSH2 0x83A DUP3 DUP3 PUSH2 0x7F4 JUMP JUMPDEST SWAP2 SWAP1 POP JUMP JUMPDEST PUSH0 PUSH8 0xFFFFFFFFFFFFFFFF DUP3 GT ISZERO PUSH2 0x859 JUMPI PUSH2 0x858 PUSH2 0x7C7 JUMP JUMPDEST JUMPDEST PUSH2 0x862 DUP3 PUSH2 0x7B7 JUMP JUMPDEST SWAP1 POP PUSH1 0x20 DUP2 ADD SWAP1 POP SWAP2 SWAP1 POP JUMP JUMPDEST DUP3 DUP2 DUP4 CALLDATACOPY PUSH0 DUP4 DUP4 ADD MSTORE POP POP POP JUMP JUMPDEST PUSH0 PUSH2 0x88F PUSH2 0x88A DUP5 PUSH2 0x83F JUMP JUMPDEST PUSH2 0x825 JUMP JUMPDEST SWAP1 POP DUP3 DUP2 MSTORE PUSH1 0x20 DUP2 ADD DUP5 DUP5 DUP5 ADD GT ISZERO PUSH2 0x8AB JUMPI PUSH2 0x8AA PUSH2 0x7B3 JUMP JUMPDEST JUMPDEST PUSH2 0x8B6 DUP5 DUP3 DUP6 PUSH2 0x86F JUMP JUMPDEST POP SWAP4 SWAP3 POP POP POP JUMP JUMPDEST PUSH0 DUP3 PUSH1 0x1F DUP4 ADD SLT PUSH2 0x8D2 JUMPI PUSH2 0x8D1 PUSH2 0x7AF JUMP JUMPDEST JUMPDEST DUP2 CALLDATALOAD PUSH2 0x8E2 DUP5 DUP3 PUSH1 0x20 DUP7 ADD PUSH2 0x87D JUMP JUMPDEST SWAP2 POP POP SWAP3 SWAP2 POP POP JUMP JUMPDEST PUSH0 DUP1 PUSH0 PUSH1 0x60 DUP5 DUP7 SUB SLT ISZERO PUSH2 0x902 JUMPI PUSH2 0x901 PUSH2 0x736 JUMP JUMPDEST JUMPDEST PUSH0 PUSH2 0x90F DUP7 DUP3 DUP8 ADD PUSH2 0x75D JUMP JUMPDEST SWAP4 POP POP PUSH1 0x20 DUP5 ADD CALLDATALOAD PUSH8 0xFFFFFFFFFFFFFFFF DUP2 GT ISZERO PUSH2 0x930 JUMPI PUSH2 0x92F PUSH2 0x73A JUMP JUMPDEST JUMPDEST PUSH2 0x93C DUP7 DUP3 DUP8 ADD PUSH2 0x8BE JUMP JUMPDEST SWAP3 POP POP PUSH1 0x40 PUSH2 0x94D DUP7 DUP3 DUP8 ADD PUSH2 0x75D JUMP JUMPDEST SWAP2 POP POP SWAP3 POP SWAP3 POP SWAP3 JUMP JUMPDEST PUSH0 PUSH1 0x20 DUP3 DUP5 SUB SLT ISZERO PUSH2 0x96C JUMPI PUSH2 0x96B PUSH2 0x736 JUMP JUMPDEST JUMPDEST PUSH0 PUSH2 0x979 DUP5 DUP3 DUP6 ADD PUSH2 0x75D JUMP JUMPDEST SWAP2 POP POP SWAP3 SWAP2 POP POP JUMP JUMPDEST PUSH2 0x98B DUP2 PUSH2 0x73E JUMP JUMPDEST DUP3 MSTORE POP POP JUMP JUMPDEST PUSH0 DUP2 MLOAD SWAP1 POP SWAP2 SWAP1 POP JUMP JUMPDEST PUSH0 DUP3 DUP3 MSTORE PUSH1 0x20 DUP3 ADD SWAP1 POP SWAP3 SWAP2 POP POP JUMP JUMPDEST DUP3 DUP2 DUP4 MCOPY PUSH0 DUP4 DUP4 ADD MSTORE POP POP POP JUMP JUMPDEST PUSH0 PUSH2 0x9C3 DUP3 PUSH2 0x991 JUMP JUMPDEST PUSH2 0x9CD DUP2 DUP6 PUSH2 0x99B JUMP JUMPDEST SWAP4 POP PUSH2 0x9DD DUP2 DUP6 PUSH1 0x20 DUP7 ADD PUSH2 0x9AB JUMP JUMPDEST PUSH2 0x9E6 DUP2 PUSH2 0x7B7 JUMP JUMPDEST DUP5 ADD SWAP2 POP POP SWAP3 SWAP2 POP POP JUMP JUMPDEST PUSH0 PUSH1 0x60 DUP3 ADD SWAP1 POP PUSH2 0xA04 PUSH0 DUP4 ADD DUP7 PUSH2 0x982 JUMP JUMPDEST DUP2 DUP2 SUB PUSH1 0x20 DUP4 ADD MSTORE PUSH2 0xA16 DUP2 DUP6 PUSH2 0x9B9 JUMP JUMPDEST SWAP1 POP PUSH2 0xA25 PUSH1 0x40 DUP4 ADD DUP5 PUSH2 0x982 JUMP JUMPDEST SWAP5 SWAP4 POP POP POP POP JUMP JUMPDEST PUSH0 DUP2 MLOAD SWAP1 POP SWAP2 SWAP1 POP JUMP JUMPDEST PUSH0 DUP3 DUP3 MSTORE PUSH1 0x20 DUP3 ADD SWAP1 POP SWAP3 SWAP2 POP POP JUMP JUMPDEST PUSH0 DUP2 SWAP1 POP PUSH1 0x20 DUP3 ADD SWAP1 POP SWAP2 SWAP1 POP JUMP JUMPDEST PUSH2 0xA5F DUP2 PUSH2 0x73E JUMP JUMPDEST DUP3 MSTORE POP POP JUMP JUMPDEST PUSH0 PUSH2 0xA70 DUP4 DUP4 PUSH2 0xA56 JUMP JUMPDEST PUSH1 0x20 DUP4 ADD SWAP1 POP SWAP3 SWAP2 POP POP JUMP JUMPDEST PUSH0 PUSH1 0x20 DUP3 ADD SWAP1 POP SWAP2 SWAP1 POP JUMP JUMPDEST PUSH0 PUSH2 0xA92 DUP3 PUSH2 0xA2D JUMP JUMPDEST PUSH2 0xA9C DUP2 DUP6 PUSH2 0xA37 JUMP JUMPDEST SWAP4 POP PUSH2 0xAA7 DUP4 PUSH2 0xA47 JUMP JUMPDEST DUP1 PUSH0 JUMPDEST DUP4 DUP2 LT ISZERO PUSH2 0xAD7 JUMPI DUP2 MLOAD PUSH2 0xABE DUP9 DUP3 PUSH2 0xA65 JUMP JUMPDEST SWAP8 POP PUSH2 0xAC9 DUP4 PUSH2 0xA7C JUMP JUMPDEST SWAP3 POP POP PUSH1 0x1 DUP2 ADD SWAP1 POP PUSH2 0xAAA JUMP JUMPDEST POP DUP6 SWAP4 POP POP POP POP SWAP3 SWAP2 POP POP JUMP JUMPDEST PUSH0 PUSH1 0x80 DUP3 ADD SWAP1 POP PUSH2 0xAF7 PUSH0 DUP4 ADD DUP8 PUSH2 0x982 JUMP JUMPDEST DUP2 DUP2 SUB PUSH1 0x20 DUP4 ADD MSTORE PUSH2 0xB09 DUP2 DUP7 PUSH2 0x9B9 JUMP JUMPDEST SWAP1 POP PUSH2 0xB18 PUSH1 0x40 DUP4 ADD DUP6 PUSH2 0x982 JUMP JUMPDEST DUP2 DUP2 SUB PUSH1 0x60 DUP4 ADD MSTORE PUSH2 0xB2A DUP2 DUP5 PUSH2 0xA88 JUMP JUMPDEST SWAP1 POP SWAP6 SWAP5 POP POP POP POP POP JUMP JUMPDEST PUSH0 PUSH1 0x20 DUP3 ADD SWAP1 POP PUSH2 0xB48 PUSH0 DUP4 ADD DUP5 PUSH2 0x982 JUMP JUMPDEST SWAP3 SWAP2 POP POP JUMP JUMPDEST PUSH32 0x50726F6475637420646F6573206E6F7420657869737400000000000000000000 PUSH0 DUP3 ADD MSTORE POP JUMP JUMPDEST PUSH0 PUSH2 0xB82 PUSH1 0x16 DUP4 PUSH2 0x99B JUMP JUMPDEST SWAP2 POP PUSH2 0xB8D DUP3 PUSH2 0xB4E JUMP JUMPDEST PUSH1 0x20 DUP3 ADD SWAP1 POP SWAP2 SWAP1 POP JUMP JUMPDEST PUSH0 PUSH1 0x20 DUP3 ADD SWAP1 POP DUP2 DUP2 SUB PUSH0 DUP4 ADD MSTORE PUSH2 0xBAF DUP2 PUSH2 0xB76 JUMP JUMPDEST SWAP1 POP SWAP2 SWAP1 POP JUMP JUMPDEST PUSH32 0x50726F6475637420616C72656164792065786973747300000000000000000000 PUSH0 DUP3 ADD MSTORE POP JUMP JUMPDEST PUSH0 PUSH2 0xBEA PUSH1 0x16 DUP4 PUSH2 0x99B JUMP JUMPDEST SWAP2 POP PUSH2 0xBF5 DUP3 PUSH2 0xBB6 JUMP JUMPDEST PUSH1 0x20 DUP3 ADD SWAP1 POP SWAP2 SWAP1 POP JUMP JUMPDEST PUSH0 PUSH1 0x20 DUP3 ADD SWAP1 POP DUP2 DUP2 SUB PUSH0 DUP4 ADD MSTORE PUSH2 0xC17 DUP2 PUSH2 0xBDE JUMP JUMPDEST SWAP1 POP SWAP2 SWAP1 POP JUMP JUMPDEST PUSH32 0x4E487B7100000000000000000000000000000000000000000000000000000000 PUSH0 MSTORE PUSH1 0x22 PUSH1 0x4 MSTORE PUSH1 0x24 PUSH0 REVERT JUMPDEST PUSH0 PUSH1 0x2 DUP3 DIV SWAP1 POP PUSH1 0x1 DUP3 AND DUP1 PUSH2 0xC62 JUMPI PUSH1 0x7F DUP3 AND SWAP2 POP JUMPDEST PUSH1 0x20 DUP3 LT DUP2 SUB PUSH2 0xC75 JUMPI PUSH2 0xC74 PUSH2 0xC1E JUMP JUMPDEST JUMPDEST POP SWAP2 SWAP1 POP JUMP JUMPDEST PUSH0 DUP2 SWAP1 POP DUP2 PUSH0 MSTORE PUSH1 0x20 PUSH0 KECCAK256 SWAP1 POP SWAP2 SWAP1 POP JUMP JUMPDEST PUSH0 PUSH1 0x20 PUSH1 0x1F DUP4 ADD DIV SWAP1 POP SWAP2 SWAP1 POP JUMP JUMPDEST PUSH0 DUP3 DUP3 SHL SWAP1 POP SWAP3 SWAP2 POP POP JUMP JUMPDEST PUSH0 PUSH1 0x8 DUP4 MUL PUSH2 0xCD7 PUSH32 0xFFFFFFFFFFFFFFFFFFFFFFFFFFFFFFFFFFFFFFFFFFFFFFFFFFFFFFFFFFFFFFFF DUP3 PUSH2 0xC9C JUMP JUMPDEST PUSH2 0xCE1 DUP7 DUP4 PUSH2 0xC9C JUMP JUMPDEST SWAP6 POP DUP1 NOT DUP5 AND SWAP4 POP DUP1 DUP7 AND DUP5 OR SWAP3 POP POP POP SWAP4 SWAP3 POP POP POP JUMP JUMPDEST PUSH0 DUP2 SWAP1 POP SWAP2 SWAP1 POP JUMP JUMPDEST PUSH0 PUSH2 0xD1C PUSH2 0xD17 PUSH2 0xD12 DUP5 PUSH2 0x73E JUMP JUMPDEST PUSH2 0xCF9 JUMP JUMPDEST PUSH2 0x73E JUMP JUMPDEST SWAP1 POP SWAP2 SWAP1 POP JUMP JUMPDEST PUSH0 DUP2 SWAP1 POP SWAP2 SWAP1 POP JUMP JUMPDEST PUSH2 0xD35 DUP4 PUSH2 0xD02 JUMP JUMPDEST PUSH2 0xD49 PUSH2 0xD41 DUP3 PUSH2 0xD23 JUMP JUMPDEST DUP5 DUP5 SLOAD PUSH2 0xCA8 JUMP JUMPDEST DUP3 SSTORE POP POP POP POP JUMP JUMPDEST PUSH0 SWAP1 JUMP JUMPDEST PUSH2 0xD5D PUSH2 0xD51 JUMP JUMPDEST PUSH2 0xD68 DUP2 DUP5 DUP5 PUSH2 0xD2C JUMP JUMPDEST POP POP POP JUMP JUMPDEST JUMPDEST DUP2 DUP2 LT ISZERO PUSH2 0xD8B JUMPI PUSH2 0xD80 PUSH0 DUP3 PUSH2 0xD55 JUMP JUMPDEST PUSH1 0x1 DUP2 ADD SWAP1 POP PUSH2 0xD6E JUMP JUMPDEST POP POP JUMP JUMPDEST PUSH1 0x1F DUP3 GT ISZERO PUSH2 0xDD0 JUMPI PUSH2 0xDA1 DUP2 PUSH2 0xC7B JUMP JUMPDEST PUSH2 0xDAA DUP5 PUSH2 0xC8D JUMP JUMPDEST DUP2 ADD PUSH1 0x20 DUP6 LT ISZERO PUSH2 0xDB9 JUMPI DUP2 SWAP1 POP JUMPDEST PUSH2 0xDCD PUSH2 0xDC5 DUP6 PUSH2 0xC8D JUMP JUMPDEST DUP4 ADD DUP3 PUSH2 0xD6D JUMP JUMPDEST POP POP JUMPDEST POP POP POP JUMP JUMPDEST PUSH0 DUP3 DUP3 SHR SWAP1 POP SWAP3 SWAP2 POP POP JUMP JUMPDEST PUSH0 PUSH2 0xDF0 PUSH0 NOT DUP5 PUSH1 0x8 MUL PUSH2 0xDD5 JUMP JUMPDEST NOT DUP1 DUP4 AND SWAP2 POP POP SWAP3 SWAP2 POP POP JUMP JUMPDEST PUSH0 PUSH2 0xE08 DUP4 DUP4 PUSH2 0xDE1 JUMP JUMPDEST SWAP2 POP DUP3 PUSH1 0x2 MUL DUP3 OR SWAP1 POP SWAP3 SWAP2 POP POP JUMP JUMPDEST PUSH2 0xE21 DUP3 PUSH2 0x991 JUMP JUMPDEST PUSH8 0xFFFFFFFFFFFFFFFF DUP2 GT ISZERO PUSH2 0xE3A JUMPI PUSH2 0xE39 PUSH2 0x7C7 JUMP JUMPDEST JUMPDEST PUSH2 0xE44 DUP3 SLOAD PUSH2 0xC4B JUMP JUMPDEST PUSH2 0xE4F DUP3 DUP3 DUP6 PUSH2 0xD8F JUMP JUMPDEST PUSH0 PUSH1 0x20 SWAP1 POP PUSH1 0x1F DUP4 GT PUSH1 0x1 DUP2 EQ PUSH2 0xE80 JUMPI PUSH0 DUP5 ISZERO PUSH2 0xE6E JUMPI DUP3 DUP8 ADD MLOAD SWAP1 POP JUMPDEST PUSH2 0xE78 DUP6 DUP3 PUSH2 0xDFD JUMP JUMPDEST DUP7 SSTORE POP PUSH2 0xEDF JUMP JUMPDEST PUSH1 0x1F NOT DUP5 AND PUSH2 0xE8E DUP7 PUSH2 0xC7B JUMP JUMPDEST PUSH0 JUMPDEST DUP3 DUP2 LT ISZERO PUSH2 0xEB5 JUMPI DUP5 DUP10 ADD MLOAD DUP3 SSTORE PUSH1 0x1 DUP3 ADD SWAP2 POP PUSH1 0x20 DUP6 ADD SWAP5 POP PUSH1 0x20 DUP2 ADD SWAP1 POP PUSH2 0xE90 JUMP JUMPDEST DUP7 DUP4 LT ISZERO PUSH2 0xED2 JUMPI DUP5 DUP10 ADD MLOAD PUSH2 0xECE PUSH1 0x1F DUP10 AND DUP3 PUSH2 0xDE1 JUMP JUMPDEST DUP4 SSTORE POP JUMPDEST PUSH1 0x1 PUSH1 0x2 DUP9 MUL ADD DUP9 SSTORE POP POP POP JUMPDEST POP POP POP POP POP POP JUMP JUMPDEST PUSH32 0x4E487B7100000000000000000000000000000000000000000000000000000000 PUSH0 MSTORE PUSH1 0x11 PUSH1 0x4 MSTORE PUSH1 0x24 PUSH0 REVERT JUMPDEST PUSH0 PUSH2 0xF1E DUP3 PUSH2 0x73E JUMP JUMPDEST SWAP2 POP PUSH32 0xFFFFFFFFFFFFFFFFFFFFFFFFFFFFFFFFFFFFFFFFFFFFFFFFFFFFFFFFFFFFFFFF DUP3 SUB PUSH2 0xF50 JUMPI PUSH2 0xF4F PUSH2 0xEE7 JUMP JUMPDEST JUMPDEST PUSH1 0x1 DUP3 ADD SWAP1 POP SWAP2 SWAP1 POP JUMP JUMPDEST PUSH0 PUSH1 0x40 DUP3 ADD SWAP1 POP DUP2 DUP2 SUB PUSH0 DUP4 ADD MSTORE PUSH2 0xF73 DUP2 DUP6 PUSH2 0x9B9 JUMP JUMPDEST SWAP1 POP PUSH2 0xF82 PUSH1 0x20 DUP4 ADD DUP5 PUSH2 0x982 JUMP JUMPDEST SWAP4 SWAP3 POP POP POP JUMP JUMPDEST PUSH0 PUSH2 0xF93 DUP3 PUSH2 0x73E JUMP JUMPDEST SWAP2 POP PUSH0 DUP3 SUB PUSH2 0xFA5 JUMPI PUSH2 0xFA4 PUSH2 0xEE7 JUMP JUMPDEST JUMPDEST PUSH1 0x1 DUP3 SUB SWAP1 POP SWAP2 SWAP1 POP JUMP INVALID LOG2 PUSH5 0x6970667358 0x22 SLT KECCAK256 0x25 0x4F 0xA7 DUP11 0x1F 0x28 SMOD 0xE7 0x4D JUMP INVALID 0x4E PUSH12 0x182DFD24345A97703934FEA7 EQ SGT 0xC9 PC PUSH16 0x998164736F6C634300081A0033000000 "
		},
		"gasEstimates": {
			"creation": {
				"codeDepositCost": "814000",
				"executionCost": "5854",
				"totalCost": "819854"
			},
			"external": {
				"addProduct(uint256,string,uint256)": "infinite",
				"getProduct(uint256)": "infinite",
				"productCount()": "2513",
				"products(uint256)": "infinite",
				"removeProduct(uint256)": "infinite",
				"updateProduct(uint256,uint256)": "infinite"
			}
		},
		"methodIdentifiers": {
			"addProduct(uint256,string,uint256)": "4268ff2d",
			"getProduct(uint256)": "b9db15b4",
			"productCount()": "e0f6ef87",
			"products(uint256)": "7acc0b20",
			"removeProduct(uint256)": "5ee95cae",
			"updateProduct(uint256,uint256)": "31f45cab"
		}
	},
	"abi": [
		{
			"anonymous": false,
			"inputs": [
				{
					"indexed": true,
					"internalType": "uint256",
					"name": "productId",
					"type": "uint256"
				},
				{
					"indexed": false,
					"internalType": "string",
					"name": "name",
					"type": "string"
				},
				{
					"indexed": false,
					"internalType": "uint256",
					"name": "quantity",
					"type": "uint256"
				}
			],
			"name": "ProductAdded",
			"type": "event"
		},
		{
			"anonymous": false,
			"inputs": [
				{
					"indexed": true,
					"internalType": "uint256",
					"name": "productId",
					"type": "uint256"
				}
			],
			"name": "ProductRemoved",
			"type": "event"
		},
		{
			"anonymous": false,
			"inputs": [
				{
					"indexed": true,
					"internalType": "uint256",
					"name": "productId",
					"type": "uint256"
				},
				{
					"indexed": false,
					"internalType": "uint256",
					"name": "newQuantity",
					"type": "uint256"
				}
			],
			"name": "ProductUpdated",
			"type": "event"
		},
		{
			"inputs": [
				{
					"internalType": "uint256",
					"name": "_id",
					"type": "uint256"
				},
				{
					"internalType": "string",
					"name": "_name",
					"type": "string"
				},
				{
					"internalType": "uint256",
					"name": "_quantity",
					"type": "uint256"
				}
			],
			"name": "addProduct",
			"outputs": [],
			"stateMutability": "nonpayable",
			"type": "function"
		},
		{
			"inputs": [
				{
					"internalType": "uint256",
					"name": "_id",
					"type": "uint256"
				}
			],
			"name": "getProduct",
			"outputs": [
				{
					"internalType": "uint256",
					"name": "",
					"type": "uint256"
				},
				{
					"internalType": "string",
					"name": "",
					"type": "string"
				},
				{
					"internalType": "uint256",
					"name": "",
					"type": "uint256"
				},
				{
					"internalType": "uint256[]",
					"name": "",
					"type": "uint256[]"
				}
			],
			"stateMutability": "view",
			"type": "function"
		},
		{
			"inputs": [],
			"name": "productCount",
			"outputs": [
				{
					"internalType": "uint256",
					"name": "",
					"type": "uint256"
				}
			],
			"stateMutability": "view",
			"type": "function"
		},
		{
			"inputs": [
				{
					"internalType": "uint256",
					"name": "",
					"type": "uint256"
				}
			],
			"name": "products",
			"outputs": [
				{
					"internalType": "uint256",
					"name": "id",
					"type": "uint256"
				},
				{
					"internalType": "string",
					"name": "name",
					"type": "string"
				},
				{
					"internalType": "uint256",
					"name": "quantity",
					"type": "uint256"
				}
			],
			"stateMutability": "view",
			"type": "function"
		},
		{
			"inputs": [
				{
					"internalType": "uint256",
					"name": "_id",
					"type": "uint256"
				}
			],
			"name": "removeProduct",
			"outputs": [],
			"stateMutability": "nonpayable",
			"type": "function"
		},
		{
			"inputs": [
				{
					"internalType": "uint256",
					"name": "_id",
					"type": "uint256"
				},
				{
					"internalType": "uint256",
					"name": "_newQuantity",
					"type": "uint256"
				}
			],
			"name": "updateProduct",
			"outputs": [],
			"stateMutability": "nonpayable",
			"type": "function"
		}
	]
}