{
  "contractName": "ProductManagement",
  "abi": [
    {
      "anonymous": false,
      "inputs": [
        {
          "indexed": true,
          "internalType": "uint256",
          "name": "productId",
          "type": "uint256"
        },
        {
          "indexed": false,
          "internalType": "string",
          "name": "name",
          "type": "string"
        },
        {
          "indexed": false,
          "internalType": "uint256",
          "name": "quantity",
          "type": "uint256"
        }
      ],
      "name": "ProductAdded",
      "type": "event"
    },
    {
      "anonymous": false,
      "inputs": [
        {
          "indexed": true,
          "internalType": "uint256",
          "name": "productId",
          "type": "uint256"
        },
        {
          "indexed": false,
          "internalType": "string",
          "name": "name",
          "type": "string"
        },
        {
          "indexed": false,
          "internalType": "uint256",
          "name": "quantity",
          "type": "uint256"
        }
      ],
      "name": "ProductUpdated",
      "type": "event"
    },
    {
      "anonymous": false,
      "inputs": [
        {
          "indexed": true,
          "internalType": "address",
          "name": "userAddress",
          "type": "address"
        },
        {
          "indexed": false,
          "internalType": "string",
          "name": "name",
          "type": "string"
        },
        {
          "indexed": false,
          "internalType": "uint8",
          "name": "role",
          "type": "uint8"
        }
      ],
      "name": "UserAdded",
      "type": "event"
    },
    {
      "anonymous": false,
      "inputs": [
        {
          "indexed": true,
          "internalType": "address",
          "name": "userAddress",
          "type": "address"
        }
      ],
      "name": "UserRemoved",
      "type": "event"
    },
    {
      "inputs": [
        {
          "internalType": "address",
          "name": "_userAddress",
          "type": "address"
        },
        {
          "internalType": "string",
          "name": "_name",
          "type": "string"
        },
        {
          "internalType": "uint8",
          "name": "_role",
          "type": "uint8"
        }
      ],
      "name": "addUser",
      "outputs": [],
      "stateMutability": "nonpayable",
      "type": "function"
    },
    {
      "inputs": [],
      "name": "getAllUsers",
      "outputs": [
        {
          "internalType": "address[]",
          "name": "",
          "type": "address[]"
        }
      ],
      "stateMutability": "view",
      "type": "function"
    },
    {
      "inputs": [],
      "name": "getUserCount",
      "outputs": [
        {
          "internalType": "uint256",
          "name": "",
          "type": "uint256"
        }
      ],
      "stateMutability": "view",
      "type": "function"
    },
    {
      "inputs": [
        {
          "internalType": "address",
          "name": "_userAddress",
          "type": "address"
        }
      ],
      "name": "getUserRole",
      "outputs": [
        {
          "internalType": "uint8",
          "name": "",
          "type": "uint8"
        }
      ],
      "stateMutability": "view",
      "type": "function"
    },
    {
      "inputs": [],
      "name": "productCount",
      "outputs": [
        {
          "internalType": "uint256",
          "name": "",
          "type": "uint256"
        }
      ],
      "stateMutability": "view",
      "type": "function"
    },
    {
      "inputs": [
        {
          "internalType": "uint256",
          "name": "",
          "type": "uint256"
        }
      ],
      "name": "products",
      "outputs": [
        {
          "internalType": "uint256",
          "name": "id",
          "type": "uint256"
        },
        {
          "internalType": "string",
          "name": "name",
          "type": "string"
        },
        {
          "internalType": "uint256",
          "name": "quantity",
          "type": "uint256"
        }
      ],
      "stateMutability": "view",
      "type": "function"
    },
    {
      "inputs": [
        {
          "internalType": "address",
          "name": "_userAddress",
          "type": "address"
        }
      ],
      "name": "removeUser",
      "outputs": [],
      "stateMutability": "nonpayable",
      "type": "function"
    },
    {
      "inputs": [
        {
          "internalType": "uint256",
          "name": "",
          "type": "uint256"
        }
      ],
      "name": "userAddresses",
      "outputs": [
        {
          "internalType": "address",
          "name": "",
          "type": "address"
        }
      ],
      "stateMutability": "view",
      "type": "function"
    },
    {
      "inputs": [],
      "name": "userCount",
      "outputs": [
        {
          "internalType": "uint256",
          "name": "",
          "type": "uint256"
        }
      ],
      "stateMutability": "view",
      "type": "function"
    },
    {
      "inputs": [
        {
          "internalType": "address",
          "name": "",
          "type": "address"
        }
      ],
      "name": "users",
      "outputs": [
        {
          "internalType": "string",
          "name": "name",
          "type": "string"
        },
        {
          "internalType": "uint8",
          "name": "role",
          "type": "uint8"
        }
      ],
      "stateMutability": "view",
      "type": "function"
    },
    {
      "inputs": [
        {
          "internalType": "uint256",
          "name": "_id",
          "type": "uint256"
        },
        {
          "internalType": "string",
          "name": "_name",
          "type": "string"
        },
        {
          "internalType": "uint256",
          "name": "_quantity",
          "type": "uint256"
        }
      ],
      "name": "addProduct",
      "outputs": [],
      "stateMutability": "nonpayable",
      "type": "function"
    },
    {
      "inputs": [
        {
          "internalType": "uint256",
          "name": "_id",
          "type": "uint256"
        },
        {
          "internalType": "string",
          "name": "_name",
          "type": "string"
        },
        {
          "internalType": "uint256",
          "name": "_quantity",
          "type": "uint256"
        }
      ],
      "name": "updateProduct",
      "outputs": [],
      "stateMutability": "nonpayable",
      "type": "function"
    },
    {
      "inputs": [
        {
          "internalType": "uint256",
          "name": "_id",
          "type": "uint256"
        }
      ],
      "name": "getProduct",
      "outputs": [
        {
          "internalType": "string",
          "name": "",
          "type": "string"
        },
        {
          "internalType": "uint256",
          "name": "",
          "type": "uint256"
        }
      ],
      "stateMutability": "view",
      "type": "function"
    }
  ],
  "bytecode": "0x60806040525f6002555f60045534801562000018575f80fd5b5062000062336040518060400160405280600581526020017f41646d696e00000000000000000000000000000000000000000000000000000081525060046200015860201b60201c565b5f6101239050620000b1816040518060400160405280600981526020017f537570706c69657231000000000000000000000000000000000000000000000081525060016200015860201b60201c565b5f610456905062000100816040518060400160405280600981526020017f4c6f67697374696331000000000000000000000000000000000000000000000081525060026200015860201b60201c565b5f61078990506200014f816040518060400160405280600a81526020017f496e73706563746f72310000000000000000000000000000000000000000000081525060036200015860201b60201c565b50505062000944565b600460ff165f803373ffffffffffffffffffffffffffffffffffffffff1673ffffffffffffffffffffffffffffffffffffffff1681526020019081526020015f206001015f9054906101000a900460ff1660ff1614620001ef576040517f08c379a0000000000000000000000000000000000000000000000000000000008152600401620001e6906200042c565b60405180910390fd5b5f8160ff16118015620002095750600460ff168160ff1611155b6200024b576040517f08c379a000000000000000000000000000000000000000000000000000000000815260040162000242906200049a565b60405180910390fd5b60405180604001604052808381526020018260ff168152505f808573ffffffffffffffffffffffffffffffffffffffff1673ffffffffffffffffffffffffffffffffffffffff1681526020019081526020015f205f820151815f019081620002b491906200071e565b506020820151816001015f6101000a81548160ff021916908360ff160217905550905050600183908060018154018082558091505060019003905f5260205f20015f9091909190916101000a81548173ffffffffffffffffffffffffffffffffffffffff021916908373ffffffffffffffffffffffffffffffffffffffff16021790555060025f8154809291906200034c906200082f565b91905055508273ffffffffffffffffffffffffffffffffffffffff167f8897d4c16f6b907647cc92f3b2f80418ac81581b8e74f9dda595d3910b44c86283836040516200039b92919062000912565b60405180910390a2505050565b5f82825260208201905092915050565b7f4163636573732064656e6965643a204f6e6c792041646d696e6973747261746f5f8201527f722063616e20706572666f726d207468697320616374696f6e00000000000000602082015250565b5f62000414603983620003a8565b91506200042182620003b8565b604082019050919050565b5f6020820190508181035f830152620004458162000406565b9050919050565b7f496e76616c696420726f6c6500000000000000000000000000000000000000005f82015250565b5f62000482600c83620003a8565b91506200048f826200044c565b602082019050919050565b5f6020820190508181035f830152620004b38162000474565b9050919050565b5f81519050919050565b7f4e487b71000000000000000000000000000000000000000000000000000000005f52604160045260245ffd5b7f4e487b71000000000000000000000000000000000000000000000000000000005f52602260045260245ffd5b5f60028204905060018216806200053657607f821691505b6020821081036200054c576200054b620004f1565b5b50919050565b5f819050815f5260205f209050919050565b5f6020601f8301049050919050565b5f82821b905092915050565b5f60088302620005b07fffffffffffffffffffffffffffffffffffffffffffffffffffffffffffffffff8262000573565b620005bc868362000573565b95508019841693508086168417925050509392505050565b5f819050919050565b5f819050919050565b5f6200060662000600620005fa84620005d4565b620005dd565b620005d4565b9050919050565b5f819050919050565b6200062183620005e6565b6200063962000630826200060d565b8484546200057f565b825550505050565b5f90565b6200064f62000641565b6200065c81848462000616565b505050565b5b818110156200068357620006775f8262000645565b60018101905062000662565b5050565b601f821115620006d2576200069c8162000552565b620006a78462000564565b81016020851015620006b7578190505b620006cf620006c68562000564565b83018262000661565b50505b505050565b5f82821c905092915050565b5f620006f45f1984600802620006d7565b1980831691505092915050565b5f6200070e8383620006e3565b9150826002028217905092915050565b6200072982620004ba565b67ffffffffffffffff811115620007455762000744620004c4565b5b6200075182546200051e565b6200075e82828562000687565b5f60209050601f83116001811462000794575f84156200077f578287015190505b6200078b858262000701565b865550620007fa565b601f198416620007a48662000552565b5f5b82811015620007cd57848901518255600182019150602085019450602081019050620007a6565b86831015620007ed5784890151620007e9601f891682620006e3565b8355505b6001600288020188555050505b505050505050565b7f4e487b71000000000000000000000000000000000000000000000000000000005f52601160045260245ffd5b5f6200083b82620005d4565b91507fffffffffffffffffffffffffffffffffffffffffffffffffffffffffffffffff820362000870576200086f62000802565b5b600182019050919050565b5f5b838110156200089a5780820151818401526020810190506200087d565b5f8484015250505050565b5f601f19601f8301169050919050565b5f620008c182620004ba565b620008cd8185620003a8565b9350620008df8185602086016200087b565b620008ea81620008a5565b840191505092915050565b5f60ff82169050919050565b6200090c81620008f5565b82525050565b5f6040820190508181035f8301526200092c8185620008b5565b90506200093d602083018462000901565b9392505050565b61194780620009525f395ff3fe608060405234801561000f575f80fd5b50600436106100cd575f3560e01c80637acc0b201161008a578063b5cb15f711610064578063b5cb15f714610222578063b9db15b414610240578063e0f6ef8714610271578063e2842d791461028f576100cd565b80637acc0b20146101a357806398575188146101d5578063a87430ba146101f1576100cd565b806307973ccf146100d157806327820851146100ef57806340d268541461011f5780634268ff2d1461013b578063502c9bd51461015757806353488deb14610187575b5f80fd5b6100d96102ad565b6040516100e69190610df9565b60405180910390f35b61010960048036038101906101049190610e7d565b6102b3565b6040516101169190610ec3565b60405180910390f35b61013960048036038101906101349190611042565b610307565b005b610155600480360381019061015091906110d8565b61054a565b005b610171600480360381019061016c9190611144565b61068b565b60405161017e919061117e565b60405180910390f35b6101a1600480360381019061019c91906110d8565b6106c6565b005b6101bd60048036038101906101b89190611144565b61082a565b6040516101cc93929190611211565b60405180910390f35b6101ef60048036038101906101ea9190610e7d565b6108d6565b005b61020b60048036038101906102069190610e7d565b610aa0565b60405161021992919061124d565b60405180910390f35b61022a610b51565b6040516102379190610df9565b60405180910390f35b61025a60048036038101906102559190611144565b610b5a565b60405161026892919061127b565b60405180910390f35b610279610cf8565b6040516102869190610df9565b60405180910390f35b610297610cfe565b6040516102a49190611360565b60405180910390f35b60025481565b5f805f8373ffffffffffffffffffffffffffffffffffffffff1673ffffffffffffffffffffffffffffffffffffffff1681526020019081526020015f206001015f9054906101000a900460ff169050919050565b600460ff165f803373ffffffffffffffffffffffffffffffffffffffff1673ffffffffffffffffffffffffffffffffffffffff1681526020019081526020015f206001015f9054906101000a900460ff1660ff161461039b576040517f08c379a0000000000000000000000000000000000000000000000000000000008152600401610392906113f0565b60405180910390fd5b5f8160ff161180156103b45750600460ff168160ff1611155b6103f3576040517f08c379a00000000000000000000000000000000000000000000000000000000081526004016103ea90611458565b60405180910390fd5b60405180604001604052808381526020018260ff168152505f808573ffffffffffffffffffffffffffffffffffffffff1673ffffffffffffffffffffffffffffffffffffffff1681526020019081526020015f205f820151815f01908161045a9190611670565b506020820151816001015f6101000a81548160ff021916908360ff160217905550905050600183908060018154018082558091505060019003905f5260205f20015f9091909190916101000a81548173ffffffffffffffffffffffffffffffffffffffff021916908373ffffffffffffffffffffffffffffffffffffffff16021790555060025f8154809291906104f09061176c565b91905055508273ffffffffffffffffffffffffffffffffffffffff167f8897d4c16f6b907647cc92f3b2f80418ac81581b8e74f9dda595d3910b44c862838360405161053d92919061124d565b60405180910390a2505050565b600160ff165f803373ffffffffffffffffffffffffffffffffffffffff1673ffffffffffffffffffffffffffffffffffffffff1681526020019081526020015f206001015f9054906101000a900460ff1660ff16146105de576040517f08c379a00000000000000000000000000000000000000000000000000000000081526004016105d590611823565b60405180910390fd5b60405180606001604052808481526020018381526020018281525060035f8581526020019081526020015f205f820151815f015560208201518160010190816106279190611670565b506040820151816002015590505060045f8154809291906106479061176c565b9190505550827fcca07c742c5274e8b72111ba69566aa4442450bfc50bd897ea38d0170d1accfc838360405161067e92919061127b565b60405180910390a2505050565b6001818154811061069a575f80fd5b905f5260205f20015f915054906101000a900473ffffffffffffffffffffffffffffffffffffffff1681565b600160ff165f803373ffffffffffffffffffffffffffffffffffffffff1673ffffffffffffffffffffffffffffffffffffffff1681526020019081526020015f206001015f9054906101000a900460ff1660ff161461075a576040517f08c379a000000000000000000000000000000000000000000000000000000000815260040161075190611823565b60405180910390fd5b5f60035f8581526020019081526020015f2060020154116107b0576040517f08c379a00000000000000000000000000000000000000000000000000000000081526004016107a79061188b565b60405180910390fd5b8160035f8581526020019081526020015f2060010190816107d19190611670565b508060035f8581526020019081526020015f2060020181905550827ff9b1d9170fbe32752353e00d62e5276b143166c75aa974030dddfac2895601fe838360405161081d92919061127b565b60405180910390a2505050565b6003602052805f5260405f205f91509050805f01549080600101805461084f906114a3565b80601f016020809104026020016040519081016040528092919081815260200182805461087b906114a3565b80156108c65780601f1061089d576101008083540402835291602001916108c6565b820191905f5260205f20905b8154815290600101906020018083116108a957829003601f168201915b5050505050908060020154905083565b600460ff165f803373ffffffffffffffffffffffffffffffffffffffff1673ffffffffffffffffffffffffffffffffffffffff1681526020019081526020015f206001015f9054906101000a900460ff1660ff161461096a576040517f08c379a0000000000000000000000000000000000000000000000000000000008152600401610961906113f0565b60405180910390fd5b5f805f8373ffffffffffffffffffffffffffffffffffffffff1673ffffffffffffffffffffffffffffffffffffffff1681526020019081526020015f206001015f9054906101000a900460ff1660ff16036109fa576040517f08c379a00000000000000000000000000000000000000000000000000000000081526004016109f1906118f3565b60405180910390fd5b5f808273ffffffffffffffffffffffffffffffffffffffff1673ffffffffffffffffffffffffffffffffffffffff1681526020019081526020015f205f8082015f610a459190610d89565b600182015f6101000a81549060ff021916905550508073ffffffffffffffffffffffffffffffffffffffff167fe9dce8c992623ce791725b21e857e33248d1f190a25b5168313420eebdaae99d60405160405180910390a250565b5f602052805f5260405f205f91509050805f018054610abe906114a3565b80601f0160208091040260200160405190810160405280929190818152602001828054610aea906114a3565b8015610b355780601f10610b0c57610100808354040283529160200191610b35565b820191905f5260205f20905b815481529060010190602001808311610b1857829003601f168201915b505050505090806001015f9054906101000a900460ff16905082565b5f600254905090565b60605f600160ff165f803373ffffffffffffffffffffffffffffffffffffffff1673ffffffffffffffffffffffffffffffffffffffff1681526020019081526020015f206001015f9054906101000a900460ff1660ff1614610bf1576040517f08c379a0000000000000000000000000000000000000000000000000000000008152600401610be890611823565b60405180910390fd5b5f60035f8581526020019081526020015f206002015411610c47576040517f08c379a0000000000000000000000000000000000000000000000000000000008152600401610c3e9061188b565b60405180910390fd5b5f60035f8581526020019081526020015f209050806001018160020154818054610c70906114a3565b80601f0160208091040260200160405190810160405280929190818152602001828054610c9c906114a3565b8015610ce75780601f10610cbe57610100808354040283529160200191610ce7565b820191905f5260205f20905b815481529060010190602001808311610cca57829003601f168201915b505050505091509250925050915091565b60045481565b60606001805480602002602001604051908101604052809291908181526020018280548015610d7f57602002820191905f5260205f20905b815f9054906101000a900473ffffffffffffffffffffffffffffffffffffffff1673ffffffffffffffffffffffffffffffffffffffff1681526020019060010190808311610d36575b5050505050905090565b508054610d95906114a3565b5f825580601f10610da65750610dc3565b601f0160209004905f5260205f2090810190610dc29190610dc6565b5b50565b5b80821115610ddd575f815f905550600101610dc7565b5090565b5f819050919050565b610df381610de1565b82525050565b5f602082019050610e0c5f830184610dea565b92915050565b5f604051905090565b5f80fd5b5f80fd5b5f73ffffffffffffffffffffffffffffffffffffffff82169050919050565b5f610e4c82610e23565b9050919050565b610e5c81610e42565b8114610e66575f80fd5b50565b5f81359050610e7781610e53565b92915050565b5f60208284031215610e9257610e91610e1b565b5b5f610e9f84828501610e69565b91505092915050565b5f60ff82169050919050565b610ebd81610ea8565b82525050565b5f602082019050610ed65f830184610eb4565b92915050565b5f80fd5b5f80fd5b5f601f19601f8301169050919050565b7f4e487b71000000000000000000000000000000000000000000000000000000005f52604160045260245ffd5b610f2a82610ee4565b810181811067ffffffffffffffff82111715610f4957610f48610ef4565b5b80604052505050565b5f610f5b610e12565b9050610f678282610f21565b919050565b5f67ffffffffffffffff821115610f8657610f85610ef4565b5b610f8f82610ee4565b9050602081019050919050565b828183375f83830152505050565b5f610fbc610fb784610f6c565b610f52565b905082815260208101848484011115610fd857610fd7610ee0565b5b610fe3848285610f9c565b509392505050565b5f82601f830112610fff57610ffe610edc565b5b813561100f848260208601610faa565b91505092915050565b61102181610ea8565b811461102b575f80fd5b50565b5f8135905061103c81611018565b92915050565b5f805f6060848603121561105957611058610e1b565b5b5f61106686828701610e69565b935050602084013567ffffffffffffffff81111561108757611086610e1f565b5b61109386828701610feb565b92505060406110a48682870161102e565b9150509250925092565b6110b781610de1565b81146110c1575f80fd5b50565b5f813590506110d2816110ae565b92915050565b5f805f606084860312156110ef576110ee610e1b565b5b5f6110fc868287016110c4565b935050602084013567ffffffffffffffff81111561111d5761111c610e1f565b5b61112986828701610feb565b925050604061113a868287016110c4565b9150509250925092565b5f6020828403121561115957611158610e1b565b5b5f611166848285016110c4565b91505092915050565b61117881610e42565b82525050565b5f6020820190506111915f83018461116f565b92915050565b5f81519050919050565b5f82825260208201905092915050565b5f5b838110156111ce5780820151818401526020810190506111b3565b5f8484015250505050565b5f6111e382611197565b6111ed81856111a1565b93506111fd8185602086016111b1565b61120681610ee4565b840191505092915050565b5f6060820190506112245f830186610dea565b818103602083015261123681856111d9565b90506112456040830184610dea565b949350505050565b5f6040820190508181035f83015261126581856111d9565b90506112746020830184610eb4565b9392505050565b5f6040820190508181035f83015261129381856111d9565b90506112a26020830184610dea565b9392505050565b5f81519050919050565b5f82825260208201905092915050565b5f819050602082019050919050565b6112db81610e42565b82525050565b5f6112ec83836112d2565b60208301905092915050565b5f602082019050919050565b5f61130e826112a9565b61131881856112b3565b9350611323836112c3565b805f5b8381101561135357815161133a88826112e1565b9750611345836112f8565b925050600181019050611326565b5085935050505092915050565b5f6020820190508181035f8301526113788184611304565b905092915050565b7f4163636573732064656e6965643a204f6e6c792041646d696e6973747261746f5f8201527f722063616e20706572666f726d207468697320616374696f6e00000000000000602082015250565b5f6113da6039836111a1565b91506113e582611380565b604082019050919050565b5f6020820190508181035f830152611407816113ce565b9050919050565b7f496e76616c696420726f6c6500000000000000000000000000000000000000005f82015250565b5f611442600c836111a1565b915061144d8261140e565b602082019050919050565b5f6020820190508181035f83015261146f81611436565b9050919050565b7f4e487b71000000000000000000000000000000000000000000000000000000005f52602260045260245ffd5b5f60028204905060018216806114ba57607f821691505b6020821081036114cd576114cc611476565b5b50919050565b5f819050815f5260205f209050919050565b5f6020601f8301049050919050565b5f82821b905092915050565b5f6008830261152f7fffffffffffffffffffffffffffffffffffffffffffffffffffffffffffffffff826114f4565b61153986836114f4565b95508019841693508086168417925050509392505050565b5f819050919050565b5f61157461156f61156a84610de1565b611551565b610de1565b9050919050565b5f819050919050565b61158d8361155a565b6115a16115998261157b565b848454611500565b825550505050565b5f90565b6115b56115a9565b6115c0818484611584565b505050565b5b818110156115e3576115d85f826115ad565b6001810190506115c6565b5050565b601f821115611628576115f9816114d3565b611602846114e5565b81016020851015611611578190505b61162561161d856114e5565b8301826115c5565b50505b505050565b5f82821c905092915050565b5f6116485f198460080261162d565b1980831691505092915050565b5f6116608383611639565b9150826002028217905092915050565b61167982611197565b67ffffffffffffffff81111561169257611691610ef4565b5b61169c82546114a3565b6116a78282856115e7565b5f60209050601f8311600181146116d8575f84156116c6578287015190505b6116d08582611655565b865550611737565b601f1984166116e6866114d3565b5f5b8281101561170d578489015182556001820191506020850194506020810190506116e8565b8683101561172a5784890151611726601f891682611639565b8355505b6001600288020188555050505b505050505050565b7f4e487b71000000000000000000000000000000000000000000000000000000005f52601160045260245ffd5b5f61177682610de1565b91507fffffffffffffffffffffffffffffffffffffffffffffffffffffffffffffffff82036117a8576117a761173f565b5b600182019050919050565b7f4163636573732064656e6965643a204f6e6c7920537570706c6965722063616e5f8201527f206164642070726f647563747300000000000000000000000000000000000000602082015250565b5f61180d602d836111a1565b9150611818826117b3565b604082019050919050565b5f6020820190508181035f83015261183a81611801565b9050919050565b7f50726f6475637420646f6573206e6f74206578697374000000000000000000005f82015250565b5f6118756016836111a1565b915061188082611841565b602082019050919050565b5f6020820190508181035f8301526118a281611869565b9050919050565b7f5573657220646f6573206e6f74206578697374000000000000000000000000005f82015250565b5f6118dd6013836111a1565b91506118e8826118a9565b602082019050919050565b5f6020820190508181035f83015261190a816118d1565b905091905056fea2646970667358221220fe7bf61ccf1630010a8329228a116e4c7c8ea675253fb6af575bb12500fe4d9364736f6c63430008150033",
  "immutableReferences": {},
  "source": "// SPDX-License-Identifier: MIT\npragma solidity ^0.8.0;\n\nimport './UserManagement.sol';\n\ncontract ProductManagement is UserManagement {\n    struct Product {\n        uint256 id;\n        string name;\n        uint256 quantity;\n    }\n\n    mapping(uint256 => Product) public products;\n    uint256 public productCount = 0;\n\n    // Events for product management\n    event ProductAdded(uint256 indexed productId, string name, uint256 quantity);\n    event ProductUpdated(uint256 indexed productId, string name, uint256 quantity);\n\n    // Add Product\n    function addProduct(\n        uint256 _id,\n        string memory _name,\n        uint256 _quantity\n    ) public onlySupplier {\n        products[_id] = Product(_id, _name, _quantity);\n        productCount++;\n        emit ProductAdded(_id, _name, _quantity);\n    }\n\n    // Update Product\n    function updateProduct(\n        uint256 _id,\n        string memory _name,\n        uint256 _quantity\n    ) public onlySupplier {\n        require(products[_id].quantity > 0, 'Product does not exist');\n        products[_id].name = _name;\n        products[_id].quantity = _quantity;\n        emit ProductUpdated(_id, _name, _quantity);\n    }\n\n    // Get Product\n    function getProduct(\n        uint256 _id\n    ) public view onlySupplier returns (string memory, uint256) {\n        require(products[_id].quantity > 0, 'Product does not exist');\n        Product storage product = products[_id];\n        return (product.name, product.quantity);\n    }\n}\n",
  "sourcePath": "/Users/tonytziorvas/Documents/Code/College/Supply-Chain/contracts/ProductManagement.sol",
  "compiler": {
    "name": "solc",
    "version": "0.8.21+commit.d9974bed.Emscripten.clang"
  },
  "schemaVersion": "3.4.16",
  "updatedAt": "2024-06-20T20:19:40.335Z",
  "devdoc": {
    "kind": "dev",
    "methods": {},
    "version": 1
  },
  "userdoc": {
    "kind": "user",
    "methods": {},
    "version": 1
  }
}