{
  "contractName": "ProductManagement",
  "abi": [
    {
      "anonymous": false,
      "inputs": [
        {
          "indexed": true,
          "internalType": "uint256",
          "name": "productId",
          "type": "uint256"
        },
        {
          "indexed": false,
          "internalType": "string",
          "name": "name",
          "type": "string"
        },
        {
          "indexed": false,
          "internalType": "uint256",
          "name": "quantity",
          "type": "uint256"
        }
      ],
      "name": "ProductAdded",
      "type": "event"
    },
    {
      "anonymous": false,
      "inputs": [
        {
          "indexed": true,
          "internalType": "uint256",
          "name": "productId",
          "type": "uint256"
        },
        {
          "indexed": false,
          "internalType": "string",
          "name": "name",
          "type": "string"
        }
      ],
      "name": "ProductRemoved",
      "type": "event"
    },
    {
      "anonymous": false,
      "inputs": [
        {
          "indexed": true,
          "internalType": "uint256",
          "name": "productId",
          "type": "uint256"
        },
        {
          "indexed": false,
          "internalType": "string",
          "name": "name",
          "type": "string"
        },
        {
          "indexed": false,
          "internalType": "uint256",
          "name": "quantity",
          "type": "uint256"
        }
      ],
      "name": "ProductUpdated",
      "type": "event"
    },
    {
      "inputs": [],
      "name": "productCount",
      "outputs": [
        {
          "internalType": "uint256",
          "name": "",
          "type": "uint256"
        }
      ],
      "stateMutability": "view",
      "type": "function",
      "constant": true
    },
    {
      "inputs": [
        {
          "internalType": "uint256",
          "name": "",
          "type": "uint256"
        }
      ],
      "name": "products",
      "outputs": [
        {
          "internalType": "uint256",
          "name": "id",
          "type": "uint256"
        },
        {
          "internalType": "string",
          "name": "name",
          "type": "string"
        },
        {
          "internalType": "uint256",
          "name": "quantity",
          "type": "uint256"
        }
      ],
      "stateMutability": "view",
      "type": "function",
      "constant": true
    },
    {
      "inputs": [
        {
          "internalType": "string",
          "name": "_name",
          "type": "string"
        },
        {
          "internalType": "uint256",
          "name": "_quantity",
          "type": "uint256"
        }
      ],
      "name": "addProduct",
      "outputs": [],
      "stateMutability": "nonpayable",
      "type": "function"
    },
    {
      "inputs": [
        {
          "internalType": "uint256",
          "name": "_productId",
          "type": "uint256"
        },
        {
          "internalType": "string",
          "name": "_name",
          "type": "string"
        },
        {
          "internalType": "uint256",
          "name": "_quantity",
          "type": "uint256"
        }
      ],
      "name": "updateProduct",
      "outputs": [],
      "stateMutability": "nonpayable",
      "type": "function"
    },
    {
      "inputs": [
        {
          "internalType": "uint256",
          "name": "_productId",
          "type": "uint256"
        }
      ],
      "name": "removeProduct",
      "outputs": [],
      "stateMutability": "nonpayable",
      "type": "function"
    }
  ],
  "bytecode": "0x60806040525f600155348015610013575f80fd5b50610dd9806100215f395ff3fe608060405234801561000f575f80fd5b5060043610610055575f3560e01c806353488deb146100595780635ee95cae146100755780637acc0b2014610091578063b15247d9146100c3578063e0f6ef87146100df575b5f80fd5b610073600480360381019061006e91906106ae565b6100fd565b005b61008f600480360381019061008a919061071a565b6101bb565b005b6100ab60048036038101906100a6919061071a565b610374565b6040516100ba939291906107ce565b60405180910390f35b6100dd60048036038101906100d8919061080a565b61041f565b005b6100e76104d0565b6040516100f49190610864565b60405180910390f35b5f8311801561010e57506001548311155b61014d576040517f08c379a0000000000000000000000000000000000000000000000000000000008152600401610144906108c7565b60405180910390fd5b5f805f8581526020019081526020015f209050828160010190816101719190610adf565b50818160020181905550837ff9b1d9170fbe32752353e00d62e5276b143166c75aa974030dddfac2895601fe84846040516101ad929190610bae565b60405180910390a250505050565b5f811180156101cc57506001548111155b61020b576040517f08c379a0000000000000000000000000000000000000000000000000000000008152600401610202906108c7565b60405180910390fd5b5f805f60015481526020019081526020015f2090505f805f8481526020019081526020015f2090505f81600101805461024390610912565b80601f016020809104026020016040519081016040528092919081815260200182805461026f90610912565b80156102ba5780601f10610291576101008083540402835291602001916102ba565b820191905f5260205f20905b81548152906001019060200180831161029d57829003601f168201915b50505050509050825f0154825f0181905550826001018260010190816102e09190610c03565b50826002015482600201819055505f8060015481526020019081526020015f205f8082015f9055600182015f61031691906104d6565b600282015f9055505060015f81548092919061033190610d15565b9190505550837f647827b5f0a2276a0813a807e2172ca2808fae6ff1255505caed3d4ae3a47243826040516103669190610d3c565b60405180910390a250505050565b5f602052805f5260405f205f91509050805f01549080600101805461039890610912565b80601f01602080910402602001604051908101604052809291908181526020018280546103c490610912565b801561040f5780601f106103e65761010080835404028352916020019161040f565b820191905f5260205f20905b8154815290600101906020018083116103f257829003601f168201915b5050505050908060020154905083565b60015f81548092919061043190610d5c565b919050555060405180606001604052806001548152602001838152602001828152505f8060015481526020019081526020015f205f820151815f015560208201518160010190816104829190610adf565b50604082015181600201559050506001547fcca07c742c5274e8b72111ba69566aa4442450bfc50bd897ea38d0170d1accfc83836040516104c4929190610bae565b60405180910390a25050565b60015481565b5080546104e290610912565b5f825580601f106104f35750610510565b601f0160209004905f5260205f209081019061050f9190610513565b5b50565b5b8082111561052a575f815f905550600101610514565b5090565b5f604051905090565b5f80fd5b5f80fd5b5f819050919050565b6105518161053f565b811461055b575f80fd5b50565b5f8135905061056c81610548565b92915050565b5f80fd5b5f80fd5b5f601f19601f8301169050919050565b7f4e487b71000000000000000000000000000000000000000000000000000000005f52604160045260245ffd5b6105c08261057a565b810181811067ffffffffffffffff821117156105df576105de61058a565b5b80604052505050565b5f6105f161052e565b90506105fd82826105b7565b919050565b5f67ffffffffffffffff82111561061c5761061b61058a565b5b6106258261057a565b9050602081019050919050565b828183375f83830152505050565b5f61065261064d84610602565b6105e8565b90508281526020810184848401111561066e5761066d610576565b5b610679848285610632565b509392505050565b5f82601f83011261069557610694610572565b5b81356106a5848260208601610640565b91505092915050565b5f805f606084860312156106c5576106c4610537565b5b5f6106d28682870161055e565b935050602084013567ffffffffffffffff8111156106f3576106f261053b565b5b6106ff86828701610681565b92505060406107108682870161055e565b9150509250925092565b5f6020828403121561072f5761072e610537565b5b5f61073c8482850161055e565b91505092915050565b61074e8161053f565b82525050565b5f81519050919050565b5f82825260208201905092915050565b5f5b8381101561078b578082015181840152602081019050610770565b5f8484015250505050565b5f6107a082610754565b6107aa818561075e565b93506107ba81856020860161076e565b6107c38161057a565b840191505092915050565b5f6060820190506107e15f830186610745565b81810360208301526107f38185610796565b90506108026040830184610745565b949350505050565b5f80604083850312156108205761081f610537565b5b5f83013567ffffffffffffffff81111561083d5761083c61053b565b5b61084985828601610681565b925050602061085a8582860161055e565b9150509250929050565b5f6020820190506108775f830184610745565b92915050565b7f496e76616c69642070726f6475637420494400000000000000000000000000005f82015250565b5f6108b160128361075e565b91506108bc8261087d565b602082019050919050565b5f6020820190508181035f8301526108de816108a5565b9050919050565b7f4e487b71000000000000000000000000000000000000000000000000000000005f52602260045260245ffd5b5f600282049050600182168061092957607f821691505b60208210810361093c5761093b6108e5565b5b50919050565b5f819050815f5260205f209050919050565b5f6020601f8301049050919050565b5f82821b905092915050565b5f6008830261099e7fffffffffffffffffffffffffffffffffffffffffffffffffffffffffffffffff82610963565b6109a88683610963565b95508019841693508086168417925050509392505050565b5f819050919050565b5f6109e36109de6109d98461053f565b6109c0565b61053f565b9050919050565b5f819050919050565b6109fc836109c9565b610a10610a08826109ea565b84845461096f565b825550505050565b5f90565b610a24610a18565b610a2f8184846109f3565b505050565b5b81811015610a5257610a475f82610a1c565b600181019050610a35565b5050565b601f821115610a9757610a6881610942565b610a7184610954565b81016020851015610a80578190505b610a94610a8c85610954565b830182610a34565b50505b505050565b5f82821c905092915050565b5f610ab75f1984600802610a9c565b1980831691505092915050565b5f610acf8383610aa8565b9150826002028217905092915050565b610ae882610754565b67ffffffffffffffff811115610b0157610b0061058a565b5b610b0b8254610912565b610b16828285610a56565b5f60209050601f831160018114610b47575f8415610b35578287015190505b610b3f8582610ac4565b865550610ba6565b601f198416610b5586610942565b5f5b82811015610b7c57848901518255600182019150602085019450602081019050610b57565b86831015610b995784890151610b95601f891682610aa8565b8355505b6001600288020188555050505b505050505050565b5f6040820190508181035f830152610bc68185610796565b9050610bd56020830184610745565b9392505050565b5f81549050610bea81610912565b9050919050565b5f819050815f5260205f209050919050565b818103610c11575050610ce6565b610c1a82610bdc565b67ffffffffffffffff811115610c3357610c3261058a565b5b610c3d8254610912565b610c48828285610a56565b5f601f831160018114610c75575f8415610c63578287015490505b610c6d8582610ac4565b865550610cdf565b601f198416610c8387610bf1565b9650610c8e86610942565b5f5b82811015610cb557848901548255600182019150600185019450602081019050610c90565b86831015610cd25784890154610cce601f891682610aa8565b8355505b6001600288020188555050505b5050505050505b565b7f4e487b71000000000000000000000000000000000000000000000000000000005f52601160045260245ffd5b5f610d1f8261053f565b91505f8203610d3157610d30610ce8565b5b600182039050919050565b5f6020820190508181035f830152610d548184610796565b905092915050565b5f610d668261053f565b91507fffffffffffffffffffffffffffffffffffffffffffffffffffffffffffffffff8203610d9857610d97610ce8565b5b60018201905091905056fea26469706673582212201ffb981f76ae323248974981c05a7aa8d970b081d9ec4e2219e37b1c78aaa5df64736f6c63430008150033",
  "immutableReferences": {},
  "source": "// SPDX-License-Identifier: MIT\npragma solidity ^0.8.0;\n\ncontract ProductManagement {\n    struct Product {\n        uint256 id;\n        string name;\n        uint256 quantity;\n    }\n\n    mapping(uint256 => Product) public products;\n    uint256 public productCount = 0;\n\n    // Events for product management\n    event ProductAdded(uint256 indexed productId, string name, uint256 quantity);\n    event ProductUpdated(uint256 indexed productId, string name, uint256 quantity);\n    event ProductRemoved(uint256 indexed productId, string name);\n\n    function addProduct(string memory _name, uint256 _quantity) public {\n        productCount++;\n        products[productCount] = Product({id: productCount, name: _name, quantity: _quantity});\n\n        emit ProductAdded(productCount, _name, _quantity);\n    }\n\n    function updateProduct(uint256 _productId, string memory _name, uint256 _quantity) public {\n        require(_productId > 0 && _productId <= productCount, 'Invalid product ID');\n        Product storage product = products[_productId];\n        product.name = _name;\n        product.quantity = _quantity;\n\n        emit ProductUpdated(_productId, _name, _quantity);\n    }\n\n    // Remove an existing product\n    function removeProduct(uint256 _productId) public {\n        require(_productId > 0 && _productId <= productCount, 'Invalid product ID');\n\n        // Remove the product by moving the last product into the place of the one to delete\n        Product storage lastProduct = products[productCount];\n        Product storage productToRemove = products[_productId];\n        string memory _name = productToRemove.name;\n\n        productToRemove.id = lastProduct.id;\n        productToRemove.name = lastProduct.name;\n        productToRemove.quantity = lastProduct.quantity;\n\n        delete products[productCount];\n        productCount--;\n\n        emit ProductRemoved(_productId, _name);\n    }\n}\n",
  "sourcePath": "/Users/tonytziorvas/Documents/Code/College/Supply-Chain/contracts/ProductManagement.sol",
  "compiler": {
    "name": "solc",
    "version": "0.8.21+commit.d9974bed.Emscripten.clang"
  },
  "schemaVersion": "3.4.16",
  "updatedAt": "2024-06-24T21:38:57.627Z",
  "networkType": "ethereum",
  "devdoc": {
    "kind": "dev",
    "methods": {},
    "version": 1
  },
  "userdoc": {
    "kind": "user",
    "methods": {},
    "version": 1
  }
}