{
  "contractName": "ShippingManagement",
  "abi": [
    {
      "anonymous": false,
      "inputs": [
        {
          "indexed": true,
          "internalType": "uint256",
          "name": "shipmentId",
          "type": "uint256"
        },
        {
          "indexed": false,
          "internalType": "uint256[]",
          "name": "productIds",
          "type": "uint256[]"
        },
        {
          "indexed": false,
          "internalType": "string",
          "name": "origin",
          "type": "string"
        },
        {
          "indexed": false,
          "internalType": "string",
          "name": "destination",
          "type": "string"
        },
        {
          "indexed": false,
          "internalType": "uint256",
          "name": "departureDate",
          "type": "uint256"
        },
        {
          "indexed": false,
          "internalType": "uint256",
          "name": "expectedArrivalDate",
          "type": "uint256"
        },
        {
          "indexed": false,
          "internalType": "uint8",
          "name": "position",
          "type": "uint8"
        }
      ],
      "name": "ShipmentAdded",
      "type": "event"
    },
    {
      "anonymous": false,
      "inputs": [
        {
          "indexed": true,
          "internalType": "uint256",
          "name": "shipmentId",
          "type": "uint256"
        }
      ],
      "name": "ShipmentDeleted",
      "type": "event"
    },
    {
      "anonymous": false,
      "inputs": [
        {
          "indexed": true,
          "internalType": "uint256",
          "name": "shipmentId",
          "type": "uint256"
        },
        {
          "indexed": false,
          "internalType": "uint256[]",
          "name": "productIds",
          "type": "uint256[]"
        },
        {
          "indexed": false,
          "internalType": "string",
          "name": "origin",
          "type": "string"
        },
        {
          "indexed": false,
          "internalType": "string",
          "name": "destination",
          "type": "string"
        },
        {
          "indexed": false,
          "internalType": "uint256",
          "name": "departureDate",
          "type": "uint256"
        },
        {
          "indexed": false,
          "internalType": "uint256",
          "name": "expectedArrivalDate",
          "type": "uint256"
        },
        {
          "indexed": false,
          "internalType": "uint8",
          "name": "position",
          "type": "uint8"
        }
      ],
      "name": "ShipmentUpdated",
      "type": "event"
    },
    {
      "anonymous": false,
      "inputs": [
        {
          "indexed": true,
          "internalType": "address",
          "name": "userAddress",
          "type": "address"
        },
        {
          "indexed": false,
          "internalType": "string",
          "name": "name",
          "type": "string"
        },
        {
          "indexed": false,
          "internalType": "uint8",
          "name": "role",
          "type": "uint8"
        }
      ],
      "name": "UserAdded",
      "type": "event"
    },
    {
      "anonymous": false,
      "inputs": [
        {
          "indexed": true,
          "internalType": "address",
          "name": "userAddress",
          "type": "address"
        }
      ],
      "name": "UserRemoved",
      "type": "event"
    },
    {
      "inputs": [
        {
          "internalType": "address",
          "name": "_userAddress",
          "type": "address"
        },
        {
          "internalType": "string",
          "name": "_name",
          "type": "string"
        },
        {
          "internalType": "uint8",
          "name": "_role",
          "type": "uint8"
        }
      ],
      "name": "addUser",
      "outputs": [],
      "stateMutability": "nonpayable",
      "type": "function"
    },
    {
      "inputs": [],
      "name": "getAllUsers",
      "outputs": [
        {
          "internalType": "address[]",
          "name": "",
          "type": "address[]"
        }
      ],
      "stateMutability": "view",
      "type": "function"
    },
    {
      "inputs": [],
      "name": "getUserCount",
      "outputs": [
        {
          "internalType": "uint256",
          "name": "",
          "type": "uint256"
        }
      ],
      "stateMutability": "view",
      "type": "function"
    },
    {
      "inputs": [
        {
          "internalType": "address",
          "name": "_userAddress",
          "type": "address"
        }
      ],
      "name": "getUserRole",
      "outputs": [
        {
          "internalType": "uint8",
          "name": "",
          "type": "uint8"
        }
      ],
      "stateMutability": "view",
      "type": "function"
    },
    {
      "inputs": [
        {
          "internalType": "address",
          "name": "_userAddress",
          "type": "address"
        }
      ],
      "name": "removeUser",
      "outputs": [],
      "stateMutability": "nonpayable",
      "type": "function"
    },
    {
      "inputs": [],
      "name": "shipmentCount",
      "outputs": [
        {
          "internalType": "uint256",
          "name": "",
          "type": "uint256"
        }
      ],
      "stateMutability": "view",
      "type": "function"
    },
    {
      "inputs": [
        {
          "internalType": "uint256",
          "name": "",
          "type": "uint256"
        }
      ],
      "name": "shipments",
      "outputs": [
        {
          "internalType": "uint256",
          "name": "id",
          "type": "uint256"
        },
        {
          "internalType": "string",
          "name": "origin",
          "type": "string"
        },
        {
          "internalType": "string",
          "name": "destination",
          "type": "string"
        },
        {
          "internalType": "uint256",
          "name": "departureDate",
          "type": "uint256"
        },
        {
          "internalType": "uint256",
          "name": "expectedArrivalDate",
          "type": "uint256"
        },
        {
          "internalType": "uint8",
          "name": "position",
          "type": "uint8"
        }
      ],
      "stateMutability": "view",
      "type": "function"
    },
    {
      "inputs": [
        {
          "internalType": "uint256",
          "name": "",
          "type": "uint256"
        }
      ],
      "name": "userAddresses",
      "outputs": [
        {
          "internalType": "address",
          "name": "",
          "type": "address"
        }
      ],
      "stateMutability": "view",
      "type": "function"
    },
    {
      "inputs": [],
      "name": "userCount",
      "outputs": [
        {
          "internalType": "uint256",
          "name": "",
          "type": "uint256"
        }
      ],
      "stateMutability": "view",
      "type": "function"
    },
    {
      "inputs": [
        {
          "internalType": "address",
          "name": "",
          "type": "address"
        }
      ],
      "name": "users",
      "outputs": [
        {
          "internalType": "string",
          "name": "name",
          "type": "string"
        },
        {
          "internalType": "uint8",
          "name": "role",
          "type": "uint8"
        }
      ],
      "stateMutability": "view",
      "type": "function"
    },
    {
      "inputs": [
        {
          "internalType": "uint256",
          "name": "_id",
          "type": "uint256"
        },
        {
          "internalType": "uint256[]",
          "name": "_productIds",
          "type": "uint256[]"
        },
        {
          "internalType": "string",
          "name": "_origin",
          "type": "string"
        },
        {
          "internalType": "string",
          "name": "_destination",
          "type": "string"
        },
        {
          "internalType": "uint256",
          "name": "_departureDate",
          "type": "uint256"
        },
        {
          "internalType": "uint256",
          "name": "_expectedArrivalDate",
          "type": "uint256"
        },
        {
          "internalType": "uint8",
          "name": "_position",
          "type": "uint8"
        }
      ],
      "name": "addShipment",
      "outputs": [],
      "stateMutability": "nonpayable",
      "type": "function"
    },
    {
      "inputs": [
        {
          "internalType": "uint256",
          "name": "_id",
          "type": "uint256"
        },
        {
          "internalType": "uint256[]",
          "name": "_productIds",
          "type": "uint256[]"
        },
        {
          "internalType": "string",
          "name": "_origin",
          "type": "string"
        },
        {
          "internalType": "string",
          "name": "_destination",
          "type": "string"
        },
        {
          "internalType": "uint256",
          "name": "_departureDate",
          "type": "uint256"
        },
        {
          "internalType": "uint256",
          "name": "_expectedArrivalDate",
          "type": "uint256"
        },
        {
          "internalType": "uint8",
          "name": "_position",
          "type": "uint8"
        }
      ],
      "name": "updateShipment",
      "outputs": [],
      "stateMutability": "nonpayable",
      "type": "function"
    },
    {
      "inputs": [
        {
          "internalType": "uint256",
          "name": "_id",
          "type": "uint256"
        }
      ],
      "name": "getShipment",
      "outputs": [
        {
          "internalType": "uint256",
          "name": "",
          "type": "uint256"
        },
        {
          "internalType": "uint256[]",
          "name": "",
          "type": "uint256[]"
        },
        {
          "internalType": "string",
          "name": "",
          "type": "string"
        },
        {
          "internalType": "string",
          "name": "",
          "type": "string"
        },
        {
          "internalType": "uint256",
          "name": "",
          "type": "uint256"
        },
        {
          "internalType": "uint256",
          "name": "",
          "type": "uint256"
        },
        {
          "internalType": "uint8",
          "name": "",
          "type": "uint8"
        }
      ],
      "stateMutability": "view",
      "type": "function"
    },
    {
      "inputs": [
        {
          "internalType": "uint256",
          "name": "_id",
          "type": "uint256"
        }
      ],
      "name": "deleteShipment",
      "outputs": [],
      "stateMutability": "nonpayable",
      "type": "function"
    },
    {
      "inputs": [],
      "name": "getShipmentCount",
      "outputs": [
        {
          "internalType": "uint256",
          "name": "",
          "type": "uint256"
        }
      ],
      "stateMutability": "view",
      "type": "function"
    }
  ],
  "bytecode": "0x60806040525f6002555f60045534801562000018575f80fd5b5062000062336040518060400160405280600581526020017f41646d696e00000000000000000000000000000000000000000000000000000081525060046200015860201b60201c565b5f6101239050620000b1816040518060400160405280600981526020017f537570706c69657231000000000000000000000000000000000000000000000081525060016200015860201b60201c565b5f610456905062000100816040518060400160405280600981526020017f4c6f67697374696331000000000000000000000000000000000000000000000081525060026200015860201b60201c565b5f61078990506200014f816040518060400160405280600a81526020017f496e73706563746f72310000000000000000000000000000000000000000000081525060036200015860201b60201c565b50505062000944565b600460ff165f803373ffffffffffffffffffffffffffffffffffffffff1673ffffffffffffffffffffffffffffffffffffffff1681526020019081526020015f206001015f9054906101000a900460ff1660ff1614620001ef576040517f08c379a0000000000000000000000000000000000000000000000000000000008152600401620001e6906200042c565b60405180910390fd5b5f8160ff16118015620002095750600460ff168160ff1611155b6200024b576040517f08c379a000000000000000000000000000000000000000000000000000000000815260040162000242906200049a565b60405180910390fd5b60405180604001604052808381526020018260ff168152505f808573ffffffffffffffffffffffffffffffffffffffff1673ffffffffffffffffffffffffffffffffffffffff1681526020019081526020015f205f820151815f019081620002b491906200071e565b506020820151816001015f6101000a81548160ff021916908360ff160217905550905050600183908060018154018082558091505060019003905f5260205f20015f9091909190916101000a81548173ffffffffffffffffffffffffffffffffffffffff021916908373ffffffffffffffffffffffffffffffffffffffff16021790555060025f8154809291906200034c906200082f565b91905055508273ffffffffffffffffffffffffffffffffffffffff167f8897d4c16f6b907647cc92f3b2f80418ac81581b8e74f9dda595d3910b44c86283836040516200039b92919062000912565b60405180910390a2505050565b5f82825260208201905092915050565b7f4163636573732064656e6965643a204f6e6c792041646d696e6973747261746f5f8201527f722063616e20706572666f726d207468697320616374696f6e00000000000000602082015250565b5f62000414603983620003a8565b91506200042182620003b8565b604082019050919050565b5f6020820190508181035f830152620004458162000406565b9050919050565b7f496e76616c696420726f6c6500000000000000000000000000000000000000005f82015250565b5f62000482600c83620003a8565b91506200048f826200044c565b602082019050919050565b5f6020820190508181035f830152620004b38162000474565b9050919050565b5f81519050919050565b7f4e487b71000000000000000000000000000000000000000000000000000000005f52604160045260245ffd5b7f4e487b71000000000000000000000000000000000000000000000000000000005f52602260045260245ffd5b5f60028204905060018216806200053657607f821691505b6020821081036200054c576200054b620004f1565b5b50919050565b5f819050815f5260205f209050919050565b5f6020601f8301049050919050565b5f82821b905092915050565b5f60088302620005b07fffffffffffffffffffffffffffffffffffffffffffffffffffffffffffffffff8262000573565b620005bc868362000573565b95508019841693508086168417925050509392505050565b5f819050919050565b5f819050919050565b5f6200060662000600620005fa84620005d4565b620005dd565b620005d4565b9050919050565b5f819050919050565b6200062183620005e6565b6200063962000630826200060d565b8484546200057f565b825550505050565b5f90565b6200064f62000641565b6200065c81848462000616565b505050565b5b818110156200068357620006775f8262000645565b60018101905062000662565b5050565b601f821115620006d2576200069c8162000552565b620006a78462000564565b81016020851015620006b7578190505b620006cf620006c68562000564565b83018262000661565b50505b505050565b5f82821c905092915050565b5f620006f45f1984600802620006d7565b1980831691505092915050565b5f6200070e8383620006e3565b9150826002028217905092915050565b6200072982620004ba565b67ffffffffffffffff811115620007455762000744620004c4565b5b6200075182546200051e565b6200075e82828562000687565b5f60209050601f83116001811462000794575f84156200077f578287015190505b6200078b858262000701565b865550620007fa565b601f198416620007a48662000552565b5f5b82811015620007cd57848901518255600182019150602085019450602081019050620007a6565b86831015620007ed5784890151620007e9601f891682620006e3565b8355505b6001600288020188555050505b505050505050565b7f4e487b71000000000000000000000000000000000000000000000000000000005f52601160045260245ffd5b5f6200083b82620005d4565b91507fffffffffffffffffffffffffffffffffffffffffffffffffffffffffffffffff820362000870576200086f62000802565b5b600182019050919050565b5f5b838110156200089a5780820151818401526020810190506200087d565b5f8484015250505050565b5f601f19601f8301169050919050565b5f620008c182620004ba565b620008cd8185620003a8565b9350620008df8185602086016200087b565b620008ea81620008a5565b840191505092915050565b5f60ff82169050919050565b6200090c81620008f5565b82525050565b5f6040820190508181035f8301526200092c8185620008b5565b90506200093d602083018462000901565b9392505050565b61255580620009525f395ff3fe608060405234801561000f575f80fd5b50600436106100f3575f3560e01c8063502c9bd511610095578063a9c38aad11610064578063a9c38aad1461029d578063aace20b7146102bb578063b5cb15f7146102d9578063e2842d79146102f7576100f3565b8063502c9bd5146102045780638a4b24a7146102345780639857518814610250578063a87430ba1461026c576100f3565b80632ac08a93116100d15780632ac08a931461017b5780632f3e0bc6146101b057806340d26854146101cc578063429169ef146101e8576100f3565b806307973ccf146100f7578063092b374014610115578063278208511461014b575b5f80fd5b6100ff610315565b60405161010c9190611464565b60405180910390f35b61012f600480360381019061012a91906114b8565b61031b565b604051610142979695949392919061163f565b60405180910390f35b6101656004803603810190610160919061171b565b610702565b6040516101729190611746565b60405180910390f35b610195600480360381019061019091906114b8565b610756565b6040516101a79695949392919061175f565b60405180910390f35b6101ca60048036038101906101c591906114b8565b6108a6565b005b6101e660048036038101906101e19190611922565b610a29565b005b61020260048036038101906101fd9190611a52565b610c6c565b005b61021e600480360381019061021991906114b8565b610e31565b60405161022b9190611b52565b60405180910390f35b61024e60048036038101906102499190611a52565b610e6c565b005b61026a6004803603810190610265919061171b565b61106d565b005b6102866004803603810190610281919061171b565b611237565b604051610294929190611b6b565b60405180910390f35b6102a56112e8565b6040516102b29190611464565b60405180910390f35b6102c36112f1565b6040516102d09190611464565b60405180910390f35b6102e16112f7565b6040516102ee9190611464565b60405180910390f35b6102ff611300565b60405161030c9190611c50565b60405180910390f35b60025481565b5f60608060605f805f8060035f8a81526020019081526020015f206004015411801561039457505f805f3373ffffffffffffffffffffffffffffffffffffffff1673ffffffffffffffffffffffffffffffffffffffff1681526020019081526020015f206001015f9054906101000a900460ff1660ff16115b6103d3576040517f08c379a00000000000000000000000000000000000000000000000000000000081526004016103ca90611cba565b60405180910390fd5b5f60035f8a81526020019081526020015f209050600160ff165f803373ffffffffffffffffffffffffffffffffffffffff1673ffffffffffffffffffffffffffffffffffffffff1681526020019081526020015f206001015f9054906101000a900460ff1660ff160361049f57600360ff16816006015f9054906101000a900460ff1660ff16111561049a576040517f08c379a000000000000000000000000000000000000000000000000000000000815260040161049190611d6e565b60405180910390fd5b610559565b600260ff165f803373ffffffffffffffffffffffffffffffffffffffff1673ffffffffffffffffffffffffffffffffffffffff1681526020019081526020015f206001015f9054906101000a900460ff1660ff160361055757600460ff16816006015f9054906101000a900460ff1660ff161115610552576040517f08c379a000000000000000000000000000000000000000000000000000000000815260040161054990611e22565b60405180910390fd5b610558565b5b5b805f015481600101826002018360030184600401548560050154866006015f9054906101000a900460ff16858054806020026020016040519081016040528092919081815260200182805480156105cd57602002820191905f5260205f20905b8154815260200190600101908083116105b9575b505050505095508480546105e090611e6d565b80601f016020809104026020016040519081016040528092919081815260200182805461060c90611e6d565b80156106575780601f1061062e57610100808354040283529160200191610657565b820191905f5260205f20905b81548152906001019060200180831161063a57829003601f168201915b5050505050945083805461066a90611e6d565b80601f016020809104026020016040519081016040528092919081815260200182805461069690611e6d565b80156106e15780601f106106b8576101008083540402835291602001916106e1565b820191905f5260205f20905b8154815290600101906020018083116106c457829003601f168201915b50505050509350975097509750975097509750975050919395979092949650565b5f805f8373ffffffffffffffffffffffffffffffffffffffff1673ffffffffffffffffffffffffffffffffffffffff1681526020019081526020015f206001015f9054906101000a900460ff169050919050565b6003602052805f5260405f205f91509050805f01549080600201805461077b90611e6d565b80601f01602080910402602001604051908101604052809291908181526020018280546107a790611e6d565b80156107f25780601f106107c9576101008083540402835291602001916107f2565b820191905f5260205f20905b8154815290600101906020018083116107d557829003601f168201915b50505050509080600301805461080790611e6d565b80601f016020809104026020016040519081016040528092919081815260200182805461083390611e6d565b801561087e5780601f106108555761010080835404028352916020019161087e565b820191905f5260205f20905b81548152906001019060200180831161086157829003601f168201915b505050505090806004015490806005015490806006015f9054906101000a900460ff16905086565b600360ff165f803373ffffffffffffffffffffffffffffffffffffffff1673ffffffffffffffffffffffffffffffffffffffff1681526020019081526020015f206001015f9054906101000a900460ff1660ff16101561093b576040517f08c379a000000000000000000000000000000000000000000000000000000000815260040161093290611f0d565b60405180910390fd5b5f60035f8381526020019081526020015f206004015411610991576040517f08c379a000000000000000000000000000000000000000000000000000000000815260040161098890611cba565b60405180910390fd5b60035f8281526020019081526020015f205f8082015f9055600182015f6109b8919061138b565b600282015f6109c791906113a9565b600382015f6109d691906113a9565b600482015f9055600582015f9055600682015f6101000a81549060ff02191690555050807fdcafc8fb0fe4a2d12407354e4c5b11e0446f8b8a7329f8b6df342c387549fd8760405160405180910390a250565b600460ff165f803373ffffffffffffffffffffffffffffffffffffffff1673ffffffffffffffffffffffffffffffffffffffff1681526020019081526020015f206001015f9054906101000a900460ff1660ff1614610abd576040517f08c379a0000000000000000000000000000000000000000000000000000000008152600401610ab490611f9b565b60405180910390fd5b5f8160ff16118015610ad65750600460ff168160ff1611155b610b15576040517f08c379a0000000000000000000000000000000000000000000000000000000008152600401610b0c90612003565b60405180910390fd5b60405180604001604052808381526020018260ff168152505f808573ffffffffffffffffffffffffffffffffffffffff1673ffffffffffffffffffffffffffffffffffffffff1681526020019081526020015f205f820151815f019081610b7c91906121be565b506020820151816001015f6101000a81548160ff021916908360ff160217905550905050600183908060018154018082558091505060019003905f5260205f20015f9091909190916101000a81548173ffffffffffffffffffffffffffffffffffffffff021916908373ffffffffffffffffffffffffffffffffffffffff16021790555060025f815480929190610c12906122ba565b91905055508273ffffffffffffffffffffffffffffffffffffffff167f8897d4c16f6b907647cc92f3b2f80418ac81581b8e74f9dda595d3910b44c8628383604051610c5f929190611b6b565b60405180910390a2505050565b600160ff165f803373ffffffffffffffffffffffffffffffffffffffff1673ffffffffffffffffffffffffffffffffffffffff1681526020019081526020015f206001015f9054906101000a900460ff1660ff1614610d00576040517f08c379a0000000000000000000000000000000000000000000000000000000008152600401610cf790612371565b60405180910390fd5b6040518060e001604052808881526020018781526020018681526020018581526020018481526020018381526020018260ff1681525060035f8981526020019081526020015f205f820151815f01556020820151816001019080519060200190610d6b9291906113e6565b506040820151816002019081610d8191906121be565b506060820151816003019081610d9791906121be565b506080820151816004015560a0820151816005015560c0820151816006015f6101000a81548160ff021916908360ff16021790555090505060045f815480929190610de1906122ba565b9190505550867f23e0a3f126dffe42eebdaf9a3f21f2ae937bbb94830ca60a2fea86e14190b44a878787878787604051610e209695949392919061238f565b60405180910390a250505050505050565b60018181548110610e40575f80fd5b905f5260205f20015f915054906101000a900473ffffffffffffffffffffffffffffffffffffffff1681565b600260ff165f803373ffffffffffffffffffffffffffffffffffffffff1673ffffffffffffffffffffffffffffffffffffffff1681526020019081526020015f206001015f9054906101000a900460ff1660ff161015610f01576040517f08c379a0000000000000000000000000000000000000000000000000000000008152600401610ef890612499565b60405180910390fd5b5f60035f8981526020019081526020015f206004015411610f57576040517f08c379a0000000000000000000000000000000000000000000000000000000008152600401610f4e90611cba565b60405180910390fd5b8560035f8981526020019081526020015f206001019080519060200190610f7f9291906113e6565b508460035f8981526020019081526020015f206002019081610fa191906121be565b508360035f8981526020019081526020015f206003019081610fc391906121be565b508260035f8981526020019081526020015f20600401819055508160035f8981526020019081526020015f20600501819055508060035f8981526020019081526020015f206006015f6101000a81548160ff021916908360ff160217905550867f043f87f7b6ae2d7807bfb8b732d426ebe5962f09b1cdb49c4b6e0c96fc0eedd387878787878760405161105c9695949392919061238f565b60405180910390a250505050505050565b600460ff165f803373ffffffffffffffffffffffffffffffffffffffff1673ffffffffffffffffffffffffffffffffffffffff1681526020019081526020015f206001015f9054906101000a900460ff1660ff1614611101576040517f08c379a00000000000000000000000000000000000000000000000000000000081526004016110f890611f9b565b60405180910390fd5b5f805f8373ffffffffffffffffffffffffffffffffffffffff1673ffffffffffffffffffffffffffffffffffffffff1681526020019081526020015f206001015f9054906101000a900460ff1660ff1603611191576040517f08c379a000000000000000000000000000000000000000000000000000000000815260040161118890612501565b60405180910390fd5b5f808273ffffffffffffffffffffffffffffffffffffffff1673ffffffffffffffffffffffffffffffffffffffff1681526020019081526020015f205f8082015f6111dc91906113a9565b600182015f6101000a81549060ff021916905550508073ffffffffffffffffffffffffffffffffffffffff167fe9dce8c992623ce791725b21e857e33248d1f190a25b5168313420eebdaae99d60405160405180910390a250565b5f602052805f5260405f205f91509050805f01805461125590611e6d565b80601f016020809104026020016040519081016040528092919081815260200182805461128190611e6d565b80156112cc5780601f106112a3576101008083540402835291602001916112cc565b820191905f5260205f20905b8154815290600101906020018083116112af57829003601f168201915b505050505090806001015f9054906101000a900460ff16905082565b5f600454905090565b60045481565b5f600254905090565b6060600180548060200260200160405190810160405280929190818152602001828054801561138157602002820191905f5260205f20905b815f9054906101000a900473ffffffffffffffffffffffffffffffffffffffff1673ffffffffffffffffffffffffffffffffffffffff1681526020019060010190808311611338575b5050505050905090565b5080545f8255905f5260205f20908101906113a69190611431565b50565b5080546113b590611e6d565b5f825580601f106113c657506113e3565b601f0160209004905f5260205f20908101906113e29190611431565b5b50565b828054828255905f5260205f20908101928215611420579160200282015b8281111561141f578251825591602001919060010190611404565b5b50905061142d9190611431565b5090565b5b80821115611448575f815f905550600101611432565b5090565b5f819050919050565b61145e8161144c565b82525050565b5f6020820190506114775f830184611455565b92915050565b5f604051905090565b5f80fd5b5f80fd5b6114978161144c565b81146114a1575f80fd5b50565b5f813590506114b28161148e565b92915050565b5f602082840312156114cd576114cc611486565b5b5f6114da848285016114a4565b91505092915050565b5f81519050919050565b5f82825260208201905092915050565b5f819050602082019050919050565b6115158161144c565b82525050565b5f611526838361150c565b60208301905092915050565b5f602082019050919050565b5f611548826114e3565b61155281856114ed565b935061155d836114fd565b805f5b8381101561158d578151611574888261151b565b975061157f83611532565b925050600181019050611560565b5085935050505092915050565b5f81519050919050565b5f82825260208201905092915050565b5f5b838110156115d15780820151818401526020810190506115b6565b5f8484015250505050565b5f601f19601f8301169050919050565b5f6115f68261159a565b61160081856115a4565b93506116108185602086016115b4565b611619816115dc565b840191505092915050565b5f60ff82169050919050565b61163981611624565b82525050565b5f60e0820190506116525f83018a611455565b8181036020830152611664818961153e565b9050818103604083015261167881886115ec565b9050818103606083015261168c81876115ec565b905061169b6080830186611455565b6116a860a0830185611455565b6116b560c0830184611630565b98975050505050505050565b5f73ffffffffffffffffffffffffffffffffffffffff82169050919050565b5f6116ea826116c1565b9050919050565b6116fa816116e0565b8114611704575f80fd5b50565b5f81359050611715816116f1565b92915050565b5f602082840312156117305761172f611486565b5b5f61173d84828501611707565b91505092915050565b5f6020820190506117595f830184611630565b92915050565b5f60c0820190506117725f830189611455565b818103602083015261178481886115ec565b9050818103604083015261179881876115ec565b90506117a76060830186611455565b6117b46080830185611455565b6117c160a0830184611630565b979650505050505050565b5f80fd5b5f80fd5b7f4e487b71000000000000000000000000000000000000000000000000000000005f52604160045260245ffd5b61180a826115dc565b810181811067ffffffffffffffff82111715611829576118286117d4565b5b80604052505050565b5f61183b61147d565b90506118478282611801565b919050565b5f67ffffffffffffffff821115611866576118656117d4565b5b61186f826115dc565b9050602081019050919050565b828183375f83830152505050565b5f61189c6118978461184c565b611832565b9050828152602081018484840111156118b8576118b76117d0565b5b6118c384828561187c565b509392505050565b5f82601f8301126118df576118de6117cc565b5b81356118ef84826020860161188a565b91505092915050565b61190181611624565b811461190b575f80fd5b50565b5f8135905061191c816118f8565b92915050565b5f805f6060848603121561193957611938611486565b5b5f61194686828701611707565b935050602084013567ffffffffffffffff8111156119675761196661148a565b5b611973868287016118cb565b92505060406119848682870161190e565b9150509250925092565b5f67ffffffffffffffff8211156119a8576119a76117d4565b5b602082029050602081019050919050565b5f80fd5b5f6119cf6119ca8461198e565b611832565b905080838252602082019050602084028301858111156119f2576119f16119b9565b5b835b81811015611a1b5780611a0788826114a4565b8452602084019350506020810190506119f4565b5050509392505050565b5f82601f830112611a3957611a386117cc565b5b8135611a498482602086016119bd565b91505092915050565b5f805f805f805f60e0888a031215611a6d57611a6c611486565b5b5f611a7a8a828b016114a4565b975050602088013567ffffffffffffffff811115611a9b57611a9a61148a565b5b611aa78a828b01611a25565b965050604088013567ffffffffffffffff811115611ac857611ac761148a565b5b611ad48a828b016118cb565b955050606088013567ffffffffffffffff811115611af557611af461148a565b5b611b018a828b016118cb565b9450506080611b128a828b016114a4565b93505060a0611b238a828b016114a4565b92505060c0611b348a828b0161190e565b91505092959891949750929550565b611b4c816116e0565b82525050565b5f602082019050611b655f830184611b43565b92915050565b5f6040820190508181035f830152611b8381856115ec565b9050611b926020830184611630565b9392505050565b5f81519050919050565b5f82825260208201905092915050565b5f819050602082019050919050565b611bcb816116e0565b82525050565b5f611bdc8383611bc2565b60208301905092915050565b5f602082019050919050565b5f611bfe82611b99565b611c088185611ba3565b9350611c1383611bb3565b805f5b83811015611c43578151611c2a8882611bd1565b9750611c3583611be8565b925050600181019050611c16565b5085935050505092915050565b5f6020820190508181035f830152611c688184611bf4565b905092915050565b7f536869706d656e7420646f6573206e6f742065786973740000000000000000005f82015250565b5f611ca46017836115a4565b9150611caf82611c70565b602082019050919050565b5f6020820190508181035f830152611cd181611c98565b9050919050565b7f4163636573732064656e6965643a20537570706c6965722063616e206f6e6c795f8201527f20766965772073746174757320756e74696c204d616e7566616374757265722060208201527f7374616765000000000000000000000000000000000000000000000000000000604082015250565b5f611d586045836115a4565b9150611d6382611cd8565b606082019050919050565b5f6020820190508181035f830152611d8581611d4c565b9050919050565b7f4163636573732064656e6965643a204c6f67697374696320456d706c6f7965655f8201527f2063616e206f6e6c7920766965772073746174757320756e74696c204c6f676960208201527f737469632057617265686f757365207374616765000000000000000000000000604082015250565b5f611e0c6054836115a4565b9150611e1782611d8c565b606082019050919050565b5f6020820190508181035f830152611e3981611e00565b9050919050565b7f4e487b71000000000000000000000000000000000000000000000000000000005f52602260045260245ffd5b5f6002820490506001821680611e8457607f821691505b602082108103611e9757611e96611e40565b5b50919050565b7f4163636573732064656e6965643a204f6e6c7920496e73706563746f72206f725f8201527f2061626f76652063616e20706572666f726d207468697320616374696f6e0000602082015250565b5f611ef7603e836115a4565b9150611f0282611e9d565b604082019050919050565b5f6020820190508181035f830152611f2481611eeb565b9050919050565b7f4163636573732064656e6965643a204f6e6c792041646d696e6973747261746f5f8201527f722063616e20706572666f726d207468697320616374696f6e00000000000000602082015250565b5f611f856039836115a4565b9150611f9082611f2b565b604082019050919050565b5f6020820190508181035f830152611fb281611f79565b9050919050565b7f496e76616c696420726f6c6500000000000000000000000000000000000000005f82015250565b5f611fed600c836115a4565b9150611ff882611fb9565b602082019050919050565b5f6020820190508181035f83015261201a81611fe1565b9050919050565b5f819050815f5260205f209050919050565b5f6020601f8301049050919050565b5f82821b905092915050565b5f6008830261207d7fffffffffffffffffffffffffffffffffffffffffffffffffffffffffffffffff82612042565b6120878683612042565b95508019841693508086168417925050509392505050565b5f819050919050565b5f6120c26120bd6120b88461144c565b61209f565b61144c565b9050919050565b5f819050919050565b6120db836120a8565b6120ef6120e7826120c9565b84845461204e565b825550505050565b5f90565b6121036120f7565b61210e8184846120d2565b505050565b5b81811015612131576121265f826120fb565b600181019050612114565b5050565b601f8211156121765761214781612021565b61215084612033565b8101602085101561215f578190505b61217361216b85612033565b830182612113565b50505b505050565b5f82821c905092915050565b5f6121965f198460080261217b565b1980831691505092915050565b5f6121ae8383612187565b9150826002028217905092915050565b6121c78261159a565b67ffffffffffffffff8111156121e0576121df6117d4565b5b6121ea8254611e6d565b6121f5828285612135565b5f60209050601f831160018114612226575f8415612214578287015190505b61221e85826121a3565b865550612285565b601f19841661223486612021565b5f5b8281101561225b57848901518255600182019150602085019450602081019050612236565b868310156122785784890151612274601f891682612187565b8355505b6001600288020188555050505b505050505050565b7f4e487b71000000000000000000000000000000000000000000000000000000005f52601160045260245ffd5b5f6122c48261144c565b91507fffffffffffffffffffffffffffffffffffffffffffffffffffffffffffffffff82036122f6576122f561228d565b5b600182019050919050565b7f4163636573732064656e6965643a204f6e6c7920537570706c6965722063616e5f8201527f206164642070726f647563747300000000000000000000000000000000000000602082015250565b5f61235b602d836115a4565b915061236682612301565b604082019050919050565b5f6020820190508181035f8301526123888161234f565b9050919050565b5f60c0820190508181035f8301526123a7818961153e565b905081810360208301526123bb81886115ec565b905081810360408301526123cf81876115ec565b90506123de6060830186611455565b6123eb6080830185611455565b6123f860a0830184611630565b979650505050505050565b7f4163636573732064656e6965643a204f6e6c79204c6f67697374696320456d705f8201527f6c6f796565206f722061626f76652063616e20706572666f726d20746869732060208201527f616374696f6e0000000000000000000000000000000000000000000000000000604082015250565b5f6124836046836115a4565b915061248e82612403565b606082019050919050565b5f6020820190508181035f8301526124b081612477565b9050919050565b7f5573657220646f6573206e6f74206578697374000000000000000000000000005f82015250565b5f6124eb6013836115a4565b91506124f6826124b7565b602082019050919050565b5f6020820190508181035f830152612518816124df565b905091905056fea264697066735822122024655d872aa10589f6273e06dc2f1bb8cacc1ef509a3fd9102e073d38f58ffde64736f6c63430008150033",
  "immutableReferences": {},
  "source": "// SPDX-License-Identifier: MIT\npragma solidity ^0.8.0;\n\nimport './UserManagement.sol';\nimport './ProductManagement.sol';\n\ncontract ShippingManagement is UserManagement {\n    struct Shipping {\n        uint256 id;\n        uint256[] productIds;\n        string origin;\n        string destination;\n        uint256 departureDate;\n        uint256 expectedArrivalDate;\n        uint8 position; // Position as an integer for hierarchy\n    }\n\n    mapping(uint256 => Shipping) public shipments;\n    uint256 public shipmentCount = 0;\n\n    // Position constants\n    uint8 constant SUPPLIER_POSITION = 1;\n    uint8 constant TRANSPORT_POSITION = 2;\n    uint8 constant MANUFACTURER_POSITION = 3;\n    uint8 constant LOGISTIC_WAREHOUSE_POSITION = 4;\n    uint8 constant DISTRIBUTOR_POSITION = 5;\n    uint8 constant PHARMACY_POSITION = 6;\n\n    // Events for shipping management\n    event ShipmentAdded(\n        uint256 indexed shipmentId,\n        uint256[] productIds,\n        string origin,\n        string destination,\n        uint256 departureDate,\n        uint256 expectedArrivalDate,\n        uint8 position\n    );\n    event ShipmentUpdated(\n        uint256 indexed shipmentId,\n        uint256[] productIds,\n        string origin,\n        string destination,\n        uint256 departureDate,\n        uint256 expectedArrivalDate,\n        uint8 position\n    );\n    event ShipmentDeleted(uint256 indexed shipmentId);\n\n    // Add Shipment\n    function addShipment(\n        uint256 _id,\n        uint256[] memory _productIds,\n        string memory _origin,\n        string memory _destination,\n        uint256 _departureDate,\n        uint256 _expectedArrivalDate,\n        uint8 _position\n    ) public onlySupplier {\n        shipments[_id] = Shipping(\n            _id,\n            _productIds,\n            _origin,\n            _destination,\n            _departureDate,\n            _expectedArrivalDate,\n            _position\n        );\n        shipmentCount++;\n        emit ShipmentAdded(\n            _id,\n            _productIds,\n            _origin,\n            _destination,\n            _departureDate,\n            _expectedArrivalDate,\n            _position\n        );\n    }\n\n    // Update Shipment\n    function updateShipment(\n        uint256 _id,\n        uint256[] memory _productIds,\n        string memory _origin,\n        string memory _destination,\n        uint256 _departureDate,\n        uint256 _expectedArrivalDate,\n        uint8 _position\n    ) public onlyLogisticOrAbove {\n        require(shipments[_id].departureDate > 0, 'Shipment does not exist');\n        shipments[_id].productIds = _productIds;\n        shipments[_id].origin = _origin;\n        shipments[_id].destination = _destination;\n        shipments[_id].departureDate = _departureDate;\n        shipments[_id].expectedArrivalDate = _expectedArrivalDate;\n        shipments[_id].position = _position;\n        emit ShipmentUpdated(\n            _id,\n            _productIds,\n            _origin,\n            _destination,\n            _departureDate,\n            _expectedArrivalDate,\n            _position\n        );\n    }\n\n    // Get Shipment\n    function getShipment(\n        uint256 _id\n    )\n        public\n        view\n        returns (\n            uint256,\n            uint256[] memory,\n            string memory,\n            string memory,\n            uint256,\n            uint256,\n            uint8\n        )\n    {\n        require(\n            shipments[_id].departureDate > 0 && users[msg.sender].role > 0,\n            'Shipment does not exist'\n        );\n        Shipping storage shipment = shipments[_id];\n\n        // Access restriction based on user roles and shipment position\n        if (users[msg.sender].role == SUPPLIER) {\n            require(\n                shipment.position <= MANUFACTURER_POSITION,\n                'Access denied: Supplier can only view status until Manufacturer stage'\n            );\n        } else if (users[msg.sender].role == LOGISTIC_EMPLOYEE) {\n            require(\n                shipment.position <= LOGISTIC_WAREHOUSE_POSITION,\n                'Access denied: Logistic Employee can only view status until Logistic Warehouse stage'\n            );\n        } else {}\n\n        return (\n            shipment.id,\n            shipment.productIds,\n            shipment.origin,\n            shipment.destination,\n            shipment.departureDate,\n            shipment.expectedArrivalDate,\n            shipment.position\n        );\n    }\n\n    // Delete Shipment\n    function deleteShipment(uint256 _id) public onlyInspector {\n        require(shipments[_id].departureDate > 0, 'Shipment does not exist');\n        delete shipments[_id];\n        emit ShipmentDeleted(_id);\n    }\n\n    // Count Shipments\n    function getShipmentCount() public view returns (uint256) {\n        return shipmentCount;\n    }\n}\n",
  "sourcePath": "/Users/tonytziorvas/Documents/Code/College/Supply-Chain/contracts/ShippingManagement.sol",
  "compiler": {
    "name": "solc",
    "version": "0.8.21+commit.d9974bed.Emscripten.clang"
  },
  "schemaVersion": "3.4.16",
  "updatedAt": "2024-06-20T20:19:40.342Z",
  "devdoc": {
    "kind": "dev",
    "methods": {},
    "version": 1
  },
  "userdoc": {
    "kind": "user",
    "methods": {},
    "version": 1
  }
}