{
  "contractName": "ShippingManagement",
  "abi": [
    {
      "anonymous": false,
      "inputs": [
        {
          "indexed": true,
          "internalType": "uint256",
          "name": "shipmentId",
          "type": "uint256"
        },
        {
          "indexed": false,
          "internalType": "uint256[]",
          "name": "productIds",
          "type": "uint256[]"
        },
        {
          "indexed": false,
          "internalType": "string",
          "name": "origin",
          "type": "string"
        },
        {
          "indexed": false,
          "internalType": "string",
          "name": "destination",
          "type": "string"
        },
        {
          "indexed": false,
          "internalType": "uint256",
          "name": "departureDate",
          "type": "uint256"
        },
        {
          "indexed": false,
          "internalType": "uint256",
          "name": "expectedArrivalDate",
          "type": "uint256"
        },
        {
          "indexed": false,
          "internalType": "uint256",
          "name": "status",
          "type": "uint256"
        }
      ],
      "name": "ShipmentAdded",
      "type": "event"
    },
    {
      "anonymous": false,
      "inputs": [
        {
          "indexed": true,
          "internalType": "uint256",
          "name": "shipmentId",
          "type": "uint256"
        }
      ],
      "name": "ShipmentDeleted",
      "type": "event"
    },
    {
      "anonymous": false,
      "inputs": [
        {
          "indexed": true,
          "internalType": "uint256",
          "name": "shipmentId",
          "type": "uint256"
        },
        {
          "indexed": false,
          "internalType": "uint256",
          "name": "status",
          "type": "uint256"
        }
      ],
      "name": "ShipmentStatusUpdated",
      "type": "event"
    },
    {
      "inputs": [],
      "name": "shipmentCount",
      "outputs": [
        {
          "internalType": "uint256",
          "name": "",
          "type": "uint256"
        }
      ],
      "stateMutability": "view",
      "type": "function",
      "constant": true
    },
    {
      "inputs": [
        {
          "internalType": "uint256",
          "name": "",
          "type": "uint256"
        }
      ],
      "name": "shipments",
      "outputs": [
        {
          "internalType": "uint256",
          "name": "id",
          "type": "uint256"
        },
        {
          "internalType": "string",
          "name": "origin",
          "type": "string"
        },
        {
          "internalType": "string",
          "name": "destination",
          "type": "string"
        },
        {
          "internalType": "uint256",
          "name": "departureDate",
          "type": "uint256"
        },
        {
          "internalType": "uint256",
          "name": "expectedArrivalDate",
          "type": "uint256"
        },
        {
          "internalType": "uint256",
          "name": "status",
          "type": "uint256"
        }
      ],
      "stateMutability": "view",
      "type": "function",
      "constant": true
    },
    {
      "inputs": [
        {
          "internalType": "uint256[]",
          "name": "_productIds",
          "type": "uint256[]"
        },
        {
          "internalType": "string",
          "name": "_origin",
          "type": "string"
        },
        {
          "internalType": "string",
          "name": "_destination",
          "type": "string"
        },
        {
          "internalType": "uint256",
          "name": "_departureDate",
          "type": "uint256"
        },
        {
          "internalType": "uint256",
          "name": "_expectedArrivalDate",
          "type": "uint256"
        }
      ],
      "name": "addShipment",
      "outputs": [],
      "stateMutability": "nonpayable",
      "type": "function"
    },
    {
      "inputs": [
        {
          "internalType": "uint256",
          "name": "_shipmentId",
          "type": "uint256"
        },
        {
          "internalType": "uint256",
          "name": "_status",
          "type": "uint256"
        }
      ],
      "name": "updateShipmentStatus",
      "outputs": [],
      "stateMutability": "nonpayable",
      "type": "function"
    },
    {
      "inputs": [
        {
          "internalType": "uint256",
          "name": "_shipmentId",
          "type": "uint256"
        }
      ],
      "name": "deleteShipment",
      "outputs": [],
      "stateMutability": "nonpayable",
      "type": "function"
    },
    {
      "inputs": [
        {
          "internalType": "uint256",
          "name": "_shipmentId",
          "type": "uint256"
        }
      ],
      "name": "getCurrentStatus",
      "outputs": [
        {
          "internalType": "uint256",
          "name": "",
          "type": "uint256"
        }
      ],
      "stateMutability": "view",
      "type": "function",
      "constant": true
    }
  ],
  "bytecode": "0x60806040525f600155348015610013575f80fd5b5061105e806100215f395ff3fe608060405234801561000f575f80fd5b5060043610610060575f3560e01c806319adff95146100645780632ac08a93146100805780632f3e0bc6146100b5578063679c9bad146100d1578063a0aa13c6146100ed578063aace20b71461011d575b5f80fd5b61007e600480360381019061007991906106ad565b61013b565b005b61009a600480360381019061009591906106eb565b61022f565b6040516100ac969594939291906107af565b60405180910390f35b6100cf60048036038101906100ca91906106eb565b610372565b005b6100eb60048036038101906100e69190610a0c565b61046b565b005b610107600480360381019061010291906106eb565b610586565b6040516101149190610ad7565b60405180910390f35b6101256105a2565b6040516101329190610ad7565b60405180910390f35b5f8211801561014c57506001548211155b61018b576040517f08c379a000000000000000000000000000000000000000000000000000000000815260040161018290610b3a565b60405180910390fd5b5f811015801561019c575060058111155b6101db576040517f08c379a00000000000000000000000000000000000000000000000000000000081526004016101d290610ba2565b60405180910390fd5b805f808481526020019081526020015f2060060181905550817f77d020c6796d435dc7f0ee654a080158a480e6c5e427e89528b144945096fd2c826040516102239190610ad7565b60405180910390a25050565b5f602052805f5260405f205f91509050805f01549080600201805461025390610bed565b80601f016020809104026020016040519081016040528092919081815260200182805461027f90610bed565b80156102ca5780601f106102a1576101008083540402835291602001916102ca565b820191905f5260205f20905b8154815290600101906020018083116102ad57829003601f168201915b5050505050908060030180546102df90610bed565b80601f016020809104026020016040519081016040528092919081815260200182805461030b90610bed565b80156103565780601f1061032d57610100808354040283529160200191610356565b820191905f5260205f20905b81548152906001019060200180831161033957829003601f168201915b5050505050908060040154908060050154908060060154905086565b5f8111801561038357506001548111155b6103c2576040517f08c379a00000000000000000000000000000000000000000000000000000000081526004016103b990610b3a565b60405180910390fd5b5f808281526020019081526020015f206001015f6103e091906105a8565b5f808281526020019081526020015f205f8082015f9055600182015f61040691906105a8565b600282015f61041591906105c6565b600382015f61042491906105c6565b600482015f9055600582015f9055600682015f90555050807fdcafc8fb0fe4a2d12407354e4c5b11e0446f8b8a7329f8b6df342c387549fd8760405160405180910390a250565b60015f81548092919061047d90610c4a565b91905055506040518060e0016040528060015481526020018681526020018581526020018481526020018381526020018281526020015f8152505f8060015481526020019081526020015f205f820151815f015560208201518160010190805190602001906104ed929190610603565b5060408201518160020190816105039190610e2e565b5060608201518160030190816105199190610e2e565b506080820151816004015560a0820151816005015560c082015181600601559050506001547f92ff177ffd905704c998c0bd0fd3470c2f5fa22eb443df03f643e5cdbb059ae186868686865f60405161057796959493929190610fb4565b60405180910390a25050505050565b5f805f8381526020019081526020015f20600601549050919050565b60015481565b5080545f8255905f5260205f20908101906105c3919061064e565b50565b5080546105d290610bed565b5f825580601f106105e35750610600565b601f0160209004905f5260205f20908101906105ff919061064e565b5b50565b828054828255905f5260205f2090810192821561063d579160200282015b8281111561063c578251825591602001919060010190610621565b5b50905061064a919061064e565b5090565b5b80821115610665575f815f90555060010161064f565b5090565b5f604051905090565b5f80fd5b5f80fd5b5f819050919050565b61068c8161067a565b8114610696575f80fd5b50565b5f813590506106a781610683565b92915050565b5f80604083850312156106c3576106c2610672565b5b5f6106d085828601610699565b92505060206106e185828601610699565b9150509250929050565b5f60208284031215610700576106ff610672565b5b5f61070d84828501610699565b91505092915050565b61071f8161067a565b82525050565b5f81519050919050565b5f82825260208201905092915050565b5f5b8381101561075c578082015181840152602081019050610741565b5f8484015250505050565b5f601f19601f8301169050919050565b5f61078182610725565b61078b818561072f565b935061079b81856020860161073f565b6107a481610767565b840191505092915050565b5f60c0820190506107c25f830189610716565b81810360208301526107d48188610777565b905081810360408301526107e88187610777565b90506107f76060830186610716565b6108046080830185610716565b61081160a0830184610716565b979650505050505050565b5f80fd5b7f4e487b71000000000000000000000000000000000000000000000000000000005f52604160045260245ffd5b61085682610767565b810181811067ffffffffffffffff8211171561087557610874610820565b5b80604052505050565b5f610887610669565b9050610893828261084d565b919050565b5f67ffffffffffffffff8211156108b2576108b1610820565b5b602082029050602081019050919050565b5f80fd5b5f6108d96108d484610898565b61087e565b905080838252602082019050602084028301858111156108fc576108fb6108c3565b5b835b8181101561092557806109118882610699565b8452602084019350506020810190506108fe565b5050509392505050565b5f82601f8301126109435761094261081c565b5b81356109538482602086016108c7565b91505092915050565b5f80fd5b5f67ffffffffffffffff82111561097a57610979610820565b5b61098382610767565b9050602081019050919050565b828183375f83830152505050565b5f6109b06109ab84610960565b61087e565b9050828152602081018484840111156109cc576109cb61095c565b5b6109d7848285610990565b509392505050565b5f82601f8301126109f3576109f261081c565b5b8135610a0384826020860161099e565b91505092915050565b5f805f805f60a08688031215610a2557610a24610672565b5b5f86013567ffffffffffffffff811115610a4257610a41610676565b5b610a4e8882890161092f565b955050602086013567ffffffffffffffff811115610a6f57610a6e610676565b5b610a7b888289016109df565b945050604086013567ffffffffffffffff811115610a9c57610a9b610676565b5b610aa8888289016109df565b9350506060610ab988828901610699565b9250506080610aca88828901610699565b9150509295509295909350565b5f602082019050610aea5f830184610716565b92915050565b7f496e76616c696420736869706d656e74204944000000000000000000000000005f82015250565b5f610b2460138361072f565b9150610b2f82610af0565b602082019050919050565b5f6020820190508181035f830152610b5181610b18565b9050919050565b7f496e76616c6964207374617475732076616c75650000000000000000000000005f82015250565b5f610b8c60148361072f565b9150610b9782610b58565b602082019050919050565b5f6020820190508181035f830152610bb981610b80565b9050919050565b7f4e487b71000000000000000000000000000000000000000000000000000000005f52602260045260245ffd5b5f6002820490506001821680610c0457607f821691505b602082108103610c1757610c16610bc0565b5b50919050565b7f4e487b71000000000000000000000000000000000000000000000000000000005f52601160045260245ffd5b5f610c548261067a565b91507fffffffffffffffffffffffffffffffffffffffffffffffffffffffffffffffff8203610c8657610c85610c1d565b5b600182019050919050565b5f819050815f5260205f209050919050565b5f6020601f8301049050919050565b5f82821b905092915050565b5f60088302610ced7fffffffffffffffffffffffffffffffffffffffffffffffffffffffffffffffff82610cb2565b610cf78683610cb2565b95508019841693508086168417925050509392505050565b5f819050919050565b5f610d32610d2d610d288461067a565b610d0f565b61067a565b9050919050565b5f819050919050565b610d4b83610d18565b610d5f610d5782610d39565b848454610cbe565b825550505050565b5f90565b610d73610d67565b610d7e818484610d42565b505050565b5b81811015610da157610d965f82610d6b565b600181019050610d84565b5050565b601f821115610de657610db781610c91565b610dc084610ca3565b81016020851015610dcf578190505b610de3610ddb85610ca3565b830182610d83565b50505b505050565b5f82821c905092915050565b5f610e065f1984600802610deb565b1980831691505092915050565b5f610e1e8383610df7565b9150826002028217905092915050565b610e3782610725565b67ffffffffffffffff811115610e5057610e4f610820565b5b610e5a8254610bed565b610e65828285610da5565b5f60209050601f831160018114610e96575f8415610e84578287015190505b610e8e8582610e13565b865550610ef5565b601f198416610ea486610c91565b5f5b82811015610ecb57848901518255600182019150602085019450602081019050610ea6565b86831015610ee85784890151610ee4601f891682610df7565b8355505b6001600288020188555050505b505050505050565b5f81519050919050565b5f82825260208201905092915050565b5f819050602082019050919050565b610f2f8161067a565b82525050565b5f610f408383610f26565b60208301905092915050565b5f602082019050919050565b5f610f6282610efd565b610f6c8185610f07565b9350610f7783610f17565b805f5b83811015610fa7578151610f8e8882610f35565b9750610f9983610f4c565b925050600181019050610f7a565b5085935050505092915050565b5f60c0820190508181035f830152610fcc8189610f58565b90508181036020830152610fe08188610777565b90508181036040830152610ff48187610777565b90506110036060830186610716565b6110106080830185610716565b61101d60a0830184610716565b97965050505050505056fea264697066735822122059fa5feb34fb64908b8b21dc54873f25a1892bf629aebf33cabc5bf72e8148f964736f6c63430008150033",
  "immutableReferences": {},
  "source": "// SPDX-License-Identifier: MIT\npragma solidity ^0.8.0;\n\ncontract ShippingManagement {\n    uint256 constant SUPPLIER = 0;\n    uint256 constant TRANSPORT = 1;\n    uint256 constant MANUFACTURER = 2;\n    uint256 constant LOGISTIC_WAREHOUSE = 3;\n    uint256 constant DISTRIBUTOR = 4;\n    uint256 constant PHARMACY = 5;\n\n    struct Shipping {\n        uint256 id;\n        uint256[] productIds;\n        string origin;\n        string destination;\n        uint256 departureDate;\n        uint256 expectedArrivalDate;\n        uint256 status;\n    }\n\n    mapping(uint256 => Shipping) public shipments;\n    uint256 public shipmentCount = 0;\n\n    // Events for shipping management\n    event ShipmentAdded(\n        uint256 indexed shipmentId,\n        uint256[] productIds,\n        string origin,\n        string destination,\n        uint256 departureDate,\n        uint256 expectedArrivalDate,\n        uint256 status\n    );\n\n    event ShipmentStatusUpdated(uint256 indexed shipmentId, uint256 status);\n\n    event ShipmentDeleted(uint256 indexed shipmentId);\n\n    // Add a new shipment\n    function addShipment(\n        uint256[] memory _productIds,\n        string memory _origin,\n        string memory _destination,\n        uint256 _departureDate,\n        uint256 _expectedArrivalDate\n    ) public {\n        shipmentCount++;\n        shipments[shipmentCount] = Shipping({\n            id: shipmentCount,\n            productIds: _productIds,\n            origin: _origin,\n            destination: _destination,\n            departureDate: _departureDate,\n            expectedArrivalDate: _expectedArrivalDate,\n            status: SUPPLIER\n        });\n        emit ShipmentAdded(\n            shipmentCount,\n            _productIds,\n            _origin,\n            _destination,\n            _departureDate,\n            _expectedArrivalDate,\n            SUPPLIER\n        );\n    }\n\n    // Update shipment status\n    function updateShipmentStatus(uint256 _shipmentId, uint256 _status) public {\n        require(_shipmentId > 0 && _shipmentId <= shipmentCount, 'Invalid shipment ID');\n        require(_status >= SUPPLIER && _status <= PHARMACY, 'Invalid status value');\n        shipments[_shipmentId].status = _status;\n        emit ShipmentStatusUpdated(_shipmentId, _status);\n    }\n\n    // Delete a shipment\n    function deleteShipment(uint256 _shipmentId) public {\n        require(_shipmentId > 0 && _shipmentId <= shipmentCount, 'Invalid shipment ID');\n        delete shipments[_shipmentId].productIds;\n        delete shipments[_shipmentId];\n        emit ShipmentDeleted(_shipmentId);\n    }\n\n    // Function to get the current status of a shipment\n    function getCurrentStatus(uint256 _shipmentId) public view returns (uint256) {\n        return shipments[_shipmentId].status;\n    }\n}\n",
  "sourcePath": "/Users/tonytziorvas/Documents/Code/College/Supply-Chain/contracts/ShippingManagement.sol",
  "compiler": {
    "name": "solc",
    "version": "0.8.21+commit.d9974bed.Emscripten.clang"
  },
  "schemaVersion": "3.4.16",
  "updatedAt": "2024-06-25T08:35:47.571Z",
  "networkType": "ethereum",
  "devdoc": {
    "kind": "dev",
    "methods": {},
    "version": 1
  },
  "userdoc": {
    "kind": "user",
    "methods": {},
    "version": 1
  }
}