{
  "contractName": "UserManagement",
  "abi": [
    {
      "inputs": [],
      "stateMutability": "nonpayable",
      "type": "constructor"
    },
    {
      "anonymous": false,
      "inputs": [
        {
          "indexed": true,
          "internalType": "address",
          "name": "userAddress",
          "type": "address"
        },
        {
          "indexed": false,
          "internalType": "string",
          "name": "name",
          "type": "string"
        },
        {
          "indexed": false,
          "internalType": "uint8",
          "name": "role",
          "type": "uint8"
        }
      ],
      "name": "UserAdded",
      "type": "event"
    },
    {
      "anonymous": false,
      "inputs": [
        {
          "indexed": true,
          "internalType": "address",
          "name": "userAddress",
          "type": "address"
        }
      ],
      "name": "UserRemoved",
      "type": "event"
    },
    {
      "inputs": [
        {
          "internalType": "uint256",
          "name": "",
          "type": "uint256"
        }
      ],
      "name": "userAddresses",
      "outputs": [
        {
          "internalType": "address",
          "name": "",
          "type": "address"
        }
      ],
      "stateMutability": "view",
      "type": "function"
    },
    {
      "inputs": [],
      "name": "userCount",
      "outputs": [
        {
          "internalType": "uint256",
          "name": "",
          "type": "uint256"
        }
      ],
      "stateMutability": "view",
      "type": "function"
    },
    {
      "inputs": [
        {
          "internalType": "address",
          "name": "",
          "type": "address"
        }
      ],
      "name": "users",
      "outputs": [
        {
          "internalType": "string",
          "name": "name",
          "type": "string"
        },
        {
          "internalType": "uint8",
          "name": "role",
          "type": "uint8"
        }
      ],
      "stateMutability": "view",
      "type": "function"
    },
    {
      "inputs": [
        {
          "internalType": "address",
          "name": "_userAddress",
          "type": "address"
        },
        {
          "internalType": "string",
          "name": "_name",
          "type": "string"
        },
        {
          "internalType": "uint8",
          "name": "_role",
          "type": "uint8"
        }
      ],
      "name": "addUser",
      "outputs": [],
      "stateMutability": "nonpayable",
      "type": "function"
    },
    {
      "inputs": [
        {
          "internalType": "address",
          "name": "_userAddress",
          "type": "address"
        }
      ],
      "name": "removeUser",
      "outputs": [],
      "stateMutability": "nonpayable",
      "type": "function"
    },
    {
      "inputs": [
        {
          "internalType": "address",
          "name": "_userAddress",
          "type": "address"
        }
      ],
      "name": "getUserRole",
      "outputs": [
        {
          "internalType": "uint8",
          "name": "",
          "type": "uint8"
        }
      ],
      "stateMutability": "view",
      "type": "function"
    },
    {
      "inputs": [],
      "name": "getUserCount",
      "outputs": [
        {
          "internalType": "uint256",
          "name": "",
          "type": "uint256"
        }
      ],
      "stateMutability": "view",
      "type": "function"
    },
    {
      "inputs": [],
      "name": "getAllUsers",
      "outputs": [
        {
          "internalType": "address[]",
          "name": "",
          "type": "address[]"
        }
      ],
      "stateMutability": "view",
      "type": "function"
    }
  ],
  "bytecode": "0x60806040525f60025534801562000014575f80fd5b506200005e336040518060400160405280600581526020017f41646d696e00000000000000000000000000000000000000000000000000000081525060046200015460201b60201c565b5f6101239050620000ad816040518060400160405280600981526020017f537570706c69657231000000000000000000000000000000000000000000000081525060016200015460201b60201c565b5f6104569050620000fc816040518060400160405280600981526020017f4c6f67697374696331000000000000000000000000000000000000000000000081525060026200015460201b60201c565b5f61078990506200014b816040518060400160405280600a81526020017f496e73706563746f72310000000000000000000000000000000000000000000081525060036200015460201b60201c565b50505062000940565b600460ff165f803373ffffffffffffffffffffffffffffffffffffffff1673ffffffffffffffffffffffffffffffffffffffff1681526020019081526020015f206001015f9054906101000a900460ff1660ff1614620001eb576040517f08c379a0000000000000000000000000000000000000000000000000000000008152600401620001e29062000428565b60405180910390fd5b5f8160ff16118015620002055750600460ff168160ff1611155b62000247576040517f08c379a00000000000000000000000000000000000000000000000000000000081526004016200023e9062000496565b60405180910390fd5b60405180604001604052808381526020018260ff168152505f808573ffffffffffffffffffffffffffffffffffffffff1673ffffffffffffffffffffffffffffffffffffffff1681526020019081526020015f205f820151815f019081620002b091906200071a565b506020820151816001015f6101000a81548160ff021916908360ff160217905550905050600183908060018154018082558091505060019003905f5260205f20015f9091909190916101000a81548173ffffffffffffffffffffffffffffffffffffffff021916908373ffffffffffffffffffffffffffffffffffffffff16021790555060025f81548092919062000348906200082b565b91905055508273ffffffffffffffffffffffffffffffffffffffff167f8897d4c16f6b907647cc92f3b2f80418ac81581b8e74f9dda595d3910b44c8628383604051620003979291906200090e565b60405180910390a2505050565b5f82825260208201905092915050565b7f4163636573732064656e6965643a204f6e6c792041646d696e6973747261746f5f8201527f722063616e20706572666f726d207468697320616374696f6e00000000000000602082015250565b5f62000410603983620003a4565b91506200041d82620003b4565b604082019050919050565b5f6020820190508181035f830152620004418162000402565b9050919050565b7f496e76616c696420726f6c6500000000000000000000000000000000000000005f82015250565b5f6200047e600c83620003a4565b91506200048b8262000448565b602082019050919050565b5f6020820190508181035f830152620004af8162000470565b9050919050565b5f81519050919050565b7f4e487b71000000000000000000000000000000000000000000000000000000005f52604160045260245ffd5b7f4e487b71000000000000000000000000000000000000000000000000000000005f52602260045260245ffd5b5f60028204905060018216806200053257607f821691505b602082108103620005485762000547620004ed565b5b50919050565b5f819050815f5260205f209050919050565b5f6020601f8301049050919050565b5f82821b905092915050565b5f60088302620005ac7fffffffffffffffffffffffffffffffffffffffffffffffffffffffffffffffff826200056f565b620005b886836200056f565b95508019841693508086168417925050509392505050565b5f819050919050565b5f819050919050565b5f62000602620005fc620005f684620005d0565b620005d9565b620005d0565b9050919050565b5f819050919050565b6200061d83620005e2565b620006356200062c8262000609565b8484546200057b565b825550505050565b5f90565b6200064b6200063d565b6200065881848462000612565b505050565b5b818110156200067f57620006735f8262000641565b6001810190506200065e565b5050565b601f821115620006ce5762000698816200054e565b620006a38462000560565b81016020851015620006b3578190505b620006cb620006c28562000560565b8301826200065d565b50505b505050565b5f82821c905092915050565b5f620006f05f1984600802620006d3565b1980831691505092915050565b5f6200070a8383620006df565b9150826002028217905092915050565b6200072582620004b6565b67ffffffffffffffff811115620007415762000740620004c0565b5b6200074d82546200051a565b6200075a82828562000683565b5f60209050601f83116001811462000790575f84156200077b578287015190505b620007878582620006fd565b865550620007f6565b601f198416620007a0866200054e565b5f5b82811015620007c957848901518255600182019150602085019450602081019050620007a2565b86831015620007e95784890151620007e5601f891682620006df565b8355505b6001600288020188555050505b505050505050565b7f4e487b71000000000000000000000000000000000000000000000000000000005f52601160045260245ffd5b5f6200083782620005d0565b91507fffffffffffffffffffffffffffffffffffffffffffffffffffffffffffffffff82036200086c576200086b620007fe565b5b600182019050919050565b5f5b838110156200089657808201518184015260208101905062000879565b5f8484015250505050565b5f601f19601f8301169050919050565b5f620008bd82620004b6565b620008c98185620003a4565b9350620008db81856020860162000877565b620008e681620008a1565b840191505092915050565b5f60ff82169050919050565b6200090881620008f1565b82525050565b5f6040820190508181035f830152620009288185620008b1565b9050620009396020830184620008fd565b9392505050565b611186806200094e5f395ff3fe608060405234801561000f575f80fd5b5060043610610086575f3560e01c806398575188116100595780639857518814610124578063a87430ba14610140578063b5cb15f714610171578063e2842d791461018f57610086565b806307973ccf1461008a57806327820851146100a857806340d26854146100d8578063502c9bd5146100f4575b5f80fd5b6100926101ad565b60405161009f9190610804565b60405180910390f35b6100c260048036038101906100bd9190610888565b6101b3565b6040516100cf91906108ce565b60405180910390f35b6100f260048036038101906100ed9190610a4d565b610207565b005b61010e60048036038101906101099190610ae3565b61044a565b60405161011b9190610b1d565b60405180910390f35b61013e60048036038101906101399190610888565b610485565b005b61015a60048036038101906101559190610888565b61064f565b604051610168929190610bb0565b60405180910390f35b610179610700565b6040516101869190610804565b60405180910390f35b610197610709565b6040516101a49190610c95565b60405180910390f35b60025481565b5f805f8373ffffffffffffffffffffffffffffffffffffffff1673ffffffffffffffffffffffffffffffffffffffff1681526020019081526020015f206001015f9054906101000a900460ff169050919050565b600460ff165f803373ffffffffffffffffffffffffffffffffffffffff1673ffffffffffffffffffffffffffffffffffffffff1681526020019081526020015f206001015f9054906101000a900460ff1660ff161461029b576040517f08c379a000000000000000000000000000000000000000000000000000000000815260040161029290610d25565b60405180910390fd5b5f8160ff161180156102b45750600460ff168160ff1611155b6102f3576040517f08c379a00000000000000000000000000000000000000000000000000000000081526004016102ea90610d8d565b60405180910390fd5b60405180604001604052808381526020018260ff168152505f808573ffffffffffffffffffffffffffffffffffffffff1673ffffffffffffffffffffffffffffffffffffffff1681526020019081526020015f205f820151815f01908161035a9190610fa5565b506020820151816001015f6101000a81548160ff021916908360ff160217905550905050600183908060018154018082558091505060019003905f5260205f20015f9091909190916101000a81548173ffffffffffffffffffffffffffffffffffffffff021916908373ffffffffffffffffffffffffffffffffffffffff16021790555060025f8154809291906103f0906110a1565b91905055508273ffffffffffffffffffffffffffffffffffffffff167f8897d4c16f6b907647cc92f3b2f80418ac81581b8e74f9dda595d3910b44c862838360405161043d929190610bb0565b60405180910390a2505050565b60018181548110610459575f80fd5b905f5260205f20015f915054906101000a900473ffffffffffffffffffffffffffffffffffffffff1681565b600460ff165f803373ffffffffffffffffffffffffffffffffffffffff1673ffffffffffffffffffffffffffffffffffffffff1681526020019081526020015f206001015f9054906101000a900460ff1660ff1614610519576040517f08c379a000000000000000000000000000000000000000000000000000000000815260040161051090610d25565b60405180910390fd5b5f805f8373ffffffffffffffffffffffffffffffffffffffff1673ffffffffffffffffffffffffffffffffffffffff1681526020019081526020015f206001015f9054906101000a900460ff1660ff16036105a9576040517f08c379a00000000000000000000000000000000000000000000000000000000081526004016105a090611132565b60405180910390fd5b5f808273ffffffffffffffffffffffffffffffffffffffff1673ffffffffffffffffffffffffffffffffffffffff1681526020019081526020015f205f8082015f6105f49190610794565b600182015f6101000a81549060ff021916905550508073ffffffffffffffffffffffffffffffffffffffff167fe9dce8c992623ce791725b21e857e33248d1f190a25b5168313420eebdaae99d60405160405180910390a250565b5f602052805f5260405f205f91509050805f01805461066d90610dd8565b80601f016020809104026020016040519081016040528092919081815260200182805461069990610dd8565b80156106e45780601f106106bb576101008083540402835291602001916106e4565b820191905f5260205f20905b8154815290600101906020018083116106c757829003601f168201915b505050505090806001015f9054906101000a900460ff16905082565b5f600254905090565b6060600180548060200260200160405190810160405280929190818152602001828054801561078a57602002820191905f5260205f20905b815f9054906101000a900473ffffffffffffffffffffffffffffffffffffffff1673ffffffffffffffffffffffffffffffffffffffff1681526020019060010190808311610741575b5050505050905090565b5080546107a090610dd8565b5f825580601f106107b157506107ce565b601f0160209004905f5260205f20908101906107cd91906107d1565b5b50565b5b808211156107e8575f815f9055506001016107d2565b5090565b5f819050919050565b6107fe816107ec565b82525050565b5f6020820190506108175f8301846107f5565b92915050565b5f604051905090565b5f80fd5b5f80fd5b5f73ffffffffffffffffffffffffffffffffffffffff82169050919050565b5f6108578261082e565b9050919050565b6108678161084d565b8114610871575f80fd5b50565b5f813590506108828161085e565b92915050565b5f6020828403121561089d5761089c610826565b5b5f6108aa84828501610874565b91505092915050565b5f60ff82169050919050565b6108c8816108b3565b82525050565b5f6020820190506108e15f8301846108bf565b92915050565b5f80fd5b5f80fd5b5f601f19601f8301169050919050565b7f4e487b71000000000000000000000000000000000000000000000000000000005f52604160045260245ffd5b610935826108ef565b810181811067ffffffffffffffff82111715610954576109536108ff565b5b80604052505050565b5f61096661081d565b9050610972828261092c565b919050565b5f67ffffffffffffffff821115610991576109906108ff565b5b61099a826108ef565b9050602081019050919050565b828183375f83830152505050565b5f6109c76109c284610977565b61095d565b9050828152602081018484840111156109e3576109e26108eb565b5b6109ee8482856109a7565b509392505050565b5f82601f830112610a0a57610a096108e7565b5b8135610a1a8482602086016109b5565b91505092915050565b610a2c816108b3565b8114610a36575f80fd5b50565b5f81359050610a4781610a23565b92915050565b5f805f60608486031215610a6457610a63610826565b5b5f610a7186828701610874565b935050602084013567ffffffffffffffff811115610a9257610a9161082a565b5b610a9e868287016109f6565b9250506040610aaf86828701610a39565b9150509250925092565b610ac2816107ec565b8114610acc575f80fd5b50565b5f81359050610add81610ab9565b92915050565b5f60208284031215610af857610af7610826565b5b5f610b0584828501610acf565b91505092915050565b610b178161084d565b82525050565b5f602082019050610b305f830184610b0e565b92915050565b5f81519050919050565b5f82825260208201905092915050565b5f5b83811015610b6d578082015181840152602081019050610b52565b5f8484015250505050565b5f610b8282610b36565b610b8c8185610b40565b9350610b9c818560208601610b50565b610ba5816108ef565b840191505092915050565b5f6040820190508181035f830152610bc88185610b78565b9050610bd760208301846108bf565b9392505050565b5f81519050919050565b5f82825260208201905092915050565b5f819050602082019050919050565b610c108161084d565b82525050565b5f610c218383610c07565b60208301905092915050565b5f602082019050919050565b5f610c4382610bde565b610c4d8185610be8565b9350610c5883610bf8565b805f5b83811015610c88578151610c6f8882610c16565b9750610c7a83610c2d565b925050600181019050610c5b565b5085935050505092915050565b5f6020820190508181035f830152610cad8184610c39565b905092915050565b7f4163636573732064656e6965643a204f6e6c792041646d696e6973747261746f5f8201527f722063616e20706572666f726d207468697320616374696f6e00000000000000602082015250565b5f610d0f603983610b40565b9150610d1a82610cb5565b604082019050919050565b5f6020820190508181035f830152610d3c81610d03565b9050919050565b7f496e76616c696420726f6c6500000000000000000000000000000000000000005f82015250565b5f610d77600c83610b40565b9150610d8282610d43565b602082019050919050565b5f6020820190508181035f830152610da481610d6b565b9050919050565b7f4e487b71000000000000000000000000000000000000000000000000000000005f52602260045260245ffd5b5f6002820490506001821680610def57607f821691505b602082108103610e0257610e01610dab565b5b50919050565b5f819050815f5260205f209050919050565b5f6020601f8301049050919050565b5f82821b905092915050565b5f60088302610e647fffffffffffffffffffffffffffffffffffffffffffffffffffffffffffffffff82610e29565b610e6e8683610e29565b95508019841693508086168417925050509392505050565b5f819050919050565b5f610ea9610ea4610e9f846107ec565b610e86565b6107ec565b9050919050565b5f819050919050565b610ec283610e8f565b610ed6610ece82610eb0565b848454610e35565b825550505050565b5f90565b610eea610ede565b610ef5818484610eb9565b505050565b5b81811015610f1857610f0d5f82610ee2565b600181019050610efb565b5050565b601f821115610f5d57610f2e81610e08565b610f3784610e1a565b81016020851015610f46578190505b610f5a610f5285610e1a565b830182610efa565b50505b505050565b5f82821c905092915050565b5f610f7d5f1984600802610f62565b1980831691505092915050565b5f610f958383610f6e565b9150826002028217905092915050565b610fae82610b36565b67ffffffffffffffff811115610fc757610fc66108ff565b5b610fd18254610dd8565b610fdc828285610f1c565b5f60209050601f83116001811461100d575f8415610ffb578287015190505b6110058582610f8a565b86555061106c565b601f19841661101b86610e08565b5f5b828110156110425784890151825560018201915060208501945060208101905061101d565b8683101561105f578489015161105b601f891682610f6e565b8355505b6001600288020188555050505b505050505050565b7f4e487b71000000000000000000000000000000000000000000000000000000005f52601160045260245ffd5b5f6110ab826107ec565b91507fffffffffffffffffffffffffffffffffffffffffffffffffffffffffffffffff82036110dd576110dc611074565b5b600182019050919050565b7f5573657220646f6573206e6f74206578697374000000000000000000000000005f82015250565b5f61111c601383610b40565b9150611127826110e8565b602082019050919050565b5f6020820190508181035f83015261114981611110565b905091905056fea2646970667358221220627ce27bd79cef8e532ee546a366ffee4e2527a857b2da1466790675dde7ab1064736f6c63430008150033",
  "immutableReferences": {},
  "source": "// SPDX-License-Identifier: MIT\npragma solidity ^0.8.0;\n\ncontract UserManagement {\n    struct User {\n        string name;\n        uint8 role;\n    }\n\n    mapping(address => User) public users;\n    address[] public userAddresses;\n    uint256 public userCount = 0;\n\n    // Role constants\n    uint8 constant SUPPLIER = 1;\n    uint8 constant LOGISTIC_EMPLOYEE = 2;\n    uint8 constant INSPECTOR = 3;\n    uint8 constant ADMINISTRATOR = 4;\n\n    // Events for user management\n    event UserAdded(address indexed userAddress, string name, uint8 role);\n    event UserRemoved(address indexed userAddress);\n\n    // Constructor to create initial users\n    constructor() {\n        // Add Administrator\n        addUser(msg.sender, 'Admin', ADMINISTRATOR);\n\n        // Add Supplier\n        address supplierAddress = address(0x123); // Example address\n        addUser(supplierAddress, 'Supplier1', SUPPLIER);\n\n        // Add Logistic Employee\n        address logisticAddress = address(0x456); // Example address\n        addUser(logisticAddress, 'Logistic1', LOGISTIC_EMPLOYEE);\n\n        // Add Inspector\n        address inspectorAddress = address(0x789); // Example address\n        addUser(inspectorAddress, 'Inspector1', INSPECTOR);\n    }\n\n    // Add User\n    function addUser(\n        address _userAddress,\n        string memory _name,\n        uint8 _role\n    ) public onlyAdmin {\n        require(_role > 0 && _role <= ADMINISTRATOR, 'Invalid role');\n        users[_userAddress] = User(_name, _role);\n        userAddresses.push(_userAddress);\n        userCount++;\n        emit UserAdded(_userAddress, _name, _role);\n    }\n\n    // Remove User\n    function removeUser(address _userAddress) public onlyAdmin {\n        require(users[_userAddress].role != 0, 'User does not exist');\n        delete users[_userAddress];\n        emit UserRemoved(_userAddress);\n    }\n\n    // Get User Role\n    function getUserRole(address _userAddress) public view returns (uint8) {\n        return users[_userAddress].role;\n    }\n\n    // Get User Count\n    function getUserCount() public view returns (uint256) {\n        return userCount;\n    }\n\n    // Get All Users\n    function getAllUsers() public view returns (address[] memory) {\n        return userAddresses;\n    }\n\n    // Modifiers\n    modifier onlyAdmin() {\n        require(\n            users[msg.sender].role == ADMINISTRATOR,\n            'Access denied: Only Administrator can perform this action'\n        );\n        _;\n    }\n\n    modifier onlySupplierOrAbove() {\n        require(\n            users[msg.sender].role >= SUPPLIER,\n            'Access denied: Only Supplier or above can perform this action'\n        );\n        _;\n    }\n    modifier onlySupplier() {\n        require(\n            users[msg.sender].role == SUPPLIER,\n            'Access denied: Only Supplier can add products'\n        );\n        _;\n    }\n\n    modifier onlyLogisticOrAbove() {\n        require(\n            users[msg.sender].role >= LOGISTIC_EMPLOYEE,\n            'Access denied: Only Logistic Employee or above can perform this action'\n        );\n        _;\n    }\n\n    modifier onlyInspector() {\n        require(\n            users[msg.sender].role >= INSPECTOR,\n            'Access denied: Only Inspector or above can perform this action'\n        );\n        _;\n    }\n}\n",
  "sourcePath": "/Users/tonytziorvas/Documents/Code/College/Supply-Chain/contracts/UserManagement.sol",
  "compiler": {
    "name": "solc",
    "version": "0.8.21+commit.d9974bed.Emscripten.clang"
  },
  "schemaVersion": "3.4.16",
  "updatedAt": "2024-06-20T20:19:40.350Z",
  "devdoc": {
    "kind": "dev",
    "methods": {},
    "version": 1
  },
  "userdoc": {
    "kind": "user",
    "methods": {},
    "version": 1
  }
}