{
  "contractName": "UserManagement",
  "abi": [
    {
      "inputs": [
        {
          "internalType": "string",
          "name": "adminName",
          "type": "string"
        }
      ],
      "stateMutability": "nonpayable",
      "type": "constructor"
    },
    {
      "anonymous": false,
      "inputs": [
        {
          "indexed": true,
          "internalType": "address",
          "name": "userAddress",
          "type": "address"
        },
        {
          "indexed": false,
          "internalType": "uint256",
          "name": "id",
          "type": "uint256"
        },
        {
          "indexed": false,
          "internalType": "string",
          "name": "name",
          "type": "string"
        },
        {
          "indexed": false,
          "internalType": "uint256",
          "name": "role",
          "type": "uint256"
        }
      ],
      "name": "UserAdded",
      "type": "event"
    },
    {
      "anonymous": false,
      "inputs": [
        {
          "indexed": true,
          "internalType": "address",
          "name": "userAddress",
          "type": "address"
        }
      ],
      "name": "UserRemoved",
      "type": "event"
    },
    {
      "inputs": [
        {
          "internalType": "uint256",
          "name": "",
          "type": "uint256"
        }
      ],
      "name": "userAddresses",
      "outputs": [
        {
          "internalType": "address",
          "name": "",
          "type": "address"
        }
      ],
      "stateMutability": "view",
      "type": "function",
      "constant": true
    },
    {
      "inputs": [],
      "name": "userCount",
      "outputs": [
        {
          "internalType": "uint256",
          "name": "",
          "type": "uint256"
        }
      ],
      "stateMutability": "view",
      "type": "function",
      "constant": true
    },
    {
      "inputs": [
        {
          "internalType": "address",
          "name": "",
          "type": "address"
        }
      ],
      "name": "users",
      "outputs": [
        {
          "internalType": "uint256",
          "name": "id",
          "type": "uint256"
        },
        {
          "internalType": "string",
          "name": "name",
          "type": "string"
        },
        {
          "internalType": "uint256",
          "name": "role",
          "type": "uint256"
        }
      ],
      "stateMutability": "view",
      "type": "function",
      "constant": true
    },
    {
      "inputs": [
        {
          "internalType": "address",
          "name": "_userAddress",
          "type": "address"
        },
        {
          "internalType": "string",
          "name": "_name",
          "type": "string"
        },
        {
          "internalType": "uint256",
          "name": "_role",
          "type": "uint256"
        }
      ],
      "name": "addUser",
      "outputs": [],
      "stateMutability": "nonpayable",
      "type": "function"
    },
    {
      "inputs": [
        {
          "internalType": "address",
          "name": "_userAddress",
          "type": "address"
        }
      ],
      "name": "removeUser",
      "outputs": [],
      "stateMutability": "nonpayable",
      "type": "function"
    },
    {
      "inputs": [],
      "name": "getAllUsers",
      "outputs": [
        {
          "components": [
            {
              "internalType": "uint256",
              "name": "id",
              "type": "uint256"
            },
            {
              "internalType": "string",
              "name": "name",
              "type": "string"
            },
            {
              "internalType": "uint256",
              "name": "role",
              "type": "uint256"
            }
          ],
          "internalType": "struct UserManagement.User[]",
          "name": "",
          "type": "tuple[]"
        }
      ],
      "stateMutability": "view",
      "type": "function",
      "constant": true
    },
    {
      "inputs": [
        {
          "internalType": "address",
          "name": "_userAddress",
          "type": "address"
        }
      ],
      "name": "getUserRole",
      "outputs": [
        {
          "internalType": "uint256",
          "name": "",
          "type": "uint256"
        }
      ],
      "stateMutability": "view",
      "type": "function",
      "constant": true
    },
    {
      "inputs": [],
      "name": "getUserCount",
      "outputs": [
        {
          "internalType": "uint256",
          "name": "",
          "type": "uint256"
        }
      ],
      "stateMutability": "view",
      "type": "function",
      "constant": true
    }
  ],
  "bytecode": "0x60806040525f60025534801562000014575f80fd5b5060405162001de738038062001de783398181016040528101906200003a91906200031d565b60025f8154809291906200004e90620003a2565b91905055506040518060600160405280600254815260200182815260200160048152505f803373ffffffffffffffffffffffffffffffffffffffff1673ffffffffffffffffffffffffffffffffffffffff1681526020019081526020015f205f820151815f01556020820151816001019081620000cc91906200061c565b5060408201518160020155905050600133908060018154018082558091505060019003905f5260205f20015f9091909190916101000a81548173ffffffffffffffffffffffffffffffffffffffff021916908373ffffffffffffffffffffffffffffffffffffffff1602179055503373ffffffffffffffffffffffffffffffffffffffff167fcb0de2d684e4a978080f3f45ebeda1a67227ad244a748343bbd6aa251a1c50c1600254836004604051620001899392919062000761565b60405180910390a250620007a3565b5f604051905090565b5f80fd5b5f80fd5b5f80fd5b5f80fd5b5f601f19601f8301169050919050565b7f4e487b71000000000000000000000000000000000000000000000000000000005f52604160045260245ffd5b620001f982620001b1565b810181811067ffffffffffffffff821117156200021b576200021a620001c1565b5b80604052505050565b5f6200022f62000198565b90506200023d8282620001ee565b919050565b5f67ffffffffffffffff8211156200025f576200025e620001c1565b5b6200026a82620001b1565b9050602081019050919050565b5f5b838110156200029657808201518184015260208101905062000279565b5f8484015250505050565b5f620002b7620002b18462000242565b62000224565b905082815260208101848484011115620002d657620002d5620001ad565b5b620002e384828562000277565b509392505050565b5f82601f830112620003025762000301620001a9565b5b815162000314848260208601620002a1565b91505092915050565b5f60208284031215620003355762000334620001a1565b5b5f82015167ffffffffffffffff811115620003555762000354620001a5565b5b6200036384828501620002eb565b91505092915050565b7f4e487b71000000000000000000000000000000000000000000000000000000005f52601160045260245ffd5b5f819050919050565b5f620003ae8262000399565b91507fffffffffffffffffffffffffffffffffffffffffffffffffffffffffffffffff8203620003e357620003e26200036c565b5b600182019050919050565b5f81519050919050565b7f4e487b71000000000000000000000000000000000000000000000000000000005f52602260045260245ffd5b5f60028204905060018216806200043d57607f821691505b602082108103620004535762000452620003f8565b5b50919050565b5f819050815f5260205f209050919050565b5f6020601f8301049050919050565b5f82821b905092915050565b5f60088302620004b77fffffffffffffffffffffffffffffffffffffffffffffffffffffffffffffffff826200047a565b620004c386836200047a565b95508019841693508086168417925050509392505050565b5f819050919050565b5f62000504620004fe620004f88462000399565b620004db565b62000399565b9050919050565b5f819050919050565b6200051f83620004e4565b620005376200052e826200050b565b84845462000486565b825550505050565b5f90565b6200054d6200053f565b6200055a81848462000514565b505050565b5b818110156200058157620005755f8262000543565b60018101905062000560565b5050565b601f821115620005d0576200059a8162000459565b620005a5846200046b565b81016020851015620005b5578190505b620005cd620005c4856200046b565b8301826200055f565b50505b505050565b5f82821c905092915050565b5f620005f25f1984600802620005d5565b1980831691505092915050565b5f6200060c8383620005e1565b9150826002028217905092915050565b6200062782620003ee565b67ffffffffffffffff811115620006435762000642620001c1565b5b6200064f825462000425565b6200065c82828562000585565b5f60209050601f83116001811462000692575f84156200067d578287015190505b620006898582620005ff565b865550620006f8565b601f198416620006a28662000459565b5f5b82811015620006cb57848901518255600182019150602085019450602081019050620006a4565b86831015620006eb5784890151620006e7601f891682620005e1565b8355505b6001600288020188555050505b505050505050565b6200070b8162000399565b82525050565b5f82825260208201905092915050565b5f6200072d82620003ee565b62000739818562000711565b93506200074b81856020860162000277565b6200075681620001b1565b840191505092915050565b5f606082019050620007765f83018662000700565b81810360208301526200078a818562000721565b90506200079b604083018462000700565b949350505050565b61163680620007b15f395ff3fe608060405234801561000f575f80fd5b5060043610610086575f3560e01c8063a87430ba11610059578063a87430ba14610124578063b5cb15f714610156578063e2842d7914610174578063f0384fb61461019257610086565b806307973ccf1461008a57806327820851146100a8578063502c9bd5146100d85780639857518814610108575b5f80fd5b6100926101ae565b60405161009f9190610b41565b60405180910390f35b6100c260048036038101906100bd9190610bc5565b6101b4565b6040516100cf9190610b41565b60405180910390f35b6100f260048036038101906100ed9190610c1a565b6101fc565b6040516100ff9190610c54565b60405180910390f35b610122600480360381019061011d9190610bc5565b610237565b005b61013e60048036038101906101399190610bc5565b610559565b60405161014d93929190610cf7565b60405180910390f35b61015e610604565b60405161016b9190610b41565b60405180910390f35b61017c610690565b6040516101899190610e92565b60405180910390f35b6101ac60048036038101906101a79190610fde565b61085b565b005b60025481565b5f805f8373ffffffffffffffffffffffffffffffffffffffff1673ffffffffffffffffffffffffffffffffffffffff1681526020019081526020015f20600201549050919050565b6001818154811061020b575f80fd5b905f5260205f20015f915054906101000a900473ffffffffffffffffffffffffffffffffffffffff1681565b60045f803373ffffffffffffffffffffffffffffffffffffffff1673ffffffffffffffffffffffffffffffffffffffff1681526020019081526020015f2060020154146102b9576040517f08c379a00000000000000000000000000000000000000000000000000000000081526004016102b0906110ba565b60405180910390fd5b5f805f8373ffffffffffffffffffffffffffffffffffffffff1673ffffffffffffffffffffffffffffffffffffffff1681526020019081526020015f20600201540361033a576040517f08c379a000000000000000000000000000000000000000000000000000000000815260040161033190611122565b60405180910390fd5b5f808273ffffffffffffffffffffffffffffffffffffffff1673ffffffffffffffffffffffffffffffffffffffff1681526020019081526020015f205f8082015f9055600182015f61038c9190610ab2565b600282015f905550505f5b600180549050811015610512578173ffffffffffffffffffffffffffffffffffffffff16600182815481106103cf576103ce611140565b5b905f5260205f20015f9054906101000a900473ffffffffffffffffffffffffffffffffffffffff1673ffffffffffffffffffffffffffffffffffffffff16036104ff576001808080549050610424919061119a565b8154811061043557610434611140565b5b905f5260205f20015f9054906101000a900473ffffffffffffffffffffffffffffffffffffffff166001828154811061047157610470611140565b5b905f5260205f20015f6101000a81548173ffffffffffffffffffffffffffffffffffffffff021916908373ffffffffffffffffffffffffffffffffffffffff16021790555060018054806104c8576104c76111cd565b5b600190038181905f5260205f20015f6101000a81549073ffffffffffffffffffffffffffffffffffffffff02191690559055610512565b808061050a906111fa565b915050610397565b508073ffffffffffffffffffffffffffffffffffffffff167fe9dce8c992623ce791725b21e857e33248d1f190a25b5168313420eebdaae99d60405160405180910390a250565b5f602052805f5260405f205f91509050805f01549080600101805461057d9061126e565b80601f01602080910402602001604051908101604052809291908181526020018280546105a99061126e565b80156105f45780601f106105cb576101008083540402835291602001916105f4565b820191905f5260205f20905b8154815290600101906020018083116105d757829003601f168201915b5050505050908060020154905083565b5f60035f803373ffffffffffffffffffffffffffffffffffffffff1673ffffffffffffffffffffffffffffffffffffffff1681526020019081526020015f20600201541015610688576040517f08c379a000000000000000000000000000000000000000000000000000000000815260040161067f9061130e565b60405180910390fd5b600254905090565b60605f60018054905067ffffffffffffffff8111156106b2576106b1610eba565b5b6040519080825280602002602001820160405280156106eb57816020015b6106d8610aef565b8152602001906001900390816106d05790505b5090505f5b600180549050811015610853575f806001838154811061071357610712611140565b5b905f5260205f20015f9054906101000a900473ffffffffffffffffffffffffffffffffffffffff1673ffffffffffffffffffffffffffffffffffffffff1673ffffffffffffffffffffffffffffffffffffffff1681526020019081526020015f206040518060600160405290815f82015481526020016001820180546107989061126e565b80601f01602080910402602001604051908101604052809291908181526020018280546107c49061126e565b801561080f5780601f106107e65761010080835404028352916020019161080f565b820191905f5260205f20905b8154815290600101906020018083116107f257829003601f168201915b5050505050815260200160028201548152505082828151811061083557610834611140565b5b6020026020010181905250808061084b906111fa565b9150506106f0565b508091505090565b60045f803373ffffffffffffffffffffffffffffffffffffffff1673ffffffffffffffffffffffffffffffffffffffff1681526020019081526020015f2060020154146108dd576040517f08c379a00000000000000000000000000000000000000000000000000000000081526004016108d4906110ba565b60405180910390fd5b5f805f8573ffffffffffffffffffffffffffffffffffffffff1673ffffffffffffffffffffffffffffffffffffffff1681526020019081526020015f20600201541461095e576040517f08c379a000000000000000000000000000000000000000000000000000000000815260040161095590611376565b60405180910390fd5b60025f815480929190610970906111fa565b919050555060405180606001604052806002548152602001838152602001828152505f808573ffffffffffffffffffffffffffffffffffffffff1673ffffffffffffffffffffffffffffffffffffffff1681526020019081526020015f205f820151815f015560208201518160010190816109eb9190611531565b5060408201518160020155905050600183908060018154018082558091505060019003905f5260205f20015f9091909190916101000a81548173ffffffffffffffffffffffffffffffffffffffff021916908373ffffffffffffffffffffffffffffffffffffffff1602179055508273ffffffffffffffffffffffffffffffffffffffff167fcb0de2d684e4a978080f3f45ebeda1a67227ad244a748343bbd6aa251a1c50c16002548484604051610aa593929190610cf7565b60405180910390a2505050565b508054610abe9061126e565b5f825580601f10610acf5750610aec565b601f0160209004905f5260205f2090810190610aeb9190610b0e565b5b50565b60405180606001604052805f8152602001606081526020015f81525090565b5b80821115610b25575f815f905550600101610b0f565b5090565b5f819050919050565b610b3b81610b29565b82525050565b5f602082019050610b545f830184610b32565b92915050565b5f604051905090565b5f80fd5b5f80fd5b5f73ffffffffffffffffffffffffffffffffffffffff82169050919050565b5f610b9482610b6b565b9050919050565b610ba481610b8a565b8114610bae575f80fd5b50565b5f81359050610bbf81610b9b565b92915050565b5f60208284031215610bda57610bd9610b63565b5b5f610be784828501610bb1565b91505092915050565b610bf981610b29565b8114610c03575f80fd5b50565b5f81359050610c1481610bf0565b92915050565b5f60208284031215610c2f57610c2e610b63565b5b5f610c3c84828501610c06565b91505092915050565b610c4e81610b8a565b82525050565b5f602082019050610c675f830184610c45565b92915050565b5f81519050919050565b5f82825260208201905092915050565b5f5b83811015610ca4578082015181840152602081019050610c89565b5f8484015250505050565b5f601f19601f8301169050919050565b5f610cc982610c6d565b610cd38185610c77565b9350610ce3818560208601610c87565b610cec81610caf565b840191505092915050565b5f606082019050610d0a5f830186610b32565b8181036020830152610d1c8185610cbf565b9050610d2b6040830184610b32565b949350505050565b5f81519050919050565b5f82825260208201905092915050565b5f819050602082019050919050565b610d6581610b29565b82525050565b5f82825260208201905092915050565b5f610d8582610c6d565b610d8f8185610d6b565b9350610d9f818560208601610c87565b610da881610caf565b840191505092915050565b5f606083015f830151610dc85f860182610d5c565b5060208301518482036020860152610de08282610d7b565b9150506040830151610df56040860182610d5c565b508091505092915050565b5f610e0b8383610db3565b905092915050565b5f602082019050919050565b5f610e2982610d33565b610e338185610d3d565b935083602082028501610e4585610d4d565b805f5b85811015610e805784840389528151610e618582610e00565b9450610e6c83610e13565b925060208a01995050600181019050610e48565b50829750879550505050505092915050565b5f6020820190508181035f830152610eaa8184610e1f565b905092915050565b5f80fd5b5f80fd5b7f4e487b71000000000000000000000000000000000000000000000000000000005f52604160045260245ffd5b610ef082610caf565b810181811067ffffffffffffffff82111715610f0f57610f0e610eba565b5b80604052505050565b5f610f21610b5a565b9050610f2d8282610ee7565b919050565b5f67ffffffffffffffff821115610f4c57610f4b610eba565b5b610f5582610caf565b9050602081019050919050565b828183375f83830152505050565b5f610f82610f7d84610f32565b610f18565b905082815260208101848484011115610f9e57610f9d610eb6565b5b610fa9848285610f62565b509392505050565b5f82601f830112610fc557610fc4610eb2565b5b8135610fd5848260208601610f70565b91505092915050565b5f805f60608486031215610ff557610ff4610b63565b5b5f61100286828701610bb1565b935050602084013567ffffffffffffffff81111561102357611022610b67565b5b61102f86828701610fb1565b925050604061104086828701610c06565b9150509250925092565b7f4f6e6c792061646d696e2063616e20706572666f726d207468697320616374695f8201527f6f6e000000000000000000000000000000000000000000000000000000000000602082015250565b5f6110a4602283610c77565b91506110af8261104a565b604082019050919050565b5f6020820190508181035f8301526110d181611098565b9050919050565b7f5573657220646f6573206e6f74206578697374000000000000000000000000005f82015250565b5f61110c601383610c77565b9150611117826110d8565b602082019050919050565b5f6020820190508181035f83015261113981611100565b9050919050565b7f4e487b71000000000000000000000000000000000000000000000000000000005f52603260045260245ffd5b7f4e487b71000000000000000000000000000000000000000000000000000000005f52601160045260245ffd5b5f6111a482610b29565b91506111af83610b29565b92508282039050818111156111c7576111c661116d565b5b92915050565b7f4e487b71000000000000000000000000000000000000000000000000000000005f52603160045260245ffd5b5f61120482610b29565b91507fffffffffffffffffffffffffffffffffffffffffffffffffffffffffffffffff82036112365761123561116d565b5b600182019050919050565b7f4e487b71000000000000000000000000000000000000000000000000000000005f52602260045260245ffd5b5f600282049050600182168061128557607f821691505b60208210810361129857611297611241565b5b50919050565b7f416363657373207265737472696374656420746f20496e73706563746f7273205f8201527f616e642061626f76650000000000000000000000000000000000000000000000602082015250565b5f6112f8602983610c77565b91506113038261129e565b604082019050919050565b5f6020820190508181035f830152611325816112ec565b9050919050565b7f5573657220616c726561647920657869737473000000000000000000000000005f82015250565b5f611360601383610c77565b915061136b8261132c565b602082019050919050565b5f6020820190508181035f83015261138d81611354565b9050919050565b5f819050815f5260205f209050919050565b5f6020601f8301049050919050565b5f82821b905092915050565b5f600883026113f07fffffffffffffffffffffffffffffffffffffffffffffffffffffffffffffffff826113b5565b6113fa86836113b5565b95508019841693508086168417925050509392505050565b5f819050919050565b5f61143561143061142b84610b29565b611412565b610b29565b9050919050565b5f819050919050565b61144e8361141b565b61146261145a8261143c565b8484546113c1565b825550505050565b5f90565b61147661146a565b611481818484611445565b505050565b5b818110156114a4576114995f8261146e565b600181019050611487565b5050565b601f8211156114e9576114ba81611394565b6114c3846113a6565b810160208510156114d2578190505b6114e66114de856113a6565b830182611486565b50505b505050565b5f82821c905092915050565b5f6115095f19846008026114ee565b1980831691505092915050565b5f61152183836114fa565b9150826002028217905092915050565b61153a82610c6d565b67ffffffffffffffff81111561155357611552610eba565b5b61155d825461126e565b6115688282856114a8565b5f60209050601f831160018114611599575f8415611587578287015190505b6115918582611516565b8655506115f8565b601f1984166115a786611394565b5f5b828110156115ce578489015182556001820191506020850194506020810190506115a9565b868310156115eb57848901516115e7601f8916826114fa565b8355505b6001600288020188555050505b50505050505056fea26469706673582212208256374989dba5024d8951f8e6fad0e093e706210c6c8b2846d11c6184987bd364736f6c63430008150033",
  "immutableReferences": {},
  "source": "// SPDX-License-Identifier: MIT\npragma solidity ^0.8.0;\n\ncontract UserManagement {\n    uint constant NONE = 0;\n    uint constant SUPPLIER = 1;\n    uint constant LOGISTIC = 2;\n    uint constant INSPECTOR = 3;\n    uint constant ADMIN = 4;\n\n    struct User {\n        uint id; // Unique identifier for the user\n        string name; // User's name\n        uint role; // User's role\n    }\n\n    mapping(address => User) public users; // Mapping from address to User\n    address[] public userAddresses; // Array to store user addresses\n    uint256 public userCount = 0; // Count of users\n    \n\n    // Events for user management\n    event UserAdded(address indexed userAddress, uint id, string name, uint role);\n    event UserRemoved(address indexed userAddress);\n\n    // Constructor to initialize the contract with an admin user\n    constructor(string memory adminName) {\n        userCount++;\n        users[msg.sender] = User(userCount, adminName, ADMIN);\n        userAddresses.push(msg.sender);\n        emit UserAdded(msg.sender, userCount, adminName, ADMIN);\n    }\n\n    function addUser(\n        address _userAddress,\n        string memory _name,\n        uint _role\n    ) public onlyAdmin {\n        require(users[_userAddress].role == NONE, 'User already exists');\n        userCount++;\n        users[_userAddress] = User(userCount, _name, _role);\n        userAddresses.push(_userAddress);\n        emit UserAdded(_userAddress, userCount, _name, _role);\n    }\n\n    function removeUser(address _userAddress) public onlyAdmin {\n        require(users[_userAddress].role != NONE, 'User does not exist');\n        delete users[_userAddress];\n\n        // Remove user address from the array\n        for (uint i = 0; i < userAddresses.length; i++) {\n            if (userAddresses[i] == _userAddress) {\n                userAddresses[i] = userAddresses[userAddresses.length - 1];\n                userAddresses.pop();\n                break;\n            }\n        }\n        emit UserRemoved(_userAddress);\n    }\n\n    function getAllUsers() public view returns (User[] memory) {\n        User[] memory allUsers = new User[](userAddresses.length);\n        for (uint i = 0; i < userAddresses.length; i++) {\n            allUsers[i] = users[userAddresses[i]];\n        }\n        return allUsers;\n    }\n\n    function getUserRole(address _userAddress) public view returns (uint) {\n        return users[_userAddress].role;\n    }\n\n    function getUserCount() public view returns (uint256) {\n        require(\n            users[msg.sender].role >= INSPECTOR,\n            'Access restricted to Inspectors and above'\n        );\n        return userCount;\n    }\n\n    // MODIFIERS\n    modifier onlyAdmin() {\n        require(users[msg.sender].role == ADMIN, 'Only admin can perform this action');\n        _;\n    }\n\n    modifier onlySupplier() {\n        require(\n            users[msg.sender].role == SUPPLIER,\n            'Only suppliers can perform this action'\n        );\n        _;\n    }\n\n    modifier onlyLogistic() {\n        require(\n            users[msg.sender].role >= LOGISTIC,\n            'Access restricted to Logistic employees'\n        );\n        _;\n    }\n\n    modifier onlyInspector() {\n        require(users[msg.sender].role == INSPECTOR, 'Access restricted to Inspectors');\n        _;\n    }\n}\n",
  "sourcePath": "/Users/tonytziorvas/Documents/Code/College/Supply-Chain/contracts/UserManagement.sol",
  "compiler": {
    "name": "solc",
    "version": "0.8.21+commit.d9974bed.Emscripten.clang"
  },
  "schemaVersion": "3.4.16",
  "updatedAt": "2024-06-24T21:38:57.619Z",
  "networkType": "ethereum",
  "devdoc": {
    "kind": "dev",
    "methods": {},
    "version": 1
  },
  "userdoc": {
    "kind": "user",
    "methods": {},
    "version": 1
  }
}